:100000000C94400E0C94800E0C94800E0C94800E78
:100010000C94800E0C94800E0C94800E0C94800E28
:100020000C94800E0C94800E0C94800E0C94800E18
:100030000C94800E0C94800E0C94800E0C94800E08
:100040000C94800E0C94E8730C94800E0C94800E2B
:100050000C94800E0C94800E0C94096A0C948B689E
:100060000C94800E0C9432740C9428740C94800EB2
:100070000C94800E0C94800E0C94800E0C94800EC8
:100080000C94800E0C94800E0C94800E0C94800EB8
:100090000C94800E0C94800E0C94800E0C94800EA8
:1000A0000C94800E0C94800E0C94800E0C94800E98
:1000B0000C94800E0C94800E0C94800E0C94800E88
:1000C0000C94800E0C94800E0C94800E0C94800E78
:1000D0000C94800E0C94800E0C94800E0C94800E68
:1000E0000C94800E084AD73B3BCE016E84BCBFFD0A
:1000F000C12F3D6C74319ABD56833DDA3D00C77FF8
:1001000011BED9E4BB4C3E916BAAAABE0000008090
:100110003F05A84CCDB2D44EB93836A9020C50B91F
:10012000918688083CA6AAAA2ABE000000803F004B
:100130004E414E494E495459494E46CDCCCC3D0ACC
:10014000D7233C17B7D13877CC2B329595E6241FAF
:10015000B14F0A000020410000C84200401C462068
:10016000BCBE4CCA1B0E5AAEC59D74434F4D4D5577
:100170004E49434154494F4E0044525952554E0046
:100180004552524F525300494E464F004543484F47
:10019000006563686F3A004572726F723A002044DE
:1001A0000020204D323030205300202844697361F4
:1001B000626C6564293A0046696C616D656E7420F5
:1001C00073657474696E67730020204D323031207E
:1001D00058004D617820416363656C657261746994
:1001E0006F6E2028756E6974732F7332290020207A
:1001F0004D3230332058004D617820666565647259
:10020000617465732028756E6974732F73290020DB
:10021000520020204D323034205000416363656C21
:1002200065726174696F6E2028756E6974732F73BF
:1002300032292028503C7072696E742D61636365A9
:100240006C3E20523C726574726163742D6163630D
:10025000656C3E20543C74726176656C2D616363FD
:10026000656C3E2900204A002054002053002020C5
:100270004D323035204200416476616E6365642002
:1002800028423C6D696E5F7365676D656E745F745F
:10029000696D655F75733E20533C6D696E5F666581
:1002A0006564726174653E20543C6D696E5F747262
:1002B0006176656C5F66656564726174653E204A4F
:1002C0003C6A756E635F6465763E290020440020B9
:1002D000490020204D333031205000486F74656E46
:1002E00064205049440020440020490020204D3320
:1002F0003034205000426564205049440020496E4B
:1003000076616C696420657874727564657220002A
:1003100020204D323036205800486F6D65206F66C2
:1003200066736574004361703A0020573A002057A5
:100330003A00486F6D696E67204661696C656400BC
:100340006F70656E00545249474745524544003A24
:1003500020007A5F6D696E00795F6D696E00785F6D
:100360006D696E005265706F7274696E6720656E9C
:100370006473746F70207374617475730A005761CD
:10038000726E696E673A20486F6D696E67204275BC
:100390006D702044697669736F72203C20310A00C9
:1003A0000202040000A0400000A040000000400045
:1003B00000000100000001000080005555550000BC
:1003C00000400033333300AAAA2A004992240000D7
:1003D000002000C7711C0099991900D145170055DC
:1003E0005515003BB11300244912001111110000F2
:1003F0000010000F0F0F00E3380E0043790D00CC02
:10040000CC0C00C3300C00E8A20B0064210B00AA46
:10041000AA0A00703D0A009DD80900427B0900929B
:10042000240900DCD3080088880800104208000076
:10043000000800F0C10700878707007550070071AA
:100440001C07003EEB0600A1BC0600699006006692
:10045000660600703E06006118060017F405007479
:10046000D105005BB00500B2900500627205005531
:1004700055050078390500B81E0500050505004E34
:10048000EC040087D40400A1BD040090A704004937
:10049000920400C17D0400EE690400C756040044C4
:1004A0004404005C320400082104004110040000F0
:1004B0000004003FF00300F8E0030026D20300C36D
:1004C000C30300CCB503003AA803000A9B0300381D
:1004D0008E0300C08103009F750300D069030050A4
:1004E0005E03001D53030034480300913D030033B5
:1004F00033030016290300381F030097150300304B
:100500000C0300030303000BFA020049F10200BAD6
:10051000E802005CE002002DD802002DD002005954
:10052000C80200B0C0020031B90200DAB10200AA6C
:10053000AA0200A0A30200BC9C0200FA9502005C83
:100540008F0200DF88020082820200457C020027C1
:1005500076020027700200436A02007C640200D029
:100560005E02003F590200C8530200FFFDFCFAF88A
:10057000F6F4F2F0EEECEAE9E7E5E3E1E0DEDCDAFE
:10058000D9D7D5D4D2D0CFCDCBCAC8C7C5C3C2C0A6
:10059000BFBDBCBAB9B7B6B4B3B2B0AFADACAAA91F
:1005A000A8A6A5A4A2A1A09E9D9C9A99989795946F
:1005B0009392908F8E8D8B8A89888786848382819F
:1005C000807F7E7D7B7A79787776757473727170AF
:1005D0006F6E6D6C6B6A69686766656463626160A3
:1005E0005F5E5D5C5B5A595858575655545352518B
:1005F00050504F4E4D4C4B4A4A4948474646454459
:1006000043424241403F3E3E3D3C3B3B3A39383815
:1006100037363535343332323130302F2E2E2D2CC3
:100620002B2B2A2929282727262525242323222165
:100630002120201F1E1E1D1C1C1B1B1A19191818F7
:10064000171616151514131312121111100F0F0E81
:100650000E0D0D0C0C0B0A0A0909080807070606FF
:10066000050504040303020201000000005C4300CE
:1006700000664300007A43000000C00000A0C000F4
:10068000000000290A002062797465733B206372C0
:1006900063200053657474696E67732053746F72BE
:1006A0006564202800454550524F4D20496E6974BD
:1006B00069616C697A65640A0048617264636F6499
:1006C00065642044656661756C7420536574746953
:1006D0006E6773204C6F616465640A0020286D6D3D
:1006E000290020204D3134392043203B20556E69AC
:1006F000747320696E2043656C736975730A0054C6
:10070000656D706572617475726520556E6974737C
:10071000002020473231203B004C696E6561722019
:10072000556E69747300454550524F4D2064617495
:100730006173697A65206572726F722E0A00290AE8
:10074000002062797465733B20637263200020731C
:10075000746F7265642073657474696E6773207258
:100760006574726965766564202800202863616C71
:1007700063756C6174656429210A0020213D2000A5
:10078000454550524F4D20435243206D69736D6172
:10079000746368202D202873746F726564292000AB
:1007A0002053697A653A2000496E6465783A2000E2
:1007B000000096430000964300004842000020429B
:1007C0000000A0420000A0420000C8430080DE43B9
:1007D000D0070000D00700006400000010270000D0
:1007E000204D61726C696E3D563836290A004545C8
:1007F00050524F4D2076657273696F6E206D69732C
:100800006D617463682028454550524F4D3D00246A
:10081000F4D43050C38E20C2A24017828B701112C4
:100820007A910D816CD90AA861E108C75866076101
:100830005143061E4B5D05C145A7041A4111040929
:100840003D9803713931034036DB0265339102D4A0
:10085000305402802E1D02632CEE01752AC501B0B2
:1008600028A001102781018F2564012B244B01E072
:10087000223401AC211F018D200D01801FFC00845A
:100880001EED00971DDF00B81CD200E61BC600203D
:100890001BBC00641AB200B219A8000A19A0006AB1
:1008A000189900D117910040178B00B516840031BC
:1008B000167E00B31579003A157300C7146F0058FF
:1008C000146A00EE1366008813630025135E00C7E8
:1008D000125B006C12570015125400C111510070C8
:1008E000114F0021114B00D61049008D10470046D2
:1008F00010440002104200C00F4000800F3E004232
:100900000F3C00060F3B00CB0E3800930E37005C07
:100910000E3500270E3400F30D3200C10D3100906A
:100920000D3000600D2E00320D2D00050D2C00D96C
:100930000C2B00AE0C2900850C29005C0C2700351F
:100940000C27000E0C2600E80B2400C40B2400A08A
:100950000B23007D0B23005A0B2100390B210018BB
:100960000B2000F80A1F00D90A1E00BB0A1E009DBA
:100970000A1D00800A1D00630A1C00470A1B002C88
:100980000A1B00110A1A00F7091A00DD091900C430
:10099000091900AB091900920917007B09180063B7
:1009A0000917004C09160036091600200916000A1E
:1009B000091500F5081500E0081400CC081400B86B
:1009C000081400A4081400900813007D0812006B9E
:1009D00008130058081200460812003408110023BA
:1009E0000811001208110001081100F0071000E0C2
:1009F000071000D0071000C0071000B0070F00A1BB
:100A000007100091070E0083070F0074070F0065A1
:100A1000070E0057070E0049070E003B070D002E7A
:100A2000070E0020070D0013070D0006070D00F943
:100A3000060C00ED060D00E0060C00D4060C00C804
:100A4000060C00BC060C00B0060C00A4060B0099B6
:100A5000060C008D060B0082060B0077060B006C5F
:100A6000060B0061060A0057060B004C060A0042FE
:100A7000060A0038060A002E060A0024060A001A92
:100A8000060A001006090007060A00FD050900F421
:100A9000050900EB050900E2050900D9050900D0A8
:100AA000050900C7050900BE050900B5050800AD28
:100AB000050800A50509009C050800940508008CA0
:100AC000050800840508007C050800740508006C12
:100AD000050700650508005D050700560508004E7E
:100AE00005070047050700400508003805070031E5
:100AF0000507002A050700230507001C0506001648
:100B00000507000F0507000805060002050700FBA2
:100B1000040600F5040700EE040600E8040600E2FF
:100B2000040700DB040600D5040600CF040600C954
:100B3000040600C3040600BD040600B7040600B1A5
:100B4000040500AC040600A6040600A00405009BF2
:100B500004060095040500900406008A040500853B
:100B6000040500800406007A040500750405007081
:100B70000405006B04050066040500610405005CC3
:100B800004050057040500520405004D0405004803
:100B9000040500430405003E0404003A0405003542
:100BA000040500300404002C04050027040400237D
:100BB0000405001E0404001A0404001604050011B4
:100BC0000404000D040400090405000404040000EA
:100BD000040400FC030400F8030400F4030400F020
:100BE000030400EC030400E8030400E4030400E051
:100BF000030400DC030400D8030400D4030400D081
:100C0000030400CC030400C8030300C5030300244D
:100C1000F404D9201BC40C5C0E9804C4095F02655F
:100C2000077101F405F900FB04B30048048700C113
:100C30000369005803550003034500BE023A0084CF
:100C400002310053022A002902250004022000E498
:100C5000011C00C8011900AF01170098011400849D
:100C6000011300710110006101100051010E0043D9
:100C7000010D0036010B002B010B0020010B0015AC
:100C80000109000C01090003010800FB000800F342
:100C9000000800EB000700E4000600DE000600D8B4
:100CA000000600D2000600CC000500C7000500C207
:100CB000000500BD000400B9000400B5000400B147
:100CC000000400AD000400A9000400A5000300A278
:100CD0000003009F0004009B0003009800030095A0
:100CE00000020093000300900003008D0002008BBF
:100CF00000030088000200860002008400030081D7
:100D00000002007F0002007D0002007B00020079EB
:100D100000020077000100760002007400020072F9
:100D2000000100710002006F0002006D0001006C04
:100D30000002006A0001006900020067000100660D
:100D40000001006500010064000200620001006112
:100D5000000100600001005F0002005D0001005C16
:100D60000001005B0001005A000100590001005819
:100D70000001005700010056000100550001005419
:100D80000001005300000053000100520001005117
:100D9000000100500001004F0001004E0000004E15
:100DA0000001004D0001004C0001004B0000004B11
:100DB0000001004A0001004900010048000000480D
:100DC0000001004700010046000000460001004508
:100DD0000000004500010044000100430000004302
:100DE00000010042000000420001004100000041FB
:100DF000000100400001003F0000003F0001003EF4
:100E00000000003E0001003D0000003D0001003CEC
:100E10000000003C0000003C0001003B0000003BE3
:100E20000001003A0000003A0001003900000039DA
:100E300000010038000000380000003800010037D1
:100E400000000037000100360000003600000036C8
:100E500000010035000000350000003500010034BD
:100E600000000034000000340001003300000033B3
:100E700000000033000100320000003200000032A8
:100E8000000100310000003100000031000100309D
:100E900000000030000000300001002F0000002F93
:100EA0000000002F0000002F0001002E0000002E87
:100EB0000000002E0001002D0000002D0000002D7C
:100EC0000000002D0001002C0000002C0000002C70
:100ED0000000002C0001002B0000002B0000002B64
:100EE0000000002B0001002A0000002A0000002A58
:100EF0000000002A0001002900000029000000294C
:100F0000000000290000002900010028000000283E
:100F10000000002800000028000000280001002731
:100F20000000002700000027000000270000002725
:100F30000001002600000026000000260000002618
:100F4000000000260001002500000025000000250B
:100F500000000025000000250000002500010024FD
:100F600000000024000000240000002400000024F1
:100F700000010023000000230000002300000023E4
:100F800000000023000000230000002300010022D5
:100F900000000022000000220000002200000022C9
:100FA00000000022000100210000002100000021BB
:100FB00000000021000000210000002100000021AD
:100FC00000010020000000200000002000000020A0
:100FD0000000002000000020000000200000002091
:100FE0000001001F0000001F0000001F0000001F84
:100FF0000000001F0000001F0000001F0001001E75
:101000000000001E0000001E0000001E000000394D
:101010003000003325000087190000B00F0000DB0E
:10102000080000BD040000740200003F0100002021
:10103000436F756E7420583A000045006265640085
:101040002C2073797374656D2073746F7070656490
:1010500021204865617465725F49443A20004572F9
:10106000723A204D415854454D50004D4158544519
:101070004D502074726967676572656400457272CD
:101080003A204D494E54454D50004D494E54454D22
:10109000502074726967676572656400202F0020B4
:1010A00042403A0020403A0070012C019001270193
:1010B000B0012201C0011D01F0011801100213014D
:1010C00030020E016002090190020401C002FF001B
:1010D0000003FA004003F5008003F000D003EB00AA
:1010E0002004E6007004E100E004DC004005D700C5
:1010F000C005D2004006CD00D006C8008007C3005E
:101100003008BE00F008B900C009B400B00AAF0052
:10111000B00BAA00D00CA500000EA000500F9B0041
:10112000C01096005012910000148C00C01587006A
:10113000B0178200B0197D00D01B7800001E73002C
:1011400040206E0090226900F024640040275F0078
:1011500090295A00E02B5500102E500020304B00F3
:1011600010324600E033410090353C001037370024
:1011700070383200A0392D00B03A2800A03B23007F
:10118000603C1E00103D1900903D1400103E0F0001
:10119000703E0A00C03E0500003F0000403FFBFFDC
:1011A000803FF6FFC03FF1FF2020506C616E6E65FE
:1011B0007242756666657242797465733A200020E2
:1011C00046726565204D656D6F72793A2000204347
:1011D0006F6D70696C65643A204A616E2032392007
:1011E000323032320A00204C6173742055706461D1
:1011F0007465643A20323032312D31322D3235204F
:101200007C20417574686F723A202874686973692C
:10121000736B65697468622C2047656E6975732904
:101220000A004D61726C696E20322E302E392E33D9
:101230000A0020536F66747761726520526573658A
:10124000740A00205761746368646F672052657385
:1012500065740A002042726F776E206F7574205299
:10126000657365740A002045787465726E616C2040
:1012700052657365740A00506F77657255700A0085
:1012800073746172740A00205A3A0020593A00209F
:10129000583A00656E6473746F7073206869743AAD
:1012A000200000002100240027002A002D0030002B
:1012B000330001010000040107010A0100002200BF
:1012C000250028002B002E00310034000201000010
:1012D000050108010B0105050505070508080808B3
:1012E000020202020A0A08080404040401010101BE
:1012F00001010101030303030303030304070707B9
:101300000C0C0C0C0C0C0C0C02020202060606065D
:10131000060606060B0B0B0B0B0B0B0B010210202A
:10132000200808102040102040800201020108041B
:1013300002010102040810204080804020100804AF
:101340000201800402018040201008040201080408
:10135000020101020408102040800102040810204C
:10136000408000000A0B02090C0D0E08070304015F
:10137000000000000000000000000000000000006D
:10138000000000000000000000000000000012113A
:10139000100000000000000000000000000000003D
:1013A00000000000000000006F6B00496E76616C69
:1013B00069642065787472756465720A00454550E9
:1013C000524F4D204F4B0A00486F6D652025732505
:1013D00073257320466972737400546F6F206661C1
:1013E000722066726F6D207265666572656E6365E8
:1013F00020706F696E740A00000000C00000A0C079
:101400000000000023646566696E6520444546411E
:10141000554C545F0000626564004B6420004B69CA
:1014200020004B702000504944204175746F747542
:101430006E652066696E69736865642120507574F5
:1014400020746865206C617374204B702C204B698C
:1014500020616E64204B6420636F6E7374616E74E0
:10146000732066726F6D2062656C6F7720696E7491
:101470006F20436F6E66696775726174696F6E2E57
:10148000680A00504944204175746F74756E652078
:101490006661696C6564212074696D656F75740A95
:1014A00000544845524D414C2052554E41574159E8
:1014B00000546865726D616C2052756E6177617958
:1014C0000048656174696E67204661696C656400F7
:1014D00048656174696E67206661696C6564005077
:1014E0004944204175746F74756E65206661696C3E
:1014F0006564212054656D70657261747572652034
:10150000746F6F20686967680A00204B643A200096
:10151000204B693A2000204B703A200020436C6138
:101520007373696320504944200A00204E6F206F76
:1015300076657273686F6F740A002054753A2000E4
:10154000204B753A2000206D61783A2000206D69AB
:101550006E3A200020643A200020626961733A20CC
:1015600000504944204175746F74756E6520737422
:101570006172740A00504944204175746F74756E2D
:1015800065206661696C6564212054656D706572C3
:10159000617475726520746F6F20686967680A00EE
:1015A000504944204175746F74756E652066616999
:1015B0006C656421204261642068656174657220F5
:1015C00069640A0064697300656E0043290A00615A
:1015D000626C656420286D696E2074656D702000F2
:1015E000436F6C64206578747275646573206172F2
:1015F00065200020466C6F773A200046523A002062
:1016000058004F4646004F4E003B200020204D61C1
:10161000783A2000200020204D696E3A2000203BBF
:10162000200020204D3231312053003F4A206F7579
:1016300074206F662072616E67652028302E30310D
:1016400020746F20302E33290A002F2F00434F4E75
:101650004649475F4558504F5254004D45415450FC
:1016600041434B00434F4F4C45525F54454D50450D
:10167000524154555245004348414D4245525F54F2
:10168000454D5045524154555245004241425953EF
:1016900054455050494E470041524353004D4F541A
:1016A000494F4E5F4D4F44455300544845524D41BC
:1016B0004C5F50524F54454354494F4E0045585487
:1016C000454E4445445F4D3230004C4F4E475F46D7
:1016D000494C454E414D45004155544F5245504FA0
:1016E00052545F53445F5354415455530053445F25
:1016F00057524954450052455045415400534443C4
:101700004152440050524F4D50545F535550504F2A
:10171000525400484F53545F414354494F4E5F4326
:101720004F4D4D414E445300454D455247454E4364
:10173000595F50415253455200434153455F4C4914
:101740004748545F4252494748544E45535300540A
:101750004F47474C455F4C494748545300534F4609
:1017600054574152455F504F574552004255494CDE
:10177000445F50455243454E54004C4556454C49F4
:101780004E475F44415441005A5F50524F4245001A
:1017900052554E4F5554004155544F4C4556454CAB
:1017A000005052494E545F4A4F420050524F4752E8
:1017B000455353004155544F5245504F52545F5476
:1017C000454D50004155544F5245504F52545F5073
:1017D0004F5300564F4C554D4554524943004545D3
:1017E00050524F4D0042494E4152595F46494C4577
:1017F0005F5452414E534645520053455249414C65
:101800005F584F4E5F584F4646004649524D57412C
:1018100052455F4E414D453A4D61726C696E2032C2
:101820002E302E392E3320284A616E203239203254
:101830003032322030303A30333A35392920534F64
:10184000555243455F434F44455F55524C3A676993
:10185000746875622E636F6D2F4D61726C696E4690
:1018600069726D776172652F4D61726C696E20507F
:10187000524F544F434F4C5F56455253494F4E3A87
:10188000312E30204D414348494E455F5459504513
:101890003A47656E69757320455854525544455210
:1018A0005F434F554E543A3120555549443A63658C
:1018B0006465326132662D343161322D343734380B
:1018C0002D396231322D6335356336326633363722
:1018D00066660A004D3131332053006F6666008C16
:1018E000018701800179016B0144454255473A0067
:1018F0006F6B002569730025696D202569730025CC
:1019000069682025696D2025697300256964202593
:1019100069682025696D202569730025697920256E
:101920006964202569682025696D20256973005048
:1019300072696E742074696D653A200000005E4320
:1019400000006B4300007A4347322F473320626127
:101950006420706172616D65746572730A00207431
:101960006F6F206C6F6E6720657874727573696F26
:101970006E2070726576656E7465640A0020636F10
:101980006C6420657874727573696F6E207072650F
:1019900076656E7465640A00FFFFFFDB0FC93F4583
:1019A000BCDA3F8FB30240FCF0274056946140FE02
:1019B0004B9B4084A5D840E0231841346A5641E847
:1019C00059974164DBD5416E271742B4B75542CED3
:1019D0001A9742C8AED542B5885A43D40684BFA6EA
:1019E0005FA7BF7443E0BF10B11AC01C2C58C0E8F9
:1019F000F697C0B849D6C04E4E17C124D355C18002
:101A00002497C1A0B5D5C1121A17C244AE55C278E9
:101A10001797C26CACD5C267885AC320746F6F2009
:101A20006C6F6E6720657874727573696F6E207065
:101A3000726576656E7465640A0020636F6C64205D
:101A4000657874727573696F6E2070726576656EF5
:101A50007465640A00220A00556E6B6E6F776E2003
:101A6000636F6D6D616E643A202200204500205A3C
:101A70000020590020204D393220580053746570E1
:101A8000732070657220756E697400627573793A9F
:101A90002070617573656420666F7220696E707561
:101AA000740A00627573793A2070617573656420F9
:101AB000666F7220757365720A00627573793A20D9
:101AC00070726F63657373696E670A002121204B22
:101AD000494C4C2063617573656420627920746F92
:101AE0006F206D75636820696E6163746976652027
:101AF00074696D65202D2063757272656E74206344
:101B00006F6D6D616E643A20004D31313220536843
:101B10007574646F776E005072696E7465722073AD
:101B2000746F707065642064756520746F206572D1
:101B3000726F72732E204669782074686520657212
:101B4000726F7220616E6420757365204D3939396A
:101B500020746F20726573746172742E202854652E
:101B60006D7065726174757265206973207265733A
:101B700065742E20536574206974206166746572E3
:101B80002072657374617274696E67290A004E6F02
:101B900020436865636B73756D2077697468206C8A
:101BA000696E65206E756D6265722C204C61737470
:101BB000204C696E653A2000636865636B73756DD0
:101BC000206D69736D617463682C204C617374209F
:101BD0004C696E653A20004C696E65204E756D62E9
:101BE0006572206973206E6F74204C617374204C91
:101BF000696E65204E756D6265722B312C204C61CB
:101C00007374204C696E653A20004D3131300053B9
:101C1000657269616C20737461747573206D69738A
:101C20006D617463680A006F6B0A00526573656EBC
:101C3000643A200020453A00205A3A0020593A00E0
:101C4000583A004572726F722077726974696E67D4
:101C500020746F20454550524F4D210A0050726943
:101C60006E7465722068616C7465642E206B696C9B
:101C70006C28292063616C6C6564210A00005C7427
:101C800011241FBECFEFD1E2DEBFCDBF00E00CBFFD
:101C900084B780936D0D14BE0FB6F894A89580910B
:101CA0006000886180936000109260000FBE12E0B7
:101CB000A0E0B2E0E2EEF6E001E00BBF02C0079068
:101CC0000D92A23DB107D9F72DE0A2EDB2E001C01F
:101CD0001D92AD36B207E1F71EE0C0E4DEE000E0A1
:101CE00006C021970109802FFE010E946180CF3339
:101CF000D10780E00807A9F70E9493740C946F83C2
:101D00000C940000FC0120818091370D9091380DDA
:101D1000922728E0AC01880F991F57FD07C021507A
:101D2000C9F79093380D8093370D0895F1E28F270E
:101D3000F0E19F27F4CF282F30E0F901EE59FC4E57
:101D40009491F901E45EFC4E44912A523D4EF90112
:101D50002491222309F435C0992311F19150923135
:101D6000F8F4E92FF0E08827E754F14F8F4F0C94F7
:101D70006180EA0EEE0ECB0EE20EE60ED00EF10EF4
:101D8000F70EFB0E010F050F090F0F0F130FD00EEB
:101D9000170F1D0F210F809180008F778093800097
:101DA000E22FF0E0EE0FFF1FE454FD4EA591B49139
:101DB0008FB7F894EC91611148C040954E234C9335
:101DC0008FBF0895809180008F7DE8CF8091800043
:101DD000877FE4CF84B58F7784BDE2CF84B58F7DD4
:101DE000FBCF8091B0008F778093B000D9CF8091E6
:101DF000B0008F7DF9CF809190008F778093900015
:101E0000CFCF809190008F7DF9CF80919000877F18
:101E1000F5CF8091A0008F778093A000C1CF8091F3
:101E2000A0008F7DF9CF8091A000877FF5CF8091B2
:101E300020018F7780932001B3CF809120018F7D87
:101E4000F9CF80912001877FF5CF4E2BB8CF582F47
:101E5000282F30E0F901E45EFC4E4491F901EA528A
:101E6000FD4E8491882399F090E0880F991FFC0122
:101E7000EE55FD4EA591B491FC01E454FD4E8591C3
:101E800094918FB7F894EC91E42BEC938FBF61158C
:101E9000710519F460E0852F4ECF6F3F710511F485
:101EA00061E0F9CFF901EE59FC4EE491E150E231E5
:101EB00008F0B0C0F0E08827EF59F04F8F4F0C9436
:101EC0006180730F780F7D0F870F910F0A109B0FA2
:101ED000A30FAB0FB50FBF0FC90FD80FE20F0A103A
:101EE000EC0FF60F001084B5806884BD67BD0895BF
:101EF00084B5806284BD68BD08958091800080684B
:101F00008093800070938900609388000895809189
:101F1000800080628093800070938B0060938A00C1
:101F200008958091800088608093800070938D0078
:101F300060938C0008958091B00080688093B00019
:101F40006093B30008958091B00080628093B000E8
:101F50006093B40008958091900080688093900011
:101F6000709399006093980008958091900080622A
:101F70008093900070939B0060939A0008958091E5
:101F8000900088608093900070939D0060939C0007
:101F900008958091A00080688093A0008091A000A7
:101FA0008F7B8093A0007093A9006093A800089590
:101FB0008091A00080628093A0007093AB0060933A
:101FC000AA0008958091A00088608093A00070937B
:101FD000AD006093AC0008958091200180688093EB
:101FE00020017093290160932801089580912001B8
:101FF00080628093200170932B0160932A010895E1
:102000008091200188608093200170932D0160935E
:102010002C010895603871050CF042CF3BCF3FB7DB
:10202000F89480911C0490911D04A0911E04B0911D
:102030001F0426B5A89B05C02F3F19F00196A11DCE
:10204000B11D3FBFBA2FA92F982F8827BC01CD0102
:10205000620F711D811D911D42E0660F771F881F61
:10206000991F4A95D1F708958F929F92AF92BF9290
:10207000CF92DF92EF92FF926B017C01D0DF4B0198
:102080005C01C114D104E104F104B1F0C8DF6819A6
:1020900079098A099B09683E73408105910588F397
:1020A00021E0C21AD108E108F10888EE880E83E029
:1020B000981EA11CB11CE5CFFF90EF90DF90CF9050
:1020C000BF90AF909F908F9008952FB7F894609134
:1020D00018047091190480911A0490911B042FBF69
:1020E00008958F929F92AF92BF92CF92DF92EF921C
:1020F000FF920F931F93CF93DF93B0E4A0E06A2F7A
:1021000070E0AB014B0F511D55954795411119C01A
:10211000EAEAF0E165917491072E000C880B990BA7
:102120000E94227CDF91CF911F910F91FF90EF9041
:10213000DF90CF90BF90AF909F908F900895B42F75
:10214000E0CFA41711F0B41303C0E6EAF1E1E2CF47
:102150009A0121503109220F331F220F331FF90139
:10216000E855FF4EE590F490F901E455FF4EC59116
:10217000D4918E159F051CF3A42FC817D9070CF412
:10218000BECFF901E655FF4E05911491F901E255D4
:10219000FF4EC590D490BC016E197F09072E000C2C
:1021A000880B990B0E94227C4B015C01B601601BDD
:1021B000710B072E000C880B990B0E94227C9B014F
:1021C000AC01C501B4010E94817C4B015C01BE01E0
:1021D0006E197F09072E000C880B990B0E94227C38
:1021E0009B01AC01C501B4010E9458816B017C01C7
:1021F000B801110F880B990B0E94227C9B01AC0146
:10220000C701B6010E947C808DCFCF93DF93C9E3D5
:10221000D0E120E030E048E452E460912405709180
:10222000250580912605909127050E94A28287FFAF
:1022300013C080E0FE01C4912091020190E002C031
:1022400095958795CA95E2F780FD0EC02071209381
:102250000001DF91CF910895FE01949181E001C0CA
:10226000880F9A95EAF7E6CF2095F0CF80919203F8
:10227000882339F06091640D7091650D8091660D31
:10228000089560E070E080E00895FC0190E1A2E82C
:10229000B3E001900D929A95E1F70895BC01209169
:1022A00073033091740340917303509174032417A6
:1022B000350731F481E02617370709F080E00895EB
:1022C0009A01F1CFEF92FF920F931F93E092DF02FA
:1022D000F092E0020093E1021093E2026093E302C5
:1022E0007093E4028093E5029FEFFF27621B730B5C
:1022F000840B30F4809570956195790B890B992743
:102300009093DE02A6E06A9F0092D202512DEE2742
:102310007A9F500DE11D8A9FE00D5093D302E09308
:10232000D402AFE06A9F0092D602512DEE277A9F29
:10233000500DE11D8A9FE00D5093D702E093D80223
:10234000AAE06A9F0092DA02512DEE277A9F500D83
:10235000E11D8A9FE00D5093DB02E093DC021F91A8
:102360000F91FF90EF9008958091D20380FF23C0DA
:1023700089988FEF80932B038091D20381FF1EC039
:102380008F988FEF80932C038091D20382FF19C026
:1023900080910B018095827080930901439A8FEFA1
:1023A00080932D038091D20383FF13C016988FEF83
:1023B00080932E030895899A81E0DCCF8F9A81E083
:1023C000E1CF80910B01827080930901439881E0F5
:1023D000E7CF169A81E0ECCF80912A03877F809324
:1023E0002A03129A81E00895129880912A03886046
:1023F00080932A03089521E030E0082E02C0220FC6
:10240000331F0A94E2F72095309590912A032923EF
:1024100020932A03813051F0823069F05F9A8091D5
:10242000D1038E7F8093D10381E008958A9A8091B1
:10243000D1038D7FF7CF80910801809581708093C3
:102440000601479A8091D1038B7FECCF80E0D3DFE8
:1024500081E0D1DF82E0CFDFBFCF813079F0823001
:1024600079F05F9821E030E001C0220F8A95EAF709
:1024700080912A03822B80932A0308958A98F2CFB1
:10248000909108019170909306014798EBCFCF93FC
:10249000DF93EC01C43081E0D80764F184E091E07F
:1024A0009093290580932805C4E0D1E0609124052C
:1024B0007091250580912605909127050E94C08185
:1024C0006E5F7F4F26976C177D07D4F47093C5031A
:1024D0006093C403FADD605E714B8F4F9F4F609332
:1024E000C6037093C7038093C8039093C903DF9119
:1024F000CF910895D0932905C09328052097B1F670
:102500001092C6031092C7031092C8031092C90319
:10251000EECFCF93DF9380912704811119C0C09132
:102520001202D0911302219720E030E040E05FE3F7
:1025300060912405709125058091260590912705CD
:102540000E947C800E94C08121E06C177D070CF006
:1025500020E0822FDF91CF9108959F92AF92BF929A
:10256000CF92DF92EF92FF920F931F93CF93DF935F
:1025700000D01F921F92CDB7DEB7EBE6F5E0002743
:10258000BB27462F572FA82FAA2341F4A52F542F3E
:10259000B85FAA2319F4A52F5527B85FA03138F4E6
:1025A0005295A295452F4F70507FA42BBC5FA0344D
:1025B00028F4550FAA1F550FAA1FBE5FA03818F4A4
:1025C000550FAA1FB395550FAA1FEA0FF01F44918C
:1025D00051E0AA27B85079F1C0F0B0FF02C0440F13
:1025E000551FB1FF04C0440F551F440F551FB2FFC4
:1025F00006C052954295142F1F70407F512BB3FF98
:102600001AC0A52F542F442716C0B195B0FF02C0A1
:1026100055954795B1FF04C05595479555954795F4
:10262000B2FF05C05295407F4295452B5F70B3FFC6
:1026300002C0452F5527DD24CC24BB24B2E0649F83
:10264000D018C108B00AB00B749FC018B108B00B05
:10265000849FB018B109659FC018B108B00B759F71
:10266000B018B109859FB0196A9FB018B1097A9F57
:10267000B0194D9DA12C99243327992722275D9DC0
:10268000A00C911C301F901F201FAD9D900C311D80
:10269000901F201F4C9DA00C911C301F901F201FCD
:1026A0005C9D900C311D901F201FAC9D300D911D25
:1026B000201F4B9D900C311D901F201F5B9D300DE6
:1026C000911D201FAB9D900D211D4B9F300D911D25
:1026D000201F5B9F900D211DAB9F200DB1E0BB24FF
:1026E000CC24DD24639FD018C108B00AB00B739FBF
:1026F000C018B108B00B839FB018B109699FC0180A
:10270000B108B00B799FB018B109899FB019629FC9
:10271000B018B109729FB019D61AC70AB80A20F0CA
:10272000B1E03B0F901F201F1124792F632F90E001
:10273000822F0F900F900F900F900F90DF91CF91FD
:102740001F910F91FF90EF90DF90CF90BF90AF90CF
:102750009F900895AF92BF92CF92DF92EF92FF9237
:102760000F931F93CF93DF93CAECD4E002EA14E0F7
:102770008AEDA82E84E0B82EC12CD12C7601C3940A
:1027800069917991899199910E94207C2889398950
:102790004A895B890E94817C0E94C581F80161930E
:1027A0007193819391938F01C616D706E806F906B7
:1027B00010F46B017C01AC16BD0611F76FEF7FEFD3
:1027C000CB01A70196010E94F67F2093B2043093BB
:1027D000B3044093B4045093B504DF91CF911F919B
:1027E0000F91FF90EF90DF90CF90BF90AF90089542
:1027F000CF92DF92EF92FF9280915704882309F4E1
:1028000057C0C0905304D0905404E0905504F09009
:10281000560420E030E0A901C701B6010E941C7CEB
:10282000882309F445C020E030E040E05FE3C701C1
:10283000B6010E94817C9B01AC010E94817C2BED42
:102840003FE049E450E40E94817C9B01AC0160E0E0
:1028500070E080E89FE30E9458816B017C01C09288
:102860004304D0924404E0924504F09246046091FF
:10287000140270911502072E000C880B990B0E9410
:10288000227C2AE037ED43E25CE30E94817CA701D1
:1028900096010E94817C6093380270933902809384
:1028A0003A0290933B02FF90EF90DF90CF90089513
:1028B000C12CD12C80E8E82E8FE3F82ED0CF809168
:1028C0004E0D90914F0D891B8F7019F490E080E0B0
:1028D000089590914B0D992351F0833030F48FEF90
:1028E000890F19F080934B0DF1CF10924B0D809111
:1028F0004F0D27E5829FC0011124875C9A4FFC0190
:10290000208120FDE3CF20914F0D2F5F2F7020936A
:102910004C0D30914F0D20914D0D321304C020917C
:102920004C0D20934D0D089590916F0081E091FD25
:1029300002C080E0089590916F009D7F90936F009A
:102940000895EFE6F0E08081826080830895CF9360
:10295000C82FEADF94E0C99F90011124F901EA58D9
:10296000FC4F2E573C4FD9014D915D916D917C915B
:10297000408351836283738391E09093750388232E
:1029800011F0CF91DECFCF910895CF92DF92EF92E9
:10299000FF92CF93DF93C82FC7DF94E0C99FE00178
:1029A0001124FE01EE57FC4FC080D180E280F380FD
:1029B0008111C7DFC954DB4FC701B6010E94227CD9
:1029C000288139814A815B810E94817CDF91CF918E
:1029D000FF90EF90DF90CF900895CF92DF92EF922B
:1029E000FF92CF93DF93C82F9FDF94E0C99FE00150
:1029F0001124FE01EA58FC4FC080D180E280F380B0
:102A000081119FDFC954DB4FC701B6010E94227CB0
:102A1000288139814A815B810E94817CDF91CF913D
:102A2000FF90EF90DF90CF900895FC017081472FC9
:102A300050E0062E02C0559547950A94E2F740FFF4
:102A400014C040911C0350E0062E02C055954795D6
:102A50000A94E2F740FF09C021E030E001C0220FF4
:102A60006A95EAF72095272320830895CF93DF9373
:102A700024E0829FC0011124EC01C75DD24FFC010C
:102A8000E95BFB4F805A9B4FDC012D913D914D91AD
:102A90005C9160817181828193810E947C806883D6
:102AA00079838A839B83DF91CF910895CF93DF93BE
:102AB0001F92CDB7DEB7898360E0CE010196B5DF06
:102AC00061E0CE010196B1DF62E0CE010196ADDF9B
:102AD00089810F90DF91CF9108958F929F92AF924D
:102AE000BF92CF92DF92EF92FF92CF93DF9320912C
:102AF0001802222309F48EC0EC0180911C03E82EF9
:102B000080FF2CC080901A0290901B02A0901C02A3
:102B1000B0901D02288139814A815B81C501B401D1
:102B20000E94A282181624F488829982AA82BB820B
:102B30008090260290902702A0902802B09029024F
:102B4000288139814A815B81C501B4010E941C7CC6
:102B500087FF04C088829982AA82BB82E1FE2CC0D2
:102B600080901E0290901F02A0902002B09021023F
:102B70002C813D814E815F81C501B4010E94A282FA
:102B8000181624F48C829D82AE82BF8280902A0225
:102B900090902B02A0902C02B0902D022C813D81B0
:102BA0004E815F81C501B4010E941C7C87FF04C077
:102BB0008C829D82AE82BF82E2FE2CC0C090220237
:102BC000D0902302E0902402F090250228853985D8
:102BD0004A855B85C701B6010E94A282181624F4BB
:102BE000C886D986EA86FB86C0902E02D0902F0236
:102BF000E0903002F0903102288539854A855B8566
:102C0000C701B6010E941C7C87FF04C0C886D98614
:102C1000EA86FB86DF91CF91FF90EF90DF90CF9017
:102C2000BF90AF909F908F900895CF93DF93809146
:102C30000F0365995BC0816080930F03909103013E
:102C400080910F0391FD54C0826080930F038091A7
:102C50000F034B994FC0846080930F0380910F0343
:102C600090910E03981709F447C092E090930D03DA
:102C700080930E0380916D04882309F44AC0C091AB
:102C80006603C0FF0FC08091D20380FF0BC080910C
:102C90000C0380FF07C080911604816080931604A6
:102CA00080E055DEC1FF0FC08091D20381FF0BC0D1
:102CB00080910C0381FF07C080911604826080938D
:102CC000160481E044DEC2FF24C08091D20382FF5B
:102CD00020C080910C0382FF1CC080911604846088
:102CE0008093160482E0DF91CF9131CE8E7FA4CF06
:102CF0008D7FABCF8B7FB0CF80910D03882309F4FC
:102D0000B9CF815080930D038111B4CF90930C0300
:102D1000B1CFDF91CF9108950F931F9380915F04FE
:102D2000813011F5D2D90091080310910903209147
:102D30000A0330910B03601B710B820B930B28EE7F
:102D400033E040E050E00E94F67F60910403709110
:102D500005038091060390910703620F731F841F80
:102D6000951F1F910F91089560915B0470915C0411
:102D700080915D0490915E04D6CF10925F04109212
:102D800008031092090310920A0310920B03109289
:102D90005B0410925C0410925D0410925E04109229
:102DA000040310920503109206031092070308957E
:102DB00080915F048130D9F08230B9F4ADDF609347
:102DC000040370930503809306039093070381E047
:102DD00080935F047AD9609308037093090380930A
:102DE0000A0390930B0381E00895C7DFF0CF80E0E2
:102DF000089580915F048150823068F410925F04DE
:102E000064D960935B0470935C0480935D04909339
:102E10005E0481E0089580E00895209128053091B6
:102E20002905263531053CF42091300430913104D8
:102E3000263031051CF0882319F0BACF6111D9CFA3
:102E40000895CF93DF93C0913004D091310420973F
:102E500021F160912C0470912D0480912E049091A9
:102E60002F040E94C0816E5F7F4F24976C177D07EF
:102E7000A4F47093BE036093BD0327D9605A7541D3
:102E80008F4F9F4F6093BF037093C0038093C10324
:102E90009093C203DF91CF9108951092BF031092D7
:102EA000C0031092C1031092C203F4CFCF93DF93FB
:102EB00010923705E0E2F5E0118610861092C60305
:102EC0001092C7031092C8031092C90312862C985F
:102ED000C8E2D4E019861886B4DF1A868091020110
:102EE000807280930001DF91CF91089590E080E09F
:102EF000089520918A04833021F425FD0CC024FD1F
:102F00000CC030E0A90102C0559547958A95E2F7BB
:102F1000CA018170089581E0089580E0089580914C
:102F2000740484FD0BC08091760487FD07C09091E6
:102F30007704937081E019F480E0089581E00895AA
:102F40002FEB280F2A3108F047C0E22FF0E08091E4
:102F5000740490917504A0917604B091770404C034
:102F6000B695A795979587952A95D2F780FD02C0CB
:102F700081700895E651FD4FE081EE2341F180918B
:102F8000A90A9091AA0AE80FF92FF11D808190ED0E
:102F9000980F9A3030F08E3251F4818180538A300C
:102FA00098F4F0937904E093780481E008958D32E9
:102FB00011F08B3249F4818190ED980F9A3088F3AB
:102FC0008E3211F48281EACFF0E0E0E0EACF109295
:102FD000790410927804E9CF80E00895B1DF882366
:102FE00041F081E02091780430917904232B09F499
:102FF00080E00895CF93DF93EC01688170E085E075
:103000000E94270F698170E084E00E94270F6A8187
:1030100070E086E00E94270F88819981482F490F30
:103020005527551F8A81840F952F911D21E08330EC
:1030300091050CF420E02093920303976CF05DE07F
:10304000C436D50749F088819981AA818093640D9F
:103050009093650DA093660DDF91CF9108958F92A7
:103060009F92AF92BF92CF92DF92EF92FF92CF9357
:10307000DF9300D0CDB7DEB72FEF8417950731F17E
:103080006A01052E000CEE08FF084C01092E000C09
:10309000AA08BB08681779072CF0CB014617570719
:1030A0000CF4CA019C01990F440B550B28193909DE
:1030B0004A095B09AFEFB0E00E943480A701960196
:1030C000281939094A095B090E9418808091210456
:1030D000821751F0209321048FEF89831A82209563
:1030E0002B83CE01019686DF0F900F900F90DF911A
:1030F000CF91FF90EF90DF90CF90BF90AF909F90D7
:103100008F9008958F929F92AF92BF92CF92DF924D
:10311000EF92FF92CF93DF9300D0CDB7DEB72FEFC2
:103120008417950731F16A01052E000CEE08FF089F
:103130004C01092E000CAA08BB08681779072CF06F
:10314000CB01461757070CF4CA019C01990F440B99
:10315000550B281939094A095B09AFEFB0E00E9405
:103160003480A7019601281939094A095B090E9490
:10317000188080912104821749F02093210429832B
:103180001A828FEF8B83CE01019634DF0F900F9060
:103190000F90DF91CF91FF90EF90DF90CF90BF9095
:1031A000AF909F908F90089581E008959091C00016
:1031B00095FFFCCF8093C60008958F929F92AF92A7
:1031C000BF92EF92FF921F93CF93DF93CDB7DEB7FD
:1031D000A0970FB6F894DEBF0FBECDBF6115710585
:1031E0008105910589F120E04AE0842E912CA12CE3
:1031F000B12C11E0120FEE24E394F12CEC0EFD1E25
:10320000E20EF11C27FDFA94A50194010E94F67FBD
:10321000F7016083B901CA01212F6115710581058C
:10322000910539F7115008F1E1E0F0E0EC0FFD1FD6
:10323000E10FF11D17FDFA95908187E39A3008F4AC
:1032400080E3890FB3DFEECF80E3A0960FB6F8944A
:10325000DEBF0FBECDBFDF91CF911F91FF90EF90EA
:10326000BF90AF909F908F90A1CFA0960FB6F8948B
:10327000DEBF0FBECDBFDF91CF911F91FF90EF90CA
:10328000BF90AF909F908F900895CF92DF92EF9272
:10329000FF926B017C01F7FE0AC0F094E094D09499
:1032A000C094C11CD11CE11CF11C8DE27FDFC70161
:1032B000B601FF90EF90DF90CF907FCFE6CF8F9257
:1032C0009F92AF92BF92CF92DF92EF92FF926B01EB
:1032D0007C0120E030E0A9010E941C7C87FF06C031
:1032E0008DE264DFF7FAF094F7F8F0942BE037ED15
:1032F00043EA5BE3C701B6010E947C804B015C019D
:103300000E94C5816B017C010E94207C9B01AC0165
:10331000C501B4010E947B804B015C01C701B6016D
:103320004CDF8EE243DF20E030E040E251E4C501B3
:10333000B4010E94817C6B017C010E94C5814B011C
:103340005C013BDFC501B4010E94207C9B01AC0104
:10335000C701B6010E947B8020E030E040E251E4EA
:103360000E94817C0E94C581FF90EF90DF90CF90FA
:10337000BF90AF909F908F9020CFCF93DF93EC01C1
:103380008991882311F012DFFBCFDF91CF9108954F
:10339000F4DF8DE00BDF8AE009CFCF93DF93EC0100
:1033A000FE0184912196882311F000DFF9CFDF918F
:1033B000CF910895CF92DF92EF92FF92E0E4FCE08C
:1033C00080818183C090C20CD090C30CE090C40C6B
:1033D000F090C50C8FEFC81AD80AE80AF80A8BE2F9
:1033E0009CE1DBDFC701B60169DF8AE0DFDE87E24F
:1033F0009CE1FF90EF90DF90CF90CFCFEF92FF92C4
:103400000F931F93CF937B018A01C2E48F3F09F092
:10341000C4E580E2CBDE8C2FC9DE8AE3C7DEF7018C
:1034200060817181828193814ADF8CE990E1B5DF0F
:10343000F801608171818281938141DF62E070E0F7
:1034400080E090E0CF911F910F91FF90EF900C944E
:103450003410CF92DF92EF92FF92CF93DF93EC0183
:10346000C880D980EA80FB808FE290E196DFC701B7
:10347000B60124DFCC80DD80EE80FF808CE39CE110
:103480008CDFC701B6011ADFC884D984EA84FB84C3
:1034900088E39CE182DFC701B60110DF8AE0DF919B
:1034A000CF91FF90EF90DF90CF9080CECF93C82F39
:1034B000CB0173DF8FE493E070DF80E493E0CC23F3
:1034C00011F085E493E069DF8AE0CF916FCECF936E
:1034D00084E693E062DF8CB1C1E085FB882780F948
:1034E0006EE573E08C27E2DF8091030186958170A1
:1034F00068E573E08C27DADF89B183FB882780F9E0
:1035000062E573E08C27CF91D1CF0F931F93CF93B8
:103510008C01C62F85E293E040DFC8013EDF8AE3DD
:1035200045DE80E38C0F42DE8AE0CF911F910F9140
:103530003DCECF92DF92EF92FF926A017B012DDFA9
:10354000C701B601FF90EF90DF90CF90B8CE4F92B9
:103550005F926F927F928F929F92AF92BF92CF9223
:10356000DF92EF92FF920F931F93CF93DF93CBE401
:10357000D2E04C845D846E847F8409E21DE0F80112
:1035800024813581468157816C817D818E819F8127
:103590000E947C804B015C01F801208531854285C9
:1035A0005385688579858A859B850E947C806B011F
:1035B0007C01F801208131814281538168817981C8
:1035C0008A819B810E947C80AB01BC0180E49CE1EC
:1035D000B0DFB501A4018CE39CE1ABDFB701A6012C
:1035E00088E39CE1A6DFB301A20184E39CE1DF91C3
:1035F000CF911F910F91FF90EF90DF90CF90BF90F0
:10360000AF909F908F907F906F905F904F9091CFF1
:10361000CF93DF93CDB7DEB72C970FB6F894DEBF0C
:103620000FBECDBF94DF80D99CE0E2E8F3E0DE017D
:10363000119601900D929A95E1F7811182D9CE01F0
:10364000019607DF2C960FB6F894DEBF0FBECDBFF4
:10365000DF91CF9108956DDF8AE0A8CD87E991E0F1
:103660009CCE81E991E099CEEC01162F1FDC2097CA
:1036700029F0F7DFCE0191DE8AE098DDEFDF8DE5FE
:103680009CE18BDE89EE93E0019739F000C00000E9
:10369000EEE5F9E03197F0F7F7CFF89489EE93E093
:1036A000019739F000C00000E6EEF3E03197F0F743
:1036B000F7CFFCDB112321F00E942612A895FECF44
:1036C0000E94EC11FBCFEF92FF920F931F93CF93C9
:1036D000C82F7B018A0180913F0C833068F0BEDFE8
:1036E000C7015BDE80E490E158DECF3FA9F48CE3B4
:1036F00090E153DE8AE05ADDD9DBA89580919303EF
:10370000811118C081E08093930382E080933F0C85
:10371000CDDB60E0C801A8DFC7FDECCF8AE390E114
:103720003CDE6C2FCC0F770B880B990BAEDD8AE05B
:103730003DDDE0CFCF911F910F91FF90EF90089565
:103740004F925F926F927F929F92AF92BF92CF9271
:10375000DF92EF92FF920F931F93CF93DF93EC01D1
:103760006B015A01922EFA01408051806280738071
:10377000A30192016D817E818F8198850E941C7CBE
:103780008823A1F04D825E826F82788677247394BD
:1037900020E030E0A901F50160817181828193818F
:1037A0000E94A28218160CF0712C7C828C818230CF
:1037B000A1F0833009F457C08130C9F52D813E81D5
:1037C0004F815885F60160817181828193810E94C9
:1037D0001C7C87FD2CC082E08C830E9465102B012D
:1037E0003C01B701FF0C880B990B0E94227C9B01C6
:1037F000AC016D817E818F8198850E947B809B01C9
:10380000AC01F60160817181828193810E94A28264
:1038100087FD1DC09801A8EEB3E00E943E80460ED1
:10382000571E681E791E488259826A827B82DF9108
:10383000CF911F910F91FF90EF90DF90CF90BF90AD
:10384000AF909F907F906F905F904F900895888188
:103850009981AA81BB81481A590A6A0A7B0A77FCB6
:10386000E6CF83E08C8341EA54E161EB74E1892D7A
:10387000DF91CF911F910F91FF90EF90DF90CF904C
:10388000BF90AF909F907F906F905F904F901BCFB5
:1038900080911604882319F010921604089560E0B0
:1038A00082E393E0E1DECF93DF93DBDEC091A90AF0
:1038B000D091AA0A88E59AE170DDCE015EDD85E54A
:1038C0009AE1DF91CF9169CD0F931F93CF9381112F
:1038D00011C0C42F8B01C5DE89E096E15EDDC80111
:1038E0005CDDCC2339F08AE361DC8AE0CF911F9163
:1038F0000F915CCCCF911F910F910895CF93C82F5A
:1039000041E0E2DFC11102C0CF91ABCECF9108956B
:10391000CF93DF936CE77AE1F1DFCAECD4E04C8916
:103920005D896E897F8984E79AE103DE488D598D30
:103930006A8D7B8D81E79AE1FCDD4C8D5D8D6E8D0E
:103940007F8D8EE69AE1F5DD48A159A16AA17BA1A0
:103950008BE69AE1EEDD8AE0DF91CF9127CCCF9321
:10396000DF9369E173E0CADFC7E4D4E0488159819D
:103970006A817B8180E193E0DCDD4C815D816E8139
:103980007F8181E79AE1D5DD488559856A857B8508
:103990008EE69AE1DF91CF915ECECF93DF9365EF14
:1039A00072E0ACDFC8E2D4E04B855C856D857E8536
:1039B0008CEE92E0BEDD2CEA35EC47E25EE36F85EB
:1039C000788989899A890E945881AB01BC0189EE66
:1039D00092E0AFDD2CEA35EC47E25EE36B897C894F
:1039E0008D899E890E94817CAB01BC0186EE92E0AC
:1039F000DF91CF9130CE67E772E080DF6091DA042B
:103A00007091DB048091DC049091DD040E94207CA5
:103A1000AB01BC018EE692E08CDD40910A0550912D
:103A20000B0560910C0570910D058BE692E081DD30
:103A300040910E0550910F05609110057091110590
:103A400088E692E076DD40918E0450918F0460917B
:103A500090047091910485E692E0FDCDCF93DF93C1
:103A60006BE172E04BDFCAECD4E04CA95DA96EA912
:103A70007FA982E192E05DDD48AD59AD6AAD7BADD5
:103A80008FE092E056DD4CAD5DAD6EAD7FAD88E66A
:103A900092E0DF91CF91DFCDCF93DF9367EF71E0BD
:103AA0002DDFCAECD4E04CA15DA16EA17FA18EEE0A
:103AB00091E03FDD48A559A56AA57BA581E79AE17C
:103AC00038DD4CA55DA56EA57FA58EE69AE131DDBA
:103AD00048A959A96AA97BA98BE69AE1DF91CF9100
:103AE000BACDCF93DF9362ED71E008DFCAECD4E08A
:103AF000688179818A819B810E94207CAB01BC0115
:103B000089EC91E016DD6C817D818E819F810E9420
:103B1000207CAB01BC0181E79AE10BDD68857985EA
:103B20008A859B850E94207CAB01BC018EE69AE1D0
:103B300000DD6C857D858E859F850E94207CAB0194
:103B4000BC018BE69AE1DF91CF9185CDCF93C82F51
:103B500041E06BED72E0B8DEC11101C082DD409141
:103B60002B0550912C0560912D0570912E0582ED4D
:103B700092E0DFDC2CEA35EC47E25EE360912F0552
:103B80007091300580913105909132050E945881E5
:103B9000AB01BC018FEC92E0CCDC2CEA35EC47E2C7
:103BA0005EE3609133057091340580913505909105
:103BB00036050E94817CAB01BC018CEC92E0B9DC43
:103BC0008AE0CF91F3CACF9381110EC040E067EB3A
:103BD00071E07ADE80915704811103C08AEA91E096
:103BE000DCDB8AE0E3DA3DDDC091570481EA91E055
:103BF000D4DB6C2F70E090E080E047DB4091530411
:103C00005091540460915504709156048EE991E0EE
:103C1000CF9121CDCF93C82F41E069E177E054DE09
:103C2000C11101C01EDD81E197E0B7DB8CED96E0AC
:103C3000B4DB8AE0BBDA41E06FEF76E08C2F44DE44
:103C4000C11101C00EDD82EE96E0A7DB8C2FBBDF39
:103C50008C2F5EDE8C2F20DF8C2F43DF8C2FFEDE3F
:103C60008C2FC9DE8C2F7BDE8C2F70DF8C2FCF91B9
:103C700094CECF93DF93EB0190DBBE01DD0F880B79
:103C8000990BDF91CF9101CB1F93CF93DF9300D09E
:103C900000D01F921F92CDB7DEB7182F6091280574
:103CA00070912905072E000C880B990B0E94227C2D
:103CB0006D837E838F83988780912405909125055D
:103CC000A0912605B091270589839A83AB83BC8395
:103CD000AE014B5F5F4FBE016F5F7F4F80E88EDBB1
:103CE0006091300470913104072E000C880B990B01
:103CF0000E94227C6D837E838F83988780912C0421
:103D000090912D04A0912E04B0912F0489839A8361
:103D1000AB83BC83AE014B5F5F4FBE016F5F7F4FD4
:103D20008FEF6CDB609132041F3F39F087E118029E
:103D3000F0011124E05EFA4F628570E084EA90E1C0
:103D400098DF6091320470E08FE990E192DF28966D
:103D50000FB6F894DEBF0FBECDBFDF91CF911F919C
:103D600008958091400C9091410C2FEF3FEF9817F0
:103D700051F0E92FF0E0E05CF34F228130E09F5FEB
:103D80009F779093410CC9010895CF92DF92EF92F3
:103D9000FF920F931F93CF938C01C62F5FDCC090CF
:103DA000C20CD090C30CE090C40CF090C50CC801BC
:103DB000F4DAC701B60182DA8AE0F8D9D2DF0196D7
:103DC000E9F78C2FF7DA1092C70C1092C60CCF913E
:103DD0001F910F91FF90EF90DF90CF9008958F92F9
:103DE0009F92AF92BF92CF92DF92EF92FF920F938A
:103DF0001F93CF93DF93B0E4A0E06A2F70E0AB0194
:103E00004B0F511D55954795411119C0EAEAF0E154
:103E100065917491072E000C880B990B0E94227CEF
:103E2000DF91CF911F910F91FF90EF90DF90CF9096
:103E3000BF90AF909F908F900895B42FE0CF4A1716
:103E400011F0B41303C0E6EAF1E1E2CF9A01215088
:103E50003109220F331F220F331FF901E855FF4E9E
:103E6000E590F490F901E455FF4EC591D4918E157B
:103E70009F051CF3A42FC817D9070CF4BECFF90176
:103E8000E655FF4E05911491F901E255FF4EC5909C
:103E9000D490BC016E197F09072E000C880B990B7A
:103EA0000E94227C4B015C01B601601B710B072E46
:103EB000000C880B990B0E94227C9B01AC01C50170
:103EC000B4010E94817C4B015C01BE016E197F0927
:103ED000072E000C880B990B0E94227C9B01AC01E1
:103EE000C501B4010E9458816B017C01B801110F1A
:103EF000880B990B0E94227C9B01AC01C701B60183
:103F00000E947C808DCFCF93DF93A895809122056E
:103F10009091230564DF60932405709325058093B9
:103F200026059093270580912A0490912B040E94E6
:103F3000711060932C0470932D0480932E04909341
:103F40002F04C0912205D091230580910C029091FD
:103F50000D02C817D90734F44EE550E16BE670E165
:103F600080E0B1DB8091280590912905181619068B
:103F70006CF480910A0290910B028C179D0734F427
:103F80004DE750E16AE870E180E09DDB20912A0472
:103F900030912B048091CF039091D00328173907DB
:103FA00034F44EE550E16BE670E18FEF8CDB8091ED
:103FB000300490913104181619069CF420912A04BB
:103FC00030912B0480910802909109028217930787
:103FD00044F44DE750E16AE870E18FEFDF91CF9153
:103FE00072CBDF91CF9108952F923F924F925F92C3
:103FF0006F927F928F929F92AF92BF92CF92DF92F9
:10400000EF92FF920F931F93CF93DF93CDB7DEB75D
:1040100063970FB6F894DEBF0FBECDBF80913F0C03
:1040200081111AC0A89563960FB6F894DEBF0FBE33
:10403000CDBFDF91CF911F910F91FF90EF90DF9057
:10404000CF90BF90AF909F908F907F906F905F9038
:104050004F903F902F9008958091C3038111E3CF3B
:1040600081E08093C30380912204811103C01092E8
:10407000C303D9CF48DF109222040E9465104B0180
:104080005C016091100270911102072E000C880BE8
:10409000990B0E94227C2B013C01AC019B01609199
:1040A00024057091250580912605909127050E9491
:1040B000A28218160CF456C3609128057091290548
:1040C000072E000C880B990B0E94227C69837A834F
:1040D0008B839C8334E0E32EF12C08E210E020E097
:1040E000AE014F5F5F4F64E275E089E39DE028DB3E
:1040F000C0902405D0902505E0902605F090270576
:1041000060910E0270910F02072E000C880B990B24
:104110000E94227C9B01AC01C701B6010E94A282D1
:1041200018160CF01CC1A7019601C301B2010E9430
:10413000A28218160CF013C1609128057091290510
:104140006115710509F426C3072E000C880B990B25
:104150000E94227CA70196010E947B801B012C01FA
:1041600020E030E040E251EC0E941C7C87FD12C34D
:1041700020E030E040E251E4C201B1010E94A2829D
:1041800018160CF437C38091BC0381113FC32091F2
:10419000B4033091B5034091B6035091B7032D831A
:1041A0003E834F8358878091B8039091B903A091C3
:1041B000BA03B091BB0389879A87AB87BC87A701F5
:1041C00096016091A8037091A9038091AA03909130
:1041D000AB030E947B8020913305309134054091E0
:1041E0003505509136050E94817C2D813E814F819D
:1041F00058850E947B8020ED3CEC4CE45DE30E94FE
:10420000817C2D813E814F8158850E947C806D8309
:104210007E838F8398876093B4037093B5038093F4
:10422000B6039093B70320912F053091300540914C
:104230003105509132052D873E874F87588B298550
:104240003A854B855C85C201B1010E947C80162FA6
:10425000072F782E692E20E030E0A9010E941C7CF7
:1042600087FDE4C22D853E854F85588960E070E06A
:104270008FE793E40E9458816987798B8A8B9B8BA7
:10428000212F302F472D562D0E941C7C87FF04C004
:10429000198509897A886B88812F902FA72DB62DD3
:1042A0008093B8039093B903A093BA03B093BB0370
:1042B00020912B0530912C0540912D0550912E0514
:1042C000C201B1010E94817C1B012C012092AC0330
:1042D0003092AD034092AE035092AF03212F302FA6
:1042E000472D562D6D857E858F8598890E94817C0E
:1042F0009B01AC012093B0033093B1034093B20310
:104300005093B303C201B1010E947C802D813E8194
:104310004F8158850E947C8020E030E0A9010E94F6
:104320007C802B013C0120E030E0A9010E941C7C34
:1043300087FD33C220E030E04FE753E4C301B20110
:104340000E94A28218160CF006C26FE7C092A80362
:10435000D092A903E092AA03F092AB0301C060E0FF
:1043600060932A058091C6039091C703A091C8036A
:10437000B091C9030097A105B10569F1A5019401A8
:10438000281B390B4A0B5B0BDA01C901B7FD23C0AF
:10439000C701B6010E94C0812091C4033091C503BA
:1043A000621773070CF4EEC120912805309129059E
:1043B0002115310541F06E5F7F4F2650310962179C
:1043C00073070CF4F1C11092C6031092C703109248
:1043D000C8031092C9038091230490912404A091F2
:1043E0002504B0912604A5019401281B390B4A0B22
:1043F0005B0BDA01C901B7FF9DC120E030E046E167
:1044000053E460912C0470912D0480912E049091BE
:104410002F040E94A28218160CF4ACC18091BF0335
:104420009091C003A091C103B091C2030097A10570
:10443000B105B1F1881A990AAA0ABB0AB7FC30C0C3
:1044400060912C0470912D0480912E0490912F0482
:104450000E94C0812091BD033091BE036217730793
:10446000CCF0E0913004F0913104309751F0AB0181
:104470004E5F5F4F9F0124503109421753070CF4E0
:10448000A6C11092BF031092C0031092C1031092F4
:10449000C2030AC041EC54E160ED74E18FEF13D91F
:1044A000E0913004F0913104BF01FF0F880B990BAC
:1044B0000E94227C69837A838B839C8392E0E92E1D
:1044C000F12C04E110E02FEFAE014F5F5F4F6CE283
:1044D00074E082E49DE034D940902C0450902D0487
:1044E00060902E0470902F0420E030E040EA50E409
:1044F000C301B2010E94A28287FD18C120E030E012
:1045000046E153E4C301B2010E941C7C18160CF46E
:104510000DC160913004709131046115710509F489
:1045200002C1072E000C880B990B0E94227CA3016C
:1045300092010E947B804B015C0120E030E040E270
:1045400051EC0E941C7C87FDEEC020E030E040E290
:1045500051E4C501B4010E94A28218160CF41FC1D7
:104560008091370490913804A0913904B0913A04B5
:104570008D839E83AF83B8878091040281113EC1F1
:104580002091A4033091A5034091A6035091A70365
:10459000C090A003D090A103E090A203F090A303E9
:1045A000C501B4010E947C80162F072F382E292EBA
:1045B00020E030E0A9010E941C7C87FD32C12D81E2
:1045C0003E814F81588560E070E08FE793E40E9460
:1045D00058816D877987898B9A8B212F302F432DB6
:1045E000522D0E941C7C87FF04C01D8509853988D7
:1045F0002A88812F902FA32DB22D8093A40390930E
:10460000A503A093A603B093A70320913304309190
:1046100034044091350450913604C501B4010E9420
:10462000817C4B015C018092980390929903A09247
:104630009A03B0929B03212F302F432D522D6D8171
:104640007E818F8198850E94817C6D837E838F839C
:10465000988760939C0370939D0380939E0390932F
:104660009F03A3019201609194037091950380913F
:104670009603909197030E947B8020913B04309198
:104680003C0440913D0450913E040E94817CA7016E
:1046900096010E947B8020ED3CEC4CE45DE30E949F
:1046A000817CA70196010E947C806B017C01C092F5
:1046B000A003D092A103E092A203F092A303409240
:1046C00094035092950360929603709297032D8104
:1046D0003E814F815885C501B4010E947C80A701AD
:1046E00096010E947C8020E030E0A9010E947C803D
:1046F0006B017C0120E030E0A9010E941C7C87FD59
:1047000015C020E030E04FE753E4C701B6010E9436
:10471000A28218160CF446C0C701B6010E94C081DF
:104720007595679504C081E08093040260E0609312
:1047300032049DCCD501C4018C53964FAF4FBF4F6F
:104740008093230490932404A0932504B09326041B
:104750000E94051152CEC301B2010E94C08175951D
:104760006795F4CD4EE550E16BE670E180E00E9484
:10477000631BA2CC4EE550E16BE670E18FEF0E9427
:10478000631B4CCE41EC54E160ED74E180E00E948B
:10479000631B21CE81E08093BC0360E0D7CD81E034
:1047A000809304026FE7C3CF7093C5036093C40383
:1047B0000E946510605E714B8F4F9F4F6093C603E0
:1047C0007093C7038093C8039093C90304CE50939A
:1047D000BE034093BD030E946510605A75418F4F20
:1047E0009F4F6093BF037093C0038093C103909366
:1047F000C20356CE81E08093BC03A7CD1092040281
:10480000C12CD12C7601A7019601CACE1092BC030F
:1048100019861A861B861C861D821E821F82188698
:10482000CECC10E000E0312C212CE3CE10E000E0F3
:10483000712C612C31CDCF92DF92EF92FF926B0100
:104840007C0183E3C816D104E104F10468F082E33B
:10485000C81AD108E108F10862E370E080E090E056
:104860000E943410C1DBEDCFC701B6010E943410A5
:10487000FF90EF90DF90CF90B7CB80916D048823AD
:1048800029F062E070E080E090E0D5CF0895DF92FB
:10489000EF92FF920F931F93CF93DF931F92CDB7A9
:1048A000DEB78C01D42E7C01E60EF71E8091350D0B
:1048B0009091360D0E94D17F8983DD2011F0F8019F
:1048C0008083CE0101960E94820E8091350D9091D9
:1048D000360D01969093360D8093350D0F5F1F4F67
:1048E0000E151F0519F780E00F90DF91CF911F91F2
:1048F0000F91FF90EF90DF9008954091200421E008
:1049000042276CE070E0C3CF4091200421E04227B1
:1049100064E070E0BCCF4091200421E0422761E0D8
:1049200070E0B5CF4091200421E0422761E070E0C3
:10493000AECF4091200421E0422768E070E0A7CF8D
:104940004091200421E042276CE070E0A0CF41E0DC
:1049500061E070E09CCF4091200421E0422797CF96
:104960009F92AF92BF92CF92DF92EF92FF920F93FE
:104970001F93CF93DF931F92CDB7DEB78C016C01ED
:10498000C60ED71EF12CE12CC016D10609F44DC07D
:10499000A090350DB090360DF80191908F0199825D
:1049A000C5010E94D17F981691F1692DC5010E9421
:1049B000D97FFFEFEF1AFF0AC7018F779927892B5D
:1049C00001F162E070E080E090E00E943410C501E7
:1049D0000E94D17F99818917D1F00E94311B83E415
:1049E0009CE10E94CD1981E00F90DF91CF911F9142
:1049F0000F91FF90EF90DF90CF90BF90AF909F907E
:104A0000089562E070E080E090E015DFE0CFCE0135
:104A100001960E94820E8091350D9091360D01967F
:104A20009093360D8093350DAFCF80E0DDCF6CE0F5
:104A300070E096CF64E070E093CF61E070E090CFDB
:104A400061E070E08DCF6CE070E08ACF8F929F9232
:104A5000AF92BF92DF92EF92FF920F931F93CF938B
:104A6000DF93CDB7DEB7C658D1090FB6F894DEBFD5
:104A70000FBECDBFC358DF4F188219821A821B8226
:104A8000CD57D0408091C8029091C902A091CA022E
:104A9000B091CB02CF57DF4F88839983AA83BB8322
:104AA000C158D04084E690E09093360D8093350D48
:104AB0001092380D1092370D1092290364E070E0C7
:104AC000CE018F579F4F4CDF8091350D9091360D61
:104AD00002969093360D8093350D1092380D1092FA
:104AE000370D81E0CA57DF4F8883C658D040CE01CA
:104AF0008A579F4FA5DF68E470E08AEC94E030DFCE
:104B000080E1EBE5F2E08E010F5F1F4FD8010190CD
:104B10000D928A95E1F760E170E0C80121DF8EE82F
:104B200094E088DF87E494E08EDF7E018DE6E80E76
:104B3000F11C8FEFF7018083C70182DF19821A828F
:104B40001B821C82C80176DF19821A821B821C829A
:104B5000C80170DFC358DF4F188219821A821B8286
:104B6000CD57D04083E0F70180838983CE018358FD
:104B70009F4F60DFC70164DFC80162DF4AE0D42EC7
:104B8000DA94DD2029F0CE0183589F4F53DFF8CF10
:104B90008CE0F80111928A95E9F7C80154DFC358F7
:104BA000DF4F188219821A821B82CD57D0403AE01B
:104BB000D32EDA94DD2029F0CE0183589F4F3ADFBF
:104BC000F8CF88E0F701982F11929A95E9F7F8014C
:104BD00011928A95E9F783E0CB57DF4F8883C55858
:104BE000D040EA968FAFEA97CE018B579F4F28DFD0
:104BF000CE0187589F4F24DF68E070E0C801B0DE27
:104C000068E070E0C701ACDEC358DF4F188219823C
:104C10001A821B82CD57D0402AE0A22EB12CF1E09F
:104C2000AF1AB10829F0CE0183589F4F03DFF7CFA9
:104C30001982BB24BA94F701B082C801FEDEC70115
:104C4000FFDE80E1D82EF8018D2D11928A95E9F7CB
:104C500060E170E0C80184DE1982C801EEDE198AC5
:104C60001A8A1B8A1C8A80E090E0A0E8BFE38D8747
:104C70009E87AF87B88B80912B0590912C05A091D2
:104C80002D05B0912E0589839A83AB83BC832CEAD2
:104C900035EC47E25EE360912F057091300580911D
:104CA0003105909132050E9458816D837E838F83F8
:104CB00098872CEA35EC47E25EE36091330570910A
:104CC000340580913505909136050E94817C698775
:104CD0007A878B879C8764E170E0C80141DE84E1BC
:104CE00090E09A83898362E070E0C80139DE8091A8
:104CF000330490913404A0913504B0913604898333
:104D00009A83AB83BC832CEA35EC47E25EE3609187
:104D10003704709138048091390490913A040E94CC
:104D200058816D837E838F8398872CEA35EC47E228
:104D30005EE360913B0470913C0480913D0490914E
:104D40003E040E94817C69877A878B879C87C80193
:104D50006EDE8CE0EBE6F2E0D80101900D928A95D0
:104D6000E1F7C80164DE1982C8016ADE8FE7898332
:104D7000C80166DEB982C80163DE85E0E7E7F2E0DC
:104D8000D80101900D928A95E1F765E070E0C801C5
:104D9000E7DD1982C80151DE80E2ECE7F2E0D801DC
:104DA00001900D928A95E1F760E270E0C801D8DDCC
:104DB000F7011082C70141DE87E594E03EDE83E51E
:104DC00094E038DEC358DF4F188219821A821B82A2
:104DD000CD57D040CE0183589F4F2CDE82E1F801A1
:104DE00011928A95E9F762E170E0C801B9DD84E2C9
:104DF000ECE9F2E0D80101900D928A95E1F764E2C6
:104E000070E0C801ADDDF8011192DA94E9F760E1D4
:104E100070E0C801A5DD89E0F80111928A95E9F7F3
:104E200069E070E0C8019CDDC358DF4F1882198229
:104E30001A821B82CD57D040CE0183589F4FFADD96
:104E40009CE0D92EF8018D2D11928A95E9F76CE03E
:104E500070E0C80185DD8CE6F80111928A95E9F7CA
:104E60006CE670E0C8017CDD8DE193E0E0DDF701E8
:104E70001082118212821382148215821682178286
:104E800068E070E0C7016CDDF7011192DA94E9F790
:104E9000CB57DF4F1882C558D04080E090E0A0E4A7
:104EA000B0E4ED968CAF9DAFAEAFBFAFED97C7014D
:104EB000CADDCE018B579F4FC3DDCE0187589F4F70
:104EC000B9DDD0902903D11048C00091350D109163
:104ED000360D045611098091370D9091380DF70168
:104EE0009183808384E690E09093360D8093350D16
:104EF00064E070E080EC92E033DD62E070E0C701D6
:104F00002FDD0E94311B83E996E00E94CD19B80184
:104F100090E080E00E94DD18F70180809180B12C44
:104F2000A12C86E896E00E94CD19C501B4010E942B
:104F3000DD1883E896E00E94CD190C36124041F04E
:104F40000E942E1B86E297E00E94CD19DD24D394A7
:104F5000809129038D29809329039091290381E071
:104F60008927CA57DF4F0FB6F894DEBF0FBECDBFFB
:104F7000DF91CF911F910F91FF90EF90DF90BF9045
:104F8000AF909F908F9008958091780490917904CC
:104F9000009731F04AE050E070E060E00C947F79D7
:104FA00060E070E0CB010895EFDFCB010895ECDF06
:104FB00097FD0AC0E9DF6F3F71058105910509F092
:104FC0002CF4E2DF862F089580E008958FEF089596
:104FD000CF9384E50E94EE17C0E0882301F1E7DF5C
:104FE000C82F1816E4F40E94311B8DE40E94D618D5
:104FF00060918B0470918C0490E080E00E94DD1839
:105000008DEF92E00E94CD196C2FCC0F770B880B9F
:10501000990B0E9445198AE00E94D618CFEF8C2F79
:10502000CF9108958091780490917904892B39F07B
:10503000BEDF91E0811101C090E0892F089591E0D9
:10504000FCCFCF93DF93C82FD62F0E94EE17882373
:1050500019F0DF91CF91E6CF8C2F0E94A01781111C
:1050600001C08D2FDF91CF9108954F925F926F9283
:105070007F92AF92BF92CF92DF92EF92FF920F9307
:105080001F93CF93DF9310925904109258042FE38B
:1050900020938D0410928C0410928B04109274044F
:1050A0001092750410927604109277049C01E90125
:1050B00098812F5F3F4F9032D1F39E34C9F489819C
:1050C00090ED980F9A3020F08D3211F08B3281F4F0
:1050D00022969E012F5F3F4F888180538A3008F4CB
:1050E0006EC09E012F5F3F4F8881803209F469C0F6
:1050F000D093AA0AC093A90A7E012FEFE21AF20AFE
:1051000018816AE270E0C7010E944483009731F081
:10511000FC01319780818032E1F311821D3421F04E
:10512000143511F01734E1F5F70180819FEFE91A8A
:10513000F90A8032C9F380538A3090F510938D04B8
:1051400090E080E06AE0AF014F5F5F4F689F9001A1
:10515000699F300D1124C901C0972081820F911DD4
:1051600027FD9A95FA01208120532A3060F390930D
:105170008C0480938B04DF0131962C912032D9F37B
:105180001D3459F58E31910539F0E8F487319105D8
:1051900019F08C31910509F5B0935904A093580486
:1051A000DF91CF911F910F91FF90EF90DF90CF9003
:1051B000BF90AF907F906F905F904F900895E901FE
:1051C00088CFE9018ECF8537910538F08737910573
:1051D00018F3803AE3E09E07F9F240E050E0BA01AC
:1051E00030E020E0C12CD12C7601C394FD01319632
:1051F0000C91002309F48CC00132F1F41D34E1F468
:1052000080329105C9F440937404509375046093FF
:10521000760470937704F0935904E093580463E2A2
:1052200070E0CF010E944483009709F4B9CFFC01DC
:105230001082B6CFDF01DACF01540A3108F063C023
:10524000DF01BD90D0E2AD2EBA1499F0A0EDAB0D08
:10525000AA3008F1AEE2BA120EC0A181A053AA3062
:10526000D0F02115310519F49F0121503109B12CDD
:1052700016C0FD01E5CFADE2AA2EBA1419F0ABE2DB
:10528000BA12EFCFA181B0EDBA0FBA3020F0AE3232
:1052900041F7A281E3CFBE2EBC1A309741F3A02F75
:1052A000B0E02601370104C0440C551C661C771C75
:1052B0000A95D2F74429552966297729A651BD4F69
:1052C000BC92A081A154AA3108F4B4CFDF010191AE
:1052D000002309F48BCFD0EDBD2EB00ED9E0AD2E5A
:1052E000AB14A0F7D3EDBD2EB00EAA24A394AB143B
:1052F00068F70B3259F3FD0131960C91003209F039
:1053000075CFDF01F8CF21153105D9F69D01D9CF31
:1053100030935904209358044093740450937504B7
:1053200060937604709377043BCF2F923F924F9215
:105330005F926F927F928F929F92AF92BF92CF9225
:10534000DF92EF92FF920F931F93CF93DF93CDB72E
:10535000DEB76C970FB6F894DEBF0FBECDBF8C01E1
:105360005B015A834983FC01EA5BFF4F2081318155
:105370004281538129873A874B875C87CA01B901EB
:105380000E94207C6B017C01D5012D913D914D91B6
:105390005C910E94817C0E9442812B013C01E98149
:1053A000FA812081318142815381C701B6010E9477
:1053B000817C0E9442814B015C01C301B2010E94C9
:1053C000C581698B7A8B8B8B9C8B683771058105C6
:1053D000910540F428E730E040E050E0298B3A8B1B
:1053E0004B8B5C8BC501B4010E94C5816D877E87A4
:1053F0008F87988B683771058105910540F448E7E0
:1054000050E060E070E04D875E876F87788BF80131
:10541000EE5AFF4F4080518062807380C301B20119
:105420000E94227C69837A838B839C8369897A8931
:105430008B899C890E94207C6D8B7E8B8F8B988FB3
:1054400020E030E0A90169817A818B819C810E94F2
:105450001C7C882309F4E1C1A7019601C701B601AC
:105460000E94817C4B015C012D893E894F89588DBA
:10547000CA01B9010E94817C9B01AC01C501B40144
:105480000E947B804B015C0129813A814B815C81C8
:10549000CA01B9010E947C809B01AC01C501B40125
:1054A0000E9458810E9442810E94C5816D837E8343
:1054B0008F83988766277727CB016419750986093A
:1054C00097090E94227C4B015C016D857E858F854A
:1054D00098890E94207C2B013C0120E030E0A9014A
:1054E000C501B4010E941C7C882309F49AC1A30160
:1054F0009201C301B2010E94817C698F7A8F8B8FE8
:105500009C8FA7019601C701B6010E94817C9B0177
:10551000AC01698D7A8D8B8D9C8D0E947B806B0197
:105520007C01A5019401C501B4010E947C809B010E
:10553000AC01C701B6010E9458810E94F181D801D7
:1055400095968D909D90AD90BC9098977501640153
:105550002D813E814F815885C21AD30AE40AF50A8B
:105560000E94C581C61AD70AE80AF90AF7FE8EC05A
:105570002D893E894F89588DCA01B9010E94817CCD
:105580006B017C0129813A814B815C81CA01B9019F
:105590000E947C8069877A878B879C8720E030E037
:1055A000A90169817A818B819C810E941C7C88235E
:1055B00009F43BC1C501B4010E94207C29853A85CC
:1055C0004B855C850E94817CA70196010E947B80AF
:1055D0006D837E838F839887A3019201C301B201FB
:1055E0000E94817C9B01AC016D817E818F819885B9
:1055F0000E947C802B013C0120E030E040E850E438
:1056000069817A818B819C810E94817C9B01AC01A4
:10561000C301B2010E9458810E9442812B013C01CA
:1056200020E030E0A9010E94A28218161CF0412C53
:10563000512C3201C301B2010E94C5816D837E836A
:105640008F83988786169706A806B90620F48D8260
:105650009E82AF82B8866D817E818F8198850E94FF
:10566000207C29853A854B855C850E94817CA70139
:1056700096010E947C800E94E7820E94C581698712
:105680007A878B879C87C12CD12C760169857A8596
:105690008B859C8529893A894B895C89621B730BB0
:1056A000840B950B0E94207C29813A814B815C817F
:1056B0000E94588120E034E244EF59E40E94817C4A
:1056C0000E94C5814B015C0169857A858B859C852B
:1056D0002D853E854F855889621B730B840B950B76
:1056E0000E94207C29813A814B815C810E945881F3
:1056F00020E034E244EF59E40E94817C0E94C5819D
:105700002B013C013FE683169104A104B10408F08B
:1057100090C0F401EE0FFF1FEE0FFF1FE155FC4F8D
:1057200085919591A591B4918983292E3A2EBD8BAF
:105730004FE6441651046104710408F083C0F2017D
:10574000EE0FFF1FEE0FFF1FE155FC4F45915591E6
:10575000659174919A01CB014D815E816F8178854D
:10576000D80199964D935D936D937C939C974C0DC6
:105770005D1D6E1D7F1DF80145A756A767A770AB7D
:10578000E65BFF4F49895A896B897C894083518345
:1057900062837383D5968D929D92AD92BC92D89779
:1057A000F80141AE52AE63AE74AEFD9649814083BE
:1057B000218232825D8953833496208331838283B0
:1057C000938369857A858B859C85D1966D937D932E
:1057D0008D939C93D4973D962D853E854F85588912
:1057E00020833183428353836C960FB6F894DEBFD7
:1057F0000FBECDBFDF91CF911F910F91FF90EF9022
:10580000DF90CF90BF90AF909F908F907F906F90E0
:105810005F904F903F902F90089560E070E0CB0133
:1058200041CE60E070E0CB0188CE60E070E0CB015B
:10583000F3CEC501B4010E94AD126983272E382E24
:105840009D8B76CFC301B2010E94AD129B0184CF24
:10585000CF93DF9380914E0D90914F0D891B8095D2
:105860008F7011F41FD7F6CF80914E0D8F5F8F7020
:10587000A0914E0D97E5A99FD0011124FD01E75C91
:10588000FA4FEF0119929A95E9F798E09083A25B9D
:10589000BA4F90E1E4E5FDE001900D929A95E1F7B1
:1058A00020914E0D90914F0D291303C094E69093D3
:1058B0004B0D80934E0DDF91CF910C94A1144F921C
:1058C0005F926F927F928F929F92AF92BF92CF9290
:1058D000DF92EF92FF92CF93DF93EC012091EA04E5
:1058E0003091EB044091EC045091ED046C857D8582
:1058F0008E859F850E94817C0E94AD826B017C0118
:105900002091E6043091E7044091E8045091E904C5
:10591000688579858A859B850E94817C0E94AD82FD
:105920004B015C012091E2043091E3044091E404D6
:105930005091E5046C817D818E819F810E94817CE4
:105940000E94AD822B013C012091DE043091DF04E6
:105950004091E0045091E104688179818A819B81C2
:105960000E94817C0E94AD826093540D7093550D0E
:105970008093560D9093570D4092580D5092590DAB
:1059800060925A0D70925B0D80925C0D90925D0D4D
:10599000A0925E0DB0925F0DC092600DD092610D2D
:1059A000E092620DF092630D90914E0D80914F0D3B
:1059B000981779F0DF91CF91FF90EF90DF90CF9023
:1059C000BF90AF909F908F907F906F905F904F901F
:1059D0003FCF0E94D0460E949414C82F84E59DE0DA
:1059E0000E944511CC2381F0DF91CF91FF90EF9081
:1059F000DF90CF90BF90AF909F908F907F906F90EF
:105A00005F904F900C94A114DF91CF91FF90EF9095
:105A1000DF90CF90BF90AF909F908F907F906F90CE
:105A20005F904F900895CF93DF93CDB7DEB7609727
:105A30000FB6F894DEBF0FBECDBF80E1EBE4F2E01D
:105A4000DE01119601900D928A95E1F7CE01019643
:105A500036DF60960FB6F894DEBF0FBECDBFDF9184
:105A6000CF9108950F931F93CF93DF930EED14E022
:105A7000C7EBD4E0F80121913191419151918F010F
:105A800060E070E080E89FE30E9458816993799319
:105A900089939993F4E0C73CDF0761F7C4DFDF9196
:105AA000CF911F910F910C94AA132F923F924F9276
:105AB0005F926F927F928F929F92AF92BF92CF929E
:105AC000DF92EF92FF920F931F93CF93DF9300D05B
:105AD000CDB7DEB780904B0290904C02A0904D0263
