:100000000C942F120C946F120C946F120C946F12AC
:100010000C946F120C946F120C946F120C946F125C
:100020000C946F120C946F120C946F120C946F124C
:100030000C946F120C946F120C946F120C946F123C
:100040000C946F120C94201C0C946F120C946F1271
:100050000C946F120C942B1B0C946F120C946F97D2
:100060000C946F120C947B3B0C94453B0C946F12D8
:100070000C946F120C946F120C946F120C946F12FC
:100080000C946F120C946F120C946F120C946F12EC
:100090000C946F120C946F120C946F120C946F12DC
:1000A0000C946F120C946F120C946F120C946F12CC
:1000B0000C946F120C946F120C946F120C946F12BC
:1000C0000C946F120C946F120C946F120C946F12AC
:1000D0000C946F120C946F120C946F120C946F129C
:1000E0000C946F12084AD73B3BCE016E84BCBFFD17
:1000F000C12F3D6C74319ABD56833DDA3D00C77FF8
:1001000011BED9E4BB4C3E916BAAAABE0000008090
:100110003F05A84CCDB2D44EB93836A9020C50B91F
:10012000918688083CA6AAAA2ABE000000803F004B
:100130004E414E494E495459494E46CDCCCC3D0ACC
:10014000D7233C17B7D13877CC2B329595E6241FAF
:10015000B14F0A000020410000C84200401C462068
:10016000BCBE4CCA1B0E5AAEC59D7400407A10F33B
:100170005A00A0724E18090010A5D4E80000E876D5
:1001800048170000E40B54020000CA9A3B0000002C
:10019000E1F505000080969800000040420F000045
:1001A00000A08601000000102700000000E8030006
:1001B0000000006400000000000A000000000001D0
:1001C00000000000002C76D888DC674F0823DFC1D0
:1001D000DFAE59E1B1B796E5E3E453C63AE651998B
:1001E0007696E8E6C28426EB898C9B62ED407C6FB4
:1001F000FCEFBC9C9F40F2BAA56FA5F490055A2A6B
:10020000F75C936B6CF9676DC11BFCE0E40D47FE76
:10021000F520E6B500D0ED902E030094357705006B
:1002200080841E080000204E0A000000C80C3333F2
:1002300033330F986E12831141EF8D2114893BE601
:100240005516CFFEE6DB18D1844B381BF77C1D908A
:100250001DA4BBE424203284725E228100C9F124F3
:10026000ECA1E53D27434F4D4D554E49434154497F
:100270004F4E0044525952554E004552524F525320
:1002800000494E464F004543484F004D323400531D
:10029000544F505045442E20005072696E74657260
:1002A0002073746F707065642064756520746F20AE
:1002B0006572726F72732E204669782074686520AB
:1002C0006572726F7220616E6420757365204D399E
:1002D000393920746F20726573746172742E20280E
:1002E00054656D70657261747572652069732072F2
:1002F000657365742E20536574206974206166747B
:1003000065722072657374617274696E67290A0080
:100310004E6F20436865636B73756D2077697468F1
:10032000206C696E65206E756D6265722C204C6163
:100330007374204C696E653A20004E6F20436865E7
:10034000636B73756D2077697468206C696E6520C6
:100350006E756D6265722C204C617374204C696EF1
:10036000653A2000636865636B73756D206D697312
:100370006D617463682C204C617374204C696E65E8
:100380003A20004C696E65204E756D626572206979
:1003900073206E6F74204C617374204C696E6520FD
:1003A0004E756D6265722B312C204C617374204C3C
:1003B000696E653A20004D313130005365726961D4
:1003C0006C20737461747573206D69736D617463EF
:1003D000680A0053442072656164206572726F720E
:1003E0000A00746F6F206D75636820696E616374B5
:1003F0006976652074696D65202D2063757272655C
:100400006E7420636F6D6D616E643A20002121204F
:100410004B494C4C20636175736564206279200000
:100420004D6564696120496E73657274656400622C
:100430007573793A2070617573656420666F7220F8
:10044000696E7075740A00627573793A207061750F
:1004500073656420666F7220757365720A00627539
:1004600073793A2070726F63657373696E670A00FF
:100470006563686F3A004572726F723A002F2F61A0
:100480006374696F6E3A006E6F7469666963617454
:10049000696F6E20006E6F74696669636174696F5D
:1004A0006E2000656E6400627574746F6E00486F34
:1004B00074656E6420746F6F20636F6C640A0070E3
:1004C000617573656400486561642063616E6E6F79
:1004D00074206265207061726B6564005061757391
:1004E000650020440020204D323030205300202869
:1004F00044697361626C6564293A0046696C616D98
:10050000656E742073657474696E67730020204D86
:100510003230312058004D617820416363656C654D
:10052000726174696F6E2028756E6974732F7332EF
:10053000290020204D3230332058004D617820664C
:1005400065656472617465732028756E6974732FB4
:1005500073290020520020204D32303420500041B9
:100560006363656C65726174696F6E2028756E696E
:1005700074732F7332292028503C7072696E742D69
:10058000616363656C3E20523C7265747261637492
:100590002D616363656C3E20543C74726176656CBA
:1005A0002D616363656C3E2900204A0020540020C1
:1005B000530020204D323035204200416476616E78
:1005C0006365642028423C6D696E5F7365676D6585
:1005D0006E745F74696D655F75733E20533C6D6921
:1005E0006E5F66656564726174653E20543C6D693A
:1005F0006E5F74726176656C5F6665656472617466
:10060000653E204A3C6A756E635F6465763E2900EC
:1006100020440020490020204D3330312050004834
:100620006F74656E642050494400204400204900E6
:1006300020204D333034205000426564205049441E
:100640000020440020204D35393320592046002019
:10065000440020204D3539332058204600496E7023
:1006600075742053686170696E6700203B002055E7
:100670000020204D363033204C0046696C616D659A
:100680006E74206C6F61642F756E6C6F61640020F6
:10069000496E76616C696420657874727564657200
:1006A0002000536C6565702E2E2E0070726F6D7079
:1006B000745F00626567696E004D302053746F701F
:1006C000004D312053746F70004E6F204D6F766572
:1006D0002E00456E642066696C65206C6973740A2F
:1006E00000426567696E2066696C65206C69737489
:1006F0000A004E6F206D656469610A0053442063EF
:100700006172642072656C65617365640A0072656C
:1007100073756D6500526573756D696E672053441E
:1007200000286E6F2066696C6529004375727265DA
:100730006E742066696C653A20002E0A0044656C70
:100740006574696F6E206661696C65642C2046690A
:100750006C653A200046696C652064656C6574655B
:10076000643A0043616E6E6F74206F70656E207323
:10077000756264697220002569730025696D202502
:100780006973002569682025696D20256973002536
:100790006964202569682025696D20256973002515
:1007A000697920256964202569682025696D2025DF
:1007B0006973005072696E742074696D653A200027
:1007C0006F6B006F666600860281027A02730265B3
:1007D0000244454255473A004D31313320530053CE
:1007E00069646577696E646572205831204F4646AA
:1007F0002E007D7D7D0A002C7A3A002C793A007D0E
:100800002C6D61783A7B783A002C7A3A002C793A50
:10081000007D7D2C776F726B3A7B6D696E3A7B78C9
:100820003A002C7A3A002C793A007D2C6D61783AA6
:100830007B783A002C7A3A002C793A006172656133
:100840003A7B66756C6C3A7B6D696E3A7B783A00E0
:10085000434F4E4649475F4558504F5254004D450F
:1008600041545041434B00434F4F4C45525F544518
:100870004D5045524154555245004348414D424523
:10088000525F54454D5045524154555245004241E6
:1008900042595354455050494E470041524353002A
:1008A0004D4F54494F4E5F4D4F44455300544845BA
:1008B000524D414C5F50524F54454354494F4E00A6
:1008C000455854454E4445445F4D323000435553DE
:1008D000544F4D5F4649524D574152455F55504C1C
:1008E0004F4144004C464E5F5752495445004C4FCF
:1008F0004E475F46494C454E414D45004155544F8A
:100900005245504F52545F53445F535441545553D2
:100910000053445F57524954450052455045415495
:10092000004D554C54495F564F4C554D450053446E
:10093000434152440050524F4D50545F5355505014
:100940004F525400484F53545F414354494F4E5FF8
:10095000434F4D4D414E445300454D455247454E42
:1009600043595F50415253455200434153455F4CF8
:10097000494748545F4252494748544E45535300F3
:10098000544F47474C455F4C494748545300534FD9
:100990004654574152455F504F57455200425549C2
:1009A0004C445F50455243454E54004C4556454CCF
:1009B000494E475F44415441005A5F50524F4245AF
:1009C0000052554E4F5554004155544F4C455645D5
:1009D0004C005052494E545F4A4F420050524F47CC
:1009E00052455353004155544F5245504F52545F56
:1009F00054454D50004155544F5245504F52545F4D
:100A0000504F5300564F4C554D45545249430045A5
:100A10004550524F4D0042494E4152595F46494C54
:100A2000455F5452414E5346455200534552494149
:100A30004C5F584F4E5F584F4646004649524D57FF
:100A40004152455F4E414D453A4D61726C696E2091
:100A5000322E312E322E3120284F63742031342033
:100A6000323032332030343A35383A333429205357
:100A70004F555243455F434F44455F55524C3A678B
:100A800069746875622E636F6D2F4D61726C696E4B
:100A90004669726D776172652F4D61726C696E2067
:100AA00050524F544F434F4C5F56455253494F4E4F
:100AB0003A312E30204D414348494E455F545950FC
:100AC000453A5369646577696E64657220583120D0
:100AD00045585452554445525F434F554E543A3150
:100AE00020555549443A63656465326132662D3458
:100AF0003161322D343734382D396231322D63353E
:100B000035633632663336376666002F2F003F4A2C
:100B1000206F7574206F662072616E6765202830C3
:100B20002E303120746F20302E33290A00205800D7
:100B30004F4646004F4E003B200020204D61783A42
:100B40002000200020204D696E3A2000203B20002C
:100B500020204D323131205300250A0046523A0000
:100B600020466C6F773A200064697300656E00431D
:100B7000290A0061626C656420286D696E207465C5
:100B80006D702000436F6C642065787472756465C5
:100B9000732061726520004F66667365747320412F
:100BA00070706C69656400546F6F206661722066B6
:100BB000726F6D207265666572656E636520706F19
:100BC000696E740A00454550524F4D204F4B0A0044
:100BD000206F72203020746F2064697361626C65CD
:100BE0000A003F4672657175656E63792028462953
:100BF000206D75737420626520677265617465721B
:100C0000207468616E20003F5A6574612028442971
:100C10002076616C7565206F7574206F6620726137
:100C20006E67652028302D31290A004D3834005078
:100C300072696E7420446F6E6500446F6E6520703B
:100C400072696E74696E672066696C650A004D375B
:100C500037004D333100496E76616C6964206578E8
:100C60007472756465720A0020204D323036205847
:100C700000486F6D65206F66667365740044696631
:100C8000663A2020200046726F6D5374703A00530C
:100C90007465707065723A005261773A20202020A6
:100CA000000A4C6F676963616C3A00436F756E743C
:100CB00020453A004361703A0047322F47332062A3
:100CC000616420706172616D65746572730A0020E1
:100CD000573A0042656420436F6F6C696E672E2E31
:100CE0002E004265642048656174696E672E2E2E61
:100CF00000206661696C656421204261642068653A
:100D0000617465722069640A005049442041757419
:100D10006F74756E650023646566696E6520444571
:100D20004641554C545F0000626564004B642000EE
:100D30004B6920004B7020005049442074756E6947
:100D40006E6720646F6E65002066696E6973686502
:100D500064212050757420746865206C6173742060
:100D60004B702C204B6920616E64204B6420636FB4
:100D70006E7374616E74732066726F6D2062656C41
:100D80006F7720696E746F20436F6E666967757246
:100D90006174696F6E2E680A005049442041757471
:100DA0006F74756E6500206661696C6564212074DE
:100DB000696D656F75740A00504944204175746F00
:100DC00074756E65004175746F74756E652066612B
:100DD000696C6564212054696D656F75742E0020FF
:100DE0006661696C6564212054656D70657261741B
:100DF00075726520746F6F20686967680A005049D2
:100E000044204175746F74756E6500204B643A2000
:100E100000204B693A2000204B703A200020436CA0
:100E2000617373696320504944200A00204E6F208B
:100E30006F76657273686F6F740A002054753A207C
:100E400000204B753A2000206D61783A2000206D1B
:100E5000696E3A200020643A200020626961733A8A
:100E6000200048656174696E672E2E2E0020737411
:100E70006172740A00504944204175746F74756E34
:100E800065004175746F74756E65206661696C6587
:100E900064212054656D706572617475726520748B
:100EA0006F6F20686967682E00206661696C6564F1
:100EB000212054656D706572617475726520746F60
:100EC0006F20686967680A00504944204175746F53
:100ED00074756E6500504944204175746F74756E69
:100EE0006500486F6D696E67204661696C656400D6
:100EF0006F70656E00545249474745524544003A69
:100F000020007A5F6D696E00795F6D696E00785FB1
:100F10006D696E005265706F7274696E6720656EE0
:100F20006473746F70207374617475730A00207435
:100F30006F6F206C6F6E6720657874727573696F60
:100F40006E2070726576656E7465640A0020636F4A
:100F50006C6420657874727573696F6E2070726549
:100F600076656E7465640A00000000C00000A0C0D1
:100F7000000000005761726E696E673A20486F6D1D
:100F8000696E672042756D702044697669736F726F
:100F9000203C20310A000202040000974300809D9B
:100FA000430000C8430000A0400000A04000000033
:100FB0004000000001000000010000800055555570
:100FC000000000400033333300AAAA2A00499224CB
:100FD0000000002000C7711C0099991900D1451725
:100FE00000555515003BB113002449120011111191
:100FF00000000010000F0F0F00E3380E0043790DC2
:1010000000CCCC0C00C3300C00E8A20B0064210B18
:1010100000AAAA0A00703D0A009DD80900427B0977
:101020000092240900DCD3080088880800104208D8
:101030000000000800F0C10700878707007550070F
:1010400000711C07003EEB0600A1BC06006990067B
:101050000066660600703E06006118060017F4057B
:101060000074D105005BB00500B290050062720506
:10107000005555050078390500B81E050005050521
:10108000004EEC040087D40400A1BD040090A70426
:101090000049920400C17D0400EE690400C75604B3
:1010A00000444404005C32040008210400411004A0
:1010B00000000004003FF00300F8E0030026D20324
:1010C00000C3C30300CCB503003AA803000A9B0386
:1010D00000388E0300C08103009F750300D06903B0
:1010E00000505E03001D53030034480300913D038C
:1010F000003333030016290300381F03009715033C
:1011000000300C0300030303000BFA020049F10254
:1011100000BAE802005CE002002DD802002DD002E7
:101120000059C80200B0C0020031B90200DAB102B1
:1011300000AAAA0200A0A30200BC9C0200FA950229
:10114000005C8F0200DF88020082820200457C0280
:10115000002776020027700200436A02007C6402C6
:1011600000D05E02003F590200C8530200FFFDFCA0
:10117000FAF8F6F4F2F0EEECEAE9E7E5E3E1E0DEB6
:10118000DCDAD9D7D5D4D2D0CFCDCBCAC8C7C5C366
:10119000C2C0BFBDBCBAB9B7B6B4B3B2B0AFADACE4
:1011A000AAA9A8A6A5A4A2A1A09E9D9C9A99989739
:1011B00095949392908F8E8D8B8A8988878684836D
:1011C0008281807F7E7D7B7A797877767574737281
:1011D00071706F6E6D6C6B6A696867666564636277
:1011E00061605F5E5D5C5B5A595858575655545361
:1011F000525150504F4E4D4C4B4A4A494847464633
:10120000454443424241403F3E3E3D3C3B3B3A39F0
:10121000383837363535343332323130302F2E2EA0
:101220002D2C2B2B2A292928272726252524232343
:1012300022212120201F1E1E1D1C1C1B1B1A1919D8
:101240001818171616151514131312121111100F62
:101250000F0E0E0D0D0C0C0B0A0A090908080707E2
:1012600006060505040403030202010000000096BF
:101270004300009B430000C843000000C00000A0E2
:10128000C00000000053657474696E677320537466
:101290006F72656400290A002062797465733B20CF
:1012A000637263200053657474696E6773205374AE
:1012B0006F726564202800454550524F4D20496E9D
:1012C000697469616C697A65640A00486172646373
:1012D0006F6465642044656661756C742053657441
:1012E00074696E6773204C6F616465640020286DBB
:1012F0006D290020204D3134392043203B20556E8C
:1013000069747320696E2043656C736975730A0094
:1013100054656D706572617475726520556E69747F
:1013200073002020473231203B004C696E656172AA
:1013300020556E69747300454550524F4D206461CD
:10134000746173697A65206572726F722E0A004546
:1013500072723A20454550524F4D2043524300206F
:101360002863616C63756C6174656429210A0020CF
:10137000213D2000454550524F4D20435243206DA2
:1013800069736D61746368202D202873746F7265B2
:1013900064292000454550524F4D20436F727275AD
:1013A00070740A002053697A653A2000496E6465BA
:1013B000783A200053746F726564207365747469A1
:1013C0006E67732072657472696576656400290AB8
:1013D000002062797465733B206372632000207380
:1013E000746F7265642073657474696E67732072BC
:1013F0006574726965766564202800000096430074
:1014000000964300004842000020420000A0420035
:1014100000A0420000C8430080DE43D0070000D097
:101420000700006400000010270000204D61726C6E
:10143000696E3D563838290A00454550524F4D20B7
:1014400076657273696F6E206D69736D6174636820
:101450002028454550524F4D3D0020436F756E7416
:1014600020583A00004500626564002C20737973AF
:1014700074656D2073746F707065642120486561B8
:101480007465725F49443A20004572723A204D41BA
:101490005854454D50004D415854454D502074729C
:1014A000696767657265640048656174696E672085
:1014B0004661696C65640048656174696E672066A1
:1014C00061696C6564004D353234004D3131322034
:1014D00053687574646F776E004572723A204D4997
:1014E0004E54454D50004D494E54454D5020747258
:1014F0006967676572656400544845524D414C20E8
:1015000052554E4157415900546865726D616C20C7
:1015100052756E6177617900202F002042403A00B9
:1015200020403A0020573A0020583A002053004DFE
:1015300031303620500000002100240027002A000E
:101540002D003000330001010000040107010A01F1
:101550007C3C3E5E2B3D3F2F5B5D3B2C2A225C009A
:1015600043616E6E6F74206F70656E207375626478
:101570006972200053442063617264206F6B0A001B
:101580006F70656E526F6F74206661696C65640A76
:1015900000766F6C756D652E696E69742066616981
:1015A0006C65640A004E6F20534420636172640AC4
:1015B000002E0A006F70656E206661696C65642C90
:1015C0002046696C653A200046696C652073656C3D
:1015D00065637465640A002053697A653A200046A1
:1015E000696C65206F70656E65643A2000454E44F5
:1015F00020535542524F5554494E450A00222070FF
:101600006F73002220706172656E743A2200535528
:1016100042524F5554494E452043414C4C20746131
:10162000726765743A220053756263616C6C204F77
:10163000766572666C6F770045786365656465648E
:10164000206D617820535542524F5554494E4520E4
:1016500064657074683A0057726974696E672074C3
:101660006F2066696C653A20004E6F7420534420E9
:101670007072696E74696E670A00534420707269F3
:101680006E74696E67206279746520006672657396
:101690006800646F696E67002066696C653A2000B7
:1016A0004E6F7720000A4D3234004D3233202573BF
:1016B000002F6175746F25632E670070012C0190F7
:1016C000012701B0012201C0011D01F00118011024
:1016D00002130130020E016002090190020401C0F0
:1016E00002FF000003FA004003F5008003F000D081
:1016F00003EB002004E6007004E100E004DC00409D
:1017000005D700C005D2004006CD00D006C8008035
:1017100007C3003008BE00F008B900C009B400B02B
:101720000AAF00B00BAA00D00CA500000EA000501C
:101730000F9B00C01096005012910000148C00C046
:10174000158700B0178200B0197D00D01B7800000B
:101750001E730040206E0090226900F02464004057
:10176000275F0090295A00E02B5500102E500020D2
:10177000304B0010324600E033410090353C001001
:1017800037370070383200A0392D00B03A2800A059
:101790003B2300603C1E00103D1900903D140010DA
:1017A0003E0F00703E0A00C03E0500003F000040B2
:1017B0003FFBFF803FF6FFC03FF1FF2020506C61F0
:1017C0006E6E657242756666657242797465733ACB
:1017D00020002046726565204D656D6F72793A2054
:1017E0000020436F6D70696C65643A204F6374200C
:1017F000313420323032330A00204C61737420556A
:101800007064617465643A20323032332D30352D86
:101810003136207C20417574686F723A20286467E5
:10182000746168656E6F2C2047656E697573290A4F
:10183000004D61726C696E20322E312E322E310ACB
:101840000020536F6674776172652052657365740A
:101850000A00205761746368646F6720526573657E
:10186000740A002042726F776E206F757420526583
:101870007365740A002045787465726E616C20523D
:10188000657365740A00506F77657255700A00734E
:10189000746172740A004732385859004D31303043
:1018A00031006F6B006572726F72207772697469B4
:1018B0006E6720746F2066696C650A00446F6E6500
:1018C00020736176696E672066696C652E0A004D2B
:1018D000323900205A3A0020593A0020583A00651F
:1018E0006E6473746F7073206869743A200000002E
:1018F0002200250028002B002E00310034000201B8
:101900000000050108010B0105050505070508088C
:101910000808020202020A0A080804040404010179
:10192000010101010101030303030303030304078E
:1019300007070C0C0C0C0C0C0C0C02020202060625
:101940000606060606060B0B0B0B0B0B0B0B010218
:1019500010202008081020401020408002010201C1
:101960000804020101020408102040808040201079
:1019700008040201800402018040201008040201D2
:10198000080402010102040810204080010204083A
:101990001020408000000A0B02090C0D0E080703FE
:1019A0000401000000000000000000000000000032
:1019B0000000000000000000000000000000000027
:1019C00012111000000000000000000000000000E4
:1019D0000000000000000000000024F404D9201BD7
:1019E000C40C5C0E9804C4095F0265077101F4051C
:1019F000F900FB04B30048048700C10369005803E1
:101A0000550003034500BE023A0084023100530230
:101A10002A002902250004022000E4011C00C8015C
:101A20001900AF011700980114008401130071011F
:101A300010006101100051010E0043010D0036013C
:101A40000B002B010B0020010B00150109000C01FC
:101A5000090003010800FB000800F3000800EB0088
:101A60000700E4000600DE000600D8000600D200F1
:101A70000600CC000500C7000500C2000500BD003F
:101A80000400B9000400B5000400B1000400AD007A
:101A90000400A9000400A5000300A20003009F00A9
:101AA00004009B00030098000300950002009300CF
:101AB0000300900003008D0002008B0003008800EB
:101AC00002008600020084000300810002007F0003
:101AD00002007D0002007B00020079000200770016
:101AE0000100760002007400020072000100710023
:101AF00002006F0002006D0001006C0002006A002D
:101B00000100690002006700010066000100650035
:101B10000100640002006200010061000100600039
:101B200001005F0002005D0001005C0001005B003D
:101B300001005A000100590001005800010057003F
:101B4000010056000100550001005400010053003F
:101B5000000053000100520001005100010050003C
:101B600001004F0001004E0000004E0001004D003A
:101B700001004C0001004B0000004B0001004A0036
:101B80000100490001004800000048000100470032
:101B9000010046000000460001004500000045002D
:101BA0000100440001004300000043000100420026
:101BB000000042000100410000004100010040001F
:101BC00001003F0000003F0001003E0000003E0019
:101BD00001003D0000003D0001003C0000003C0011
:101BE00000003C0001003B0000003B0001003A0007
:101BF00000003A00010039000000390001003800FF
:101C000000003800000038000100370000003700F5
:101C100001003600000036000000360001003500EB
:101C200000003500000035000100340000003400E1
:101C300000003400010033000000330000003300D6
:101C400001003200000032000000320001003100CB
:101C500000003100000031000100300000003000C1
:101C60000000300001002F0000002F0000002F00B6
:101C700000002F0001002E0000002E0000002E00AA
:101C800001002D0000002D0000002D0000002D009F
:101C900001002C0000002C0000002C0000002C0093
:101CA00001002B0000002B0000002B0000002B0087
:101CB00001002A0000002A0000002A0000002A007B
:101CC000010029000000290000002900000029006F
:101CD0000000290001002800000028000000280062
:101CE0000000280000002800010027000000270055
:101CF0000000270000002700000027000100260048
:101D0000000026000000260000002600000026003B
:101D1000010025000000250000002500000025002E
:101D20000000250000002500010024000000240020
:101D30000000240000002400000024000100230013
:101D40000000230000002300000023000000230007
:101D500000002300000023000100220000002200F8
:101D600000002200000022000000220000002200EB
:101D700001002100000021000000210000002100DE
:101D800000002100000021000000210001002000CF
:101D900000002000000020000000200000002000C3
:101DA00000002000000020000000200001001F00B3
:101DB00000001F0000001F0000001F0000001F00A7
:101DC00000001F0000001F0001001E0000001E0098
:101DD00000001E0000001E00000024F4D43050C398
:101DE0008E20C2A24017828B7011127A910D816CE5
:101DF000D90AA861E108C7586607615143061E4B1E
:101E00005D05C145A7041A411104093D98037139C4
:101E100031034036DB0265339102D4305402802E08
:101E20001D02632CEE01752AC501B028A001102700
:101E300081018F2564012B244B01E0223401AC2168
:101E40001F018D200D01801FFC00841EED00971DD9
:101E5000DF00B81CD200E61BC600201BBC00641AC1
:101E6000B200B219A8000A19A0006A189900D11787
:101E7000910040178B00B516840031167E00B31513
:101E800079003A157300C7146F0058146A00EE13F6
:101E900066008813630025135E00C7125B006C1296
:101EA000570015125400C111510070114F0021113B
:101EB0004B00D61049008D10470046104400021018
:101EC0004200C00F4000800F3E00420F3C00060F52
:101ED0003B00CB0E3800930E37005C0E3500270E0A
:101EE0003400F30D3200C10D3100900D3000600D53
:101EF0002E00320D2D00050D2C00D90C2B00AE0C40
:101F00002900850C29005C0C2700350C27000E0CDD
:101F10002600E80B2400C40B2400A00B23007D0B3B
:101F200023005A0B2100390B2100180B2000F80A5E
:101F30001F00D90A1E00BB0A1E009D0A1D00800A50
:101F40001D00630A1C00470A1B002C0A1B00110A13
:101F50001A00F7091A00DD091900C4091900AB09B4
:101F60001900920917007B091800630917004C0932
:101F7000160036091600200916000A091500F50892
:101F80001500E0081400CC081400B8081400A408D8
:101F90001400900813007D0812006B081300580805
:101FA000120046081200340811002308110012081C
:101FB000110001081100F0071000E0071000D00721
:101FC0001000C0071000B0070F00A1071000910714
:101FD0000E0083070F0074070F0065070E005707F8
:101FE0000E0049070E003B070D002E070E002007CC
:101FF0000D0013070D0006070D00F9060C00ED0695
:102000000D00E0060C00D4060C00C8060C00BC064F
:102010000C00B0060C00A4060B0099060C008D06FF
:102020000B0082060B0077060B006C060B006106A6
:102030000A0057060B004C060A0042060A00380642
:102040000A002E060A0024060A001A060A001006D4
:10205000090007060A00FD050900F4050900EB0563
:102060000900E2050900D9050900D0050900C705E6
:102070000900BE050900B5050800AD050800A50565
:1020800009009C050800940508008C0508008405DB
:1020900008007C050800740508006C05070065054C
:1020A00008005D050700560508004E0507004705B6
:1020B00007004005080038050700310507002A051C
:1020C0000700230507001C050600160507000F057D
:1020D00007000805060002050700FB040600F504DA
:1020E0000700EE040600E8040600E2040700DB0433
:1020F0000600D5040600CF040600C9040600C30488
:102100000600BD040600B7040600B1040500AC04D7
:102110000600A6040600A00405009B040600950422
:102120000500900406008A0405008504050080046B
:1021300006007A04050075040500700405006B04B0
:10214000050066040500610405005C0405005704F1
:102150000500520405004D04050048040500430431
:1021600005003E0404003A0405003504050030046F
:1021700004002C04050027040400230405001E04A9
:1021800004001A04040016040500110404000D04E0
:102190000400090405000404040000040400FC0316
:1021A0000400F8030400F4030400F0030400EC034B
:1021B0000400E8030400E4030400E0030400DC037B
:1021C0000400D8030400D4030400D0030400CC03AB
:1021D0000400C8030300C5030300281F00007A178A
:1021E0000000BC0F00007B09000047050000CC0286
:1021F000000071010000BB0000004572726F722088
:1022000077726974696E6720746F20454550524F2C
:102210004D210A00DB0FC93F45BCDA3F8FB30240B6
:10222000FCF0274056946140FE4B9B4084A5D8406B
:10223000E0231841346A5641E859974164DBD5419F
:102240006E271742B4B75542CE1A9742C8AED54250
:10225000B5885A43D40684BFA65FA7BF7443E0BFC6
:1022600010B11AC01C2C58C0E8F697C0B849D6C0A7
:102270004E4E17C124D355C1802497C1A0B5D5C1F6
:10228000121A17C244AE55C2781797C26CACD5C2A9
:1022900067885AC320746F6F206C6F6E67206578F3
:1022A00074727573696F6E2070726576656E746591
:1022B000640A0020636F6C642065787472757369BA
:1022C0006F6E2070726576656E7465640A0073685F
:1022D0006F7700626567696E0050757267654D6F54
:1022E00072650050617573656400436F6E74696E4A
:1022F0007565004C6F61642046696C616D656E7434
:10230000205400496E736572742066696C616D6556
:102310006E7420616E642073656E64204D313038B8
:102320000A0053656E64204D31303820746F20727E
:102330006573756D650A00496E7365727420666910
:102340006C616D656E7420616E642073656E6420CF
:102350004D3130380A0052656865617420446F6EF3
:102360006500526568656174696E672E2E2E005295
:102370006568656174004865617465722054696DB3
:10238000656F75740053656E64204D31303820746C
:102390006F2068656174206E6F7A7A6C650A004EF2
:1023A0006F7A7A6C65205061726B65640072657338
:1023B000756D6564004469736D697373005265736C
:1023C000756D696E6700FFFFFF28152A24262422F9
:1023D00024204500205A0020590020204D39322069
:1023E000580053746570732070657220756E69743F
:1023F00000220A00556E6B6E6F776E20636F6D6DF5
:10240000616E643A202200486F6D65202573204676
:1024100069727374006F6B0A00526573656E643A7B
:10242000200020453A00205A3A0020593A00583AF4
:1024300000706F7765726F6666005072696E7465C2
:10244000722068616C7465642E206B696C6C28293D
:102450002063616C6C6564210A006CAC0DB51124BD
:102460001FBECFEFD1E2DEBFCDBF00E00CBF84B70F
:102470008093F01B14BE0FB6F894A895809160006D
:10248000886180936000109260000FBE13E0A0E0AE
:10249000B2E0E0EEF6E801E00BBF02C007900D925B
:1024A000AE33B107D9F72BE1AEE3B3E001C01D9223
:1024B000A03FB207E1F712E1CEE2D2E100E006C0B0
:1024C00021970109802FFE010E94FBBFCD32D10769
:1024D00080E00807A9F70E94AEAD0C945FC30C948E
:1024E0000000CF93DF93C4E6D4E120E030E048E47D
:1024F00052E46091751770917617809177179091DB
:1025000078170E944DC287FF13C080E0FE01C4917E
:102510002091020190E002C095958795CA95E2F757
:1025200080FD0EC0207120930001DF91CF910895AE
:10253000FE01949181E001C0880F9A95EAF7E6CFF9
:102540002095F0CF80910608882339F06091D61746
:102550007091D7178091D817089560E070E080E0FF
:1025600008954F925F926F927F928F929F92AF9257
:10257000BF92CF92DF92EF92FF920F931F93CF9370
:102580000091F6071091F7072091F8073091F907AD
:102590008090BD179090BE17A090BF17B090C01745
:1025A0004091FA075091FB076091FC077091FD077D
:1025B000C090AB17D090AC17E090AD17F090AE176D
:1025C000C0E1FC01A6EFB7E001900D92CA95E1F7DA
:1025D000E091B717EE2349F128013901481859084D
:1025E0006A087B08530142010091F6071091F70732
:1025F0002091F8073091F907080D191D2A1D3B1D80
:102600000093F6071093F7072093F8073093F90724
:10261000FC0100811181228133810093BD17109349
:10262000BE172093BF173093C0172091A517222300
:1026300039F18A019B010C191D092E093F094091AE
:10264000FA075091FB076091FC077091FD07400F5E
:10265000511F621F731F4093FA075093FB0760934B
:10266000FC077093FD07FC0184819581A681B781E9
:102670008093AB179093AC17A093AD17B093AE17A0
:10268000CF911F910F91FF90EF90DF90CF90BF906F
:10269000AF909F908F907F906F905F904F90089534
:1026A000EF92FF920F931F93E0924B03F0924C0333
:1026B00000934D0310934E0360934F0370935003A8
:1026C000809351039FEFFF27621B730B840B30F441
:1026D000809570956195790B890B992790934A03A2
:1026E000A6E06A9F00923E03512DEE277A9F500D7F
:1026F000E11D8A9FE00D50933F03E0934003AFE05C
:102700006A9F00924203512DEE277A9F500DE11DE2
:102710008A9FE00D50934303E0934403AAE06A9F2D
:1027200000924603512DEE277A9F500DE11D8A9F9E
:10273000E00D50934703E09348031F910F91FF90E2
:10274000EF90089521E030E0082E02C0220F331FE1
:102750000A94E2F72095309590910604292320935E
:102760000604813061F020F0823071F081E008953C
:102770005F9A8091BC088E7F8093BC08F7CF8A9ABD
:102780008091BC088D7FF8CF809108018095817081
:1027900080930601479A8091BC088B7FEDCF2091F2
:1027A0009C0730919D07F901E95FFB4F9081969559
:1027B0009695937081E0913009F080E04091350268
:1027C0005091360260919A0770919B074F5F5F4F5F
:1027D0002F5F3F4F2F3291E0390711F430E020E0B6
:1027E0006217730721F1F901E95FFB4F908196951C
:1027F0009695937059F330939D0720939C075093BF
:102800003602409335024091E5075091E60760910A
:10281000DD077091DE07461B570B220F331FF901AE
:10282000EA5CFA4F20813181240F351F0AC0709372
:102830009D0760939C0750933602409335022FEF1B
:102840003FEF3093400220933F0208952091980774
:1028500030919907F901E95FFB4F9081937081E016
:10286000913009F080E04091370250913802609138
:102870009A0770919B074F5F5F4F2F5F3F4F2F323B
:1028800091E0390711F430E020E06217730711F18D
:10289000F901E95FFB4F9081937069F330939907D9
:1028A0002093980750933802409337024091E707EE
:1028B0005091E8076091DD077091DE07461B570BCA
:1028C000220F331FF901EA5CFA4F20813181240F76
:1028D000351F0AC070939907609398075093380288
:1028E000409337022FEF3FEF30933E0220933D029B
:1028F00008959F92AF92BF92CF92DF92EF92FF9294
:102900000F931F93CF93DF9300D01F921F92CDB7E9
:10291000DEB7EDE6F1E10027BB27462F572FA82FA2
:10292000AA2341F4A52F542FB85FAA2319F4A52F89
:102930005527B85FA03138F45295A295452F4F70B6
:10294000507FA42BBC5FA03428F4550FAA1F550F4D
:10295000AA1FBE5FA03818F4550FAA1FB395550FD4
:10296000AA1FEA0FF01F449151E0AA27B85079F14D
:10297000C0F0B0FF02C0440F551FB1FF04C0440FA8
:10298000551F440F551FB2FF06C052954295142F94
:102990001F70407F512BB3FF1AC0A52F542F44271F
:1029A00016C0B195B0FF02C055954795B1FF04C060
:1029B0005595479555954795B2FF05C05295407F6F
:1029C0004295452B5F70B3FF02C0452F5527DD248C
:1029D000CC24BB24B2E0649FD018C108B00AB00B6D
:1029E000749FC018B108B00B849FB018B109659FDF
:1029F000C018B108B00B759FB018B109859FB01908
:102A00006A9FB018B1097A9FB0194D9DA12C9924E5
:102A10003327992722275D9DA00C911C301F901F02
:102A2000201FAD9D900C311D901F201F4C9DA00CB0
:102A3000911C301F901F201F5C9D900C311D901F1A
:102A4000201FAC9D300D911D201F4B9D900C311D02
:102A5000901F201F5B9D300D911D201FAB9D900D81
:102A6000211D4B9F300D911D201F5B9F900D211D3F
:102A7000AB9F200DB1E0BB24CC24DD24639FD01894
:102A8000C108B00AB00B739FC018B108B00B839F88
:102A9000B018B109699FC018B108B00B799FB01880
:102AA000B109899FB019629FB018B109729FB0191E
:102AB000D61AC70AB80A20F0B1E03B0F901F201FBA
:102AC0001124792F632F90E0822F0F900F900F9099
:102AD0000F900F90DF91CF911F910F91FF90EF908A
:102AE000DF90CF90BF90AF909F900895AF92BF922C
:102AF000CF92DF92EF92FF920F931F93CF93DF93CA
:102B0000C7E1D4E103ED18E087E2A82E84E1B82EF6
:102B1000C12CD12C7601C3946991799189919991B5
:102B20000E946AB9288939894A895B890E94CBB990
:102B30000E946FC1F80161937193819391938F010A
:102B4000C616D706E806F90610F46B017C01AC1630
:102B5000BD0611F76FEF7FEFCB01A70196010E9431
:102B600090BF2093E3083093E4084093E508509326
:102B7000E608DF91CF911F910F91FF90EF90DF90CA
:102B8000CF90BF90AF900895CF92DF92EF92FF92D7
:102B900080910404882309F457C0C0900004D090A9
:102BA0000104E0900204F090030420E030E0A90169
:102BB000C701B6010E9466B9882309F445C020E028
:102BC00030E040E05FE3C701B6010E94CBB99B0152
:102BD000AC010E94CBB92BED3FE049E450E40E94E8
:102BE000CBB99B01AC0160E070E080E89FE30E94FC
:102BF00002C16B017C01C092E703D092E803E0922E
:102C0000E903F092EA036091170270911802072E0F
:102C1000000C880B990B0E946CB92AE037ED43E257
:102C20005CE30E94CBB9A70196010E94CBB96093E7
:102C30004F02709350028093510290935202FF9082
:102C4000EF90DF90CF900895C12CD12C80E8E82E32
:102C50008FE3F82ED0CF8091C4179091C517891BB0
:102C60008F7119F490E080E008959091C117992335
:102C700051F0833030F48FEF890F19F08093C11732
:102C8000F1CF1092C1178091C51727E5829FC0012F
:102C900011248750974FFC01208120FDE3CF209124
:102CA000C5172F5F2F712093C2173091C517209140
:102CB000C317321304C02091C2172093C31708957D
:102CC00090916F0081E091FD02C080E008959091A5
:102CD0006F009D7F90936F000895FC017081472FD6
:102CE00050E0062E02C0559547950A94E2F740FF42
:102CF00014C04091DA0350E0062E02C05595479566
:102D00000A94E2F740FF09C021E030E001C0220F41
:102D10006A95EAF72095272320830895CF93DF93C0
:102D200024E0829FC0011124EC01C151D94EFC0165
:102D3000E254F74F85529C4FDC012D913D914D910E
:102D40005C9160817181828193810E9426C0688339
:102D500079838A839B83DF91CF9108958F929F928D
:102D6000AF92BF92CF92DF92EF92FF92CF93DF9319
:102D700020911B02222309F48EC0EC018091DA031A
:102D8000E82E80FF2CC080901D0290901E02A09023
:102D90001F02B0902002288139814A815B81C501E0
:102DA000B4010E944DC2181624F488829982AA8226
:102DB000BB828090290290902A02A0902B02B090B2
:102DC0002C02288139814A815B81C501B4010E94AE
:102DD00066B987FF04C088829982AA82BB82E1FE1D
:102DE0002CC08090210290902202A0902302B090EB
:102DF00024022C813D814E815F81C501B4010E9476
:102E00004DC2181624F48C829D82AE82BF828090BF
:102E10002D0290902E02A0902F02B09030022C81B3
:102E20003D814E815F81C501B4010E9466B987FF73
:102E300004C08C829D82AE82BF82E2FE2CC0C09014
:102E40002502D0902602E0902702F09028022885E3
:102E500039854A855B85C701B6010E944DC21816A7
:102E600024F4C886D986EA86FB86C0903102D090C9
:102E70003202E0903302F0903402288539854A8589
:102E80005B85C701B6010E9466B987FF04C0C8868A
:102E9000D986EA86FB86DF91CF91FF90EF90DF9095
:102EA000CF90BF90AF909F908F900895CF93DF9376
:102EB000DB01F9019C919130C1F0943080F0945085
:102EC0009C938830D1F480819181009771F00197B3
:102ED00091838083480F591FEA01188206C08C3500
:102EE00039F49C5F9C93943041F4DF91CF91089525
:102EF0008B3339F781E08C93F8CF20813181B90190
:102F00006F5F7F4F71836083420F531FEA01888395
:102F1000808191818F3591056CF7E7CF0F931F93D7
:102F200081E00091E0171091E1172091E2173091B4
:102F3000E3174091DC175091DD176091DE17709117
:102F4000DF17041715072607370708F480E01F91DD
:102F50000F91089590E080E008952091A6038330BA
:102F600021F425FD0CC024FD0CC030E0A90102C0F5
:102F7000559547958A95E2F7CA018170089581E0D9
:102F8000089580E008958091C10384FD0BC0809175
:102F9000C30387FD07C09091C403937081E019F4C7
:102FA00080E0089581E008952FEB280F2A3108F082
:102FB00047C0E22FF0E08091C1039091C203A0913D
:102FC000C303B091C40304C0B695A79597958795A0
:102FD0002A95D2F780FD02C081700895E955FC4F13
:102FE000E081EE2341F18091621490916314E80F27
:102FF000F92FF11D808190ED980F9A3030F08E32CC
:1030000051F4818180538A3098F4F093A203E093C5
:10301000A10381E008958D3211F08B3249F4818152
:1030200090ED980F9A3088F38E3211F48281EACFB6
:10303000F0E0E0E0EACF1092A2031092A103E9CF02
:1030400080E008958091EB0381110EC02091190258
:1030500030911A022150310981E040917917509145
:103060007A17421753070CF080E008950F931F93CF
:103070008091DD13813019F50E94BD930091CE033C
:103080001091CF032091D0033091D103601B710BBD
:10309000820B930B28EE33E040E050E00E9490BF9B
:1030A0006091CA037091CB038091CC039091CD03C2
:1030B000620F731F841F951F1F910F9108956091D8
:1030C000D2037091D3038091D4039091D503D6CFCE
:1030D0008091DD13813079F482E08093DD130E94CA
:1030E000BD936093D2037093D3038093D4039093E2
:1030F000D50381E0089580E00895CF93DF93C091D8
:103100004D17D0914E17209729F160914917709172
:103110004A1780914B1790914C170E946AC16E5FBD
:103120007F4F24976C177D07ACF47093130860935E
:1031300012080E94BD93605A75418F4F9F4F609354
:103140001408709315088093160890931708DF9160
:10315000CF91089510921408109215081092160835
:1031600010921708F4CF4F925F926F927F928F92D6
:103170009F92AF92BF92CF92DF92EF92FF920F9306
:103180001F93CF93DF93082FEB01C880D980EA808B
:10319000FB8020E030E0A901C701B6010E9466B9BA
:1031A00018160CF079C020E030E040E85FE3C7017A
:1031B000B6010E944DC287FF76C029E43AE046EC92
:1031C00052ECC701B6010E94CBB921E931EE40E8CB
:1031D00052E40E9426C02B013C01A7019601C701C1
:1031E000B6010E94CBB94B015C012FE237E942EFF7
:1031F00050EC0E94CBB9A30192010E9426C02B0182
:103200003C01A5019401C701B6010E94CBB929EF89
:103210003AE44CE252E40E94CBB9A30192010E942D
:1032200026C00E949BC16B017C01BFB6F894C70108
:10323000B6010E946FC1162FA701960160E070E0F1
:1032400080E093E40E9425C00E946FC101112FC04D
:103250001093BB176093BA1788819981AA81BB81AB
:103260008093B3179093B417A093B517B093B61784
:10327000B7FE01C07894DF91CF911F910F91FF901D
:10328000EF90DF90CF90BF90AF909F908F907F9006
:103290006F905F904F900895C12CD12C80E8E82E5C
:1032A00082E4F82EC2CFC12CD12C7601BECF109370
:1032B000A9176093A81788819981AA81BB818093FF
:1032C000A1179093A217A093A317B093A417D0CFE0
:1032D0004091050421E0422768E070E00C94E68FFD
:1032E0004091050421E042276CE070E00C94E68FE9
:1032F0004091050421E0422764E070E00C94E68FE1
:103300004091050421E0422761E070E00C94E68FD3
:103310004091050421E0422761E070E00C94E68FC3
:103320004091050421E0422768E070E00C94E68FAC
:103330004091050421E042276CE070E00C94E68F98
:1033400041E061E070E00C94E68F41E062E070E003
:103350000C94E68F4091050421E042270C94E68FFF
:103360006CE070E00C94569364E070E00C9456931B
:1033700062E070E00C94569361E070E00C94569318
:1033800061E070E00C9456936CE070E00C945693FE
:103390000F931F93CF93DF930BE214E1C8EED8E0B5
:1033A000F80121913191419151918F0160E070E0DC
:1033B00080E89FE30E9402C169937993899399936E
:1033C000F8E0C83FDF0761F70E944391DF91CF919A
:1033D0001F910F918BCBCF93DF93CDB7DEB72C9797
:1033E0000FB6F894DEBF0FBECDBF19821A821B82C2
:1033F0001C821D821E821F82188619861A861B86D1
:103400001C86AE014F5F5F4FBC0183E592E00E94D6
:1034100087922C960FB6F894DEBF0FBECDBFDF911A
:10342000CF9108958091A1039091A203009731F06C
:103430004AE050E070E060E00C94C6B760E070E0F5
:10344000CB0108958091A1039091A203009731F0E0
:103450004AE050E070E060E00C949AB660E070E002
:10346000CB010895EFDFCB010895ECDF97FD0AC093
:10347000E9DF6F3F71058105910509F02CF4E2DF6A
:10348000862F089580E008958FEF08958091A1031D
:103490009091A203892B39F0E8DF91E0811101C0FE
:1034A00090E0892F089591E0FCCFCF93DF93EC015A
:1034B000688170E085E00E94448E698170E084E05C
:1034C0000E94448E6A8170E086E00E94448E88816A
:1034D0009981482F490F5527551F8A81840F952FB1
:1034E000911D21E0833091050CF420E02093060823
:1034F00003974CF088819981AA818093D617909385
:10350000D717A093D817DF91CF9108958F929F92EC
:10351000AF92BF92CF92DF92EF92FF92CF93DF9361
:1035200000D0CDB7DEB72FEF8417950731F16A01D0
:10353000052E000CEE08FF084C01092E000CAA080D
:10354000BB08681779072CF0CB01461757070CF416
:10355000CA019C01990F440B550B281939094A09D6
:103560005B09AFEFB0E00E94CEBFA701960128191A
:1035700039094A095B090E94B2BF8091310882175C
:1035800051F0209331088FEF89831A8220952B8385
:10359000CE0101968ADF0F900F900F90DF91CF91AF
:1035A000FF90EF90DF90CF90BF90AF909F908F9063
:1035B00008958F929F92AF92BF92CF92DF92EF9237
:1035C000FF92CF93DF9300D0CDB7DEB72FEF8417F4
:1035D000950731F16A01052E000CEE08FF084C0139
:1035E000092E000CAA08BB08681779072CF0CB013C
:1035F000461757070CF4CA019C01990F440B550B51
:10360000281939094A095B09AFEFB0E00E94CEBF23
:10361000A7019601281939094A095B090E94B2BF1E
:1036200080913108821749F02093310829831A824A
:103630008FEF8B83CE01019638DF0F900F900F90A4
:10364000DF91CF91FF90EF90DF90CF90BF90AF9040
:103650009F908F9008950F930FB70F9300916E0076
:103660000D7F00936E0078940F930BB70F930CB7F8
:103670000F921F922F933F934F935F936F937F937C
:103680008F939F93AF93BF93EF93FF93112488D4AD
:10369000FF91EF91BF91AF919F918F917F916F912A
:1036A0005F914F913F912F911F900F900CBF0F9101
:1036B0000BBF0F910260F89400936E000F910FBF43
:1036C0000F911895CF93DF9310923608C1E7D7E199
:1036D000198618860E9436A71A862C98C5E4D7E169
:1036E000198618860ADD1A868091020180728093FD
:1036F0000001DF91CF9108958F929F92AF92BF9278
:10370000CF92DF92EF92FF920F931F93CF93DF93AD
:10371000B0E4A0E06A2F70E0AB014B0F511D55954E
:103720004795411119C0EDEBF6E165917491072EB3
:10373000000C880B990B0E946CB9DF91CF911F91FF
:103740000F91FF90EF90DF90CF90BF90AF909F9040
:103750008F900895B42FE0CFA41711F0B41303C0D5
:10376000E9EBF7E1E2CF9A0121503109220F331F33
:10377000220F331FF901E554F94EE590F490F90159
:10378000E154F94EC591D4918E159F0518F3A42FDD
:10379000C817D90708F4BECFF901E354F94E0591D3
:1037A0001491F901EF53F94EC590D4908E199F09E9
:1037B000BC0190E080E00E946AB94B015C01B60157
:1037C000601B710B072E000C880B990B0E946CB9C3
:1037D0009B01AC01C501B4010E94CBB94B015C0156
:1037E000CE19DF09BE0190E080E00E946AB99B011A
:1037F000AC01C501B4010E9402C16B017C01B8019A
:10380000110F880B990B0E946CB99B01AC01C70189
:10381000B6010E9426C091CFBC012091E3073091F0
:10382000E4074091E3075091E4072417350731F48A
:1038300081E02617370709F080E008959A01F1CF5B
:103840000F930FB70F9300916E000F930D7F0093AE
:103850006E0000916F000D7F00936F000F930BB708
:103860000F930CB70F921F922F933F934F935F9339
:103870006F937F938F939F93AF93BF93EF93FF9338
:103880001124C0D4FF91EF91BF91AF919F918F917F
:103890007F916F915F914F913F912F911F900F906A
:1038A0000CBF0F910BBF0F910260F89400936F0053
:1038B0000F9100936E000F910FBF0F91189580919B
:1038C000BD0880FF23C089988FEF80939407809173
:1038D000BD0881FF1EC08F988FEF80939507809160
:1038E000BD0882FF19C080910B0180958270809382
:1038F0000901439A8FEF809396078091BD0883FF5B
:1039000013C016988FEF809397070895899A81E0E6
:10391000DCCF8F9A81E0E1CF80910B0182708093A0
:103920000901439881E0E7CF169A81E0ECCF8091BE
:103930000604877F80930604129A81E0089580E050
:103940000E94A21381E00E94A21382E00E94A213AF
:10395000EECF129880910604886080930604089543
:10396000813089F070F0823081F021E030E001C0D8
:10397000220F8A95EAF780910604822B8093060431
:1039800008955F98F2CF8A98F0CF909108019170D6
:10399000909306014798E9CFCF93DF938091EB0393
:1039A000811119C0C0911902D0911A02219720E00B
:1039B00030E040E05FE36091751770917617809179
:1039C0007717909178170E9426C00E946AC121E063
:1039D0006C177D070CF020E0822FDF91CF910895C6
:1039E0002F923F924F925F926F927F928F929F920F
:1039F000AF92BF92CF92DF92EF92FF920F931F93FD
:103A0000CF93DF93CDB7DEB7A0970FB6F894DEBFA4
:103A10000FBECDBF1C017B015E834D83FC01EA5BC1
:103A2000FF4F208131814281538129833A834B8327
:103A30005C83CA01B9010E946AB94B015C01D701DC
:103A40002D913D914D915C910E94CBB90E94ECC0AB
:103A50002B013C01ED81FE81208131814281538126
:103A6000C501B4010E94CBB90E94ECC06B017C017E
:103A7000C301B2010E946FC169877A878B879C87D7
:103A8000683771058105910540F428E730E040E092
:103A900050E029873A874B875C87C701B6010E94AF
:103AA0006FC16D877E878F87988B68377105810519
:103AB000910548F428E7C22ED12CE12CF12CCD86BB
:103AC000DE86EF86F88AD1019596CD90DD90ED9057
:103AD000FC909897CD82DE82EF82F886F101EE5A53
:103AE000FF4F60817181828193816115710581052C
:103AF000910509F49FC10E946CB96D8B7E8B8F8BF1
:103B0000988F9B01AC0160E070E080E89FE30E9429
:103B100002C1698F7A8F8B8F9C8F20E030E040E06C
:103B20005FE30E94CBB96B017C01A5019401C50143
:103B3000B4010E94CBB92B013C016D857E858F8538
:103B400098890E946AB99B01AC010E94CBB99B0184
:103B5000AC01C301B2010E9425C0A70196010E94D9
:103B6000CBB94B015C0169857A858B859C850E9468
:103B70006AB99B01AC010E94CBB96D8F7E8F8F8F8C
:103B800098A39B01AC01C301B2010E9425C0A7010B
:103B900096010E94CBB92B013C010E94ECC00E940F
:103BA0006FC16B017C01C501B4010E949BC10E94E1
:103BB0006FC1698B7A8B8B8B9C8BDC01CB018C0D5D
:103BC0009D1DAE1DBF1D2D813E814F815885281B37
:103BD000390B4A0B5B0BDA01C901B7FF61C06D817C
:103BE0007E818F8198850E946AB9A30192010E940B
:103BF00026C0A50194010E9425C020E030E040E0ED
:103C00005FE30E94CBB90E94ECC06B017C0120E015
:103C100030E0A9010E944DC218161CF0C12CD12C15
:103C20007601C701B6010E946FC16B017C014D8115
:103C30005E816F8178854C155D056E057F0510F4FA
:103C40006A017B016D817E818F8198856C197D0968
:103C50008E099F09698B7A8B8B8B9C8BC701B60170
:103C60000E946AB94B015C012D893E894F89588DAC
:103C7000CA01B9010E9426C09B01AC01C501B40173
:103C80000E94CBB92D8D3E8D4F8D58A10E9426C02C
:103C90000E9493C20E946FC169837A838B839C8345
:103CA00020E034E244EF59E4698D7A8D8B8D9C8D50
:103CB0000E94CBB94B015C0169817A818B819C8127
:103CC00029853A854B855C85621B730B840B950BAC
:103CD0000E946AB9A50194010E94CBB90E946FC1EC
:103CE0002B013C0169817A818B819C812D853E85E8
:103CF0004F855889621B730B840B950B0E946AB920
:103D0000A50194010E94CBB90E946FC14B015C01D7
:103D10003FE6431651046104710408F097C0F201B4
:103D2000EE0FFF1FEE0FFF1FEF54F04F859195919F
:103D3000A591B4918C01AD8BBD834FE6841691049F
:103D4000A104B10408F08AC0F401EE0FFF1FEE0FCA
:103D5000FF1FEF54F04F45915591659174919A0171
:103D6000CB01D1019996CD92DD92ED92FC929C9778
:103D700095964D915D916D917C919897C988DA885F
:103D8000EB88FC884C195D096E097F099D964D935F
:103D90005D936D937C93D097F101E65BFF4FC984EF
:103DA000DA84EB84FC84C082D182E282F382D596ED
:103DB0004D925D926D927C92D897F10181AE92AE58
:103DC000A3AEB4AEFD9600831183CD88C282DD80A0
:103DD000D38234962083318382839383C980DA80AF
:103DE000EB80FC80D196CD92DD92ED92FC92D4973F
:103DF0003D96CD84DE84EF84F888C082D182E28251
:103E0000F382A0960FB6F894DEBF0FBECDBFDF9150
:103E1000CF911F910F91FF90EF90DF90CF90BF90C7
:103E2000AF909F908F907F906F905F904F903F905A
:103E30002F900895198E1A8E1B8E1C8E198A1A8A3D
:103E40001B8A1C8AC12CD12C76012ACFC301B20156
:103E50000E9479148B018D8B9D836FCFC501B401B6
:103E60000E9479149B017DCFEFE6F0E080818260B3
:103E700080830895CF93C82F0E94601694E0C99F55
:103E800090011124F901E651F84F2A50384FD90119
:103E90004D915D916D917C914083518362837383D9
:103EA00091E09093E907882311F0CF91DDCFCF9176
:103EB0000895CF93DF938091D90365995BC08160AA
:103EC0008093D903909103018091D90391FD54C04F
:103ED00082608093D9038091D9034B994FC084604D
:103EE0008093D9038091D9039091D803981709F44E
:103EF00047C092E09093D7038093D8038091BB088A
:103F0000882309F44AC0C091D407C0FF0FC0809134
:103F1000BD0880FF0BC08091D60380FF07C0809151
:103F2000CC0881608093CC0880E0A4DFC1FF0FC083
:103F30008091BD0881FF0BC08091D60381FF07C02F
:103F40008091CC0882608093CC0881E093DFC2FF2F
:103F500024C08091BD0882FF20C08091D60382FFDB
:103F60001CC08091CC0884608093CC0882E0DF91F3
:103F7000CF9180CF8E7FA4CF8D7FABCF8B7FB0CF03
:103F80008091D703882309F4B9CF81508093D70358
:103F90008111B4CF9093D603B1CFDF91CF91089523
:103FA0001F93CF93DF93809143028F3708F49AC019
:103FB0008F5790917B1790933008992309F490C004
:103FC0002C9A20914F1720932F08909102012111D4
:103FD00090959072909300018F5F8093430280913F
:103FE0002E0891E0892780932E0880914202980F35
:103FF00085300CF090E0823009F4CFC00CF07FC027
:10400000882309F494C0813009F4BBC09093420224
:10401000C0912B08D0912C08209709F451C0F89436
:1040200010910901127082E09BDC80910B011C163B
:104030001D060CF080958270809309011C161D06E8
:104040000CF4DAC0439A209184003091850080916D
:104050000B018095887080930901419A80918400BA
:1040600090918500821B930BB0E0A0E043E0880FA5
:10407000991FAA1FBB1F4A95D1F78097A105B105CB
:1040800068F380910B0188708093090141988091B9
:104090000B0111118095827080930901112309F49D
:1040A000ADC0439A789480912B0890912C081C16EF
:1040B0001D060CF0A5C0019790932C0880932B0847
:1040C000F8DE8091091490910A14009729F0019765
:1040D00090930A1480930914DF91CF911F91089552
:1040E0002C986FCF90913008891708F02C989091F8
:1040F0002F08891708F470CF909102016ACF84309D
:1041000009F463C00CF45CC0853009F07FCF2091C6
:104110002D08211102C080932D0880912D08815017
:1041200080932D08882309F471CF95E06FCF80919B
:1041300041028F5F80311CF48093410267CF10925F
:10414000410280912A08811113C02091711730918A
:10415000721730937417209373172091451730917D
:104160004617309348172093471781E080932A0819
:1041700010927217109271171092461710924517ED
:1041800045CF88E080937B0085E480937C0080911C
:104190007A00806480937A0039CF80917A0086FD1E
:1041A00027C040917800509179002091711730918B
:1041B0007217240F351F309372172093711726CF73
:1041C00088E080937B0086E4E0CF80917A0086FDD2
:1041D00011C040917800509179002091451730919D
:1041E0004617240F351F30934617209345170ECFDF
:1041F00092E00CCF94E00ACF439825CF439852CF5A
:1042000001965ACF2F923F924F925F926F927F9278
:104210008F929F92AF92BF92CF92DF92EF92FF92D6
:104220000F931F93CF93DF93CDB7DEB76B970FB686
:10423000F894DEBF0FBECDBF8FEF9FEF9093890044
:10424000809388002AE028871A82198278948091C6
:104250003D0290913E0221E0892B61F03091CE0821
:1042600021E080913702909138023817190609F041
:1042700008F420E080913F0290914002892B09F4DC
:1042800055C03091CE0841E04B838091350290912A
:1042900036023817190609F008F41B82211149C0AB
:1042A0004B80442009F45DC11F821FEF02E04F8064
:1042B000442009F47BC00E9426146091B8177091C5
:1042C000B9172091BB1730E041E050E0811102C0E6
:1042D0004FEF5FEF249FC001259F900D349F900DFD
:1042E0001124860F971F9093B9178093B8172091C8
:1042F000940712160CF5813C9F4F1CF52091840009
:10430000309185008091840090918500821B930BF1
:104310000297C0F38091BD0891E098279093BD0863
:1043200080FD83C08998109394070BC051E05B8394
:10433000B5CF21E02F83B9CF222319F08034910526
:10434000ECF68091B8179091B9179C01215C3F4F12
:104350002F37310508F46EC04091940720E830E013
:10436000141614F420E83FEF820F931F9093B917AF
:104370008093B817842F440F990BAA0BBB0B409165
:10438000F6075091F7076091F8077091F907840FCD
:10439000951FA61FB71F8093F6079093F707A0936A
:1043A000F807B093F907889A41E04F834B80442087
:1043B00009F47CC00E94CF136091A6177091A717D3
:1043C0002091A91730E041E050E0811102C04FEF89
:1043D0005FEF249FC001259F900D349F900D112405
:1043E000860F971F9093A7178093A6172091950784
:1043F000121614F5813C9F4F24F5209184003091D2
:1044000085008091840090918500821B930B029718
:10441000C0F38091BD08982F90279093BD0881FD2F
:1044200096C08F98109395070CC0899A31E030930D
:10443000940787CF1F82BACF222319F080349105C9
:10444000E4F68091A6179091A7179C01215C3F4F3D
:104450002F37310508F480C04091950720E830E0FF
:10446000141614F420E83FEF820F931F9093A717C0
:104470008093A617842F440F990BAA0BBB0B409176
:10448000FA075091FB076091FC077091FD07840FBC
:10449000951FA61FB71F8093FA079093FB07A09361
:1044A000FC07B093FD078E9A41E04B834F8041108B
:1044B00003C05B80552091F02091840030918500ED
:1044C0008091840090918500821B930B0297C0F32A
:1044D0006F80611088987B8071108E9880913D026A
:1044E00090913E0221E0892B61F03091CE0821E0CD
:1044F00080913702909138023817190609F008F4B4
:1045000020E02F8380913F0290914002892B31F16E
:104510003091CE0841E04B83809135029091360274
:104520003817190609F008F41B82211103C04B80CB
:104530004420B9F02091840030918500809184005E
:1045400090918500821B930B0297C0F3B0CE8F9A97
:1045500031E03093950775CF1B82A8CF51E05B8384
:10456000E4CF8091DF079091E007A091E107B0913F
:10457000E207892B8A2B8B2B09F0B4C38091E907C2
:10458000882309F464C08091E3079091E4071092B6
:10459000E907892B09F45BC01092E4071092E30746
:1045A0001092D4079091C4178091C517981731F0D5
:1045B0008091C5178F5F8F718093C51720919A07DF
:1045C00030919B0730939907209398078EE291E0F2
:1045D000909338028093370266246A94762C709206
:1045E0003E0260923D0230939D0720939C0790937A
:1045F0003602809335027092400260923F02109220
:10460000B9171092B8178091F6079091F707A0910B
:10461000F807B091F9078093BD179093BE17A09348
:10462000BF17B093C0171092A7171092A6178091CA
:10463000FA079091FB07A091FC07B091FD078093CA
:10464000AB179093AC17A093AD17B093AE178091B2
:10465000E3079091E407892B09F444C34091D907FB
:104660005091DA076091DB077091DC078091D507E4
:104670009091D607A091D707B091D807481759074E
:104680006A077B0708F02EC30091CE0810E030E0E7
:1046900020E0841B950BA60BB70B081719072A07F8
:1046A0003B0710F4D901C8018F83840F951FA61F03
:1046B000B71F8093D9079093DA07A093DB07B093D5
:1046C000DC07312C212C21E029878090A2079090D3
:1046D000A307A090A407B090A5078091B20790917E
:1046E000B307A091B407B091B507880E991EAA1E12
:1046F000BB1E8092B2079092B307A092B407B0920B
:10470000B5079501840100951095209530950027F7
:1047100037FD0395112722273327602FB7FC18C0D8
:1047200080919E0790919F07A091A007B091A1074B
:1047300024013501481A590A6A0A7B0AD301C201C9
:104740008093B2079093B307A093B407B093B507D3
:10475000C090A607D090A707E090A807F090A907FF
:104760008091B6079091B707A091B807B091B907AB
:10477000C80ED91EEA1EFB1EC092B607D092B7071C
:10478000E092B807F092B907D701C60180959095DD
:10479000A095B0958827B7FD83959927AA27BB27B1
:1047A000182FF7FC18C080919E0790919F07A09149
:1047B000A007B091A107A7019601281B390B4A0B4E
:1047C0005B0BDA01C9018093B6079093B707A093FA
:1047D000B807B093B9074090AA075090AB07609014
:1047E000AC077090AD078091BA079091BB07A0917C
:1047F000BC07B091BD07A3019201280F391F4A1FC2
:104800005B1F2B833C834D835E832093BA073093D9
:10481000BB074093BC075093BD0757FD16C080915E
:104820009E0790919F07A091A007B091A107281B18
:10483000390B4A0B5B0BDA01C9018093BA079093DD
:10484000BB07A093BC07B093BD078091AE079091C2
:10485000AF07A091B007B091B1074090BE0750904C
:10486000BF076090C0077090C107480E591E6A1EAE
:104870007B1E4092BE075092BF076092C0077092A5
:10488000C10777FC18C080919E0790919F07A09167
:10489000A007B091A107A3019201281B390B4A0B75
:1048A0005B0BDA01C9018093BE079093BF07A09309
:1048B000C007B093C1078091B717811101C060E0B4
:1048C0007091A517772311F40C94472DF7FE02C0C1
:1048D0000C94472DA091AA17B091BC17209198076E
:1048E0003091990780919A0790919B072817390773
:1048F00051F4662341F04091E7075091E807509347
:104900003E0240933D0240919C0750919D075B8F72
:104910004A8F8417950751F4772341F04091E507BA
:104920005091E6075093400240933F02FC01EE0F86
:10493000FF1FEA5CFA4F4091DD075091DE0751837B
:10494000408350E0662321F051E0B11101C052E0F4
:10495000FC01E95FFB4F40814C7F452B408350E0D9
:10496000772321F051E0A11101C052E0550F550FFE
:104970004081437F452B408301968F3251E095075C
:1049800009F46CC090939B0780939A07809137023B
:10499000909138020197909338028093370280916A
:1049A000350290913602019790933602809335023A
:1049B000295F3B4FD9018C91837011F40E9426141A
:1049C000EA8DFB8DE95FFB4F80818695869583702C
:1049D00011F40E94CF138091B717882309F461C0A6
:1049E000B7FC5FC06091B8177091B9172091BA17E2
:1049F00030E08091BC1741E050E0811102C04FEFE0
:104A00005FEF249FC001259F900D349F900D1124CE
:104A1000860F971F9093B9178093B817209194072A
:104A200012160CF5813C9F4F1CF5209184003091AB
:104A300085008091840090918500821B930B0297E2
:104A4000C0F38091BD0891E098279093BD0880FD48
:104A50006BC089982FEF209394070AC010929B0790
:104A600010929A0793CF222319F080349105ECF627
:104A70008091B8179091B9179C01215C3F4F00E0DD
:104A80002F37310570F02091940712160CF051C0A9
:104A900020E83FEF820F931F9093B9178093B817C8
:104AA00001E08091A517882309F464C0F7FC62C077
:104AB0006091A6177091A7172091A81730E08091F8
:104AC000AA1741E050E0811102C04FEF5FEF249F31
:104AD000C001259F900D349F900D1124860F971FC4
:104AE0009093A7178093A61720919507121624F587
:104AF000813C9F4F34F52091840030918500809156
:104B0000840090918500821B930B0297C0F38091E3
:104B1000BD0892E098279093BD0881FD95C18F98BC
:104B20005FEF509395070DC0899A31E03093940759
:104B30009FCF20E830E0AECF222319F080349105DA
:104B4000D4F68091A6179091A7179C01215C3F4F46
:104B500010E02F37310570F02091950712160CF0F8
:104B600078C120E83FEF820F931F9093A71780939F
:104B7000A61711E09985911108C080918400909149
:104B80008500821993090297C0F30023E1F0409158
:104B90009407042E000C550B660B770B8091F607DB
:104BA0009091F707A091F807B091F907840F951F2E
:104BB000A61FB71F8093F6079093F707A093F807F7
:104BC000B093F907889A1123E1F040919507042EDC
:104BD000000C550B660B770B8091FA079091FB0741
:104BE000A091FC07B091FD07840F951FA61FB71F6A
:104BF0008093FA079093FB07A093FC07B093FD07FF
:104C00008E9A2B813C814D815E8157FD22C040915F
:104C10009607042E000C550B660B770B8091FE0750
:104C20009091FF07A0910008B0910108840F951F93
:104C3000A61FB71F8093FE079093FF07A09300085D
:104C4000B093010880910B018095887080930901D1
:104C5000419A77FC1CC040919707042E000C550B1D
:104C6000660B770B8091020890910308A0910408CD
:104C7000B0910508840F951FA61FB71F80930208E7
:104C800090930308A0930408B0930508149A209009
:104C90008400309085008091840090918500821975
:104CA00093090297C0F30111889811118E988B8196
:104CB0009C81AD81BE81B7FD06C080910B018870DB
:104CC00080930901419877FE14984F80442021F089
:104CD00020908400309085002F8121502F831986E9
:104CE0002111F3CC8091DF079091E007A091E107BB
:104CF000B091E207892B8A2B8B2B09F045C6409097
:104D0000E3075090E4075C824B82452809F4C5C64E
:104D10008091D9079091DA07A091DB07B091DC0769
:104D20004091D5075091D6076091D7077091D80769
:104D300084179507A607B70708F48EC01092E407FA
:104D40001092E3071092D4079091C4178091C51771
:104D5000981709F4A2C68091C5178F5F8F71809351
:104D6000C51750EDC52E57E0D52EE12CF12C8091C2
:104D7000E3079091E407892B09F0FEC50E942B16EA
:104D80009093E4078093E307892B09F4F5C54090DD
:104D9000E3075090E4075C824B82D2018C9183FD43
:104DA00032C4F20185899689A789B08D41E00097C8
:104DB000A105B10509F440E0EB81FC81C18CD28CE6
:104DC000E38CF48CC114D104E104F10409F034C47F
:104DD000EB81FC81058D168D278D30A10115110504
:104DE0002105310509F044604093D4071092C207B1
:104DF0001092C3071092C4071092C5071092CC07F7
:104E00001092CD071092CE071092CF07EB81FC8154
:104E1000EA5BFF4F80809180A280B38050E0F4E98C
:104E20008F16FFE09F06A104B10408F007C4880CA8
:104E3000991CAA1CBB1C44E984164FE09406A104EB
:104E4000B10468F75F5FEBCF8F9A81E0809395079D
:104E500078CE20E830E087CE4091D0075091D1073E
:104E60006091D2077091D307481759076A077B07EB
:104E700008F4B2C18091CC079091CD07A091CE07E4
:104E8000B091CF07EB81FC8145A956A967A970AD08
:104E900084179507A607B70708F095C10097A105E5
:104EA000B10561F540914F0350915003609151035A
:104EB00070915203CB01BA012091CB0704C0660F59
:104EC000771F881F991F2A95D2F70E94AE926B0117
:104ED0007C018091CC079091CD07A091CE07B09135
:104EE000CF078C0D9D1DAE1DBF1D8093CC079093E9
:104EF000CD07A093CE07B093CF0739CF50E04A85B6
:104F0000282F692F8A2FAB85FC85ED857E853F850F
:104F1000B889998930914B03329FE12D7727B09161
:104F20004C03B29FE00D711D10904D03129E700D49
:104F3000369FE00D711DB69F700D389F700DAE2F1E
:104F4000F72FAE9F312DBB279927A79F300DB11D9D
:104F5000951FFE9F300DB11D951FF79FB00D911D40
:104F6000AB2FF92FAE9F412DBB279927A79F400D4F
:104F7000B11D951FFE9F400DB11D951FF79FB00DF0
:104F8000911DAB2FF92F332720914F0360915003D0
:104F90008091510300904A03052A09F483C0B0911F
:104FA0004603BA9F3119250B650B850B909147037A
:104FB0009A9F30192109650B850B409148034A9F40
:104FC00020196109850BBF9F30192109650B850BDD
:104FD0009F9F20196109850B4F9F60198109AE9F22
:104FE000412DBB279927A79F400DB11D951FFE9FFF
:104FF000400DB11D951FF79FB00D911DAB2FF92FDF
:10500000B0914203BA9F310D251F651F851F9091F6
:1050100043039A9F300D211D651F851F4091440356
:105020004A9F200D611D851FBF9F300D211D651FEB
:10503000851F9F9F200D611D851F4F9F600D811D46
:10504000AE9F412DBB279927A79F400DB11D951FEE
:10505000FE9F400DB11D951FF79FB00D911DAB2F09
:10506000F92FB0913E03BA9F3119250B650B850BC3
:1050700090913F039A9F30192109650B850B409150
:1050800040034A9F20196109850BBF9F30192109F0
:10509000650B850B9F9F20196109850B4F9F601938
:1050A000810982C0B0914603BA9F310D251F651F4B
:1050B000851F909147039A9F300D211D651F851F05
:1050C000409148034A9F200D611D851FBF9F300DF1
:1050D000211D651F851F9F9F200D611D851F4F9FEF
:1050E000600D811DAE9F412DBB279927A79F400DC5
:1050F000B11D951FFE9F400DB11D951FF79FB00D6F
:10510000911DAB2FF92FB0914203BA9F3119250B96
:10511000650B850B909143039A9F30192109650B0C
:10512000850B409144034A9F20196109850BBF9F5D
:1051300030192109650B850B9F9F20196109850B8B
:105140004F9F60198109AE9F412DBB279927A79FCB
:10515000400DB11D951FFE9F400DB11D951FF79F7E
:10516000B00D911DAB2FF92FB0913E03BA9F310DB9
:10517000251F651F851F90913F039A9F300D211DAC
:10518000651F851F409140034A9F200D611D851FAB
:10519000BF9F300D211D651F851F9F9F200D611D25
:1051A000851F4F9F600D811D11244A87AB87FC87A7
:1051B000ED877E873F87B88B998B762F622FAB0167
:1051C00070E0682F77CEAB81BC81D1966D917D91D7
:1051D0008D919C91D49770CE4091C7075091C8078C
:1051E0006091C9077091CA07481759076A077B077A
:1051F00008F0DBC18091C607811145C0EB81FC81BD
:10520000EF5BFF4FE080F18002811381EB81FC8135
:10521000E25BFF4F2081318142815381EB81FC8130
:1052200061A972A983A994A90E945013F1E0F09397
:10523000C607AB81BC81D1966D917D918D919C917A
:10524000D4972091CB0704C0660F771F881F991F42
:105250002A95D2F70E94AE926B017C018091C20721
:105260009091C307A091C407B091C5078C0D9D1DF7
:10527000AE1DBF1D8093C2079093C307A093C407C0
:10528000B093C50774CD8091C2079091C307A091D8
:10529000C407B091C507EB81FC8141AD52AD63AD50
:1052A00074AD84179507A607B70708F074C1009777
:1052B000A105B10559F440914F03509150036091FD
:1052C000510370915203CB01BA01BBCF50E07A89F0
:1052D000282F692F8A2FBB89AC89FD89EE894F89D8
:1052E000388D998D40914B03429FF12DEE273091DF
:1052F0004C03329FF00DE11D10904D03129EE00D06
:10530000469FF00DE11D369FE00D489FE00DBF2F39
:10531000AE2FBF9F412D33279927BE9F400D311DD2
:10532000951FAF9F400D311D951FAE9F300D911DF4
:10533000B32FA92FBF9F712D33279927BE9F700DC3
:10534000311D951FAF9F700D311D951FAE9F300D04
:10535000911DB32FA92F442720914F036091500333
:105360008091510300904A03052A09F483C03091CB
:1053700046033B9F4119250B650B850B9091470315
:105380009B9F40192109650B850B709148037B9FFA
:1053900020196109850B3A9F40192109650B850B7E
:1053A0009A9F20196109850B7A9F60198109BF9F17
:1053B000712D33279927BE9F700D311D951FAF9F0B
:1053C000700D311D951FAE9F300D911DB32FA92F6C
:1053D000309142033B9F410D251F651F851F909112
:1053E00043039B9F400D211D651F851F7091440342
:1053F0007B9F200D611D851F3A9F400D211D651F5C
:10540000851F9A9F200D611D851F7A9F600D811D4C
:10541000BF9F712D33279927BE9F700D311D951F9A
:10542000AF9F700D311D951FAE9F300D911DB32F95
:10543000A92F30913E033B9F4119250B650B850B2E
:1054400090913F039B9F40192109650B850B70913B
:1054500040037B9F20196109850B3A9F4019210960
:10546000650B850B9A9F20196109850B7A9F60193E
:10547000810982C0309146033B9F410D251F651F66
:10548000851F909147039B9F400D211D651F851F20
:10549000709148037B9F200D611D851F3A9F400D31
:1054A000211D651F851F9A9F200D611D851F7A9FF5
:1054B000600D811DBF9F712D33279927BE9F700DF1
:1054C000311D951FAF9F700D311D951FAE9F300D83
:1054D000911DB32FA92F309142033B9F4119250BFA
:1054E000650B850B909143039B9F40192109650B28
:1054F000850B709144037B9F20196109850B3A9FAE
:1055000040192109650B850B9A9F20196109850BAC
:105510007A9F60198109BF9F712D33279927BE9FFC
:10552000700D311D951FAF9F700D311D951FAE9FE2
:10553000300D911DB32FA92F30913E033B9F410D9C
:10554000251F651F851F90913F039B9F400D211DC7
:10555000651F851F709140037B9F200D611D851F76
:105560003A9F400D211D651F851F9A9F200D611DCB
:10557000851F7A9F600D811D11247A8BBB8BAC8BAC
:10558000FD8BEE8B4F8B388F998F762F622FAB016F
:1055900070E0682F98CE2B813C81225B3F4FD90170
:1055A0006D917D918D919C914CCE8091390290911D
:1055B0003A02A0913B02B0913C02B7FF1BC0EB81C5
:1055C000FC81EA5BFF4F2091CB0760817181828172
:1055D000938104C0660F771F881F991F2A95D2F701
:1055E0000E94AE926093390270933A0280933B021C
:1055F00090933C02C0903902D0903A02E0903B0276
:10560000F0903C02B4CB8B819C8145960E94B112F4
:105610001092E4071092E3071092D4079091C417F8
:105620008091C517981709F4A9CB8091C5178F5F92
:105630008F718093C517A2CB4260CACB5093CB0722
:10564000252EEB81FC8185A096A0A7A0B0A4240103
:10565000350104C0440C551C661C771C5A95D2F7C2
:10566000B301A2014093D5075093D6076093D707A3
:105670007093D807882499245401841A950AA60A9D
:10568000B70A8092B2079092B307A092B407B09283
:10569000B5078092B6079092B707A092B807B0926C
:1056A000B9078092BA079092BB07A092BC07B0924C
:1056B000BD078092BE079092BF07A092C007B0922C
:1056C000C10781A092A0A3A0B4A0880C991CAA1C19
:1056D000BB1C2C013D01440C551C661C771C4092E0
:1056E000A2075092A3076092A4077092A507260113
:1056F0003701440C551C661C771C4092A60750923B
:10570000A7076092A8077092A907000F111F221F18
:10571000331F0093AA071093AB072093AC07309375
:10572000AD078092AE079092AF07A092B007B092FB
:10573000B107440F551F661F771F40939E07509374
:105740009F076093A0077093A1072091B7172223AA
:1057500009F43FC0EB5BFF4FE0812C013D01E0FF0E
:105760000AC09C01AD0160E070E080E090E00E9422
:1057700015C029013A018091BD179091BE17A091E3
:10578000BF17B091C017840D951DA61DB71D80933E
:10579000BD179093BE17A093BF17B093C0178E2F5D
:1057A000809581708093BC1720919807309199075C
:1057B00080919A0790919B072817390751F08091A3
:1057C000BD08AB81BC81AB5BBF4F80FF59C1E160BD
:1057D000EC938091A517882309F443C0EB81FC81E9
:1057E000EB5BFF4FE08146015701FE2FF270E1FFB6
:1057F0000AC09601A70160E070E080E090E00E949E
:1058000015C049015A018091AB179091AC17A09136
:10581000AD17B091AE17880D991DAA1DBB1D8093C1
:10582000AB179093AC17A093AD17B093AE1781E070
:10583000F11180E08093AA1720919C0730919D0779
:1058400080919A0790919B072817390751F0809112
:10585000BD08AB81BC81AB5BBF4F81FF13C1E26070
:10586000EC931092D9071092DA071092DB0710928E
:10587000DC07EB81FC8181A592A5A3A5B4A5022C30
:1058800004C0880F991FAA1FBB1F0A94D2F78093E8
:10589000D0079093D107A093D207B093D30785A5E3
:1058A00096A5A7A5B0A9022C04C0880F991FAA1F0E
:1058B000BB1F0A94D2F78093C7079093C807A093A1
:1058C000C907B093CA07EB5BFF4F80819091BD0879
:1058D000891721F08093BD080E945F1C0E94591F08
:1058E00044244A94542C32014092390250923A0294
:1058F00060923B0270923C02EB81FC81FD96E0805D
:10590000F18002811381AB81BC81D1962D913D91B3
:105910004D915C91D497A65BBF4FBC83AB836D91D7
:105920007D918D919C910E9450131092C607EB813E
:10593000FC81608171818281938104C0660F771F31
:10594000881F991F2A94D2F70E94AE926B017C01A6
:105950008091CC079091CD07A091CE07B091CF0751
:105960008C0D9D1DAE1DBF1D8093CC079093CD0760
:10597000A093CE07B093CF07C092DF07D092E00785
:10598000E092E107F092E20780913F02909140029D
:1059900020913D0230913E028090DF079090E00719
:1059A000A090E107B090E2076C012817390708F4CE
:1059B0006901F12CE12C8C149D04AE04BF0410F499
:1059C000750164018C189D08AE08BF088092DF073E
:1059D0009092E007A092E107B092E207B6014091F1
:1059E000DD075091DE074C0D5D1D5093DE0740939F
:1059F000DD072F3F320731F02C193D0930933E026D
:105A000020933D028F3F980731F0861B970B9093B0
:105A1000400280933F02F894809184009091850029
:105A20004096388531503887332371F149805A8048
:105A3000460E571E5A8249824816590610F40C9495
:105A4000262169807A8070928900609288006B9626
:105A50000FB6F894DEBF0FBECDBFDF91CF911F917F
:105A60000F91FF90EF90DF90CF90BF90AF909F90FD
:105A70008F907F906F905F904F903F902F90089500
:105A8000EE7FA6CEED7FECCE9A838983DACF70E0ED
:105A900061110C946A240C94EB2480EDC82E87E0ED
:105AA000D82EE12CF12C6AC9CF92DF92EF92FF92AF
:105AB000CF93DF93C82F0E94601694E0C99FE00146
:105AC0001124FE01EA50F84FC080D180E280F380BB
:105AD00081110E94341FC851D74FC701B6010E94DF
