:100000000C94DE110C941E120C941E120C941E12F1
:100010000C941E120C941E120C941E120C941E12A0
:100020000C941E120C941E120C941E120C941E1290
:100030000C941E120C941E120C941E120C941E1280
:100040000C941E120C94F3180C941E120C941E1295
:100050000C941E120C94EF170C941E120C94E88B47
:100060000C941E120C9479340C946F340C941E1260
:100070000C941E120C941E120C941E120C941E1240
:100080000C941E120C941E120C941E120C941E1230
:100090000C941E120C941E120C941E120C941E1220
:1000A0000C941E120C941E120C941E120C941E1210
:1000B0000C941E120C941E120C941E120C941E1200
:1000C0000C941E120C941E120C941E120C941E12F0
:1000D0000C941E120C941E120C941E120C941E12E0
:1000E0000C941E12084AD73B3BCE016E84BCBFFD68
:1000F000C12F3D6C74319ABD56833DDA3D00C77FF8
:1001000011BED9E4BB4C3E916BAAAABE0000008090
:100110003F05A84CCDB2D44EB93836A9020C50B91F
:10012000918688083CA6AAAA2ABE000000803F004B
:100130004E414E494E495459494E46CDCCCC3D0ACC
:10014000D7233C17B7D13877CC2B329595E6241FAF
:10015000B14F0A000020410000C84200401C462068
:10016000BCBE4CCA1B0E5AAEC59D7400407A10F33B
:100170005A00A0724E18090010A5D4E80000E876D5
:1001800048170000E40B54020000CA9A3B0000002C
:10019000E1F505000080969800000040420F000045
:1001A00000A08601000000102700000000E8030006
:1001B0000000006400000000000A000000000001D0
:1001C00000000000002C76D888DC674F0823DFC1D0
:1001D000DFAE59E1B1B796E5E3E453C63AE651998B
:1001E0007696E8E6C28426EB898C9B62ED407C6FB4
:1001F000FCEFBC9C9F40F2BAA56FA5F490055A2A6B
:10020000F75C936B6CF9676DC11BFCE0E40D47FE76
:10021000F520E6B500D0ED902E030094357705006B
:1002200080841E080000204E0A000000C80C3333F2
:1002300033330F986E12831141EF8D2114893BE601
:100240005516CFFEE6DB18D1844B381BF77C1D908A
:100250001DA4BBE424203284725E228100C9F124F3
:10026000ECA1E53D27434F4D4D554E49434154497F
:100270004F4E0044525952554E004552524F525320
:1002800000494E464F004543484F004D323400531D
:10029000544F505045442E20005072696E74657260
:1002A0002073746F707065642064756520746F20AE
:1002B0006572726F72732E204669782074686520AB
:1002C0006572726F7220616E6420757365204D399E
:1002D000393920746F20726573746172742E20280E
:1002E00054656D70657261747572652069732072F2
:1002F000657365742E20536574206974206166747B
:1003000065722072657374617274696E67290A0080
:100310004E6F20436865636B73756D2077697468F1
:10032000206C696E65206E756D6265722C204C6163
:100330007374204C696E653A20004E6F20436865E7
:10034000636B73756D2077697468206C696E6520C6
:100350006E756D6265722C204C617374204C696EF1
:10036000653A2000636865636B73756D206D697312
:100370006D617463682C204C617374204C696E65E8
:100380003A20004C696E65204E756D626572206979
:1003900073206E6F74204C617374204C696E6520FD
:1003A0004E756D6265722B312C204C617374204C3C
:1003B000696E653A20004D313130005365726961D4
:1003C0006C20737461747573206D69736D617463EF
:1003D000680A0053442072656164206572726F720E
:1003E0000A00746F6F206D75636820696E616374B5
:1003F0006976652074696D65202D2063757272655C
:100400006E7420636F6D6D616E643A20002121204F
:100410004B494C4C20636175736564206279200000
:100420004D6564696120496E73657274656400622C
:100430007573793A2070617573656420666F7220F8
:10044000696E7075740A00627573793A207061750F
:1004500073656420666F7220757365720A00627539
:1004600073793A2070726F63657373696E670A00FF
:100470006563686F3A004572726F723A002F2F61A0
:100480006374696F6E3A006E6F7469666963617454
:10049000696F6E20006E6F74696669636174696F5D
:1004A0006E2000656E6400627574746F6E00486F34
:1004B00074656E6420746F6F20636F6C640A0070E3
:1004C0006175736564005061757365002044002098
:1004D000204D323030205300202844697361626C13
:1004E0006564293A0046696C616D656E74207365B8
:1004F0007474696E67730020204D323031205800CB
:100500004D617820416363656C65726174696F6EDB
:100510002028756E6974732F7332290020204D32A4
:1005200030332058004D61782066656564726174CF
:1005300065732028756E6974732F7329002052002B
:1005400020204D323034205000416363656C657269
:100550006174696F6E2028756E6974732F73322908
:100560002028503C7072696E742D616363656C3E27
:1005700020523C726574726163742D616363656CB3
:100580003E20543C74726176656C2D616363656CCA
:100590003E2900204A0020540020530020204D32E4
:1005A0003035204200416476616E636564202842E4
:1005B0003C6D696E5F7365676D656E745F74696DC0
:1005C000655F75733E20533C6D696E5F666565645B
:1005D000726174653E20543C6D696E5F7472617621
:1005E000656C5F66656564726174653E204A3C6A4D
:1005F000756E635F6465763E2900204400204900E3
:1006000020204D333031205000486F74656E6420D7
:100610005049440020440020490020204D3330340C
:100620002050004265642050494400203B00205582
:100630000020204D363033204C0046696C616D65DA
:100640006E74206C6F61642F756E6C6F6164002036
:10065000496E76616C696420657874727564657240
:100660002000536C6565702E2E2E0070726F6D70B9
:10067000745F00626567696E004D302053746F705F
:10068000004D312053746F70004E6F204D6F7665B2
:100690002E00456E642066696C65206C6973740A6F
:1006A00000426567696E2066696C65206C697374C9
:1006B0000A004E6F206D656469610A00534420632F
:1006C0006172642072656C65617365640A007265AD
:1006D00073756D6500526573756D696E672053445F
:1006E00000286E6F2066696C65290043757272651B
:1006F0006E742066696C653A20002E0A0044656CB1
:100700006574696F6E206661696C65642C2046694A
:100710006C653A200046696C652064656C6574659B
:10072000643A0043616E6E6F74206F70656E207363
:10073000756264697220002569730025696D202542
:100740006973002569682025696D20256973002576
:100750006964202569682025696D20256973002555
:10076000697920256964202569682025696D20251F
:100770006973005072696E742074696D653A200067
:100780006F6B006F666600860281027A02730265F3
:100790000244454255473A004D313133205300471A
:1007A000656E697573204F46462E007D7D7D0A007B
:1007B0002C7A3A002C793A007D2C6D61783A7B785E
:1007C0003A002C7A3A002C793A007D7D2C776F72B2
:1007D0006B3A7B6D696E3A7B783A002C7A3A002C42
:1007E000793A007D2C6D61783A7B783A002C7A3A20
:1007F000002C793A00617265613A7B66756C6C3ADF
:100800007B6D696E3A7B783A00434F4E4649475FAD
:100810004558504F5254004D4541545041434B00B0
:10082000434F4F4C45525F54454D504552415455EE
:100830005245004348414D4245525F54454D504555
:10084000524154555245004241425953544550502B
:10085000494E470041524353004D4F54494F4E5F5C
:100860004D4F44455300544845524D414C5F505202
:100870004F54454354494F4E00455854454E444506
:10088000445F4D323000435553544F4D5F464952FB
:100890004D574152455F55504C4F4144004C464ED8
:1008A0005F5752495445004C4F4E475F46494C45AF
:1008B0004E414D45004155544F5245504F52545FA3
:1008C00053445F5354415455530053445F57524966
:1008D000544500524550454154004D554C54495FD4
:1008E000564F4C554D4500534443415244005052DD
:1008F0004F4D50545F535550504F525400484F5332
:10090000545F414354494F4E5F434F4D4D414E4418
:100910005300454D455247454E43595F5041525350
:10092000455200434153455F4C494748545F42524A
:10093000494748544E45535300544F47474C455F31
:100940004C494748545300534F4654574152455F12
:10095000504F574552004255494C445F5045524311
:10096000454E54004C4556454C494E475F44415412
:1009700041005A5F50524F42450052554E4F555418
:10098000004155544F4C4556454C005052494E5429
:100990005F4A4F420050524F475245535300415512
:1009A000544F5245504F52545F54454D500041559D
:1009B000544F5245504F52545F504F5300564F4C76
:1009C000554D455452494300454550524F4D004204
:1009D000494E4152595F46494C455F5452414E532E
:1009E0004645520053455249414C5F584F4E5F585F
:1009F0004F4646004649524D574152455F4E414D84
:100A0000453A4D61726C696E20322E312E322028AB
:100A100046656220203220323032332030303A3284
:100A2000393A33382920534F555243455F434F4499
:100A3000455F55524C3A6769746875622E636F6DF5
:100A40002F4D61726C696E4669726D776172652FA8
:100A50004D61726C696E2050524F544F434F4C5F42
:100A600056455253494F4E3A312E30204D4143485E
:100A7000494E455F545950453A47656E6975732034
:100A800045585452554445525F434F554E543A31A0
:100A900020555549443A63656465326132662D34A8
:100AA0003161322D343734382D396231322D63358E
:100AB00035633632663336376666002F2F003F4A7D
:100AC000206F7574206F662072616E676520283014
:100AD0002E303120746F20302E33290A0020580028
:100AE0004F4646004F4E003B200020204D61783A93
:100AF0002000200020204D696E3A2000203B20007D
:100B000020204D32313120530046523A0020466CAD
:100B10006F773A200064697300656E0043290A000C
:100B200061626C656420286D696E2074656D70204B
:100B300000436F6C6420657874727564657320611E
:100B4000726520004F666673657473204170706C27
:100B500069656400546F6F206661722066726F6D04
:100B6000207265666572656E636520706F696E746C
:100B70000A00454550524F4D204F4B0A004D383426
:100B8000005072696E7420446F6E6500446F6E652C
:100B9000207072696E74696E672066696C650A0000
:100BA0004D3737004D333100496E76616C696420F2
:100BB00065787472756465720A0020204D32303693
:100BC000205800486F6D65206F6666736574004439
:100BD0006966663A2020200046726F6D5374703A41
:100BE00000537465707065723A005261773A202044
:100BF0002020000A4C6F676963616C3A00436F758F
:100C00006E7420453A004361703A0047322F4733F3
:100C10002062616420706172616D65746572730A2F
:100C20000020573A0042656420436F6F6C696E671D
:100C30002E2E2E004265642048656174696E672E11
:100C40002E2E00206661696C65642120426164205B
:100C50006865617465722069640A005049442041E6
:100C600075746F74756E650023646566696E6520C2
:100C700044454641554C545F0000626564004B6436
:100C800020004B6920004B702000504944207475AF
:100C90006E696E6720646F6E65002066696E6973A9
:100CA000686564212050757420746865206C6173D8
:100CB00074204B702C204B6920616E64204B6420A3
:100CC000636F6E7374616E74732066726F6D2062F1
:100CD000656C6F7720696E746F20436F6E6669670D
:100CE00075726174696F6E2E680A00504944204124
:100CF00075746F74756E6500206661696C6564213A
:100D00002074696D656F75740A00504944204175FF
:100D1000746F74756E65004175746F74756E6520BF
:100D20006661696C6564212054696D656F75742E08
:100D300000206661696C6564212054656D70657280
:100D4000617475726520746F6F20686967680A0046
:100D5000504944204175746F74756E6500204B6472
:100D60003A2000204B693A2000204B703A200020A6
:100D7000436C617373696320504944200A00204E1C
:100D80006F206F76657273686F6F740A00205475F8
:100D90003A2000204B753A2000206D61783A2000FF
:100DA000206D696E3A200020643A2000206269615B
:100DB000733A200048656174696E672E2E2E0020FC
:100DC00073746172740A00504944204175746F74E1
:100DD000756E65004175746F74756E652066616926
:100DE0006C6564212054656D7065726174757265FF
:100DF00020746F6F20686967682E00206661696CD7
:100E00006564212054656D7065726174757265202A
:100E1000746F6F20686967680A0050494420417503
:100E2000746F74756E6500504944204175746F7419
:100E3000756E6500486F6D696E67204661696C6507
:100E400064006F70656E00545249474745524544EF
:100E5000003A20007A5F6D696E00795F6D696E00FF
:100E6000785F6D696E005265706F7274696E67208D
:100E7000656E6473746F70207374617475730A00A7
:100E800020746F6F206C6F6E672065787472757355
:100E9000696F6E2070726576656E7465640A0020F5
:100EA000636F6C6420657874727573696F6E2070FF
:100EB000726576656E7465640A00000000C000000B
:100EC000A0C0000000005761726E696E673A20484A
:100ED0006F6D696E672042756D7020446976697325
:100EE0006F72203C20310A0002020400005E4300C1
:100EF000006B4300007A430000A0400000A04000C7
:100F000000004000000001000000010000800055CA
:100F10005555000000400033333300AAAA2A004987
:100F200092240000002000C7711C0099991900D17B
:100F3000451700555515003BB11300244912001107
:100F4000111100000010000F0F0F00E3380E0043D6
:100F5000790D00CCCC0C00C3300C00E8A20B00646F
:100F6000210B00AAAA0A00703D0A009DD809004280
:100F70007B090092240900DCD3080088880800104F
:100F800042080000000800F0C107008787070075CD
:100F9000500700711C07003EEB0600A1BC0600696B
:100FA00090060066660600703E060061180600178F
:100FB000F4050074D105005BB00500B29005006235
:100FC0007205005555050078390500B81E05000565
:100FD0000505004EEC040087D40400A1BD04009078
:100FE000A7040049920400C17D0400EE690400C713
:100FF000560400444404005C32040008210400410B
:10100000100400000004003FF00300F8E003002695
:10101000D20300C3C30300CCB503003AA803000AFF
:101020009B0300388E0300C08103009F750300D02E
:10103000690300505E03001D530300344803009110
:101040003D03003333030016290300381F030097C4
:10105000150300300C0300030303000BFA020049E0
:10106000F10200BAE802005CE002002DD802002D77
:10107000D0020059C80200B0C0020031B90200DA43
:10108000B10200AAAA0200A0A30200BC9C0200FABE
:101090009502005C8F0200DF880200828202004518
:1010A0007C02002776020027700200436A02007C5F
:1010B000640200D05E02003F590200C8530200FFE4
:1010C000FDFCFAF8F6F4F2F0EEECEAE9E7E5E3E12C
:1010D000E0DEDCDAD9D7D5D4D2D0CFCDCBCAC8C7E1
:1010E000C5C3C2C0BFBDBCBAB9B7B6B4B3B2B0AF66
:1010F000ADACAAA9A8A6A5A4A2A1A09E9D9C9A99C0
:10110000989795949392908F8E8D8B8A89888786F5
:1011100084838281807F7E7D7B7A7978777675740F
:10112000737271706F6E6D6C6B6A69686766656407
:10113000636261605F5E5D5C5B5A595858575655F3
:101140005453525150504F4E4D4C4B4A4A494847C8
:101150004646454443424241403F3E3E3D3C3B3B88
:101160003A39383837363535343332323130302F3A
:101170002E2E2D2C2B2B2A292928272726252524DE
:10118000232322212120201F1E1E1D1C1C1B1B1A75
:101190001919181817161615151413131212111100
:1011A000100F0F0E0E0D0D0C0C0B0A0A0909080882
:1011B00007070606050504040303020201000000F8
:1011C000005C430000664300007A43000000C0005A
:1011D00000A0C00000000053657474696E6773203E
:1011E00053746F72656400290A0020627974657314
:1011F0003B20637263200053657474696E677320CB
:1012000053746F726564202800454550524F4D203D
:10121000496E697469616C697A65640A0048617233
:1012200064636F6465642044656661756C74205303
:10123000657474696E6773204C6F61646564002027
:10124000286D6D290020204D3134392043203B206A
:10125000556E69747320696E2043656C736975738C
:101260000A0054656D706572617475726520556E03
:10127000697473002020473231203B004C696E6551
:10128000617220556E69747300454550524F4D2070
:101290006461746173697A65206572726F722E0A77
:1012A0000053746F7265642073657474696E67733C
:1012B0002072657472696576656400290A0020628F
:1012C000797465733B2063726320002073746F72BE
:1012D00065642073657474696E67732072657472D7
:1012E0006965766564202800454550524F4D20437E
:1012F0005243204572726F7200202863616C6375DF
:101300006C6174656429210A0020213D2000454557
:1013100050524F4D20435243206D69736D61746389
:1013200068202D202873746F726564292000205373
:10133000697A653A2000496E6465783A20000000B9
:1013400096430000964300004842000020420000FF
:10135000A0420000A0420000C8430080DE43D00746
:101360000000D00700006400000010270000454581
:1013700050524F4D2056657273696F6E20457272E0
:101380006F7200204D61726C696E3D563837290AC4
:1013900000454550524F4D2076657273696F6E203F
:1013A0006D69736D617463682028454550524F4DD7
:1013B0003D0020436F756E7420583A00004500626E
:1013C0006564002C2073797374656D2073746F707D
:1013D00070656421204865617465725F49443A20F4
:1013E000004572723A204D415854454D50004D41D0
:1013F0005854454D50207472696767657265640082
:1014000048656174696E67204661696C656400486F
:10141000656174696E67206661696C6564004D354D
:101420003234004D3131322053687574646F776EF9
:10143000004572723A204D494E54454D50004D4979
:101440004E54454D5020747269676765726564003B
:10145000544845524D414C2052554E415741590038
:10146000546865726D616C2052756E6177617900A8
:10147000202F002042403A0020403A0020583A00F5
:1014800020573A002053004D3130362050000000E4
:101490002100240027002A002D0030003300010124
:1014A0000000040107010A017C3C3E5E2B3D3F2FFA
:1014B0005B5D3B2C2A225C0043616E6E6F74206F73
:1014C00070656E20737562646972200053442063F6
:1014D000617264206F6B0A006F70656E526F6F747B
:1014E000206661696C65640A00766F6C756D652EA7
:1014F000696E6974206661696C65640A004E6F20CC
:10150000534420636172640A002E0A006F70656E96
:10151000206661696C65642C2046696C653A200020
:1015200046696C652073656C65637465640A0020A8
:1015300053697A653A200046696C65206F70656E64
:1015400065643A2000454E4420535542524F55544D
:10155000494E450A002220706F730022207061728C
:10156000656E743A2200535542524F5554494E45C8
:101570002043414C4C207461726765743A220053D9
:10158000756263616C6C204F766572666C6F770074
:101590004578636565646564206D617820535542C4
:1015A000524F5554494E452064657074683A00574F
:1015B000726974696E6720746F2066696C653A2081
:1015C000004E6F74205344207072696E74696E67A8
:1015D0000A005344207072696E74696E67206279E4
:1015E00074652000667265736800646F696E6700D9
:1015F0002066696C653A20004E6F7720000A4D32F4
:1016000034004D3233202573002F6175746F2563CC
:101610002E670070012C0190012701B0012201C04A
:10162000011D01F00118011002130130020E0160CA
:1016300002090190020401C002FF000003FA004009
:1016400003F5008003F000D003EB002004E60070F7
:1016500004E100E004DC004005D700C005D20040F2
:1016600006CD00D006C8008007C3003008BE00F0D9
:1016700008B900C009B400B00AAF00B00BAA00D08E
:101680000CA500000EA000500F9B00C0109600504B
:1016900012910000148C00C0158700B0178200B0B2
:1016A000197D00D01B7800001E730040206E009052
:1016B000226900F024640040275F0090295A00E06E
:1016C0002B5500102E500020304B0010324600E009
:1016D00033410090353C001037370070383200A09D
:1016E000392D00B03A2800A03B2300603C1E0010BA
:1016F0003D1900903D1400103E0F00703E0A00C0DE
:101700003E0500003F0000403FFBFF803FF6FFC06A
:101710003FF1FF2020506C616E6E65724275666607
:10172000657242797465733A2000204672656520BF
:101730004D656D6F72793A200020436F6D70696C52
:1017400065643A2046656220203220323032330A06
:1017500000204C61737420557064617465643A2094
:10176000323032322D31322D3137207C20417574A8
:10177000686F723A20287468697369736B6569745D
:1017800068622C2047656E697573290A004D617285
:101790006C696E20322E312E320A0020536F66742F
:1017A000776172652052657365740A002057617411
:1017B0006368646F672052657365740A0020427223
:1017C0006F776E206F75742052657365740A002000
:1017D00045787465726E616C2052657365740A0099
:1017E000506F77657255700A0073746172740A00E5
:1017F0004732385859004D31303031006F6B006539
:1018000072726F722077726974696E6720746F20CC
:1018100066696C650A00446F6E6520736176696E57
:10182000672066696C652E0A004D323900205A3AED
:101830000020593A0020583A00656E6473746F7046
:1018400073206869743A20000000220025002800F7
:101850002B002E00310034000201000005010801B8
:101860000B01050505050705080808080202020224
:101870000A0A08080404040401010101010101012C
:101880000303030303030303040707070C0C0C0CF7
:101890000C0C0C0C020202020606060606060606E0
:1018A0000B0B0B0B0B0B0B0B01021020200808106D
:1018B00020401020408002010201080402010102C0
:1018C0000408102040808040201008040201800499
:1018D00002018040201008040201080402010102F4
:1018E00004081020408001020408102040800000FD
:1018F0000A0B02090C0D0E0807030401000000008A
:1019000000000000000000000000000000000000D7
:101910000000000000000000000012111000000094
:1019200000000000000000000000000000000000B7
:101930000000000024F404D9201BC40C5C0E9804A1
:10194000C4095F0265077101F405F900FB04B300E7
:1019500048048700C103690058035500030345008C
:10196000BE023A008402310053022A0029022500F7
:1019700004022000E4011C00C8011900AF01170097
:10198000980114008401130071011000610110001E
:1019900051010E0043010D0036010B002B010B001D
:1019A00020010B00150109000C01090003010800CA
:1019B000FB000800F3000800EB000700E40006004D
:1019C000DE000600D8000600D2000600CC000500AC
:1019D000C7000500C2000500BD000400B9000400F6
:1019E000B5000400B1000400AD000400A90004002B
:1019F000A5000300A20003009F0004009B00030059
:101A0000980003009500020093000300900003007B
:101A10008D0002008B000300880002008600020097
:101A200084000300810002007F0002007D000200AC
:101A30007B000200790002007700010076000200BE
:101A40007400020072000100710002006F000200C9
:101A50006D0001006C0002006A00010069000200D4
:101A600067000100660001006500010064000200DB
:101A70006200010061000100600001005F000200DF
:101A80005D0001005C0001005B0001005A000100E4
:101A900059000100580001005700010056000100E4
:101AA00055000100540001005300000053000100E4
:101AB0005200010051000100500001004F000100E0
:101AC0004E0000004E0001004D0001004C000100DE
:101AD0004B0000004B0001004A00010049000100DA
:101AE00048000000480001004700010046000000D7
:101AF00046000100450000004500010044000100CF
:101B000043000000430001004200000042000100C9
:101B10004100000041000100400001003F000000C2
:101B20003F0001003E0000003E0001003D000000BB
:101B30003D0001003C0000003C0000003C000100B2
:101B40003B0000003B0001003A0000003A000100A9
:101B500039000000390001003800000038000000A2
:101B60003800010037000000370001003600000097
:101B7000360000003600010035000000350000008E
:101B80003500010034000000340000003400010082
:101B90003300000033000000330001003200000079
:101BA000320000003200010031000000310000006E
:101BB0003100010030000000300000003000010062
:101BC0002F0000002F0000002F0000002F00010058
:101BD0002E0000002E0000002E0001002D0000004D
:101BE0002D0000002D0000002D0001002C00000041
:101BF0002C0000002C0000002C0001002B00000035
:101C00002B0000002B0000002B0001002A00000028
:101C10002A0000002A0000002A000100290000001C
:101C2000290000002900000029000000290001000F
:101C30002800000028000000280000002800000004
:101C400028000100270000002700000027000000F6
:101C500027000000270001002600000026000000E9
:101C600026000000260000002600010025000000DC
:101C700025000000250000002500000025000000D0
:101C800025000100240000002400000024000000C2
:101C900024000000240001002300000023000000B5
:101CA00023000000230000002300000023000000A8
:101CB000230001002200000022000000220000009A
:101CC000220000002200000022000100210000008C
:101CD0002100000021000000210000002100000080
:101CE0002100000021000100200000002000000071
:101CF0002000000020000000200000002000000064
:101D000020000000200001001F0000001F00000054
:101D10001F0000001F0000001F0000001F00000047
:101D20001F0001001E0000001E0000001E00000039
:101D30001E00000024F4D43050C38E20C2A24017ED
:101D4000828B7011127A910D816CD90AA861E10819
:101D5000C7586607615143061E4B5D05C145A70480
:101D60001A411104093D9803713931034036DB02F1
:101D700065339102D4305402802E1D02632CEE0193
:101D8000752AC501B028A001102781018F256401A3
:101D90002B244B01E0223401AC211F018D200D01C9
:101DA000801FFC00841EED00971DDF00B81CD200D0
:101DB000E61BC600201BBC00641AB200B219A800C2
:101DC0000A19A0006A189900D117910040178B00DA
:101DD000B516840031167E00B31579003A157300EC
:101DE000C7146F0058146A00EE136600881363006E
:101DF00025135E00C7125B006C12570015125400C9
:101E0000C111510070114F0021114B00D610490033
:101E10008D1047004610440002104200C00F4000E1
:101E2000800F3E00420F3C00060F3B00CB0E3800F7
:101E3000930E37005C0E3500270E3400F30D320090
:101E4000C10D3100900D3000600D2E00320D2D00BF
:101E5000050D2C00D90C2B00AE0C2900850C290097
:101E60005C0C2700350C27000E0C2600E80B240024
:101E7000C40B2400A00B23007D0B23005A0B210070
:101E8000390B2100180B2000F80A1F00D90A1E0088
:101E9000BB0A1E009D0A1D00800A1D00630A1C006B
:101EA000470A1B002C0A1B00110A1A00F7091A0026
:101EB000DD091900C4091900AB09190092091700BE
:101EC0007B091800630917004C0916003609160033
:101ED000200916000A091500F5081500E00814008D
:101EE000CC081400B8081400A408140090081300CB
:101EF0007D0812006B0813005808120046081200F3
:101F00003408110023081100120811000108110003
:101F1000F0071000E0071000D0071000C007100005
:101F2000B0070F00A107100091070E0083070F00F4
:101F300074070F0065070E0057070E0049070E00D3
:101F40003B070D002E070E0020070D0013070D00A4
:101F500006070D00F9060C00ED060D00E0060C006A
:101F6000D4060C00C8060C00BC060C00B0060C0021
:101F7000A4060B0099060C008D060B0082060B00D0
:101F800077060B006C060B0061060A0057060B0073
:101F90004C060A0042060A0038060A002E060A000D
:101FA00024060A001A060A001006090007060A009D
:101FB000FD050900F4050900EB050900E20509002B
:101FC000D9050900D0050900C7050900BE050900AB
:101FD000B5050800AD050800A50509009C05080029
:101FE000940508008C050800840508007C0508009D
:101FF000740508006C050700650508005D0507000D
:10200000560508004E050700470507004005080073
:1020100038050700310507002A05070023050700DA
:102020001C050600160507000F0507000805060039
:1020300002050700FB040600F5040700EE04060095
:10204000E8040600E2040700DB040600D5040600ED
:10205000CF040600C9040600C3040600BD04060040
:10206000B7040600B1040500AC040600A60406008F
:10207000A00405009B0406009504050090040600DA
:102080008A04050085040500800406007A04050022
:1020900075040500700405006B0405006604050066
:1020A000610405005C0405005704050052040500A6
:1020B0004D04050048040500430405003E040400E7
:1020C0003A04050035040500300404002C04050022
:1020D00027040400230405001E0404001A0404005D
:1020E00016040500110404000D0404000904050091
:1020F0000404040000040400FC030400F8030400CA
:10210000F4030400F0030400EC030400E8030400FB
:10211000E4030400E0030400DC030400D80304002B
:10212000D4030400D0030400CC030400C80303005C
:10213000C503030056290000081B0000F90F00002A
:10214000C9080000A0040000600200003401000083
:102150009B0000004572726F722077726974696E1D
:102160006720746F20454550524F4D210A00DB0F08
:10217000C93F45BCDA3F8FB30240FCF0274056947C
:102180006140FE4B9B4084A5D840E0231841346A4F
:102190005641E859974164DBD5416E271742B4B7E1
:1021A0005542CE1A9742C8AED542B5885A43D40696
:1021B00084BFA65FA7BF7443E0BF10B11AC01C2C38
:1021C00058C0E8F697C0B849D6C04E4E17C124D3C0
:1021D00055C1802497C1A0B5D5C1121A17C244AE0B
:1021E00055C2781797C26CACD5C267885AC32074A1
:1021F0006F6F206C6F6E6720657874727573696F8E
:102200006E2070726576656E7465640A0020636F77
:102210006C6420657874727573696F6E2070726576
:1022200076656E7465640A0073686F77006265672F
:10223000696E0050757267654D6F7265005061750B
:10224000736564004C6F61642046696C616D656EF6
:1022500074205400496E736572742066696C616DF8
:10226000656E7420616E642073656E64204D31303C
:10227000380A0053656E64204D31303820746F2069
:10228000726573756D650A00496E736572742066B8
:10229000696C616D656E7420616E642073656E6437
:1022A000204D3130380A0052656865617420446FF2
:1022B0006E6500526568656174696E672E2E2E002A
:1022C000526568656174004865617465722054697F
:1022D0006D656F75740053656E64204D3130382024
:1022E000746F2068656174206E6F7A7A6C650A007D
:1022F000436F6E74696E7565004E6F7A7A6C6520F7
:102300005061726B656400726573756D656400443D
:1023100069736D69737300526573756D696E6700DB
:10232000FFFFFF7C14882384238023204500205A4C
:102330000020590020204D39322058005374657018
:10234000732070657220756E697400220A00556EE4
:102350006B6E6F776E20636F6D6D616E643A2022D5
:1023600000486F6D652025732573257320466972BB
:102370007374006F6B0A00526573656E643A2000D7
:1023800020453A00205A3A0020593A00583A007045
:102390006F7765726F6666005072696E7465722041
:1023A00068616C7465642E206B696C6C28292063ED
:1023B000616C6C6564210A00EBA2DAAA11241FBECD
:1023C000CFEFD1E2DEBFCDBF00E00CBF84B780937A
:1023D0009C1214BE0FB6F894A89580916000886195
:1023E00080936000109260000FBE13E0A0E0B2E0A6
:1023F000E8E5F2E701E00BBF02C007900D92A833B9
:10240000B107D9F722E1A8E3B3E001C01D92AC39CE
:10241000B207E1F711E1CDEDD1E100E006C021976F
:102420000109802FFE010E94C8B5CC3DD10780E094
:102430000807A9F70E9490A30C941BB90C94000004
:10244000CF93DF93CCEBD3E120E030E048E452E4DB
:102450006091140B7091150B8091160B9091170BD6
:102460000E9409B887FF13C080E0FE01C49120914B
:10247000020190E002C095958795CA95E2F780FD2C
:102480000EC0207120930001DF91CF910895FE01CD
:10249000949181E001C0880F9A95EAF7E6CF2095E4
:1024A000F0CFFC0190E1A6E3B4E001900D929A9583
:1024B000E1F70895EF92FF920F931F93E092450387
:1024C000F092460300934703109348036093490337
:1024D00070934A0380934B039FEFFF27621B730B9C
:1024E000840B30F4809570956195790B890B992751
:1024F00090934403A6E06A9F00923803512DEE2783
:102500007A9F500DE11D8A9FE00D50933903E093AF
:102510003A03AFE06A9F00923C03512DEE277A9F69
:10252000500DE11D8A9FE00D50933D03E0933E0363
:10253000AAE06A9F00924003512DEE277A9F500D2A
:10254000E11D8A9FE00D50934103E09342031F91E8
:102550000F91FF90EF90089521E030E0082E02C027
:10256000220F331F0A94E2F7209530959091DF03F4
:1025700029232093DF03813061F020F0823071F055
:1025800081E008955F9A80913D058E7F80933D059F
:10259000F7CF8A9A80913D058D7FF8CF8091080111
:1025A0008095817080930601479A80913D058B7FCD
:1025B000EDCF9F92AF92BF92CF92DF92EF92FF92B8
:1025C0000F931F93CF93DF9300D01F921F92CDB72D
:1025D000DEB7EFEBF0E10027BB27462F572FA82FE0
:1025E000AA2341F4A52F542FB85FAA2319F4A52FCD
:1025F0005527B85FA03138F45295A295452F4F70FA
:10260000507FA42BBC5FA03428F4550FAA1F550F90
:10261000AA1FBE5FA03818F4550FAA1FB395550F17
:10262000AA1FEA0FF01F449151E0AA27B85079F190
:10263000C0F0B0FF02C0440F551FB1FF04C0440FEB
:10264000551F440F551FB2FF06C052954295142FD7
:102650001F70407F512BB3FF1AC0A52F542F442762
:1026600016C0B195B0FF02C055954795B1FF04C0A3
:102670005595479555954795B2FF05C05295407FB2
:102680004295452B5F70B3FF02C0452F5527DD24CF
:10269000CC24BB24B2E0649FD018C108B00AB00BB0
:1026A000749FC018B108B00B849FB018B109659F22
:1026B000C018B108B00B759FB018B109859FB0194B
:1026C0006A9FB018B1097A9FB0194D9DA12C992429
:1026D0003327992722275D9DA00C911C301F901F46
:1026E000201FAD9D900C311D901F201F4C9DA00CF4
:1026F000911C301F901F201F5C9D900C311D901F5E
:10270000201FAC9D300D911D201F4B9D900C311D45
:10271000901F201F5B9D300D911D201FAB9D900DC4
:10272000211D4B9F300D911D201F5B9F900D211D82
:10273000AB9F200DB1E0BB24CC24DD24639FD018D7
:10274000C108B00AB00B739FC018B108B00B839FCB
:10275000B018B109699FC018B108B00B799FB018C3
:10276000B109899FB019629FB018B109729FB01961
:10277000D61AC70AB80A20F0B1E03B0F901F201FFD
:102780001124792F632F90E0822F0F900F900F90DC
:102790000F900F90DF91CF911F910F91FF90EF90CD
:1027A000DF90CF90BF90AF909F900895AF92BF926F
:1027B000CF92DF92EF92FF920F931F93CF93DF930D
:1027C000CFE3DBE004E515E08FE4A82E8BE0B82E24
:1027D000C12CD12C7601C3946991799189919991F9
:1027E0000E9437AF288939894A895B890E9498AF4E
:1027F0000E942CB7F80161937193819391938F019B
:10280000C616D706E806F90610F46B017C01AC1673
:10281000BD0611F76FEF7FEFCB01A70196010E9474
:102820005DB520936405309365054093660550932C
:102830006705DF91CF911F910F91FF90EF90DF908F
:10284000CF90BF90AF900895CF92DF92EF92FF921A
:102850008091DC03882309F457C0C090D803D0903E
:10286000D903E090DA03F090DB0320E030E0A90127
:10287000C701B6010E9433AF882309F445C020E0A8
:1028800030E040E05FE3C701B6010E9498AF9B01D2
:10289000AC010E9498AF2BED3FE049E450E40E9468
:1028A00098AF9B01AC0160E070E080E89FE30E947C
:1028B000BFB66B017C01C092BF03D092C003E0920F
:1028C000C103F092C2036091170270911802072EA3
:1028D000000C880B990B0E9439AF2AE037ED43E2D8
:1028E0005CE30E9498AFA70196010E9498AF6093A5
:1028F0004702709348028093490290934A02FF90E6
:10290000EF90DF90CF900895C12CD12C80E8E82E75
:102910008FE3F82ED0CF8091700E9091710E891BAD
:102920008F7019F490E080E0089590916D0E9923D6
:1029300051F0833030F48FEF890F19F080936D0ED2
:10294000F1CF10926D0E8091710E27E5829FC0012C
:10295000112486589A4FFC01208120FDE3CF20915D
:10296000710E2F5F2F7020936E0E3091710E20919B
:102970006F0E321304C020916E0E20936F0E0895D7
:1029800090916F0081E091FD02C080E008959091E8
:102990006F009D7F90936F000895FC017081472F19
:1029A00050E0062E02C0559547950A94E2F740FF85
:1029B00014C04091B20350E0062E02C055954795D1
:1029C0000A94E2F740FF09C021E030E001C0220F85
:1029D0006A95EAF72095272320830895CF93DF9304
:1029E00024E0829FC0011124EC01C95ED14FFC019B
:1029F000E15CFA4F8D549C4FDC012D913D914D913E
:102A00005C9160817181828193810E94E3B56883CA
:102A100079838A839B83DF91CF9108958F929F92D0
:102A2000AF92BF92CF92DF92EF92FF92CF93DF935C
:102A300020911B02222309F48EC0EC018091B20385
:102A4000E82E80FF2CC080901D0290901E02A09066
:102A50001F02B0902002288139814A815B81C50123
:102A6000B4010E9409B8181624F488829982AA82B7
:102A7000BB828090290290902A02A0902B02B090F5
:102A80002C02288139814A815B81C501B4010E94F1
:102A900033AF87FF04C088829982AA82BB82E1FE9D
:102AA0002CC08090210290902202A0902302B0902E
:102AB00024022C813D814E815F81C501B4010E94B9
:102AC00009B8181624F48C829D82AE82BF82809051
:102AD0002D0290902E02A0902F02B09030022C81F7
:102AE0003D814E815F81C501B4010E9433AF87FFF4
:102AF00004C08C829D82AE82BF82E2FE2CC0C09058
:102B00002502D0902602E0902702F0902802288526
:102B100039854A855B85C701B6010E9409B8181638
:102B200024F4C886D986EA86FB86C0903102D0900C
:102B30003202E0903302F0903402288539854A85CC
:102B40005B85C701B6010E9433AF87FF04C0C8860A
:102B5000D986EA86FB86DF91CF91FF90EF90DF90D8
:102B6000CF90BF90AF909F908F900895CF93DF93B9
:102B7000DB01F9019C919130C1F0943080F09450C8
:102B80009C938830D1F480819181009771F00197F6
:102B900091838083480F591FEA01188206C08C3543
:102BA00039F49C5F9C93943041F4DF91CF91089568
:102BB0008B3339F781E08C93F8CF20813181B901D3
:102BC0006F5F7F4F71836083420F531FEA018883D9
:102BD000808191818F3591056CF7E7CF0F931F931B
:102BE00081E000918C0E10918D0E20918E0E30910F
:102BF0008F0E4091880E5091890E60918A0E7091CF
:102C00008B0E041715072607370708F480E01F917D
:102C10000F91089590E080E0089520917E03833025
:102C200021F425FD0CC024FD0CC030E0A90102C038
:102C3000559547958A95E2F7CA018170089581E01C
:102C4000089580E008958091990384FD0BC08091E0
:102C50009B0387FD07C090919C03937081E019F45A
:102C600080E0089581E008952FEB280F2A3108F0C5
:102C700047C0E22FF0E08091990390919A03A091D0
:102C80009B03B0919C0304C0B695A7959795879533
:102C90002A95D2F780FD02C081700895E158FC4F5B
:102CA000E081EE2341F180918A0B90918B0BE80F2C
:102CB000F92FF11D808190ED980F9A3030F08E320F
:102CC00051F4818180538A3098F4F0937A03E09331
:102CD000790381E008958D3211F08B3249F48181BE
:102CE00090ED980F9A3088F38E3211F48281EACFFA
:102CF000F0E0E0E0EACF10927A0310927903E9CF96
:102D000080E008958091C30381110EC020911902C3
:102D100030911A022150310981E04091180B5091F5
:102D2000190B421753070CF080E008950F931F937F
:102D30008091EE0A813019F50E9434880091A60333
:102D40001091A7032091A8033091A903601B710B78
:102D5000820B930B28EE33E040E050E00E945DB51B
:102D60006091A2037091A3038091A4039091A503A5
:102D7000620F731F841F951F1F910F91089560911B
:102D8000AA037091AB038091AC039091AD03D6CFB1
:102D90008091EE0A813079F482E08093EE0A0E94FD
:102DA00034886093AA037093AB038093AC03909331
:102DB000AD0381E0089580E00895CF93DF93C09143
:102DC000A304D091A404209729F160919F047091ED
:102DD000A0048091A1049091A2040E9427B76E5F85
:102DE0007F4F24976C177D07ACF470936804609351
:102DF00067040E943488605A75418F4F9F4F6093DB
:102E0000690470936A0480936B0490936C04DF915F
:102E1000CF9108951092690410926A0410926B0485
:102E200010926C04F4CF4091DD0321E042276CE066
:102E300070E00C944F844091DD0321E0422764E070
:102E400070E00C944F844091DD0321E0422761E063
:102E500070E00C944F844091DD0321E0422761E053
:102E600070E00C944F844091DD0321E0422768E03C
:102E700070E00C944F844091DD0321E042276CE028
:102E800070E00C944F8441E061E070E00C944F845A
:102E90004091DD0321E042270C944F846CE070E008
:102EA0000C94CD8764E070E00C94CD8761E070E015
:102EB0000C94CD8761E070E00C94CD876CE070E0FD
:102EC0000C94CD870F931F93CF93DF9303E51BE003
:102ED000C9E6D5E0F80121913191419151918F01DD
:102EE00060E070E080E89FE30E94BFB66993799349
:102EF00089939993F5E0C937DF0761F70E94B88598
:102F0000DF91CF911F910F9151CCCF93DF93CDB72C
:102F1000DEB72C970FB6F894DEBF0FBECDBF198277
:102F20001A821B821C821D821E821F8218861986AD
:102F30001A861B861C86AE014F5F5F4FBC018BE477
:102F400092E00E94FC862C960FB6F894DEBF0FBE6E
:102F5000CDBFDF91CF9108958091790390917A034D
:102F6000009731F04AE050E070E060E00C9493ADDF
:102F700060E070E0CB0108958091790390917A032D
:102F8000009731F04AE050E070E060E00C9467ACEC
:102F900060E070E0CB010895EFDFCB010895ECDF36
:102FA00097FD0AC0E9DF6F3F71058105910509F0C2
:102FB0002CF4E2DF862F089580E008958FEF0895C6
:102FC0008091790390917A03892B39F0E8DF91E0C1
:102FD000811101C090E0892F089591E0FCCF0F93FB
:102FE0000FB70F9300916E000D7F00936E007894E1
:102FF0000F930BB70F930CB70F921F922F933F9322
:103000004F935F936F937F938F939F93AF93BF93F0
:10301000EF93FF93112493D4FF91EF91BF91AF9160
:103020009F918F917F916F915F914F913F912F91E0
:103030001F900F900CBF0F910BBF0F910260F8947F
:1030400000936E000F910FBF0F911895CF93DF93F0
:103050001092B704C0E1DBE0198618860E945299ED
:103060001A862C98CBE9D4E019861886A6DE1A8633
:1030700080910201807280930001DF91CF910895C9
:103080008F929F92AF92BF92CF92DF92EF92FF9278
:103090000F931F93CF93DF93B0E4A0E06A2F70E00B
:1030A000AB014B0F511D55954795411119C0E5E1F5
:1030B000F6E165917491072E000C880B990B0E9424
:1030C00039AFDF91CF911F910F91FF90EF90DF907B
:1030D000CF90BF90AF909F908F900895B42FE0CF86
:1030E000A41711F0B41303C0E1E1F7E1E2CF9A01B4
:1030F00021503109220F331F220F331FF901ED5EDA
:10310000F94EE590F490F901E95EF94EC591D4913C
:103110008E159F0518F3A42FC817D90708F4BECF42
:10312000F901EB5EF94E05911491F901E75EF94E54
:10313000C590D4908E199F09BC0190E080E00E9458
:1031400037AF4B015C01B601601B710B072E000C01
:10315000880B990B0E9439AF9B01AC01C501B401EA
:103160000E9498AF4B015C01CE19DF09BE0190E0CF
:1031700080E00E9437AF9B01AC01C501B4010E9401
:10318000BFB66B017C01B801110F880B990B0E942F
:1031900039AF9B01AC01C701B6010E94E3B591CFE5
:1031A00080914604882339F06091820E7091830EDD
:1031B0008091840E089560E070E080E00895BC0185
:1031C000209127043091280440912704509128042D
:1031D0002417350731F481E02617370709F080E01E
:1031E00008959A01F1CF0F930FB70F9300916E00DE
:1031F0000F930D7F00936E0000916F000D7F009381
:103200006F000F930BB70F930CB70F921F922F9372
:103210003F934F935F936F937F938F939F93AF935E
:10322000BF93EF93FF931124BCD4FF91EF91BF9113
:10323000AF919F918F917F916F915F914F913F914E
:103240002F911F900F900CBF0F910BBF0F91026039
:10325000F89400936F000F9100936E000F910FBFD1
:103260000F91189580913E0580FF23C089988FEFBC
:103270008093E00380913E0581FF1EC08F988FEF01
:103280008093E10380913E0582FF19C080910B017C
:103290008095827080930901439A8FEF8093E203B7
:1032A00080913E0583FF13C016988FEF8093E30350
:1032B0000895899A81E0DCCF8F9A81E0E1CF8091F7
:1032C0000B01827080930901439881E0E7CF169A41
:1032D00081E0ECCF8091DF03877F8093DF03129A38
:1032E00081E0089580E038D981E036D982E034D990
:1032F000F1CF12988091DF0388608093DF030895F7
:10330000813089F070F0823081F021E030E001C03E
:10331000220F8A95EAF78091DF03822B8093DF03E7
:1033200008955F98F2CF8A98F0CF9091080191703C
:10333000909306014798E9CFCF93DF938091C30321
:10334000811119C0C0911902D0911A02219720E071
:1033500030E040E05FE36091140B7091150B8091B9
:10336000160B9091170B0E94E3B50E9427B721E03E
:103370006C177D070CF020E0822FDF91CF9108952C
:103380002F923F924F925F926F927F928F929F9275
:10339000AF92BF92CF92DF92EF92FF920F931F9363
:1033A000CF93DF93CDB7DEB7A0970FB6F894DEBF0B
:1033B0000FBECDBF1C017B015E834D83FC01EA5B28
:1033C000FF4F208131814281538129833A834B838E
:1033D0005C83CA01B9010E9437AF4B015C01D70180
:1033E0002D913D914D915C910E9498AF0E94A9B69C
:1033F0002B013C01ED81FE8120813181428153818D
:10340000C501B4010E9498AF0E94A9B66B017C016E
:10341000C301B2010E942CB769877A878B879C878A
:10342000683771058105910540F428E730E040E0F8
:1034300050E029873A874B875C87C701B6010E9415
:103440002CB76D877E878F87988B683771058105CC
:10345000910548F428E7C22ED12CE12CF12CCD8621
:10346000DE86EF86F88AD1019596CD90DD90ED90BD
:10347000FC909897CD82DE82EF82F886F101EE5AB9
:10348000FF4F608171818281938161157105810592
:10349000910509F49FC10E9439AF6D8B7E8B8F8B94
:1034A000988F9B01AC0160E070E080E89FE30E9490
:1034B000BFB6698F7A8F8B8F9C8F20E030E040E021
:1034C0005FE30E9498AF6B017C01A5019401C501E7
:1034D000B4010E9498AF2B013C016D857E858F85DC
:1034E00098890E9437AF9B01AC010E9498AF9B0165
:1034F000AC01C301B2010E94E2B5A70196010E948E
:1035000098AF4B015C0169857A858B859C850E940B
:1035100037AF9B01AC010E9498AF6D8F7E8F8F8F6C
:1035200098A39B01AC01C301B2010E94E2B5A701BF
:1035300096010E9498AF2B013C010E94A9B60E94FF
:103540002CB76B017C01C501B4010E9458B70E94E1
:103550002CB7698B7A8B8B8B9C8BDC01CB018C0D10
:103560009D1DAE1DBF1D2D813E814F815885281B9D
:10357000390B4A0B5B0BDA01C901B7FF61C06D81E2
:103580007E818F8198850E9437AFA30192010E94AE
:10359000E3B5A50194010E94E2B520E030E040E0EF
:1035A0005FE30E9498AF0E94A9B66B017C0120E006
:1035B00030E0A9010E9409B818161CF0C12CD12CCA
:1035C0007601C701B6010E942CB76B017C014D81C9
:1035D0005E816F8178854C155D056E057F0510F461
:1035E0006A017B016D817E818F8198856C197D09CF
:1035F0008E099F09698B7A8B8B8B9C8BC701B601D7
:103600000E9437AF4B015C012D893E894F89588D4F
:10361000CA01B9010E94E3B59B01AC01C501B40127
:103620000E9498AF2D8D3E8D4F8D58A10E94E3B51D
:103630000E944FB80E942CB769837A838B839C8346
:1036400020E034E244EF59E4698D7A8D8B8D9C8DB6
:103650000E9498AF4B015C0169817A818B819C81CA
:1036600029853A854B855C85621B730B840B950B12
:103670000E9437AFA50194010E9498AF0E942CB719
:103680002B013C0169817A818B819C812D853E854E
:103690004F855889621B730B840B950B0E9437AFC3
:1036A000A50194010E9498AF0E942CB74B015C01C8
:1036B0003FE6431651046104710408F097C0F2011B
:1036C000EE0FFF1FEE0FFF1FED5FF04F85919591FD
:1036D000A591B4918C01AD8BBD834FE68416910406
:1036E000A104B10408F08AC0F401EE0FFF1FEE0F31
:1036F000FF1FED5FF04F45915591659174919A01CF
:10370000CB01D1019996CD92DD92ED92FC929C97DE
:1037100095964D915D916D917C919897C988DA88C5
:10372000EB88FC884C195D096E097F099D964D93C5
:103730005D936D937C93D097F101E65BFF4FC98455
:10374000DA84EB84FC84C082D182E282F382D59653
:103750004D925D926D927C92D897F10181AE92AEBE
:10376000A3AEB4AEFD9600831183CD88C282DD8006
:10377000D38234962083318382839383C980DA8015
:10378000EB80FC80D196CD92DD92ED92FC92D497A5
:103790003D96CD84DE84EF84F888C082D182E282B7
:1037A000F382A0960FB6F894DEBF0FBECDBFDF91B7
:1037B000CF911F910F91FF90EF90DF90CF90BF902E
:1037C000AF909F908F907F906F905F904F903F90C1
:1037D0002F900895198E1A8E1B8E1C8E198A1A8AA4
:1037E0001B8A1C8AC12CD12C76012ACFC301B201BD
:1037F0000E94D9128B018D8B9D836FCFC501B401BF
:103800000E94D9129B017DCFEFE6F0E080818260BB
:1038100080830895CF93C82FB3D894E0C99F9001B7
:103820001124F901E65DFB4F2A5C3B4FD9014D9114
:103830005D916D917C91408351836283738391E0AC
:1038400090932904882311F0CF91DECFCF91089572
:10385000CF93DF938091B10365995BC081608093C2
:10386000B103909103018091B10391FD54C0826036
:103870008093B1038091B1034B994FC084608093D2
:10388000B1038091B1039091B003981709F447C038
:1038900092E09093AF038093B00380913C0588231E
:1038A00009F44AC0C0911A04C0FF0FC080913E05C0
:1038B00080FF0BC08091AE0380FF07C080914D0553
:1038C000816080934D0580E0A5DFC1FF0FC080912E
:1038D0003E0581FF0BC08091AE0381FF07C0809140
:1038E0004D05826080934D0581E094DFC2FF24C0C6
:1038F00080913E0582FF20C08091AE0382FF1CC0F4
:1039000080914D05846080934D0582E0DF91CF91D9
:1039100081CF8E7FA4CF8D7FABCF8B7FB0CF8091B7
:10392000AF03882309F4B9CF81508093AF0381118D
:10393000B4CF9093AE03B1CFDF91CF9108951F9391
:10394000CF93DF9380913B028F3708F49AC08F5753
:1039500090911A0B90939A04992309F490C02C9A91
:103960002091A50420939904909102012111909532
:103970009072909300018F5F80933B028091980436
:1039800091E089278093980480913A02980F8530BE
:103990000CF090E0823009F4CFC00CF07FC0882397
:1039A00009F494C0813009F4BBC090933A02C091ED
:1039B0009504D0919604209709F451C0F894109181
:1039C0000901127082E09CDC80910B011C161D061F
:1039D0000CF080958270809309011C161D060CF472
:1039E000DAC0439A209184003091850080910B01C8
:1039F0008095887080930901419A8091840090910C
:103A00008500821B930BB0E0A0E043E0880F991F74
:103A1000AA1FBB1F4A95D1F78097A105B10568F38E
:103A200080910B01887080930901419880910B016E
:103A300011118095827080930901112309F4ADC0A2
:103A4000439A789480919504909196041C161D06D3
:103A50000CF0A5C001979093960480939504F8DE2E
:103A60008091310B9091320B009729F00197909340
:103A7000320B8093310BDF91CF911F9108952C98D9
:103A80006FCF90919A04891708F02C98909199041F
:103A9000891708F470CF909102016ACF843009F43D
:103AA00063C00CF45CC0853009F07FCF209197048F
:103AB000211102C0809397048091970481508093D4
:103AC0009704882309F471CF95E06FCF8091390274
:103AD0008F5F80311CF48093390267CF10923902D6
:103AE00080919404811113C02091100B3091110B1F
:103AF0003093130B2093120B20919B0430919C0464
:103B000030939E0420939D0481E08093940410924E
:103B1000110B1092100B10929C0410929B0445CF35
:103B200088E080937B0085E480937C0080917A001C
:103B3000806480937A0039CF80917A0086FD27C017
:103B400040917800509179002091100B3091110B29
:103B5000240F351F3093110B2093100B26CF88E0D4
:103B600080937B0086E4E0CF80917A0086FD11C0CF
:103B7000409178005091790020919B0430919C04F1
:103B8000240F351F30939C0420939B040ECF92E0AA
:103B90000CCF94E00ACF439825CF439852CF01969B
:103BA0005ACF2F923F924F925F926F927F928F9255
:103BB0009F92AF92BF92CF92DF92EF92FF920F93BC
:103BC0001F93CF93DF93CDB7DEB76D970FB6F89401
:103BD000DEBF0FBECDBF8FEF9FEF90938900809324
:103BE00088000AE0B02E1C8E1B8EA12C7894809148
:103BF000230490912404A0912504B0912604892BDC
:103C00008A2B8B2B09F00DC2809129048823D1F0D7
:103C1000809127049091280410922904892B91F017
:103C2000109228041092270410921A049091700E9A
:103C30008091710E981731F08091710E8F5F8F70A7
:103C40008093710E8091270490912804892B09F4A8
:103C5000E8C140911F0450912004609121047091AB
:103C6000220480911B0490911C04A0911D04B0912A
:103C70001E04481759076A077B0708F0D2C1009154
:103C80004F0510E030E020E0841B950BA60BB70B2E
:103C9000081719072A073B0710F4D901C8018D8FAF
:103CA000840F951FA61FB71F80931F0490932004B5
:103CB000A0932104B09322041E8A1D8AE1E0C090E3
:103CC000E803D090E903E090EA03F090EB038091E1
:103CD000F8039091F903A091FA03B091FB03C80E89
:103CE000D91EEA1EFB1EC092F803D092F903E0929F
:103CF000FA03F092FB03F7FC18C08091E403909163
:103D0000E503A091E603B091E70316012701281A05
:103D1000390A4A0A5B0AD201C1018093F8039093E1
:103D2000F903A093FA03B093FB030091EC03109105
:103D3000ED032091EE033091EF038091FC0390910D
:103D4000FD03A091FE03B091FF03080F191F2A1F66
:103D50003B1F0093FC031093FD032093FE0330935D
:103D6000FF0337FD18C08091E4039091E503A09113
:103D7000E603B091E70328013901481A590A6A0A93
:103D80007B0AD301C2018093FC039093FD03A093AF
:103D9000FE03B093FF034091F0035091F103609153
:103DA000F2037091F3038091000490910104A091BB
:103DB0000204B0910304480F591F6A1F7B1F4093F0
:103DC000000450930104609302047093030477FD90
:103DD00018C08091E4039091E503A091E603B091AF
:103DE000E7033A014B01681A790A8A0A9B0AD4014F
:103DF000C3018093000490930104A0930204B09344
:103E000003042090F4033090F5034090F6035090A3
:103E1000F7038091040490910504A0910604B091E9
:103E20000704820D931DA41DB51D80930404909377
:103E30000504A0930604B0930704B7FD16C02090B4
:103E4000E4033090E5034090E6035090E7033C0123
:103E50004D016218730884089508609204047092FA
:103E600005048092060490920704E1110DC0E091D0
:103E70008400F09185001F018D889E8828183908DC
:103E8000E2E02E16310498F3F7FC24C02090E00302
:103E9000422C220C5508660877084F8A588E698E86
:103EA0007A8E609036047090370480903804909039
:103EB00039042F88388C498C5A8C260C371C481CA6
:103EC000591C2092360430923704409238045092A4
:103ED0003904889A37FD24C02090E103422C220C3B
:103EE0005508660877084F8A588E698E7A8E6090DA
:103EF0003A0470903B0480903C0490903D042F88DD
:103F0000388C498C5A8C260C371C481C591C209222
:103F10003A0430923B0440923C0450923D048E9A05
:103F200077FD2AC02090E203422C220C5508660837
:103F300077084F8A588E698E7A8E60903E04709012
:103F40003F0480904004909041042F88388C498C25
:103F50005A8C260C371C481C591C20923E04309267
:103F60003F044092400450924104E0910B01E095DF
:103F7000E870E0930901419AB7FD24C02090E30363
:103F8000422C220C5508660877084F8A588E698E95
:103F90007A8E609042047090430480904404909024
:103FA00045042F88388C498C5A8C260C371C481CA9
:103FB000591C20924204309243044092440450928F
:103FC0004504149A40908400509085005E8A4D8A82
:103FD00040908400509085006D887E884618570870
:103FE000E2E04E165104A0F3F7FE889837FF8E9852
:103FF00077FD06C020910B0128702093090141989C
:10400000B7FF1498FD8DFF2331F02090840030908D
:1040100085003E8A2D8A2D8D21502D8FE0E02111C3
:104020004ECE8091230490912404A0912504B09158
:104030002604892B8A2B8B2B09F0A3C5C09027045B
:10404000D0902804C114D10409F4F0C580911F0454
:1040500090912004A0912104B091220440911B046E
:1040600050911C0460911D0470911E0484179507E3
:10407000A607B70708F486C01092280410922704F8
:1040800010921A049091700E8091710E981709F495
:10409000CDC58091710E8F5F8F708093710E10ED82
:1040A000C12E17E0D12EE12CF12C809127049091A4
:1040B0002804892B09F05DC50E948B149093280475
:1040C00080932704892B09F454C58090270490908D
:1040D0002804D4018C9183FD1DC455962D903D90EC
:1040E0004D905C9058972F8A388E498E5A8E81E079
:1040F00023282428252809F480E0F401418C528CDF
:10410000638C748C411451046104710409F01AC465
:10411000D4015D960D911D912D913C9190970115C3
:1041200011052105310509F0846080931A0410926D
:1041300008041092090410920A0410920B041092C1
:104140001204109213041092140410921504F40136
:10415000EA5BFF4F4081518162817381E0E04B3A1D
:10416000B4E15B076105710508F0EEC3440F551F0C
:10417000661F771F4B3AF4E15F076105710578F719
:10418000EF5FEDCF40911604509117046091180431
:1041900070911904481759076A077B0708F4ADC1E5
:1041A0008091120490911304A0911404B09115040D
:1041B000F60145A956A967A970AD84179507A6070A
:1041C000B70708F095C10097A105B10561F54091C9
:1041D000490350914A0360914B0370914C03CB010A
:1041E000BA012091110404C0660F771F881F991F20
:1041F0002A95D2F70E9423876B017C0180911204DB
:1042000090911304A0911404B09115048C0D9D1D80
:10421000AE1DBF1D8093120490931304A093140449
:10422000B093150442CF5A2D4D81282F692F8A2F24
:10423000AE81FF81E88579853A85BB859C85309183
:104240004503329FE12D7727B0914603B29FE00DE1
:10425000711D10904703129E700D369FE00D711D69
:10426000B69F700D389F700DAE2FF72FAE9F312D7A
:10427000BB279927A79F300DB11D951FFE9F300DBD
:10428000B11D951FF79FB00D911DAB2FF92FAE9F5C
:10429000412DBB279927A79F400DB11D951FFE9F5C
:1042A000400DB11D951FF79FB00D911DAB2FF92F3C
:1042B00033272091490360914A0380914B0300907A
:1042C0004403052A09F483C0B0914003BA9F311911
:1042D000250B650B850B909141039A9F301921099D
:1042E000650B850B409142034A9F20196109850B9C
:1042F000BF9F30192109650B850B9F9F201961090C
:10430000850B4F9F60198109AE9F412DBB279927CF
:10431000A79F400DB11D951FFE9F400DB11D951F1C
:10432000F79FB00D911DAB2FF92FB0913C03BA9FB1
:10433000310D251F651F851F90913D039A9F300DFC
:10434000211D651F851F40913E034A9F200D611D61
:10435000851FBF9F300D211D651F851F9F9F200D4D
:10436000611D851F4F9F600D811DAE9F412DBB2795
:104370009927A79F400DB11D951FFE9F400DB11DB0
:10438000951FF79FB00D911DAB2FF92FB0913803FA
:10439000BA9F3119250B650B850B909139039A9FB4
:1043A00030192109650B850B40913A034A9F20196A
:1043B0006109850BBF9F30192109650B850B9F9FF4
:1043C00020196109850B4F9F6019810982C0B09146
:1043D0004003BA9F310D251F651F851F9091410332
:1043E0009A9F300D211D651F851F409142034A9FF2
:1043F000200D611D851FBF9F300D211D651F851F6D
:104400009F9F200D611D851F4F9F600D811DAE9FD9
:10441000412DBB279927A79F400DB11D951FFE9FDA
:10442000400DB11D951FF79FB00D911DAB2FF92FBA
:10443000B0913C03BA9F3119250B650B850B909108
:104440003D039A9F30192109650B850B40913E036E
:104450004A9F20196109850BBF9F30192109650BFF
:10446000850B9F9F20196109850B4F9F601981095A
:10447000AE9F412DBB279927A79F400DB11D951FCA
:10448000FE9F400DB11D951FF79FB00D911DAB2FE5
:10449000F92FB0913803BA9F310D251F651F851F75
:1044A000909139039A9F300D211D651F851F409102
:1044B0003A034A9F200D611D851FBF9F300D211DAE
:1044C000651F851F9F9F200D611D851F4F9F600DDC
:1044D000811D11244D83AE83FF83E88779873A8756
:1044E000BB879C87762F622FAB0170E0682F77CE59
:1044F00061A972A983A994A974CE40910D04509129
:104500000E0460910F0470911004481759076A0750
:104510007B0708F0D2C180910C0481113FC0F601E5
:10452000EF5BFF4FE080F180028113813D96208197
:10453000318142815381F60161A972A983A994A9AD
:104540000E945A12F1E0F0930C04D601D1966D91BD
:104550007D918D919C91D4972091110404C0660F98
:10456000771F881F991F2A95D2F70E9423876B0116
:104570007C018091080490910904A0910A04B091F3
:104580000B048C0D9D1DAE1DBF1D809308049093E0
:104590000904A0930A04B0930B0487CD809108040A
:1045A00090910904A0910A04B0910B04F60141AD69
:1045B00052AD63AD74AD84179507A607B70708F031
:1045C00074C10097A105B10559F440914903509178
:1045D0004A0360914B0370914C03CB01BA01BCCFED
:1045E0005A2D7D85282F692F8A2FBE85AF85F889A2
:1045F000E9894A893B899C8940914503429FF12D75
:10460000EE2730914603329FF00DE11D10904703D5
:10461000129EE00D469FF00DE11D369FE00D489F74
:10462000E00DBF2FAE2FBF9F412D33279927BE9F8F
:10463000400D311D951FAF9F400D311D951FAE9F41
:10464000300D911DB32FA92FBF9F712D33279927AF
:10465000BE9F700D311D951FAF9F700D311D951FB1
:10466000AE9F300D911DB32FA92F442720914903F0
:1046700060914A0380914B0300904403052A09F49A
:1046800083C0309140033B9F4119250B650B850B7F
:10469000909141039B9F40192109650B850B7091F7
:1046A00042037B9F20196109850B3A9F401921091C
:1046B000650B850B9A9F20196109850B7A9F6019FC
:1046C0008109BF9F712D33279927BE9F700D311D22
:1046D000951FAF9F700D311D951FAE9F300D911D21
:1046E000B32FA92F30913C033B9F410D251F651F20
:1046F000851F90913D039B9F400D211D651F851FC8
:1047000070913E037B9F200D611D851F3A9F400DD8
:10471000211D651F851F9A9F200D611D851F7A9F92
:10472000600D811DBF9F712D33279927BE9F700D8E
:10473000311D951FAF9F700D311D951FAE9F300D20
:10474000911DB32FA92F309138033B9F4119250BA1
:10475000650B850B909139039B9F40192109650BCF
:10476000850B70913A037B9F20196109850B3A9F55
:1047700040192109650B850B9A9F20196109850B4A
:104780007A9F6019810982C0309140033B9F410D9F
:10479000251F651F851F909141039B9F400D211D83
:1047A000651F851F709142037B9F200D611D851F32
:1047B0003A9F400D211D651F851F9A9F200D611D89
:1047C000851F7A9F600D811DBF9F712D332799270B
:1047D000BE9F700D311D951FAF9F700D311D951F30
:1047E000AE9F300D911DB32FA92F30913C033B9FFD
:1047F0004119250B650B850B90913D039B9F40193B
:104800002109650B850B70913E037B9F201961097F
:10481000850B3A9F40192109650B850B9A9F20193A
:104820006109850B7A9F60198109BF9F712D33271C
:104830009927BE9F700D311D951FAF9F700D311DC3
:10484000951FAE9F300D911DB32FA92F30913803C6
:104850003B9F410D251F651F851F909139039B9F2D
:10486000400D211D651F851F70913A037B9F200D10
:10487000611D851F3A9F400D211D651F851F9A9F51
:10488000200D611D851F7A9F600D811D11247D877C
:10489000BE87AF87F88BE98B4A8B3B8B9C8B762F3F
:1048A000622FAB0170E0682F98CED601A25BBF4F9C
:1048B0006D917D918D919C914FCE8091350290911B
:1048C0003602A0913702B0913802B7FF1AC0D60164
:1048D000AA5BBF4F209111046D917D918D919C91A8
:1048E00004C0660F771F881F991F2A95D2F70E9470
:1048F000238760933502709336028093370290933A
:104900003802C0903502D0903602E0903702F09025
:104910003802CBCBC40145960E9451121092280454
:104920001092270410921A049091700E8091710ECB
:10493000981709F4C1CB8091710E8F5F8F708093AF
:10494000710EBACB8260E4CBE09311042E2ED40119
:1049500095964D915D916D917C9198970E2E04C026
:10496000440F551F661F771F0A94D2F740931B040C
:1049700050931C0460931D0470931E04882799278C
:10498000DC01841B950BA60BB70B8093F803909367
:10499000F903A093FA03B093FB038093FC03909375
:1049A000FD03A093FE03B093FF0380930004909354
:1049B0000104A0930204B093030480930404909331
:1049C0000504A0930604B0930704D4019196CD90FA
:1049D000DD90ED90FC909497D701C601880F991F48
:1049E000AA1FBB1FCF88D88CE98CFA8CCC0CDD1C9D
:1049F000EE1CFF1CC092E803D092E903E092EA03A8
:104A0000F092EB03440C551C661C771C4092EC039F
:104A10005092ED036092EE037092EF03000F111FAE
:104A2000221F331F0093F0031093F1032093F2032E
:104A30003093F3038093F4039093F503A093F6036C
:104A4000B093F703440F551F661F771F4093E4038D
:104A50005093E5036093E6037093E70310921F04FD
:104A6000109220041092210410922204D4019996ED
:104A70004D915D916D917C919C970E2E04C0440FD9
:104A8000551F661F771F0A94D2F740931604509360
:104A9000170460931804709319049D964D915D91CD
:104AA0006D917C91D09704C0440F551F661F771FEE
:104AB000EA95D2F740930D0450930E0460930F04CF
:104AC00070931004F401EB5BFF4F808190913E05E1
:104AD000891721F080933E050E9432190E94281CFC
:104AE00044244A94542C32014092350250923602AA
:104AF0006092370270923802F401FD96E080F180F6
:104B000002811381D401D1962D913D914D915C91FB
:104B1000D497BAE48B0E911CF4016081718182817B
:104B200093810E945A1210920C04D4016D917D91D0
:104B30008D919C9104C0660F771F881F991F2A943E
:104B4000D2F70E9423876B017C018091120490911F
:104B50001304A0911404B09115048C0D9D1DAE1D7D
:104B6000BF1D8093120490931304A0931404B09378
:104B70001504C0922304D0922404E0922504F092FC
:104B800026048091230490912404A0912504B091DF
:104B90002604AC01BD010097E1E0AE07B10520F0AD
:104BA0004FEF5FEF60E070E0841B950BA60BB70B37
:104BB0008093230490932404A0932504B0932604A7
:104BC000F89480918400909185004096BA94BB201F
:104BD00051F12B8C3C8C240E351E3C8E2B8E2816CE
:104BE000390608F403C84B8C5C8C509289004092C3
:104BF000880078946D960FB6F894DEBF0FBECDBFD7
:104C0000DF91CF911F910F91FF90EF90DF90CF90A8
:104C1000BF90AF909F908F907F906F905F904F90DC
:104C20003F902F9008959C8F8B8FDDCF80EDC82E05
:104C300087E0D82EE12CF12C3FCACF92DF92EF9281
:104C4000FF92CF93DF93C82F0E94C01494E0C99FB6
:104C5000E0011124FE01EA5CFB4FC080D180E280BC
:104C6000F38081110E94041CC759DA4FC701B601B5
:104C70000E9439AF288139814A815B810E9498AFB7
:104C8000DF91CF91FF90EF90DF90CF900895CF927A
:104C9000DF92EF92FF92CF93DF93C82F0E94C01450
:104CA00094E0C99FE0011124FE01E65DFB4FC08046
:104CB000D180E280F38081110E94041CC759DA4F31
:104CC000C701B6010E9439AF288139814A815B81D1
:104CD0000E9498AFDF91CF91FF90EF90DF90CF903F
:104CE00008950E94C0149091710E9093700E90934D
:104CF0006F0E90936E0E94E690936D0E20ED33E060
:104D00003093320B2093310B81110E94041C81E0FF
:104D1000809329040895CF93DF931F92CDB7DEB718
:104D2000898360E0CE0101960E94CD1461E0CE013E
:104D300001960E94CD1462E0CE0101960E94CD142E
:104D400089810F90DF91CF910895CF93DF9380E019
:104D500074DFC3E3DBE0688379838A839B8381E02C
:104D60006CDF6C837D838E839F8382E066DF688740
:104D700079878A879B87DF91CF9108950C94B885B6
:104D800080914D05882319F010924D05089560E03B
:104D900084E39EE00E9498811092EE0A1092A6038E
:104DA0001092A7031092A8031092A9031092AA03CD
:104DB0001092AB031092AC031092AD031092A203B9
:104DC0001092A3031092A4031092A503089580915A
:104DD000EE0A8130E9F08230C9F40E9496166093A1
:104DE000A2037093A3038093A4039093A50381E08F
:104DF0008093EE0A0E9434886093A6037093A70301
:104E00008093A8039093A90381E00895C5DFEFCFB5
:104E100080E008958091EE0A8150823070F4109203
:104E2000EE0A0E9434886093AA037093AB038093C8
:104E3000AC039093AD0381E0089580E00895209144
:104E4000180B3091190B263531053CF42091A30441
:104E50003091A404263031051CF0882319F0B7CF17
:104E60006111D8CF08958F929F92AF92BF92CF9247
:104E7000DF92EF92FF920F931F93CF93DF931092E5
:104E80009E0310929D032FE32093A1031092A00391
:104E900010929F031092990310929A0310929B0311
:104EA00010929C039C01F90190812F5F3F4F90323B
:104EB000D1F39E34C9F4818190ED980F9A3020F09F
:104EC0008D3211F08B3281F432969F012F5F3F4F6C
:104ED000808180538A3008F46BC09F012F5F3F4F61
:104EE0008081803209F466C0F0938B0BE0938A0BCB
:104EF0008F010F5F1F4FC0816AE270E0C8010E94FE
:104F0000E1B8009731F0FC01319780818032E1F304
:104F10001182CD3421F0C43511F0C734E1F5F80128
:104F200080810F5F1F4F8032D1F380538A3098F514
:104F3000C093A10330E020E06AE0AF014F5F5F4F14
:104F4000629FC001639F900D11249C012053310981
:104F50008081280F311D87FD3A95FA0180818053A9
:104F60008A3058F33093A00320939F03DF013196DA
:104F70008C918032D9F3CD3449F52E31310539F099
:104F8000D8F42731310519F02C313105F9F4B093FB
:104F90009E03A0939D03DF91CF911F910F91FF90EE
:104FA000EF90DF90CF90BF90AF909F908F9008953B
:104FB000F9018BCFF90191CF2537310538F027372B
:104FC000310528F3203A83E0380709F3D0918A0BA2
:104FD00040E050E0BA0110E000E0C12CD12C760195
:104FE000C394FD0131968C91882309F47FC08132EE
:104FF000E1F4CD34D1F420323105B9F44093990372
:1050000050939A0360939B0370939C03F0939E03C9
:10501000E0939D0363E270E0CF010E94E1B8009746
:1050200009F4B9CFFC011082B6CF81548A3108F05F
:1050300058C0DF019D91903291F0A0EDA90FAA30E8
:10504000E8F09E3271F4918190539A30B8F00115D6
:10505000110519F48F010150110990E013C0FD01F1
:10506000E8CF9D3211F09B3291F79181A0EDA90F0D
:10507000AA3020F09E3259F79281E6CF9E2F9D1BD9
:10508000309759F3A82FB0E04601570104C0880CAF
:10509000991CAA1CBB1C8A95D2F7482959296A2950
:1050A0007B29A158BC4F9C9380818154DF018A31B8
:1050B00008F497CFDF018191882309F492CF90ED16
:1050C000980F9A30B8F393ED980F923098F38B3293
:1050D00089F3CD010196EC91E03209F082CFDC0139
:1050E000F8CF0115110501F78D01DECF10939E0356
:1050F00000939D034093990350939A0360939B03FD
:1051000070939C0348CF0F931F93CF9380917903A3
:1051100090917A03009709F1FC018F01C1912C2F26
:105120002F7DA1F0C53431F0C53621F0C83511F01E
:10513000C83799F7F801108270E060E00E9411AB67
:10514000F801C083CF911F910F91089570E060E046
:10515000CF911F910F910C9411AB60E070E0CB01E7
:10516000F1CF0E943416882341F081E02091790329
:1051700030917A03232B09F480E008954F925F92D7
:105180006F927F92AF92BF92CF92DF92EF92FF9297
:105190000F931F93CF9386EFA82E82E0B82E90EF47
:1051A000E92E9AE0F92E0BE412E027E1C22E2EE060
:1051B000D22EC0E0F50181915F01D3DF882309F48D
:1051C00076C0A1DF2B013C018C2F0E940D16882395
:1051D00009F463C0F8012081318142815381C30108
:1051E000B2010E94E3B5F7016083718382839383E8
:1051F000CF5FF4E0EF0EF11C0C5F1F4F84E0C80E90
:10520000D11CC330B9F685E4ACDF882309F45AC059
:105210007ADF6B017C0183E00E940D16882371F018
:1052200020915702309158024091590250915A02F0
:10523000C701B6010E94E3B56B017C01C092FC0A74
:10524000D092FD0AE092FE0AF092FF0A86E40E94E4
:10525000468420E030E0A9010E9409B818167CF4C9
:1052600052DF20E030E040E752E40E94BFB6609396
:105270001302709314028093150290931602CF913B
:105280001F910F91FF90EF90DF90CF90BF90AF9064
:105290007F906F905F904F900895F601208131814B
:1052A00042815381C301B2010E94E2B59CCFF80153
:1052B00080819181A281B381F70180839183A28350
:1052C000B38396CF8091570290915802A0915902D2
:1052D000B0915A028093FC0A9093FD0AA093FE0AB3
:1052E000B093FF0AB3CFCF93DF93C82FD62F39DF08
:1052F000882321F0DF91CF910C94E0178C2F0E942E
:105300003416811101C08D2FDF91CF910895CF9375
:10531000DF93C091180BD091190B209729F1609160
:10532000140B7091150B8091160B9091170B0E9426
:1053300027B76E5F7F4F26976C177D07ACF470938D
:10534000B9046093B8040E943488605C73468F4F40
:105350009F4F6093BA047093BB048093BC049093F6
:10536000BD04DF91CF9108951092BA041092BB044E
:105370001092BC041092BD04F4CF843021E0920757
:1053800014F084E091E09093190B8093180BBFCF39
:10539000CF93DF93EC01688170E085E00E94B982D1
:1053A000698170E084E00E94B9826A8170E086E0E1
:1053B0000E94B98288819981482F490F5527551F2E
:1053C0008A81840F952F911D21E0833091050CF483
:1053D00020E02093460403974CF088819981AA81AC
:1053E0008093820E9093830EA093840EDF91CF91D1
:1053F00008958F929F92AF92BF92CF92DF92EF92D9
:10540000FF92CF93DF9300D0CDB7DEB72FEF841795
:10541000950731F16A01052E000CEE08FF084C01DA
:10542000092E000CAA08BB08681779072CF0CB01DD
:10543000461757070CF4CA019C01990F440B550BF2
:10544000281939094A095B09AFEFB0E00E949BB502
:10545000A7019601281939094A095B090E947FB5FD
:105460008091B204821751F02093B2048FEF8983A8
:105470001A8220952B83CE0101968ADF0F900F9020
:105480000F90DF91CF91FF90EF90DF90CF90BF9082
:10549000AF909F908F9008958F929F92AF92BF92FE
:1054A000CF92DF92EF92FF92CF93DF9300D0CDB7F0
:1054B000DEB72FEF8417950731F16A01052E000C36
:1054C000EE08FF084C01092E000CAA08BB0868175B
:1054D00079072CF0CB01461757070CF4CA019C0141
:1054E000990F440B550B281939094A095B09AFEF8D
:1054F000B0E00E949BB5A7019601281939094A0915
:105500005B090E947FB58091B204821749F0209315
:10551000B20429831A828FEF8B83CE01019638DF84
:105520000F900F900F90DF91CF91FF90EF90DF9051
:10553000CF90BF90AF909F908F9008959091900ED4
:1055400094FB882780F994FF06C081E09091280E93
:10555000911101C080E0089581E00895CF93DF9319
:10556000EC01E62F660FFF0BE251F74EE491E2509B
:10557000E13108F0B0C0F0E08827EE53F54D8F4FD1
:105580000C94C8B5D32A6B2B6B2B6B2B6B2BFD2A82
:10559000DF2A212B1F2BFF2A452B432B232B6B2B81
:1055A000692B672B472B82E1EBE5F2E0DE010190EE
:1055B0000D928A95E1F7CE01DF91CF91089581E0B8
:1055C00020EB30E03983288321EB30E03B832A83D2
:1055D0001D821C8223EB30E03F832E8324EB30E0DE
:1055E000398728871B861A861D861C8692E09E872F
:1055F0008F8781E0888B198ADECF80E0E1CF81E060
:105600008F5F20E930E03983288321E930E03B8354
:105610002A8322E930E03D832C8328E930E03F8370
:105620002E832AE930E0398728872CE930E03B8750
:105630002A8726E930E03D872C8793E0D8CF80E0A9
:10564000DFCF80E0DECF81E08F5F20EA30E039837A
:10565000288321EA30E03B832A8322EA30E03D833D
:105660002C8328EA30E03F832E832AEA30E0398712
:1056700028872CEA30E03B872A8726EA30E03D87FE
:105680002C8794E0B4CF80E0DFCF80E0DECF81E0F4
:105690008F5F20E231E03983288321E231E03B83D0
:1056A0002A8322E231E03D832C8328E231E03F83EC
:1056B0002E832AE231E0398728872CE231E03B87CC
:1056C0002A8726E231E03D872C8795E090CF80E065
:1056D000DFCF80E0DECF82E1FE0111928A95E9F70B
:1056E0006ACF9091C00095FFFCCF8093C6000895CB
:1056F000CF93DF93EC01FE0184912196882311F072
:10570000F0DFF9CFDF91CF910895EF92FF920F93E1
:105710001F93CF937B018A01C2E48F3F09F0C4E558
:1057200080E2DFDF8C2FDDDF8AE3DBDFF7016081E2
:1057300071818281938142E00E94E69880E794E142
:10574000D7DFF801608171818281938142E00E94FC
:10575000E69862E070E080E090E0CF911F910F91B9
:10576000FF90EF900C949A870F931F93CF938C0127
:10577000C62F86E09CE0BCDFC801BADF8AE3B1DF58
:1057800080E38C0FAEDF8AE0CF911F910F91A9CFFC
:10579000CF92DF92EF92FF926A017B01A9DFC701EE
:1057A000B6010E943A828AE0FF90EF90DF90CF909E
:1057B00098CFCF92DF92EF92FF92CF93DF93EC01DD
:1057C000C880D980EA80FB8082EB93E191DFC7013A
:1057D000B6010E943A82CC80DD80EE80FF8088E8AE
:1057E00093E286DFC701B6010E943A824885598557
:1057F0006A857B8584E893E2DF91CF91FF90EF90FB
:10580000DF90CF90C5CFCF93DF93CDB7DEB72C9786
:105810000FB6F894DEBF0FBECDBF0E9454820E9427
:10582000C0149CE0E6E3F4E0DE01119601900D92D5
:105830009A95E1F781110E94041CCE010196B9DF0F
:105840002C960FB6F894DEBF0FBECDBFDF91CF917F
:1058500008952F923F924F925F926F927F928F9214
:105860009F92AF92BF92CF92DF92EF92FF920F93EF
:105870001F93CF93DF9300D000D01F92CDB7DEB738
:1058800080914B0290914C02A0914D02B0914E023A
:105890008A839B83AC83BD8340904F02509050021B
:1058A0006090510270905202809053029090540286
:1058B000A0905502B0905602C0905702D090580266
:1058C000E0905902F0905A020E94D6130E942414CC
:1058D0000BEC11E1ADE1B2E0BF83AE838FEB282E7C
:1058E00081E1382E198289810E94EE14F801859198
:1058F0009591A591B491EE81FF8181939193A193AC
:10590000B193FF83EE83F10185919591A591B491B7
:10591000EE81FF8180879187A287B387F981FF5F3E
:10592000F9830C5F1F4F84E0280E311CF330D9F649
:105930000E9462172A813B814C815D8160914B02FC
:1059400070914C0280914D0290914E020E9433AFB3
:1059500081112AC0A301920160914F0270915002FF
:1059600080915102909152020E9433AF81111CC06C
:10597000A5019401609153027091540280915502E7
:10598000909156020E9433AF81110EC0A70196017B
:1059900060915702709158028091590290915A0279
:1059A0000E9433AF8823C9F027960FB6F894DEBF64
:1059B0000FBECDBFDF91CF911F910F91FF90EF9060
:1059C000DF90CF90BF90AF909F908F907F906F901F
:1059D0005F904F903F902F9016CF27960FB6F89478
:1059E000DEBF0FBECDBFDF91CF911F910F91FF9012
:1059F000EF90DF90CF90BF90AF909F908F907F906F
:105A00006F905F904F903F902F900895E091760CAB
:105A100081E6E89FF0011124E852F34F8081811163
:105A200005C08CEF97E164DE8AE05BCE08950F93AA
:105A30001F93CF938C01C62F8DE794E059DEC801E8
:105A400057DECC2329F08AE0CF911F910F9149CEE8
:105A5000CF911F910F9108950F931F93CF938C01B6
:105A6000C62F60E08BE696E0E2DFC80141DECC2382
:105A700029F08AE0CF911F910F9133CECF911F91E2
:105A80000F91089561E083EA94E0E6CFCF93DF932E
:105A9000EC0160E08BE696E0CADF87EA94E028DE5E
:105AA00080E21FDECE0124DE8AE0DF91CF9119CEA5
:105AB000DF92EF92FF920F931F93CF93DF93D82E35
:105AC0007B018A01E901DEDFD092ED0A60E08DE220
:105AD00092E2C2DF80E205DEC7010ADE8AE001DE73
