:100000000C94EE130C942E140C942E140C942E14A9
:100010000C942E140C942E140C942E140C942E1458
:100020000C942E140C942E140C942E140C942E1448
:100030000C942E140C942E140C942E140C942E1438
:100040000C942E140C9492250C942E140C942E14B3
:100050000C942E140C949E240C942E140C94C7B65D
:100060000C942E140C9430470C94FA460C942E14D5
:100070000C942E140C942E140C942E140C942E14F8
:100080000C94B43B0C942E140C942E140C942E143B
:100090000C942E140C942E140C942E140C942E14D8
:1000A0000C942E140C942E140C94863B0C942E1449
:1000B0000C942E140C942E140C942E140C942E14B8
:1000C0000C942E140C942E140C942E140C942E14A8
:1000D0000C942E140C942E140C942E140C942E1498
:1000E0000C942E14084AD73B3BCE016E84BCBFFD56
:1000F000C12F3D6C74319ABD56833DDA3D00C77FF8
:1001000011BED9E4BB4C3E916BAAAABE0000008090
:100110003F05A84CCDB2D44EB93836A9020C50B91F
:10012000918688083CA6AAAA2ABE000000803F004B
:100130004E414E494E495459494E46CDCCCC3D0ACC
:10014000D7233C17B7D13877CC2B329595E6241FAF
:10015000B14F0A000020410000C84200401C462068
:10016000BCBE4CCA1B0E5AAEC59D7400407A10F33B
:100170005A00A0724E18090010A5D4E80000E876D5
:1001800048170000E40B54020000CA9A3B0000002C
:10019000E1F505000080969800000040420F000045
:1001A00000A08601000000102700000000E8030006
:1001B0000000006400000000000A000000000001D0
:1001C00000000000002C76D888DC674F0823DFC1D0
:1001D000DFAE59E1B1B796E5E3E453C63AE651998B
:1001E0007696E8E6C28426EB898C9B62ED407C6FB4
:1001F000FCEFBC9C9F40F2BAA56FA5F490055A2A6B
:10020000F75C936B6CF9676DC11BFCE0E40D47FE76
:10021000F520E6B500D0ED902E030094357705006B
:1002200080841E080000204E0A000000C80C3333F2
:1002300033330F986E12831141EF8D2114893BE601
:100240005516CFFEE6DB18D1844B381BF77C1D908A
:100250001DA4BBE424203284725E228100C9F124F3
:10026000ECA1E53D27434F4D4D554E49434154497F
:100270004F4E0044525952554E004552524F525320
:1002800000494E464F004543484F004D323400531D
:10029000544F505045442E20005072696E74657260
:1002A0002073746F707065642064756520746F20AE
:1002B0006572726F72732E204669782074686520AB
:1002C0006572726F7220616E6420757365204D399E
:1002D000393920746F20726573746172742E20280E
:1002E00054656D70657261747572652069732072F2
:1002F000657365742E20536574206974206166747B
:1003000065722072657374617274696E67290A0080
:100310004E6F20436865636B73756D2077697468F1
:10032000206C696E65206E756D6265722C204C6163
:100330007374204C696E653A20004E6F20436865E7
:10034000636B73756D2077697468206C696E6520C6
:100350006E756D6265722C204C617374204C696EF1
:10036000653A2000636865636B73756D206D697312
:100370006D617463682C204C617374204C696E65E8
:100380003A20004C696E65204E756D626572206979
:1003900073206E6F74204C617374204C696E6520FD
:1003A0004E756D6265722B312C204C617374204C3C
:1003B000696E653A20004D313130005365726961D4
:1003C0006C20737461747573206D69736D617463EF
:1003D000680A0053442072656164206572726F720E
:1003E0000A00746F6F206D75636820696E616374B5
:1003F0006976652074696D65202D2063757272655C
:100400006E7420636F6D6D616E643A20002121204F
:100410004B494C4C20636175736564206279200000
:100420004D6564696120496E73657274656400622C
:100430007573793A2070617573656420666F7220F8
:10044000696E7075740A00627573793A207061750F
:1004500073656420666F7220757365720A00627539
:1004600073793A2070726F63657373696E670A00FF
:100470006563686F3A004572726F723A004F464684
:10048000004F4E0042696C696E656172204C657662
:10049000656C696E6720477269643A0A002F2F61A4
:1004A0006374696F6E3A006E6F7469666963617434
:1004B000696F6E20006E6F74696669636174696F3D
:1004C0006E2000656E6400627574746F6E00486F14
:1004D00074656E6420746F6F20636F6C640A0070C3
:1004E000617573656400486561642063616E6E6F59
:1004F00074206265207061726B6564005061757371
:1005000065004F46460A0046616465204865696794
:1005100068742000426564204C6576656C696E677E
:1005200020004661696C656420746F20656E6162AD
:100530006C6520426564204C6576656C696E670A5F
:1005400000496E76616C6964206D6573682E0A00DF
:100550002E0A002F0050726F62696E67206D6573FE
:100560006820706F696E74200020284452595255DB
:100570004E2900473239204175746F20426564204E
:100580004C6576656C696E67003F20284C2C522CB8
:10059000462C4229206F7574206F6620626F756E3D
:1005A00064732E0A003F2856296572626F736520B6
:1005B0006C6576656C20696D706C61757369626CD1
:1005C000652028302D34292E0A00426164205A20EB
:1005D00076616C75650A004E6F2062696C696E65A4
:1005E000617220677269640A0020440020204D3245
:1005F0003030205300202844697361626C6564299F
:100600003A0046696C616D656E7420736574746937
:100610006E67730020204D3230312058004D6178D4
:1006200020416363656C65726174696F6E20287523
:100630006E6974732F7332290020204D32303320BD
:1006400058004D6178206665656472617465732039
:1006500028756E6974732F73290020520020204D75
:10066000323034205000416363656C657261746997
:100670006F6E2028756E6974732F7332292028508D
:100680003C7072696E742D616363656C3E20523CF0
:10069000726574726163742D616363656C3E20548E
:1006A0003C74726176656C2D616363656C3E2900F4
:1006B000204A0020540020530020204D32303520A5
:1006C0004200416476616E6365642028423C6D6936
:1006D0006E5F7365676D656E745F74696D655F7578
:1006E000733E20533C6D696E5F666565647261742C
:1006F000653E20543C6D696E5F74726176656C5F17
:1007000066656564726174653E204A3C6A756E6315
:100710005F6465763E290020440020490020204D7A
:10072000333031205000486F74656E642050494466
:100730000020440020490020204D33303420500058
:10074000426564205049440020440020204D353942
:1007500033205920460020440020204D35393320D5
:1007600058204600496E7075742053686170696E38
:100770006700206F72203020746F2064697361629B
:100780006C650A003F4672657175656E6379202855
:100790004629206D757374206265206772656174E7
:1007A0006572207468616E20003F5A65746120286C
:1007B00044292076616C7565206F7574206F662002
:1007C00072616E67652028302D31290A00203B00B8
:1007D00020550020204D363033204C0046696C6196
:1007E0006D656E74206C6F61642F756E6C6F6164E3
:1007F000003B200020496E76616C69642065787446
:1008000072756465722000536C6565702E2E2E0023
:100810005A2050726F626520506173742042656483
:100820000A005A2050726F62652050617374204232
:10083000656400473238005A2050726F626520505C
:100840006173742042656400205A3A200020593AAE
:10085000200042656420583A20004D65736820707E
:100860006F696E74206F7574206F662072616E6799
:10087000650A0070726F6D70745F00626567696E03
:10088000004D302053746F70004D312053746F70E1
:10089000004E6F204D6F76652E00456E64206669B0
:1008A0006C65206C6973740A00426567696E206626
:1008B000696C65206C6973740A004E6F206D656405
:1008C00069610A00534420636172642072656C653B
:1008D000617365640A00726573756D6500526573B6
:1008E000756D696E6720534400286E6F2066696CD1
:1008F00065290043757272656E742066696C653A8D
:1009000020002E0A0044656C6574696F6E20666174
:10091000696C65642C2046696C653A200046696CF8
:10092000652064656C657465643A0043616E6E6F42
:1009300074206F70656E2073756264697220002583
:1009400069730025696D2025697300256968202574
:10095000696D202569730025696420256968202553
:10096000696D202569730025697920256964202532
:1009700069682025696D20256973005072696E745D
:100980002074696D653A20006F6B006F66660086A3
:100990000281027A027302650244454255473A00D9
:1009A0004D31313320530047656E697573204F46D2
:1009B000462E002F2F003F4A206F7574206F66204F
:1009C00072616E67652028302E303120746F2030C0
:1009D0002E33290A0020580020204D61783A20004B
:1009E000200020204D696E3A2000203B200020206E
:1009F0004D323131205300536F667420656E64733D
:100A0000746F707300250A0046523A0020466C6FDE
:100A1000773A20003A200020536572766F2000203C
:100A20006F7574206F662072616E67650A0053658A
:100A300072766F200050726F6265204F6666736534
:100A400074205A0050726F6265204F666673657439
:100A5000205A0064697300656E0043290A006162D0
:100A60006C656420286D696E2074656D702000438C
:100A70006F6C64206578747275646573206172654B
:100A800020004D34323120696E636F727265637479
:100A900020706172616D6574657220757361676540
:100AA0000A004D65736820706F696E74206F7574ED
:100AB000206F662072616E67650A004F6666736517
:100AC0007473204170706C69656400546F6F2066A8
:100AD00061722066726F6D207265666572656E6305
:100AE0006520706F696E740A00454550524F4D2065
:100AF0004F4B0A00290A0020746F20003F5A206FD4
:100B00007574206F662072616E6765202800290A5F
:100B10000020746F20003F59206F7574206F66208D
:100B200072616E676520282D00290A0020746F20ED
:100B3000003F58206F7574206F662072616E676584
:100B400020282D004D3834005072696E7420446F97
:100B50006E6500446F6E65207072696E74696E67B1
:100B60002066696C650A004D3737004D3331004906
:100B70006E76616C69642065787472756465720A5A
:100B80000020204D323036205800486F6D65206FB0
:100B9000666673657400446966663A2020200046E4
:100BA000726F6D5374703A00537465707065723A69
:100BB00000556E4C6576656C3A004C6576656C65E3
:100BC000643A005261773A20202020000A4C6F6777
:100BD0006963616C3A00436F756E7420453A004357
:100BE00061703A007D7D7D0A002C7A3A002C793ABA
:100BF000007D2C6D61783A7B783A002C7A3A002C93
:100C0000793A007D7D2C776F726B3A7B6D696E3A15
:100C10007B783A002C7A3A002C793A007D2C6D6171
:100C2000783A7B783A002C7A3A002C793A00617253
:100C300065613A7B66756C6C3A7B6D696E3A7B7860
:100C40003A00434F4E4649475F4558504F52540073
:100C50004D4541545041434B00434F4F4C45525F2B
:100C600054454D5045524154555245004348414D1D
:100C70004245525F54454D504552415455524500EE
:100C8000424142595354455050494E470041524306
:100C900053004D4F54494F4E5F4D4F444553005400
:100CA0004845524D414C5F50524F54454354494F73
:100CB0004E00455854454E4445445F4D3230004344
:100CC0005553544F4D5F4649524D574152455F551C
:100CD000504C4F4144004C464E5F575249544500DA
:100CE0004C4F4E475F46494C454E414D450041559E
:100CF000544F5245504F52545F53445F53544154E4
:100D000055530053445F575249544500524550458E
:100D10004154004D554C54495F564F4C554D45007C
:100D20005344434152440050524F4D50545F535529
:100D300050504F525400484F53545F414354494F11
:100D40004E5F434F4D4D414E445300454D45524734
:100D5000454E43595F50415253455200434153451C
:100D60005F4C494748545F4252494748544E4553A7
:100D70005300544F47474C455F4C49474854530034
:100D8000534F4654574152455F504F5745520042CA
:100D900055494C445F50455243454E54004C4556CE
:100DA000454C494E475F44415441005A5F50524FB1
:100DB00042450052554E4F5554004155544F4C45F5
:100DC00056454C005052494E545F4A4F42005052D3
:100DD0004F4752455353004155544F5245504F527F
:100DE000545F54454D50004155544F5245504F5259
:100DF000545F504F5300564F4C554D455452494344
:100E000000454550524F4D0042494E4152595F46B0
:100E1000494C455F5452414E53464552005345524A
:100E200049414C5F584F4E5F584F46460046495225
:100E30004D574152455F4E414D453A4D61726C6987
:100E40006E20322E312E322E3120284A756C202011
:100E50003620323032352030383A32383A3035297F
:100E600020534F555243455F434F44455F55524CC5
:100E70003A6769746875622E636F6D2F4D61726C8D
:100E8000696E4669726D776172652F4D61726C692A
:100E90006E2050524F544F434F4C5F56455253496A
:100EA0004F4E3A312E30204D414348494E455F5414
:100EB0005950453A47656E697573204558545255E7
:100EC0004445525F434F554E543A3120555549449D
:100ED0003A63656465326132662D343161322D3496
:100EE0003734382D396231322D6335356336326609
:100EF00033363766660047322F47332062616420FD
:100F0000706172616D65746572730A00203B002028
:100F1000204D3835312058005A2D50726F626520AF
:100F20004F66667365740020573A0042656420433B
:100F30006F6F6C696E672E2E2E00426564204865C7
:100F40006174696E672E2E2E00206661696C65647F
:100F50002120426164206865617465722069640AB9
:100F600000504944204175746F74756E65002364A8
:100F70006566696E652044454641554C545F0000E6
:100F8000626564004B6420004B6920004B702000B8
:100F90005049442074756E696E6720646F6E6500F9
:100FA0002066696E697368656421205075742074C9
:100FB0006865206C617374204B702C204B69206134
:100FC0006E64204B6420636F6E7374616E74732063
:100FD00066726F6D2062656C6F7720696E746F202A
:100FE000436F6E66696775726174696F6E2E680A09
:100FF00000504944204175746F74756E6500206619
:1010000061696C6564212074696D656F75740A008F
:10101000504944204175746F74756E650041757454
:101020006F74756E65206661696C65642120546912
:101030006D656F75742E00206661696C6564212092
:1010400054656D706572617475726520746F6F2080
:10105000686967680A00504944204175746F747567
:101060006E6500204B643A2000204B693A20002036
:101070004B703A200020436C6173736963205049C0
:1010800044200A00204E6F206F76657273686F6F80
:10109000740A002054753A2000204B753A20002035
:1010A0006D61783A2000206D696E3A200020643A24
:1010B000200020626961733A200048656174696E9E
:1010C000672E2E2E002073746172740A00504944FA
:1010D000204175746F74756E65004175746F747519
:1010E0006E65206661696C6564212054656D70656C
:1010F00072617475726520746F6F20686967682EFD
:1011000000206661696C6564212054656D706572AC
:10111000617475726520746F6F20686967680A0072
:10112000504944204175746F74756E650050494490
:10113000204175746F74756E6500486F6D696E67D8
:10114000204661696C6564006F70656E0054524999
:10115000474745524544003A20007A5F6D696E006A
:10116000795F6D696E00785F6D696E005265706FB2
:101170007274696E6720656E6473746F7020737427
:10118000617475730A0020746F6F206C6F6E672036
:10119000657874727573696F6E2070726576656EAE
:1011A0007465640A0020636F6C64206578747275DE
:1011B00073696F6E2070726576656E7465640A007F
:1011C000486F6D65202573204669727374000000B6
:1011D00000C00000A0C0000000005761726E696E80
:1011E000673A20486F6D696E672042756D702044C4
:1011F000697669736F72203C20310A000202040094
:10120000005E430000614300007A430000A04000FC
:1012100000A04000000040000000010000000100AC
:10122000008000555555000000400033333300AABC
:10123000AA2A004992240000002000C7711C0099CE
:10124000991900D1451700555515003BB1130024DD
:1012500049120011111100000010000F0F0F00E3E0
:10126000380E0043790D00CCCC0C00C3300C00E8E4
:10127000A20B0064210B00AAAA0A00703D0A009D7F
:10128000D80900427B090092240900DCD3080088B9
:101290008808001042080000000800F0C10700871D
:1012A00087070075500700711C07003EEB0600A180
:1012B000BC06006990060066660600703E06006186
:1012C00018060017F4050074D105005BB00500B2E4
:1012D000900500627205005555050078390500B883
:1012E0001E0500050505004EEC040087D40400A18E
:1012F000BD040090A7040049920400C17D0400EEE3
:10130000690400C7560400444404005C3204000829
:1013100021040041100400000004003FF00300F825
:10132000E0030026D20300C3C30300CCB503003A98
:10133000A803000A9B0300388E0300C08103009FAE
:10134000750300D0690300505E03001D5303003491
:10135000480300913D03003333030016290300388E
:101360001F030097150300300C0300030303000B59
:10137000FA020049F10200BAE802005CE002002D26
:10138000D802002DD0020059C80200B0C0020031BE
:10139000B90200DAB10200AAAA0200A0A30200BCAE
:1013A0009C0200FA9502005C8F0200DF8802008236
:1013B000820200457C02002776020027700200436B
:1013C0006A02007C640200D05E02003F590200C83D
:1013D000530200FFFDFCFAF8F6F4F2F0EEECEAE955
:1013E000E7E5E3E1E0DEDCDAD9D7D5D4D2D0CFCD62
:1013F000CBCAC8C7C5C3C2C0BFBDBCBAB9B7B6B4F3
:10140000B3B2B0AFADACAAA9A8A6A5A4A2A1A09E54
:101410009D9C9A99989795949392908F8E8D8B8A94
:101420008988878684838281807F7E7D7B7A7978B4
:1014300077767574737271706F6E6D6C6B6A6968B4
:1014400067666564636261605F5E5D5C5B5A5958A4
:10145000585756555453525150504F4E4D4C4B4A7D
:101460004A4948474646454443424241403F3E3E42
:101470003D3C3B3B3A3938383736353534333232F8
:101480003130302F2E2E2D2C2B2B2A29292827279F
:1014900026252524232322212120201F1E1E1D1C3A
:1014A0001C1B1B1A191918181716161515141313C7
:1014B00012121111100F0F0E0E0D0D0C0C0B0A0A4B
:1014C00009090808070706060505040403030202C4
:1014D00001000053544F505045442E200050726973
:1014E0006E7465722073746F7070656420647565C6
:1014F00020746F206572726F72732E204669782097
:10150000746865206572726F7220616E64207573F5
:1015100065204D39393920746F207265737461729A
:10152000742E202854656D70657261747572652023
:1015300069732072657365742E2053657420697415
:101540002061667465722072657374617274696E6D
:1015500067290A00206572726F72202D20726573F0
:10156000746172742077697468204D3939390A00C2
:10157000424C546F7563680021212053544F502012
:1015800063616C6C65642062656361757365206F6F
:1015900066200000005C4300005C4300007A4300CA
:1015A0000000C00000A0C000000000536574746912
:1015B0006E67732053746F72656400290A0020629D
:1015C000797465733B20637263200053657474699A
:1015D0006E67732053746F72656420280045455010
:1015E000524F4D20496E697469616C697A65640A6D
:1015F0000048617264636F64656420446566617568
:101600006C742053657474696E6773204C6F6164E9
:1016100065640020286D6D2900203B204C657665AF
:101620006C696E67200020204D3432302053004119
:1016300075746F20426564204C6576656C696E67D1
:1016400000204A002020473239205720490020201E
:101650004D3134392043203B20556E697473206925
:101660006E2043656C736975730A0054656D70650F
:1016700072617475726520556E697473002020471D
:101680003231203B004C696E65617220556E697481
:101690007300454550524F4D206461746173697AFF
:1016A00065206572726F722E0A004572723A20458B
:1016B0004550524F4D2043524300202863616C63D4
:1016C000756C6174656429210A0020213D20004564
:1016D0004550524F4D20435243206D69736D6174E4
:1016E0006368202D202873746F726564292000457B
:1016F0004550524F4D20436F72727570740A00202E
:1017000053697A653A2000496E6465783A2000533F
:10171000746F7265642073657474696E6773207288
:10172000657472696576656400290A0020627974BF
:1017300065733B2063726320002073746F7265646D
:101740002073657474696E6773207265747269655D
:101750007665642028000000964300009643000050
:101760004842000020420000A0420000A0420000C9
:10177000C8430080DE43D0070000D00700006400AB
:10178000000010270000204D61726C696E3D5638D4
:1017900038290A00454550524F4D207665727369CD
:1017A0006F6E206D69736D617463682028454550C4
:1017B000524F4D3D0020436F756E7420583A000023
:1017C0004500626564002C2073797374656D207325
:1017D000746F7070656421204865617465725F493B
:1017E000443A20004572723A204D415854454D50BC
:1017F000004D415854454D502074726967676572B9
:1018000065640048656174696E67204661696C654E
:10181000640048656174696E67206661696C65641F
:10182000004D353234004D313132205368757464C7
:101830006F776E004572723A204D494E54454D50B7
:10184000004D494E54454D5020747269676765726A
:10185000656400544845524D414C2052554E415705
:10186000415900546865726D616C2052756E6177E4
:10187000617900202F002042403A0020403A0020A9
:10188000573A002053004D31303620500020583A4E
:10189000007C3C3E5E2B3D3F2F5B5D3B2C2A225C57
:1018A0000043616E6E6F74206F70656E2073756299
:1018B000646972200053442063617264206F6B0A74
:1018C000006F70656E526F6F74206661696C65643D
:1018D0000A00766F6C756D652E696E69742066619D
:1018E000696C65640A004E6F205344206361726422
:1018F0000A002E0A006F70656E206661696C65646F
:101900002C2046696C653A200046696C6520736539
:101910006C65637465640A002053697A653A200037
:1019200046696C65206F70656E65643A2000454EAF
:101930004420535542524F5554494E450A002220E7
:10194000706F73002220706172656E743A220053CA
:101950005542524F5554494E452043414C4C2074FA
:1019600061726765743A220053756263616C6C2022
:101970004F766572666C6F77004578636565646560
:1019800064206D617820535542524F5554494E455D
:101990002064657074683A0057726974696E6720D4
:1019A000746F2066696C653A20004E6F7420534452
:1019B000207072696E74696E670A005344207072F9
:1019C000696E74696E67206279746520006672655D
:1019D000736800646F696E67002066696C653A2001
:1019E000004E6F7720000A4D3234004D32332025EF
:1019F00073002F6175746F25632E670070012C01D1
:101A000090012701B0012201C0011D01F001180160
:101A10001002130130020E0160020901900204015C
:101A2000C002FF000003FA004003F5008003F0004D
:101A3000D003EB002004E6007004E100E004DC00C9
:101A40004005D700C005D2004006CD00D006C80032
:101A50008007C3003008BE00F008B900C009B40018
:101A6000B00AAF00B00BAA00D00CA500000EA00079
:101A7000500F9B00C01096005012910000148C0073
:101A8000C0158700B0178200B0197D00D01B780008
:101A9000001E730040206E0090226900F024640054
:101AA00040275F0090295A00E02B5500102E50006F
:101AB00020304B0010324600E033410090353C00AE
:101AC0001037370070383200A0392D00B03A2800A6
:101AD000A03B2300603C1E00103D1900903D140007
:101AE000103E0F00703E0A00C03E0500003F00009F
:101AF000403FFBFF803FF6FFC03FF1FF2020506CCE
:101B0000616E6E6572427566666572427974657360
:101B10003A20002046726565204D656D6F72793AF6
:101B2000200020436F6D70696C65643A204A756CC3
:101B300020203620323032350A00204C6173742068
:101B4000557064617465643A20323032332D30351B
:101B50002D3136207C20417574686F723A202864DC
:101B600067746168656E6F2C2047656E69757329AF
:101B70000A004D61726C696E20322E312E322E3188
:101B80000A0020536F667477617265205265736531
:101B9000740A00205761746368646F67205265732C
:101BA00065740A002042726F776E206F7574205240
:101BB000657365740A002045787465726E616C20E7
:101BC00052657365740A00506F77657255700A002C
:101BD00073746172740A004732385859004D3130BD
:101BE0003031006F6B006572726F722077726974AA
:101BF000696E6720746F2066696C650A00446F6EB9
:101C00006520736176696E672066696C652E0A00CF
:101C10004D323900205A3A0020593A0020583A00F3
:101C2000656E6473746F7073206869743A20000085
:101C3000000A0B02090C0D0E080703040100000046
:101C40000000000000000000000000000000000094
:101C50000000000000000000000000121110000051
:101C60000000000000000000000000000000000074
:101C7000000000000024F404D9201BC40C5C0E9862
:101C800004C4095F0265077101F405F900FB04B3A0
:101C90000048048700C10369005803550003034549
:101CA00000BE023A008402310053022A00290225B4
:101CB0000004022000E4011C00C8011900AF011754
:101CC00000980114008401130071011000610110DB
:101CD0000051010E0043010D0036010B002B010BDA
:101CE0000020010B00150109000C01090003010887
:101CF00000FB000800F3000800EB000700E400060A
:101D000000DE000600D8000600D2000600CC000568
:101D100000C7000500C2000500BD000400B90004B2
:101D200000B5000400B1000400AD000400A90004E7
:101D300000A5000300A20003009F0004009B000315
:101D40000098000300950002009300030090000338
:101D5000008D0002008B0003008800020086000254
:101D60000084000300810002007F0002007D000269
:101D7000007B00020079000200770001007600027B
:101D8000007400020072000100710002006F000286
:101D9000006D0001006C0002006A00010069000291
:101DA0000067000100660001006500010064000298
:101DB000006200010061000100600001005F00029C
:101DC000005D0001005C0001005B0001005A0001A1
:101DD00000590001005800010057000100560001A1
:101DE00000550001005400010053000000530001A1
:101DF000005200010051000100500001004F00019D
:101E0000004E0000004E0001004D0001004C00019A
:101E1000004B0000004B0001004A00010049000196
:101E20000048000000480001004700010046000093
:101E3000004600010045000000450001004400018B
:101E40000043000000430001004200000042000186
:101E5000004100000041000100400001003F00007F
:101E6000003F0001003E0000003E0001003D000078
:101E7000003D0001003C0000003C0000003C00016F
:101E8000003B0000003B0001003A0000003A000166
:101E9000003900000039000100380000003800005F
:101EA0000038000100370000003700010036000054
:101EB000003600000036000100350000003500004B
:101EC000003500010034000000340000003400013F
:101ED0000033000000330000003300010032000036
:101EE000003200000032000100310000003100002B
:101EF000003100010030000000300000003000011F
:101F0000002F0000002F0000002F0000002F000114
:101F1000002E0000002E0000002E0001002D000009
:101F2000002D0000002D0000002D0001002C0000FD
:101F3000002C0000002C0000002C0001002B0000F1
:101F4000002B0000002B0000002B0001002A0000E5
:101F5000002A0000002A0000002A000100290000D9
:101F600000290000002900000029000000290001CC
:101F700000280000002800000028000000280000C1
:101F800000280001002700000027000000270000B3
:101F900000270000002700010026000000260000A6
:101FA0000026000000260000002600010025000099
:101FB000002500000025000000250000002500008D
:101FC000002500010024000000240000002400007F
:101FD0000024000000240001002300000023000072
:101FE0000023000000230000002300000023000065
:101FF0000023000100220000002200000022000057
:102000000022000000220000002200010021000048
:10201000002100000021000000210000002100003C
:10202000002100000021000100200000002000002D
:102030000020000000200000002000000020000020
:102040000020000000200001001F0000001F000011
:10205000001F0000001F0000001F0000001F000004
:10206000001F0001001E0000001E0000001E0000F6
:10207000001E00000024F4D43050C38E20C2A240C1
:1020800017828B7011127A910D816CD90AA861E1C7
:1020900008C7586607615143061E4B5D05C145A739
:1020A000041A411104093D9803713931034036DBAC
:1020B0000265339102D4305402802E1D02632CEE4F
:1020C00001752AC501B028A001102781018F256460
:1020D000012B244B01E0223401AC211F018D200D86
:1020E00001801FFC00841EED00971DDF00B81CD28C
:1020F00000E61BC600201BBC00641AB200B219A87F
:10210000000A19A0006A189900D117910040178B96
:1021100000B516840031167E00B31579003A1573A8
:1021200000C7146F0058146A00EE1366008813632A
:102130000025135E00C7125B006C12570015125485
:1021400000C111510070114F0021114B00D61049F0
:10215000008D1047004610440002104200C00F409E
:1021600000800F3E00420F3C00060F3B00CB0E38B4
:1021700000930E37005C0E3500270E3400F30D324D
:1021800000C10D3100900D3000600D2E00320D2D7C
:1021900000050D2C00D90C2B00AE0C2900850C2954
:1021A000005C0C2700350C27000E0C2600E80B24E1
:1021B00000C40B2400A00B23007D0B23005A0B212D
:1021C00000390B2100180B2000F80A1F00D90A1E45
:1021D00000BB0A1E009D0A1D00800A1D00630A1C28
:1021E00000470A1B002C0A1B00110A1A00F7091AE3
:1021F00000DD091900C4091900AB0919009209177B
:10220000007B091800630917004C091600360916EF
:1022100000200916000A091500F5081500E0081449
:1022200000CC081400B8081400A408140090081387
:10223000007D0812006B08130058081200460812AF
:1022400000340811002308110012081100010811C0
:1022500000F0071000E0071000D0071000C00710C2
:1022600000B0070F00A107100091070E0083070FB1
:102270000074070F0065070E0057070E0049070E90
:10228000003B070D002E070E0020070D0013070D61
:102290000006070D00F9060C00ED060D00E0060C27
:1022A00000D4060C00C8060C00BC060C00B0060CDE
:1022B00000A4060B0099060C008D060B0082060B8D
:1022C0000077060B006C060B0061060A0057060B30
:1022D000004C060A0042060A0038060A002E060ACA
:1022E0000024060A001A060A001006090007060A5A
:1022F00000FD050900F4050900EB050900E20509E8
:1023000000D9050900D0050900C7050900BE050967
:1023100000B5050800AD050800A50509009C0508E5
:1023200000940508008C050800840508007C050859
:1023300000740508006C050700650508005D0507C9
:1023400000560508004E0507004705070040050830
:102350000038050700310507002A05070023050797
:10236000001C050600160507000F050700080506F6
:102370000002050700FB040600F5040700EE040652
:1023800000E8040600E2040700DB040600D50406AA
:1023900000CF040600C9040600C3040600BD0406FD
:1023A00000B7040600B1040500AC040600A604064C
:1023B00000A00405009B0406009504050090040697
:1023C000008A04050085040500800406007A0405DF
:1023D0000075040500700405006B04050066040523
:1023E00000610405005C0405005704050052040563
:1023F000004D04050048040500430405003E0404A4
:10240000003A04050035040500300404002C0405DE
:102410000027040400230405001E0404001A040419
:102420000016040500110404000D0404000904054D
:10243000000404040000040400FC030400F8030486
:1024400000F4030400F0030400EC030400E80304B8
:1024500000E4030400E0030400DC030400D80304E8
:1024600000D4030400D0030400CC030400C8030319
:1024700000C5030300281F00007A170000BC0F00EE
:10248000007B09000047050000CC0200007101003C
:1024900000BB0000004572726F7220777269746928
:1024A0006E6720746F20454550524F4D210A00DB66
:1024B0000FC93F45BCDA3F8FB30240FCF0274056BE
:1024C000946140FE4B9B4084A5D840E023184134E2
:1024D0006A5641E859974164DBD5416E271742B4EB
:1024E000B75542CE1A9742C8AED542B5885A43D4A2
:1024F0000684BFA65FA7BF7443E0BF10B11AC01C1B
:102500002C58C0E8F697C0B849D6C04E4E17C12423
:10251000D355C1802497C1A0B5D5C1121A17C244A2
:10252000AE55C2781797C26CACD5C267885AC32023
:10253000746F6F206C6F6E67206578747275736945
:102540006F6E2070726576656E7465640A00206334
:102550006F6C6420657874727573696F6E20707229
:102560006576656E7465640A0073686F77006265EE
:1025700067696E0050757267654D6F7265005061D6
:102580007573656400436F6E74696E7565004C6F9A
:1025900061642046696C616D656E74205400496EFB
:1025A000736572742066696C616D656E7420616E0E
:1025B000642073656E64204D3130380A0053656EB7
:1025C00064204D31303820746F20726573756D65ED
:1025D0000A00496E736572742066696C616D656E80
:1025E0007420616E642073656E64204D3130380A4A
:1025F0000052656865617420446F6E6500526568BD
:10260000656174696E672E2E2E005265686561746F
:10261000004865617465722054696D656F7574005A
:1026200053656E64204D31303820746F20686561C9
:1026300074206E6F7A7A6C650A004E6F7A7A6C65D8
:10264000205061726B656400726573756D6564001E
:102650004469736D69737300526573756D696E6754
:102660000050726F62696E67204661696C65640A2A
:102670000050726F62696E67204661696C65640024
:10268000205A3A200020593A200042656420583AE6
:102690002000FFFFFF8D18A827A427A027000022F5
:1026A00000250028002B002E00310034000201001C
:1026B00000050108010B0100002100240027002A69
:1026C000002D003000330001010000040107010A61
:1026D0000105050505070508080808020202020AA7
:1026E0000A080804040404010101010101010103B5
:1026F00003030303030303040707070C0C0C0C0C70
:102700000C0C0C0202020206060606060606060B62
:102710000B0B0B0B0B0B0B010210202008081020D9
:10272000401020408002010201080402010102045D
:10273000081020408080402010080402018004021C
:102740000180402010080402010804020101020473
:10275000081020408001020408102040802045001D
:10276000205A0020590020204D393220580053743F
:102770006570732070657220756E697400220A009E
:10278000556E6B6E6F776E20636F6D6D616E643A20
:102790002022006F6B0A00526573656E643A200058
:1027A00020453A00205A3A0020593A00583A007021
:1027B0006F7765726F6666005072696E746572201D
:1027C00068616C7465642E206B696C6C28292063C9
:1027D000616C6C6564210A0001CA4AD311241FBED2
:1027E000CFEFD1E2DEBFCDBF00E00CBF84B7809356
:1027F000291D14BE0FB6F894A895809160008861D9
:1028000080936000109260000FBE13E0A0E0B2E081
:10281000E2E7F3EC01E00BBF02C007900D92AE358A
:10282000B107D9F72DE1AEE5B3E001C01D92A932A1
:10283000B207E1F713E1CDEED3E100E006C0219746
:102840000109802FFE010E9444DECC3ED10780E0CA
:102850000807A9F70E9465CB0C94A8E10C9400002E
:102860000F931F93CF93DF93CDB7DEB760970FB66B
:10287000F894DEBF0FBECDBF8C01DC01ED91FC9161
:102880000280F381E02DBE016F5F7F4F1995882391
:1028900009F464C08981807CC9F56F81637070E040
:1028A000762F6627770F770F8885B4E08B9FC0015E
:1028B0001124682B792B898582958695869583705E
:1028C000682B6F5F7F4F90E080E02A852370220F96
:1028D0003B8537FB332730F9232B3E813F70230F95
:1028E0003327331F2750310904C0660F771F881F15
:1028F000991F2A95D2F760960FB6F894DEBF0FBEE7
:10290000CDBFDF91CF911F910F910895803419F5BC
:1029100068856695669570E090E080E0CB0177274A
:1029200066272A85622B098510E0102F0027012ECB
:10293000000C220B330B602B712B822B932B6F5FC0
:102940007F4F8F4F9F4F4AE0660F771F881F991F59
:102950004A95D1F7D0CF8BE0F801848360E070E036
:10296000CB01C9CF0895FC01828108952F923F9237
:102970004F925F926F927F928F929F92AF92BF928F
:10298000CF92DF92EF92FF920F931F93CF93DF933B
:1029900000D000D0CDB7DEB7DC010D90BC91A02DEA
:1029A000BE83AD8318966D917C91072E000C880B29
:1029B000990B0E94A9D76B017C0120E030E0A901AE
:1029C0000E94A3D78823E1F0AD81BE8114968D913A
:1029D0009D910D90BC91A02D89839A83AB83BC837C
:1029E0009C01AD01C701B6010E946EDE4B015C0186
:1029F00020E030E040E251EC0E94A3D787FF08C0FE
:102A000081E0ED81FE818387C12CD12C7601DCC071
:102A100020E030E040E251E4C501B4010E9496E0BC
:102A2000181664F481E0AD81BE811B968C93C12C95
:102A3000D12C8FE7E82E83E4F82EC6C0ED81FE810D
:102A40008385882349F01386148615861686178693
:102A5000148E158E168E178EAD81BE8194964D9074
:102A60005D906D907C9097971C962D913D914D9126
:102A70005C911F97C501B4010E946FDEF62EE72E10
:102A8000D82EC92E20E030E0A9010E94A3D787FDEF
:102A9000B6C0A301920160E070E08FE793E40E946A
:102AA0004BDF162F072F382E292E2F2D3E2D4D2D83
:102AB0005C2D0E94A3D787FF02C0780161018F2D92
:102AC0009E2DAD2DBC2DED81FE8184879587A68737
:102AD000B78720A131A142A153A1C501B4010E9431
:102AE00008D84B015C01AD81BE8154968D929D92B8
:102AF000AD92BC9257972F2D3E2D4D2D5C2DC301CD
:102B0000B2010E9408D82B013C01ED81FE81408E6C
:102B1000518E628E738EC48CD58CE68CF78C298195
:102B20003A814B815C8160897189828993890E9495
:102B30006EDEAD81BE8198962D913D914D915C9157
:102B40009B970E9408D8A70196010E946EDE20ED97
:102B50003CEC4CE45DE30E9408D8A70196010E947A
:102B60006FDE6B017C01ED81FE81C48ED58EE68E19
:102B7000F78E89819A81AB81BC81808B918BA28BEE
:102B8000B38BA3019201C501B4010E946FDEA701BE
:102B900096010E946FDE20E030E0A9010E946FDE06
:102BA0006B017C0120E030E0A9010E94A3D787FDE2
:102BB0002BCF20E030E04FE753E4C701B6010E947D
:102BC00096E018160CF433CFC701B60126960FB65F
:102BD000F894DEBF0FBECDBFDF91CF911F910F9153
:102BE000FF90EF90DF90CF90BF90AF909F908F902D
:102BF0007F906F905F904F903F902F900895F12CB1
:102C0000E12CD12CC12C5BCFCF93DF93CFEBD7E15D
:102C100020E030E048E452E4609154187091551877
:102C200080915618909157180E9496E087FF13C024
:102C300080E0FE01C4912091020190E002C09595D0
:102C40008795CA95E2F780FD0EC0207120930001A0
:102C5000DF91CF910895FE01949181E001C0880F2A
:102C60009A95EAF7E6CF2095F0CF8091E208882385
:102C700039F060910F197091101980911119089510
:102C800060E070E080E008954F925F926F927F92D3
:102C90008F929F92AF92BF92CF92DF92EF92FF926C
:102CA0000F931F93CF930091D2081091D3082091D6
:102CB000D4083091D50880909C1890909D18A090D1
:102CC0009E18B0909F184091D6085091D7086091F7
:102CD000D8087091D908C0908A18D0908B18E090CD
:102CE0008C18F0908D18C0E1FC01A2EDB8E00190C5
:102CF0000D92CA95E1F7E0919618EE2349F128016B
:102D00003901481859086A087B08530142010091AB
:102D1000D2081091D3082091D4083091D508080D1D
:102D2000191D2A1D3B1D0093D2081093D308209330
:102D3000D4083093D508FC010081118122813381B0
:102D400000939C1810939D1820939E1830939F1801
:102D500020918418222339F18A019B010C191D0945
:102D60002E093F094091D6085091D7086091D808A4
:102D70007091D908400F511F621F731F4093D608EE
:102D80005093D7086093D8087093D908FC018481C8
:102D90009581A681B78180938A1890938B18A09310
:102DA0008C18B0938D18CF911F910F91FF90EF90D9
:102DB000DF90CF90BF90AF909F908F907F906F905B
:102DC0005F904F900895EF92FF920F931F93E092C0
:102DD0006B03F0926C0300936D0310936E0360938A
:102DE0006F0370937003809371039FEFFF27621B43
:102DF000730B840B30F4809570956195790B890B7A
:102E0000992790936A03A6E06A9F00925E03512D72
:102E1000EE277A9F500DE11D8A9FE00D50935F03CE
:102E2000E0936003AFE06A9F00926203512DEE27AA
:102E30007A9F500DE11D8A9FE00D50936303E0934C
:102E40006403AAE06A9F00926603512DEE277A9FE1
:102E5000500DE11D8A9FE00D50936703E0936803D6
:102E60001F910F91FF90EF90089521E030E0082E20
:102E700002C0220F331F0A94E2F7209530959091FB
:102E8000E20429232093E204813061F020F08230B3
:102E900071F081E008955F9A8091F3148E7F8093A2
:102EA000F314F7CF8A9A8091F3148D7FF8CF809135
:102EB00008018095817080930601479A8091F314F0
:102EC0008B7FEDCF2091780830917908F901ED5191
:102ED000FB4F908196959695937081E0913009F023
:102EE00080E04091390250913A02609176087091E9
:102EF00077084F5F5F4F2F5F3F4F2F3291E03907C9
:102F000011F430E020E06217730721F1F901ED516F
:102F1000FB4F908196959695937059F3309379086D
:102F20002093780850933A02409339024091C108A7
:102F30005091C2086091B9087091BA08461B570BAE
:102F4000220F331FF901EE5EF94F20813181240FEA
:102F5000351F0AC0709379086093780850933A023D
:102F6000409339022FEF3FEF309344022093430206
:102F700008952091740830917508F901ED51FB4FC7
:102F80009081937081E0913009F080E040913B02A4
:102F900050913C0260917608709177084F5F5F4FC7
:102FA0002F5F3F4F2F3291E0390711F430E020E0DE
:102FB0006217730711F1F901ED51FB4F9081937086
:102FC00069F3309375082093740850933C02409342
:102FD0003B024091C3085091C4086091B9087091B8
:102FE000BA08461B570B220F331FF901EE5EF94F4B
:102FF00020813181240F351F0AC0709375086093BA
:10300000740850933C0240933B022FEF3FEF309304
:1030100042022093410208959F92AF92BF92CF92B5
:10302000DF92EF92FF920F931F93CF93DF9300D025
:103030001F921F92CDB7DEB7E3EDF3E10027BB2768
:10304000462F572FA82FAA2341F4A52F542FB85F3E
:10305000AA2319F4A52F5527B85FA03138F452954B
:10306000A295452F4F70507FA42BBC5FA03428F44D
:10307000550FAA1F550FAA1FBE5FA03818F4550F91
:10308000AA1FB395550FAA1FEA0FF01F449151E0F4
:10309000AA27B85079F1C0F0B0FF02C0440F551F05
:1030A000B1FF04C0440F551F440F551FB2FF06C0A7
:1030B00052954295142F1F70407F512BB3FF1AC0B9
:1030C000A52F542F442716C0B195B0FF02C05595C7
:1030D0004795B1FF04C05595479555954795B2FF63
:1030E00005C05295407F4295452B5F70B3FF02C0EB
:1030F000452F5527DD24CC24BB24B2E0649FD01893
:10310000C108B00AB00B749FC018B108B00B849FFF
:10311000B018B109659FC018B108B00B759FB01801
:10312000B109859FB0196A9FB018B1097A9FB0198B
:103130004D9DA12C99243327992722275D9DA00C12
:10314000911C301F901F201FAD9D900C311D901FB2
:10315000201F4C9DA00C911C301F901F201F5C9DB8
:10316000900C311D901F201FAC9D300D911D201F14
:103170004B9D900C311D901F201F5B9D300D911DAC
:10318000201FAB9D900D211D4B9F300D911D201FC9
:103190005B9F900D211DAB9F200DB1E0BB24CC2483
:1031A000DD24639FD018C108B00AB00B739FC0180C
:1031B000B108B00B839FB018B109699FC018B1085E
:1031C000B00B799FB018B109899FB019629FB018F0
:1031D000B109729FB019D61AC70AB80A20F0B1E037
:1031E0003B0F901F201F1124792F632F90E0822F17
:1031F0000F900F900F900F900F90DF91CF911F9134
:103200000F91FF90EF90DF90CF90BF90AF909F9085
:103210000895AF92BF92CF92DF92EF92FF920F93F9
:103220001F93CF93DF93C6EFD4E100EB19E086E064
:10323000A82E85E1B82EC12CD12C7601C3946991BA
:103240007991899199910E94A7D7288939894A89CA
:103250005B890E9408D80E94B8DFF80161937193DE
:10326000819391938F01C616D706E806F90610F4EC
:103270006B017C01AC16BD0611F76FEF7FEFCB0140
:10328000A70196010E94CDDD2093C0093093C109AA
:103290004093C2095093C309DF91CF911F910F91C1
:1032A000FF90EF90DF90CF90BF90AF900895CF92B6
:1032B000DF92EF92FF9280917804882309F457C03F
:1032C000C0907404D0907504E0907604F090770478
:1032D00020E030E0A901C701B6010E94A3D78823EE
:1032E00009F445C020E030E040E05FE3C701B601EB
:1032F0000E9408D89B01AC010E9408D82BED3FE04A
:1033000049E450E40E9408D89B01AC0160E070E001
:1033100080E89FE30E944BDF6B017C01C0924B046D
:10332000D0924C04E0924D04F0924E04609117024A
:1033300070911802072E000C880B990B0E94A9D7D8
:103340002AE037ED43E25CE30E9408D8A70196012A
:103350000E9408D8609353027093540280935502E0
:1033600090935602FF90EF90DF90CF900895C12C7C
:10337000D12C80E8E82E8FE3F82ED0CF8091FD1875
:103380009091FE18891B8F7119F490E080E00895E8
:103390009091FA18992351F0833030F48FEF890F10
:1033A00019F08093FA18F1CF1092FA188091FE1854
:1033B00027E5829FC00111248A52964FFC0120818B
:1033C00020FDE3CF2091FE182F5F2F712093FB1873
:1033D0003091FE182091FC18321304C02091FB1884
:1033E0002093FC18089590916F0081E091FD02C038
:1033F00080E0089590916F009D7F90936F000895F5
:10340000FC017081472F50E0062E02C0559547956C
:103410000A94E2F740FF14C040913E0450E0062EAB
:1034200002C0559547950A94E2F740FF09C021E094
:1034300030E001C0220F6A95EAF720952723208308
:103440000895CF93DF9324E0829FC0011124EC0103
:10345000C253D84EFC01E556F64F815C9B4FDC0110
:103460002D913D914D915C9160817181828193811B
:103470000E946FDE688379838A839B83DF91CF917B
:1034800008958F929F92AF92BF92CF92DF92EF9268
:10349000FF92CF93DF9320911F02222309F48EC065
:1034A000EC0180913E04E82E80FF2CC08090210228
:1034B00090902202A0902302B090240228813981AA
:1034C0004A815B81C501B4010E9496E0181624F47C
:1034D00088829982AA82BB8280902D0290902E02CF
:1034E000A0902F02B0903002288139814A815B81FF
:1034F000C501B4010E94A3D787FF04C088829982C6
:10350000AA82BB82E1FE2CC0809025029090260208
:10351000A0902702B09028022C813D814E815F81CE
:10352000C501B4010E9496E0181624F48C829D8295
:10353000AE82BF828090310290903202A09033021E
:10354000B09034022C813D814E815F81C501B40170
:103550000E94A3D787FF04C08C829D82AE82BF8267
:10356000E2FE2CC0C0902902D0902A02E0902B02EB
:10357000F0902C02288539854A855B85C701B60104
:103580000E9496E0181624F4C886D986EA86FB863F
:10359000C0903502D0903602E0903702F0903802A9
:1035A000288539854A855B85C701B6010E94A3D766
:1035B00087FF04C0C886D986EA86FB86DF91CF9153
:1035C000FF90EF90DF90CF90BF90AF909F908F9043
:1035D000089580913A0490913B04A0913C04B091ED
:1035E0003D048093130290931402A0931502B093AC
:1035F00016028091380490913904909312028093BE
:10360000110208958091130290911402A091150265
:10361000B091160280933A0490933B04A0933C042B
:10362000B0933D048091110290911202909339045D
:103630008093380484E690E0909312028093110204
:103640000895CF93DF93DB01F9019C919130C1F094
:10365000943080F094509C938830D1F48081918193
:10366000009771F0019791838083480F591FEA01F9
:10367000188206C08C3539F49C5F9C93943041F4D9
:10368000DF91CF9108958B3339F781E08C93F8CF98
:1036900020813181B9016F5F7F4F71836083420F59
:1036A000531FEA018883808191818F3591056CF7E2
:1036B000E7CF0F931F9381E00091191910911A1908
:1036C00020911B1930911C19409115195091161910
:1036D00060911719709118190417150726073707F5
:1036E00008F480E01F910F91089590E080E0089524
:1036F0002091F803833021F425FD0CC024FD0CC07B
:1037000030E0A90102C0559547958A95E2F7CA01B4
:103710008170089581E0089580E0089580911304F8
:1037200084FD0BC08091150487FD07C0909116049D
:10373000937081E019F480E0089581E00895FC0120
:10374000659175918591949108952FEB280F2A31F9
:1037500008F047C0E22FF0E0809113049091140428
:10376000A0911504B091160404C0B695A79597953D
:1037700087952A95D2F780FD02C081700895E750A1
:10378000FC4FE081EE2341F180914115909142156B
:10379000E80FF92FF11D808190ED980F9A3030F0ED
:1037A0008E3251F4818180538A3098F4F093F4037F
:1037B000E093F30381E008958D3211F08B3249F4E8
:1037C000818190ED980F9A3088F38E3211F48281C6
:1037D000EACFF0E0E0E0EACF1092F4031092F303B6
:1037E000E9CF80E00895B1DF882341F081E02091A6
:1037F000F3033091F403232B09F480E008958091C2
:103800004F0481110EC020911D0230911E022150E3
:10381000310981E0409158185091591842175307C7
:103820000CF080E00895E8EDF3E080EF9FEFA9E76A
:10383000B4EC84839583A683B78380839183A2832A
:10384000B383E2ECF3E08DE98183808308958F9266
:103850009F92AF92BF92CF92DF92EF92FF92FC01C4
:1038600098E0A4E6B4E001900D929A95E1F788E023
:10387000FB01ACE5B4E001900D928A95E1F7C090B0
:103880006404D0906504E0906604F090670420E042
:1038900030E0A901C701B6010E94A3D78823E1F156
:1038A000A701960160E070E080E89FE30E944BDF93
:1038B0006B017C018090680490906904A0906A0478
:1038C000B0906B0420E030E0A901C501B4010E9472
:1038D000A3D7882329F1A501940160E070E080E876
:1038E0009FE30E944BDFC092D003D092D103E092BD
:1038F000D203F092D3036093D4037093D5038093E3
:10390000D6039093D703FF90EF90DF90CF90BF90B6
:10391000AF909F908F900895C12CD12C7601CACF83
:1039200060E070E0CB01DFCF8F929F92AF92BF92A9
:10393000CF92DF92EF92FF92FC01828158E5C52E73
:1039400052E0D52EC81AD10887FDD394CC0CDD1CCB
:10395000CC0CDD1C0D2C000CEE08FF08818178E8F2
:10396000872E912C881A910887FD9394880C991CB6
:10397000880C991C092C000CAA08BB0880818F3F79
:10398000D1F190E0FC01EE0FFF1FE80FF91FE056A8
:10399000F74E8181928133E0880F991F3A95E1F7C4
:1039A000B0E0A0E044E0B595A795979587954A9536
:1039B000D1F702969C012F5F3F4F032E000C440B62
:1039C000550B281939094A095B09A4EBB0E00E949C
:1039D0000BDEA7019601281939094A095B090E94E3
:1039E000EFDDC901FF90EF90DF90CF90BF90AF90D7
:1039F0009F908F90089590E080E0DCCF90916400DC
:103A00009B7F90936400982F906A96959CBD80FD53
:103A100003C091E0863009F490E09DBD0895CF93F6
:103A2000DF93C0915818D0915918209729F16091CF
:103A300054187091551880915618909157180E94FB
:103A4000B3DF6E5F7F4F26976C177D07ACF47093E2
:103A50001409609313090E9465B5605C73468F4F2B
:103A60009F4F6093150970931609809317099093DF
:103A70001809DF91CF910895109215091092160937
:103A80001092170910921809F4CF0F931F93809189
:103A9000BA14813019F50E9465B500912004109187
:103AA00021042091220430912304601B710B820BAE
:103AB000930B28EE33E040E050E00E94CDDD6091B2
:103AC0001C0470911D0480911E0490911F04620FCC
:103AD000731F841F951F1F910F91089560912404F7
:103AE000709125048091260490912704D6CF80916F
:103AF000BA14813079F482E08093BA140E9465B5DB
:103B000060932404709325048093260490932704E3
:103B100081E0089580E00895CF93DF93C0912C1841
:103B2000D0912D18209729F16091281870912918AB
:103B300080912A1890912B180E94B3DF6E5F7F4FFF
:103B400024976C177D07ACF47093EF086093EE0830
:103B50000E9465B5605A75418F4F9F4F6093F00882
:103B60007093F1088093F2089093F308DF91CF915E
:103B700008951092F0081092F1081092F208109235
:103B8000F308F4CFAF92BF92CF92DF92EF92FF9201
:103B90000F931F93CF935C016B018A0186569C4F54
:103BA0007C01DC01CC91C7FF3DC0FB01118210827A
:103BB000CF5FD701CC93CC300CF053C08CE08A9D02
:103BC000F0018B9DF00D1124CF018C0F911DC7FDCD
:103BD0009A952091E8182817190609F00CF441C0AD
:103BE000F60120813181FC01EE0FFF1FE80FF91F64
:103BF000E056F74E81819281820F931FD801119672
:103C00009C938E93808187FF3DC061E08F77CF9139
:103C10001F910F91FF90EF90DF90CF90BF90AF90EA
:103C20000C9492B38CE08A9DF0018B9DF00D1124D1
:103C3000CF018C0F911DC7FD9A952091E818281788
:103C4000190609F00CF4B4CFFC01EE0FFF1FE80FCA
:103C5000F91FE056F74E808160E08F770E9492B3A3
:103C6000A7CFF6018081918104968034FCE99F07FB
:103C700010F480E49CE9D80111969C938E938FEF09
:103C8000F7018083CF911F910F91FF90EF90DF900C
:103C9000CF90BF90AF900895682F70E090E080E0E3
:103CA0000C944BAA4F925F926F927F928F929F9249
:103CB000AF92BF92CF92DF92EF92FF920F931F933A
:103CC000CF93DF93082FEB01C880D980EA80FB8077
:103CD00020E030E0A901C701B6010E94A3D7181661
:103CE0000CF079C020E030E040E85FE3C701B601A6
:103CF0000E9496E087FF76C029E43AE046EC52EC59
:103D0000C701B6010E9408D821E931EE40E852E42B
:103D10000E946FDE2B013C01A7019601C701B6018D
:103D20000E9408D84B015C012FE237E942EF50ECCA
:103D30000E9408D8A30192010E946FDE2B013C0172
:103D4000A5019401C701B6010E9408D829EF3AE401
:103D50004CE252E40E9408D8A30192010E946FDE57
:103D60000E94E4DF6B017C01BFB6F894C701B60185
:103D70000E94B8DF162FA701960160E070E080E096
:103D800093E40E946EDE0E94B8DF01112FC01093F1
:103D90009A186093991888819981AA81BB81809330
:103DA000921890939318A0939418B0939518B7FE17
:103DB00001C07894DF91CF911F910F91FF90EF9008
:103DC000DF90CF90BF90AF909F908F907F906F903B
:103DD0005F904F900895C12CD12C80E8E82E82E4AA
:103DE000F82EC2CFC12CD12C7601BECF10938818EB
:103DF0006093871888819981AA81BB8180938018FC
:103E000090938118A0938218B0938318D0CF4F92CB
:103E10005F926F927F928F929F92AF92BF92CF925A
:103E2000DF92EF92FF920F931F93CF93DF93EC01FA
:103E300020915C0430915D0440915E0450915F04D8
:103E4000688179818A819B810E946EDE6B017C0191
:103E500020916004309161044091620450916304A8
:103E60006C817D818E819F810E946EDE4B015C01A1
:103E7000A70196016091D8037091D9038091DA036C
:103E80009091DB030E94A3D7882309F45AC0C09203
:103E9000D803D092D903E092DA03F092DB032091A9
:103EA000D0033091D1034091D2035091D303C70185
:103EB000B6010E9408D82B013C010E94E4DF6B018F
:103EC0007C0120E030E0A9010E94A3D787FD7AC0E1
:103ED00020E030E040E850E4C701B6010E9496E0DF
:103EE000181634F4C12CD12CC0E8EC2EC0E4FC2E02
:103EF000A7019601C301B2010E946EDE2B013C01B5
:103F000020E030E0A9010E94A3D787FD5FC0409266
:103F1000C8035092C9036092CA037092CB03C701D1
:103F2000B6010E94B3DF6093C603062E000C770B28
:103F30006F5F7F4F6430710514F064E070E0609350
:103F4000C403D091C2031091C603A50194016091EE
:103F5000DC037091DD038091DE039091DF030E940A
:103F6000A3D781113CC0D11394C02091AA033091F2
:103F7000AB034091AC035091AD036091C8037091C5
:103F8000C9038091CA039091CB030E9408D8209165
:103F9000AE033091AF034091B0035091B1030E9442
:103FA0006FDEDF91CF911F910F91FF90EF90DF9027
:103FB000CF90BF90AF909F908F907F906F905F90C9
:103FC0004F900895C12CD12C760192CF1092C80346
:103FD0001092C9031092CA031092CB03A0CF809213
:103FE000DC039092DD03A092DE03B092DF03209108
:103FF000D4033091D5034091D6035091D703C50126
:10400000B4010E9408D84B015C010E94E4DF6B01FF
:104010007C0120E030E0A9010E94A3D787FDFDC00C
:1040200020E030E040E850E4C701B6010E9496E08D
:10403000181634F4C12CD12CB0E8EB2EB0E4FB2ED2
:10404000A7019601C501B4010E946EDE4B015C011F
:1040500020E030E0A9010E94A3D787FDE2C0809252
:10406000CC039092CD03A092CE03B092CF03C701B0
:10407000B6010E94B3DF6093C703062E000C770BD6
:104080006F5F7F4F6430710514F064E070E06093FF
:10409000C503C091C703D11305C08091C3038C171A
:1040A00009F470C08091C6039091C7039093C30335
:1040B0008093C2030C2E000CDD0B25E01203C0011F
:1040C0001124FC01EC0FFD1FEE0FFF1FEE0FFF1F71
:1040D000E758FB4F20813181428153812093BE03F9
:1040E0003093BF034093C0035093C1030091C503B5
:1040F000002E000C110BFC01E00FF11FEE0FFF1F53
:10410000EE0FFF1FE758FB4F608171818281938121
:104110000E946EDE6093BA037093BB038093BC036E
:104120009093BD032091C40335E02303F0011124D3
:10413000CE0FDF1FCC0FDD1FCC0FDD1FC758DB4FAD
:10414000288139814A815B812093B6033093B7037C
:104150004093B8035093B903E00FF11FEE0FFF1F18
:10416000EE0FFF1FE758FB4F6081718182819381C1
:104170000E946EDE6093B2037093B3038093B40326
:104180009093B5038090CC039090CD03A090CE0384
:10419000B090CF032091BA033091BB034091BC0390
:1041A0005091BD03C501B4010E9408D82091BE03FF
:1041B0003091BF034091C0035091C1030E946FDE54
:1041C0006B017C01C092AE03D092AF03E092B003CA
:1041D000F092B1032091B2033091B3034091B40344
:1041E0005091B503C501B4010E9408D82091B603CF
:1041F0003091B7034091B8035091B9030E946FDE2C
:10420000A70196010E946EDE6093AA037093AB0330
:104210008093AC039093AD03A8CEC12CD12C760132
:104220000FCF1092CC031092CD031092CE031092B8
:10423000CF031DCF4F925F926F927F928F929F928A
:10424000AF92BF92CF92DF92EF92FF92CF93DF9324
:1042500000D000D0CDB7DEB72091EE142223D9F1E3
:104260009E838D83D4DD4B015C01AD81BE811896A8
:104270004D905D906D907C901B97AC019B01C301AC
:10428000B2010E946EDE6B017C018091EF1490916F
:10429000F014A091F114B091F21489839A83AB8346
:1042A000BC8320E030E0A901BC01CD010E94A3D76E
:1042B000882349F020E030E0A901C701B6010E943F
:1042C000A3D71816ECF0AD81BE811896CD92DD9281
:1042D000ED92FC921B9726960FB6F894DEBF0FBEA8
:1042E000CDBFDF91CF91FF90EF90DF90CF90BF9047
:1042F000AF909F908F907F906F905F904F900895B8
:1043000029813A814B815C81C301B2010E9496E010
:1043100087FFE1CF2091EA143091EB144091EC1427
:104320005091ED14C501B4010E9408D89B01AC0165
:1043300060E070E080E89FE30E946EDE9B01AC01CC
:10434000C701B6010E944BDFED81FE816087718756
:1043500082879387C0CF4091E10421E0422768E043
:1043600070E00C9489AC4091E10421E042276CE0BC
:1043700070E00C9489AC4091E10421E0422764E0B4
:1043800070E00C9489AC4091E10421E0422761E0A7
:1043900070E00C9489AC4091E10421E0422761E097
:1043A00070E00C9489AC4091E10421E0422768E080
:1043B00070E00C9489AC4091E10421E042276CE06C
:1043C00070E00C9489AC41E061E070E00C9489AC41
:1043D00041E062E070E00C9489AC4091E10421E09E
:1043E00042270C9489AC6CE070E00C94FEB464E05D
:1043F00070E00C94FEB462E070E00C94FEB461E0F6
:1044000070E00C94FEB461E070E00C94FEB46CE0DB
:1044100070E00C94FEB40F931F93CF93DF930AE0E8
:1044200015E1C5ECD9E0F80121913191419151910B
:104430008F0160E070E080E89FE30E944BDF6993AA
:10444000799389939993F9E0C53DDF0761F70E945D
:104450009EB1DF91CF911F910F910C940919CF93C9
:10446000DF93CDB7DEB72C970FB6F894DEBF0FBE43
:10447000CDBF19821A821B821C821D821E821F825E
:10448000188619861A861B861C86AE014F5F5F4F01
:10449000BC018BE592E00E94E6B22C960FB6F89430
:1044A000DEBF0FBECDBFDF91CF91089563E00C94C6
:1044B00023B78091F3039091F403009731F04AE021
:1044C00050E070E060E00C9403D660E070E0CB0157
:1044D00008958091F3039091F403009731F04AE03E
:1044E00050E070E060E00C94D7D460E070E0CB0165
:1044F0000895EFDF97FD0AC0ECDF6F3F710581057E
:10450000910509F02CF4E5DF862F089580E00895E9
:104510008FEF0895CF93C62F66D9882311F0CF91DE
:10452000E8CF8C2FCF9108958091F3039091F403FD
:10453000892B39F0DEDF91E0811101C090E0892FF5
:10454000089591E0FCCFCF93DF93C82FD62F4BD99E
:10455000882319F0DF91CF91E7CF8C2FF6D8811106
:1045600001C08D2FDF91CF910895B3DFCB01089566
:10457000CF93DF93EB0137D9882319F0DF91CF91E7
:10458000F4CFCE01DF91CF9108950F931F93CF9376
:104590008091F3039091F403009709F1FC018F01DE
:1045A000C1912C2F2F7DA1F0C53431F0C53621F0FB
:1045B000C83511F0C83799F7F801108270E060E053
:1045C0000E9481D3F801C083CF911F910F9108956C
:1045D00070E060E0CF911F910F910C9481D360E067
:1045E00070E0CB01F1CFCF92DF92EF92FF926A01A0
:1045F0007B01F9D8882329F0FF90EF90DF90CF90CE
:10460000C4CFC701B601FF90EF90DF90CF9008951F
:104610004F925F926F927F92AF92BF92CF92DF9252
:10462000EF92FF920F931F93CF9382E1A82E83E026
:10463000B82E9CEBE92E94E1F92E0BE512E02EEC5E
:10464000C22E27E1D22EC0E0F50181915F01CBD8C7
:10465000882309F476C099DF2B013C018C2F48D8C0
:10466000882309F464C0F80120813181428153819B
:10467000C301B2010E946FDEF70160837183828300
:104680009383CF5FF4E0EF0EF11C0C5F1F4F84E0CB
:10469000C80ED11CC330C1F685E4A5D8882309F41F
:1046A0005BC073DF6B017C0183E022D8882371F04B
:1046B00020916702309168024091690250916A022C
:1046C000C701B6010E946FDE6B017C01C092C81465
:1046D000D092C914E092CA14F092CB1440E050E09A
:1046E000BA0186E480DF20E030E0A9010E9496E074
:1046F00018167CF44ADF20E030E040E752E40E94E4
:104700004BDF609313027093140280931502909311
:104710001602CF911F910F91FF90EF90DF90CF90F5
:10472000BF90AF907F906F905F904F900895F6018B
:104730002081318142815381C301B2010E946EDE2A
:104740009BCFF80180819181A281B381F7018083A1
:104750009183A283B38395CF809167029091680281
:10476000A0916902B0916A028093C8149093C91411
:10477000A093CA14B093CB14B1CFCF93DF93EC01C5
:10478000688170E085E00E941EB4698170E084E079
:104790000E941EB46A8170E086E00E941EB4888187
:1047A0009981482F490F5527551F8A81840F952FCE
:1047B000911D21E0833091050CF420E02093E20864
:1047C00003974CF088819981AA8180930F19909367
:1047D0001019A0931119DF91CF9108958F929F9294
:1047E000AF92BF92CF92DF92EF92FF92CF93DF937F
:1047F00000D0CDB7DEB72FEF8417950731F16A01EE
:10480000052E000CEE08FF084C01092E000CAA082A
:10481000BB08681779072CF0CB01461757070CF433
:10482000CA019C01990F440B550B281939094A09F3
:104830005B09AFEFB0E00E940BDEA70196012819DB
:1048400039094A095B090E94EFDD80910D09821741
:1048500051F020930D098FEF89831A8220952B83C5
:10486000CE0101968ADF0F900F900F90DF91CF91CC
:10487000FF90EF90DF90CF90BF90AF909F908F9080
:1048800008958F929F92AF92BF92CF92DF92EF9254
:10489000FF92CF93DF9300D0CDB7DEB72FEF841711
:1048A000950731F16A01052E000CEE08FF084C0156
:1048B000092E000CAA08BB08681779072CF0CB0159
:1048C000461757070CF4CA019C01990F440B550B6E
:1048D000281939094A095B09AFEFB0E00E940BDEE5
:1048E000A7019601281939094A095B090E94EFDDE1
:1048F00080910D09821749F020930D0929831A82AE
:104900008FEF8B83CE01019638DF0F900F900F90C1
:10491000DF91CF91FF90EF90DF90CF90BF90AF905D
:104920009F908F900895CF93DF93EC018D8166D88F
:1049300060E08B81DF91CF910C9492B30F930FB70E
:104940000F9300916E000D7F00936E0078940F938B
:104950000BB70F930CB70F921F922F933F934F9368
:104960005F936F937F938F939F93AF93BF93EF93D7
:10497000FF93112431D5FF91EF91BF91AF919F919A
:104980008F917F916F915F914F913F912F911F90E8
:104990000F900CBF0F910BBF0F910260F894009322
:1049A0006E000F910FBF0F911895CF93DF93109268
:1049B0001209C0E5D8E11986188631D81A862C98D4
:1049C000C4E2D8E119861886A7D81A868091020118
:1049D000807280930001DF91CF9108958F929F9212
:1049E000AF92BF92CF92DF92EF92FF920F931F93FD
:1049F000CF93DF93B0E4A0E06A2F70E0AB014B0FE0
:104A0000511D55954795411119C0EEEFF9E165919A
:104A10007491072E000C880B990B0E94A9D7DF9187
:104A2000CF911F910F91FF90EF90DF90CF90BF90AB
:104A3000AF909F908F900895B42FE0CFA41711F0FE
:104A4000B41303C0EAEFFAE1E2CF9A012150310931
:104A5000220F331F220F331FF901E450F64EE59069
:104A6000F490F901E050F64EC591D4918E159F0552
:104A700018F3A42FC817D90708F4BECFF901E250E4
:104A8000F64E05911491F901EE5FF54EC590D49064
:104A90008E199F09BC0190E080E00E94A7D74B01CE
:104AA0005C01B601601B710B072E000C880B990B83
:104AB0000E94A9D79B01AC01C501B4010E9408D88E
:104AC0004B015C01CE19DF09BE0190E080E00E943D
:104AD000A7D79B01AC01C501B4010E944BDF6B015C
:104AE0007C01B801110F880B990B0E94A9D79B017B
:104AF000AC01C701B6010E946FDE91CFBC012091CD
:104B0000BF083091C0084091BF085091C0082417D9
:104B1000350731F481E02617370709F080E0089562
:104B20009A01F1CF0F930FB70F9300916E000F937F
:104B30000D7F00936E0000916F000D7F00936F005A
:104B40000F930BB70F930CB70F921F922F933F93B6
:104B50004F935F936F937F938F939F93AF93BF9385
:104B6000EF93FF9311246AD5FF91EF91BF91AF911D
:104B70009F918F917F916F915F914F913F912F9175
:104B80001F900F900CBF0F910BBF0F910260F89414
:104B900000936F000F9100936E000F910FBF0F9164
:104BA00018958091980980FF23C089988FEF809392
:104BB00070088091980981FF1EC08F988FEF8093B5
:104BC00071088091980982FF19C080910B0180952E
:104BD000827080930901439A8FEF809372088091CD
:104BE000980983FF13C016988FEF80937308089578
:104BF000899A81E0DCCF8F9A81E0E1CF80910B012F
:104C0000827080930901439881E0E7CF169A81E092
:104C1000ECCF8091E204877F8093E204129A81E0D6
:104C2000089580E00E94351781E00E94351782E0E8
:104C30000E943517EECF12988091E204886080932D
:104C4000E2040895813089F070F0823081F021E033
:104C500030E001C0220F8A95EAF78091E204822BAE
:104C60008093E20408955F98F2CF8A98F0CF9091F4
:104C700008019170909306014798E9CFCF93DF9395
:104C800080914F04811119C0C0911D02D0911E0264
:104C9000219720E030E040E05FE36091541870918C
:104CA000551880915618909157180E946FDE0E94F7
:104CB000B3DF21E06C177D070CF020E0822FDF913D
:104CC000CF9108958F929F92AF92BF92CF92DF9231
:104CD000EF92FF92CF93DF932091EE14222309F4F9
:104CE00081C0EC018090EF149090F014A090F1142A
:104CF000B090F21420E030E0A901C501B4010E9497
:104D0000A3D7882309F479C0C884D984EA84FB84B2
:104D100020E030E0A901C701B6010E94A3D7181610
:104D20000CF06BC0A7019601C501B4010E94A3D786
:104D300018160CF057C02091E6143091E7144091FA
:104D4000E8145091E914C701B6010E94A3D7882343
:104D500021F1C092E614D092E714E092E814F092A8
:104D6000E9142091EA143091EB144091EC14509125
:104D7000ED14C701B6010E9408D89B01AC0160E0A8
:104D800070E080E89FE30E946EDE609319027093EA
:104D90001A0280931B0290931C02C0901902D090BB
:104DA0001A02E0901B02F0901C0220E030E0A90102
:104DB000C701B6010E94A3D78823A1F0CE0127D84E
:104DC0009B01AC01C701B6010E9408D89B01AC0150
:104DD000688579858A859B850E946FDE68877987DB
:104DE0008A879B87DF91CF91FF90EF90DF90CF90E4
:104DF000BF90AF909F908F900895C12CD12C80E8E8
:104E0000E82E8FE3F82EDACF2F923F924F925F92E7
:104E10006F927F928F929F92AF92BF92CF92DF92CA
:104E2000EF92FF920F931F93CF93DF93CDB7DEB72F
:104E3000A0970FB6F894DEBF0FBECDBF1C017B015B
:104E40005E834D83FC01EA5BFF4F2081318142810B
:104E5000538129833A834B835C83CA01B9010E9441
:104E6000A7D74B015C01D7012D913D914D915C91EC
:104E70000E9408D80E9435DF2B013C01ED81FE81A4
:104E80002081318142815381C501B4010E9408D83B
:104E90000E9435DF6B017C01C301B2010E94B8DFC3
:104EA00069877A878B879C876837710581059105AB
:104EB00040F428E730E040E050E029873A874B870C
:104EC0005C87C701B6010E94B8DF6D877E878F8738
:104ED000988B683771058105910548F428E7C22E43
:104EE000D12CE12CF12CCD86DE86EF86F88AD1011B
:104EF0009596CD90DD90ED90FC909897CD82DE82D6
:104F0000EF82F886F101EE5AFF4F60817181828154
:104F10009381611571058105910509F49FC10E9476
:104F2000A9D76D8B7E8B8F8B988F9B01AC0160E036
:104F300070E080E89FE30E944BDF698F7A8F8B8F50
:104F40009C8F20E030E040E05FE30E9408D86B01D6
:104F50007C01A5019401C501B4010E9408D82B0170
:104F60003C016D857E858F8598890E94A7D79B011E
:104F7000AC010E9408D89B01AC01C301B2010E94A0
:104F80006EDEA70196010E9408D84B015C0169857D
:104F90007A858B859C850E94A7D79B01AC010E94D6
:104FA00008D86D8F7E8F8F8F98A39B01AC01C301B2
:104FB000B2010E946EDEA70196010E9408D82B0163
:104FC0003C010E9435DF0E94B8DF6B017C01C50106
:104FD000B4010E94E4DF0E94B8DF698B7A8B8B8B6F
:104FE0009C8BDC01CB018C0D9D1DAE1DBF1D2D8149
:104FF0003E814F815885281B390B4A0B5B0BDA0128
:10500000C901B7FF61C06D817E818F8198850E9443
:10501000A7D7A30192010E946FDEA50194010E940F
:105020006EDE20E030E040E05FE30E9408D80E949E
:1050300035DF6B017C0120E030E0A9010E9496E0A1
:1050400018161CF0C12CD12C7601C701B6010E94A4
:10505000B8DF6B017C014D815E816F8178854C15D5
:105060005D056E057F0510F46A017B016D817E810F
:105070008F8198856C197D098E099F09698B7A8BC0
:105080008B8B9C8BC701B6010E94A7D74B015C019B
:105090002D893E894F89588DCA01B9010E946FDE62
:1050A0009B01AC01C501B4010E9408D82D8D3E8D35
:1050B0004F8D58A10E946FDE0E94DCE00E94B8DF95
:1050C00069837A838B839C8320E034E244EF59E444
:1050D000698D7A8D8B8D9C8D0E9408D84B015C0167
:1050E00069817A818B819C8129853A854B855C8594
:1050F000621B730B840B950B0E94A7D7A50194012B
:105100000E9408D80E94B8DF2B013C0169817A8196
:105110008B819C812D853E854F855889621B730B41
:10512000840B950B0E94A7D7A50194010E9408D873
:105130000E94B8DF4B015C013FE643165104610455
:10514000710408F097C0F201EE0FFF1FEE0FFF1F72
:10515000E95EFD4E85919591A591B4918C01AD8B41
:10516000BD834FE684169104A104B10408F08AC0FF
:10517000F401EE0FFF1FEE0FFF1FE95EFD4E45919C
:105180005591659174919A01CB01D1019996CD9277
:10519000DD92ED92FC929C9795964D915D916D916B
:1051A0007C919897C988DA88EB88FC884C195D094E
:1051B0006E097F099D964D935D936D937C93D09777
:1051C000F101E65BFF4FC984DA84EB84FC84C08282
:1051D000D182E282F382D5964D925D926D927C925D
:1051E000D897F10181AE92AEA3AEB4AEFD96008326
:1051F0001183CD88C282DD80D382349620833183AF
:1052000082839383C980DA80EB80FC80D196CD9233
:10521000DD92ED92FC92D4973D96CD84DE84EF84AE
:10522000F888C082D182E282F382A0960FB6F89409
:10523000DEBF0FBECDBFDF91CF911F910F91FF90C9
:10524000EF90DF90CF90BF90AF909F908F907F9026
:105250006F905F904F903F902F900895198E1A8E07
:105260001B8E1C8E198A1A8A1B8A1C8AC12CD12C6F
:1052700076012ACFC301B2010E940C188B018D8BDD
:105280009D836FCFC501B4010E940C189B017DCF97
:10529000EFE6F0E08081826080830895CF93C82F8D
:1052A0000E94F31994E0C99F90011124F901EA5377
:1052B000F74F2E52374FD9014D915D916D917C91F1
:1052C000408351836283738391E09093C508882360
:1052D00011F0CF91DDCFCF910895CF93DF938091DF
:1052E0002B04659963C0816080932B049091030126
:1052F00080912B0491FD5CC0826080932B0480918F
:105300002B044B9B57C0846080932B0480912B040B
:1053100090912A04981709F44FC092E090932904C1
:1053200080932A0480919709811105C08091990981
:10533000882309F44EC0C091B008C0FF0FC080910F
:10534000980980FF0BC08091280480FF07C08091DE
:10535000A90981608093A90980E0A0DFC1FF0FC087
:105360008091980981FF0BC08091280481FF07C0BC
:105370008091A90982608093A90981E08FDFC2FF33
:1053800028C08091980982FF24C0809199098823C0
:1053900001F18091280482FF1CC08091A9098460DA
:1053A0008093A90982E0DF91CF9178CF8E7F9CCF47
:1053B0008D7FA3CF8B7FA8CF80912904882309F408
:1053C000B1CF8150809329048111ACCF90932804F0
:1053D000A9CFDF91CF9108951F93CF93DF93809151
:1053E00047028F3708F49AC08F5790915A189093BC
:1053F0000C09992309F490C02C9A20912E1820931F
:105400000B099091020121119095907290930001E7
:105410008F5F8093470280910A0991E089278093EA
:105420000A0980914602980F85300CF090E0823096
:1054300009F4CFC00CF07FC0882309F494C08130F8
:1054400009F4BBC090934602C0910709D0910809A6
:10545000209709F451C0F89410910901127082E06C
:10546000F1DB80910B011C161D060CF080958270FB
:10547000809309011C161D060CF4DAC0439A209192
:1054800084003091850080910B0180958870809315
:105490000901419A8091840090918500821B930BB1
:1054A000B0E0A0E043E0880F991FAA1FBB1F4A95F8
:1054B000D1F78097A105B10568F380910B01887041
:1054C00080930901419880910B01111180958270A0
:1054D00080930901112309F4ADC0439A7894809117
:1054E0000709909108091C161D060CF0A5C001972C
:1054F0009093080980930709F0DE8091F41490914D
:10550000F514009729F001979093F5148093F41403
:10551000DF91CF911F9108952C986FCF90910C0936
:10552000891708F02C9890910B09891708F470CF0F
:10553000909102016ACF843009F463C00CF45CC01E
:10554000853009F07FCF20910909211102C0809395
:10555000090980910909815080930909882309F478
:1055600071CF95E06FCF809145028F5F80311CF441
:105570008093450267CF1092450280910609811100
:1055800013C0209150183091511830935318209324
:105590005218209124183091251830932718209301
:1055A000261881E080930609109251181092501825
:1055B000109225181092241845CF88E080937B0024
:1055C00085E480937C0080917A00806480937A00E7
:1055D00039CF80917A0086FD27C0409178005091A4
:1055E00079002091501830915118240F351F3093B5
:1055F00051182093501826CF88E080937B0086E4D2
:10560000E0CF80917A0086FD11C0409178005091E2
:1056100079002091241830912518240F351F3093DC
:105620002518209324180ECF92E00CCF94E00ACFD7
:10563000439825CF439852CF01965ACF2F923F924D
:105640004F925F926F927F928F929F92AF92BF9292
:10565000CF92DF92EF92FF920F931F93CF93DF933E
:10566000CDB7DEB76B970FB6F894DEBF0FBECDBFD8
:105670008FEF9FEF90938900809388002AE028871E
:105680001A8219827894809141029091420221E01D
:10569000892B61F03091AB0921E080913B02909120
:1056A0003C023817190609F008F420E08091430203
:1056B00090914402892B09F455C03091AB0941E027
:1056C0004B838091390290913A023817190609F0FC
:1056D00008F41B82211149C04B80442009F45DC1AC
:1056E0001F821FEF02E04F80442009F47BC00E941C
:1056F000B917609197187091981820919A1830E016
:1057000041E050E0811102C04FEF5FEF249FC001E4
:10571000259F900D349F900D1124860F971F909315
:105720009818809397182091700812160CF5813CF8
:105730009F4F1CF52091840030918500809184005A
:1057400090918500821B930B0297C0F3809198097A
:1057500091E098279093980980FD83C089981093D1
:1057600070080BC051E05B83B5CF21E02F83B9CF28
:10577000222319F080349105ECF6809197189091CE
:1057800098189C01215C3F4F2F37310508F46EC0FB
:105790004091700820E830E0141614F420E83FEF40
:1057A000820F931F9093981880939718842F440F1B
:1057B000990BAA0BBB0B4091D2085091D308609172
:1057C000D4087091D508840F951FA61FB71F80932A
:1057D000D2089093D308A093D408B093D508889AA0
:1057E00041E04F834B80442009F47CC00E94621743
:1057F00060918518709186182091881830E041E0FA
:1058000050E0811102C04FEF5FEF249FC001259F40
:10581000900D349F900D1124860F971F909386183A
:105820008093851820917108121614F5813C9F4FC2
:1058300024F520918400309185008091840090911E
:105840008500821B930B0297C0F380919809982FD3
:1058500090279093980981FD96C08F9810937108B6
:105860000CC0899A31E03093700887CF1F82BACF7D
:10587000222319F080349105E4F6809185189091E7
:1058800086189C01215C3F4F2F37310508F480C0FA
:105890004091710820E830E0141614F420E83FEF3E
:1058A000820F931F9093861880938518842F440F3E
:1058B000990BAA0BBB0B4091D6085091D708609169
:1058C000D8087091D908840F951FA61FB71F809321
:1058D000D6089093D708A093D808B093D9088E9A89
:1058E00041E04B834F80411003C05B80552091F015
:1058F00020918400309185008091840090918500F2
:10590000821B930B0297C0F36F80611088987B8095
:1059100071108E98809141029091420221E0892B72
:1059200061F03091AB0921E080913B0290913C0203
:105930003817190609F008F420E02F8380914302FC
:1059400090914402892B31F13091AB0941E04B83B6
:105950008091390290913A023817190609F008F43B
:105960001B82211103C04B804420B9F02091840098
:10597000309185008091840090918500821B930B6B
:105980000297C0F3B0CE8F9A31E03093710875CF93
:105990001B82A8CF51E05B83E4CF8091BB0890913C
:1059A000BC08A091BD08B091BE08892B8A2B8B2B17
:1059B00009F0B4C38091C508882309F464C08091BC
:1059C000BF089091C0081092C508892B09F45BC0EC
:1059D0001092C0081092BF081092B0089091FD1864
:1059E0008091FE18981731F08091FE188F5F8F71AB
:1059F0008093FE18209176083091770830937508CF
:105A0000209374088EE291E090933C0280933B02D5
:105A100066246A94762C709242026092410230931E
:105A200079082093780890933A0280933902709213
:105A30004402609243021092981810929718809135
:105A4000D2089091D308A091D408B091D508809342
:105A50009C1890939D18A0939E18B0939F18109235
:105A60008618109285188091D6089091D708A09139
:105A7000D808B091D90880938A1890938B18A09376
:105A80008C18B0938D188091BF089091C008892B15
:105A900009F444C34091B5085091B6086091B70825
:105AA0007091B8088091B1089091B208A091B308A4
:105AB000B091B408481759076A077B0708F02EC34E
:105AC0000091AB0910E030E020E0841B950BA60BA1
:105AD000B70B081719072A073B0710F4D901C801AB
