:100000000C9466110C94A6110C94A6110C94A611D4
:100010000C94A6110C94A6110C94A6110C94A61184
:100020000C94A6110C94A6110C94A6110C94A61174
:100030000C94A6110C94A6110C94A6110C94A61164
:100040000C94A6110C9401180C94A6110C94A611F2
:100050000C94A6110C94A6110C94659D0C94FE8A28
:100060000C94A6110C947F320C9475320C94A6114A
:100070000C94A6110C94A6110C94A6110C94A61124
:100080000C94A6110C94A6110C94A6110C94A61114
:100090000C94A6110C94A6110C94A6110C94A61104
:1000A0000C94A6110C94A6110C94A6110C94A611F4
:1000B0000C94A6110C94A6110C94A6110C94A611E4
:1000C0000C94A6110C94A6110C94A6110C94A611D4
:1000D0000C94A6110C94A6110C94A6110C94A611C4
:1000E0000C94A611084AD73B3BCE016E84BCBFFDE1
:1000F000C12F3D6C74319ABD56833DDA3D00C77FF8
:1001000011BED9E4BB4C3E916BAAAABE0000008090
:100110003F05A84CCDB2D44EB93836A9020C50B91F
:10012000918688083CA6AAAA2ABE000000803F004B
:100130004E414E494E495459494E46CDCCCC3D0ACC
:10014000D7233C17B7D13877CC2B329595E6241FAF
:10015000B14F0A000020410000C84200401C462068
:10016000BCBE4CCA1B0E5AAEC59D7400407A10F33B
:100170005A00A0724E18090010A5D4E80000E876D5
:1001800048170000E40B54020000CA9A3B0000002C
:10019000E1F505000080969800000040420F000045
:1001A00000A08601000000102700000000E8030006
:1001B0000000006400000000000A000000000001D0
:1001C00000000000002C76D888DC674F0823DFC1D0
:1001D000DFAE59E1B1B796E5E3E453C63AE651998B
:1001E0007696E8E6C28426EB898C9B62ED407C6FB4
:1001F000FCEFBC9C9F40F2BAA56FA5F490055A2A6B
:10020000F75C936B6CF9676DC11BFCE0E40D47FE76
:10021000F520E6B500D0ED902E030094357705006B
:1002200080841E080000204E0A000000C80C3333F2
:1002300033330F986E12831141EF8D2114893BE601
:100240005516CFFEE6DB18D1844B381BF77C1D908A
:100250001DA4BBE424203284725E228100C9F124F3
:10026000ECA1E53D27434F4D4D554E49434154497F
:100270004F4E0044525952554E004552524F525320
:1002800000494E464F004543484F004D323400531D
:10029000544F505045442E20005072696E74657260
:1002A0002073746F707065642064756520746F20AE
:1002B0006572726F72732E204669782074686520AB
:1002C0006572726F7220616E6420757365204D399E
:1002D000393920746F20726573746172742E20280E
:1002E00054656D70657261747572652069732072F2
:1002F000657365742E20536574206974206166747B
:1003000065722072657374617274696E67290A0080
:100310004E6F20436865636B73756D2077697468F1
:10032000206C696E65206E756D6265722C204C6163
:100330007374204C696E653A20004E6F20436865E7
:10034000636B73756D2077697468206C696E6520C6
:100350006E756D6265722C204C617374204C696EF1
:10036000653A2000636865636B73756D206D697312
:100370006D617463682C204C617374204C696E65E8
:100380003A20004C696E65204E756D626572206979
:1003900073206E6F74204C617374204C696E6520FD
:1003A0004E756D6265722B312C204C617374204C3C
:1003B000696E653A20004D313130005365726961D4
:1003C0006C20737461747573206D69736D617463EF
:1003D000680A0053442072656164206572726F720E
:1003E0000A002121204B494C4C20636175736564E0
:1003F00020627920746F6F206D75636820696E616B
:1004000063746976652074696D65202D206375724B
:1004100072656E7420636F6D6D616E643A20004D7D
:100420006564696120496E73657274656400627504
:1004300073793A2070617573656420666F72206904
:100440006E7075740A00627573793A207061757305
:10045000656420666F7220757365720A0062757339
:10046000793A2070726F63657373696E670A00650D
:1004700063686F3A004572726F723A002F2F6163A2
:1004800074696F6E3A006E6F74696669636174694E
:100490006F6E20006E6F74696669636174696F6E58
:1004A000200070726F6D70745F00627574746F6E8F
:1004B00000486F74656E6420746F6F20636F6C64A6
:1004C0000A00706175736564005061757365002082
:1004D000440020204D3230302053002028446973DE
:1004E00061626C6564293A0046696C616D656E7481
:1004F0002073657474696E67730020204D3230314B
:100500002058004D617820416363656C65726174A9
:10051000696F6E2028756E6974732F7332290020FD
:10052000204D3230332058004D6178206665656477
:1005300072617465732028756E6974732F73290056
:1005400020520020204D323034205000416363653A
:100550006C65726174696F6E2028756E6974732F93
:100560007332292028503C7072696E742D61636368
:10057000656C3E20523C726574726163742D6163D8
:1005800063656C3E20543C74726176656C2D6163CA
:1005900063656C3E2900204A00205400205300204F
:1005A000204D323035204200416476616E636564CF
:1005B0002028423C6D696E5F7365676D656E745F80
:1005C00074696D655F75733E20533C6D696E5F663F
:1005D000656564726174653E20543C6D696E5F743C
:1005E000726176656C5F66656564726174653E20F4
:1005F0004A3C6A756E635F6465763E29002044005C
:1006000020490020204D333031205000486F746560
:100610006E64205049440020440020490020204DB1
:100620003330342050004265642050494400203B60
:100630000020550020204D363033204C0046696C98
:10064000616D656E74206C6F61642F756E6C6F6187
:10065000640020496E76616C6964206578747275F7
:10066000646572200047322F473320626164207036
:100670006172616D65746572730A00536C656570B3
:100680002E2E2E004D302053746F70004D312053AC
:10069000746F70004E6F204D6F76652E00456E644E
:1006A0002066696C65206C6973740A00426567692D
:1006B0006E2066696C65206C6973740A004E6F2049
:1006C0006D656469610A00726573756D65005265D8
:1006D00073756D696E6720534400286E6F206669DC
:1006E0006C65290043757272656E742066696C656D
:1006F0003A20002E0A0044656C6574696F6E2066AE
:1007000061696C65642C2046696C653A2000466915
:100710006C652064656C657465643A0043616E6E57
:100720006F74206F70656E2073756264697220004B
:100730002569730025696D20256973002569682086
:1007400025696D2025697300256964202569682065
:1007500025696D2025697300256979202569642044
:100760002569682025696D20256973005072696EBE
:10077000742074696D653A20007061757365006F4F
:100780006B006F666600860281027A027302650260
:1007900044454255473A004D3131332053004765B7
:1007A0006E697573204F46462E002F2F003F4A205A
:1007B0006F7574206F662072616E67652028302E19
:1007C000303120746F20302E33290A002058004F1A
:1007D0004646004F4E003B200020204D61783A20D5
:1007E00000200020204D696E3A2000203B20002090
:1007F000204D32313120530046523A0020466C6F72
:10080000773A200064697300656E0043290A00612D
:10081000626C656420286D696E2074656D702000BF
:10082000436F6C64206578747275646573206172BF
:100830006520004F666673657473204170706C6943
:10084000656400546F6F206661722066726F6D2060
:100850007265666572656E636520706F696E740A95
:1008600000454550524F4D204F4B0A004D38340043
:100870005072696E7420446F6E6500446F6E65201F
:100880007072696E74696E672066696C650A004DE6
:100890003737004D333100496E76616C69642065ED
:1008A000787472756465720A0020204D32303620EB
:1008B0005800486F6D65206F666673657400446903
:1008C00066663A2020200046726F6D5374703A00BD
:1008D000537465707065723A005261773A20202037
:1008E00020000A4C6F676963616C3A00436F756E54
:1008F0007420453A004361703A007D002C7A3A003A
:100900002C793A007D2C6D61783A7B783A002C7A0C
:100910003A002C793A007D7D2C776F726B3A7B6DB3
:10092000696E3A7B783A002C7A3A002C793A007D4D
:100930002C6D61783A7B783A002C7A3A002C793A1F
:1009400000617265613A7B66756C6C3A7B6D696EAD
:100950003A7B783A00434F4E4649475F4558504FDF
:100960005254004D4541545041434B00434F4F4C6E
:1009700045525F54454D50455241545552450043F0
:1009800048414D4245525F54454D504552415455A2
:10099000524500424142595354455050494E470038
:1009A00041524353004D4F54494F4E5F4D4F4445C4
:1009B0005300544845524D414C5F50524F544543AB
:1009C00054494F4E00455854454E4445445F4D32BE
:1009D00030004C4F4E475F46494C454E414D450017
:1009E0004155544F5245504F52545F53445F5354F6
:1009F000415455530053445F5752495445005245A2
:100A000050454154005344434152440050524F4DCD
:100A100050545F535550504F525400484F53545FF9
:100A2000414354494F4E5F434F4D4D414E44530057
:100A3000454D455247454E43595F504152534552EB
:100A400000434153455F4C494748545F4252494730
:100A500048544E45535300544F47474C455F4C490B
:100A60004748545300534F4654574152455F504FE7
:100A7000574552004255494C445F50455243454EFC
:100A800054004C4556454C494E475F444154410043
:100A90005A5F50524F42450052554E4F55540041F7
:100AA00055544F4C4556454C005052494E545F4AA0
:100AB0004F420050524F4752455353004155544FF7
:100AC0005245504F52545F54454D50004155544F7C
:100AD0005245504F52545F504F5300564F4C554D56
:100AE000455452494300454550524F4D0042494EEE
:100AF0004152595F46494C455F5452414E53464519
:100B0000520053455249414C5F584F4E5F584F4633
:100B100046004649524D574152455F4E414D453A78
:100B20004D61726C696E20322E302E392E332028A2
:100B300046656220203120323032332032333A3160
:100B4000303A30372920534F555243455F434F4485
:100B5000455F55524C3A6769746875622E636F6DD4
:100B60002F4D61726C696E4669726D776172652F87
:100B70004D61726C696E2050524F544F434F4C5F21
:100B800056455253494F4E3A312E30204D4143483D
:100B9000494E455F545950453A47656E6975732013
:100BA00045585452554445525F434F554E543A317F
:100BB00020555549443A63656465326132662D3487
:100BC0003161322D343734382D396231322D63356D
:100BD000356336326633363766660A0020573A0088
:100BE00042656420436F6F6C696E672E2E2E004243
:100BF00065642048656174696E672E2E2E0023643B
:100C00006566696E652044454641554C545F000059
:100C1000626564004B6420004B6920004B7020002B
:100C2000504944204175746F74756E652066696E15
:100C30006973686564212050757420746865206C40
:100C4000617374204B702C204B6920616E64204BC3
:100C50006420636F6E7374616E74732066726F6D5F
:100C60002062656C6F7720696E746F20436F6E66CB
:100C7000696775726174696F6E2E680A0050494425
:100C8000204175746F74756E65206661696C65646A
:100C9000212074696D656F75740A005049442041C4
:100CA00075746F74756E65206661696C656421206A
:100CB00054656D706572617475726520746F6F2014
:100CC000686967680A00204B643A2000204B693A43
:100CD0002000204B703A200020436C6173736963DD
:100CE00020504944200A00204E6F206F76657273B1
:100CF000686F6F740A002054753A2000204B753AD3
:100D00002000206D61783A2000206D696E3A200045
:100D100020643A200020626961733A2000504944FF
:100D2000204175746F74756E652073746172740AF6
:100D300000504944204175746F74756E652066617A
:100D4000696C6564212054656D706572617475729B
:100D50006520746F6F20686967680A0050494420F5
:100D60004175746F74756E65005049442041757407
:100D70006F74756E65206661696C656421204261DF
:100D800064206865617465722069640A00486F6D4B
:100D9000696E67204661696C6564006F70656E00FE
:100DA000545249474745524544003A20007A5F6D06
:100DB000696E00795F6D696E00785F6D696E0052D3
:100DC00065706F7274696E6720656E6473746F709E
:100DD000207374617475730A0020746F6F206C6FD8
:100DE0006E6720657874727573696F6E20707265B6
:100DF00076656E7465640A0020636F6C64206578A4
:100E000074727573696F6E2070726576656E746545
:100E1000640A00000000C00000A0C00000000057ED
:100E200061726E696E673A20486F6D696E67204225
:100E3000756D702044697669736F72203C20310AA9
:100E40000002020400005E4300006B4300007A438E
:100E50000000A0400000A040000000400000000191
:100E600000000001000080005555550000004000C2
:100E700033333300AAAA2A0049922400000020003C
:100E8000C7711C0099991900D145170055551500D7
:100E90003BB1130024491200111111000000100091
:100EA0000F0F0F00E3380E0043790D00CCCC0C007F
:100EB000C3300C00E8A20B0064210B00AAAA0A00B0
:100EC000703D0A009DD80900427B09009224090068
:100ED000DCD30800888808001042080000000800E1
:100EE000F0C107008787070075500700711C0700D5
:100EF0003EEB0600A1BC060069900600666606008F
:100F0000703E06006118060017F4050074D1050054
:100F10005BB00500B29005006272050055550500F2
:100F200078390500B81E0500050505004EEC0400E3
:100F300087D40400A1BD040090A7040049920400D6
:100F4000C17D0400EE690400C75604004444040057
:100F50005C32040008210400411004000000040079
:100F60003FF00300F8E0030026D20300C3C30300F0
:100F7000CCB503003AA803000A9B0300388E030097
:100F8000C08103009F750300D0690300505E030019
:100F90001D53030034480300913D03003333030025
:100FA00016290300381F030097150300300C0300B7
:100FB000030303000BFA020049F10200BAE8020041
:100FC0005CE002002DD802002DD0020059C80200BA
:100FD000B0C0020031B90200DAB10200AAAA0200D0
:100FE000A0A30200BC9C0200FA9502005C8F0200E4
:100FF000DF88020082820200457C02002776020020
:1010000027700200436A02007C640200D05E020086
:101010003F590200C8530200FFFDFCFAF8F6F4F253
:10102000F0EEECEAE9E7E5E3E1E0DEDCDAD9D7D59A
:10103000D4D2D0CFCDCBCAC8C7C5C3C2C0BFBDBC38
:10104000BAB9B7B6B4B3B2B0AFADACAAA9A8A6A5A9
:10105000A4A2A1A09E9D9C9A9998979594939290F2
:101060008F8E8D8B8A8988878684838281807F7E1C
:101070007D7B7A797877767574737271706F6E6D27
:101080006C6B6A696867666564636261605F5E5D18
:101090005C5B5A5958585756555453525150504FFB
:1010A0004E4D4C4B4A4A49484746464544434242C6
:1010B00041403F3E3E3D3C3B3B3A39383837363580
:1010C00035343332323130302F2E2E2D2C2B2B2A2B
:1010D00029292827272625252423232221212020CA
:1010E0001F1E1E1D1C1C1B1B1A191918181716165B
:1010F000151514131312121111100F0F0E0E0D0DE2
:101100000C0C0B0A0A09090808070706060505045E
:10111000040303020201000000005C430000664378
:1011200000007A43000000C00000A0C000000000E2
:1011300053657474696E67732053746F72656400CD
:10114000290A002062797465733B20637263200072
:1011500053657474696E67732053746F726564208D
:101160002800454550524F4D20496E697469616CA5
:10117000697A65640A0048617264636F646564201B
:1011800044656661756C742053657474696E677329
:10119000204C6F616465640A0020286D6D29002071
:1011A000204D3134392043203B20556E6974732023
:1011B000696E2043656C736975730A0054656D70C0
:1011C0006572617475726520556E697473002020B4
:1011D000473231203B004C696E65617220556E6963
:1011E000747300454550524F4D20646174617369BA
:1011F0007A65206572726F722E0A00290A002062D9
:10120000797465733B2063726320002073746F727E
:1012100065642073657474696E6773207265747297
:101220006965766564202800202863616C63756CAD
:101230006174656429210A0020213D200045455044
:10124000524F4D20435243206D69736D6174636842
:10125000202D202873746F72656429200020536943
:101260007A653A2000496E6465783A20000000965D
:1012700043000096430000484200002042F43DA095
:1012800042F43DA04296E3C7430080DE43D007000E
:1012900000D00700006400000010270000204D610E
:1012A000726C696E3D563836290A00454550524FDA
:1012B0004D2076657273696F6E206D69736D617410
:1012C00063682028454550524F4D3D0024F4D430EA
:1012D00050C38E20C2A24017828B7011127A910DDA
:1012E000816CD90AA861E108C758660761514306B5
:1012F0001E4B5D05C145A7041A411104093D980321
:10130000713931034036DB0265339102D430540227
:10131000802E1D02632CEE01752AC501B028A001A4
:10132000102781018F2564012B244B01E022340119
:10133000AC211F018D200D01801FFC00841EED00DB
:10134000971DDF00B81CD200E61BC600201BBC00A6
:10135000641AB200B219A8000A19A0006A1899000C
:10136000D117910040178B00B516840031167E000E
:10137000B31579003A157300C7146F0058146A004A
:10138000EE1366008813630025135E00C7125B002E
:101390006C12570015125400C111510070114F000A
:1013A00021114B00D61049008D1047004610440013
:1013B00002104200C00F4000800F3E00420F3C0070
:1013C000060F3B00CB0E3800930E37005C0E350045
:1013D000270E3400F30D3200C10D3100900D3000A6
:1013E000600D2E00320D2D00050D2C00D90C2B00A8
:1013F000AE0C2900850C29005C0C2700350C270059
:101400000E0C2600E80B2400C40B2400A00B2300C4
:101410007D0B23005A0B2100390B2100180B2000F3
:10142000F80A1F00D90A1E00BB0A1E009D0A1D00F3
:10143000800A1D00630A1C00470A1B002C0A1B00BF
:10144000110A1A00F7091A00DD091900C409190068
:10145000AB091900920917007B09180063091700EE
:101460004C09160036091600200916000A09150055
:10147000F5081500E0081400CC081400B8081400A2
:10148000A4081400900813007D0812006B081300D4
:1014900058081200460812003408110023081100F1
:1014A0001208110001081100F0071000E0071000F9
:1014B000D0071000C0071000B0070F00A1071000F0
:1014C00091070E0083070F0074070F0065070E00D9
:1014D00057070E0049070E003B070D002E070E00B0
:1014E00020070D0013070D0006070D00F9060C007C
:1014F000ED060D00E0060C00D4060C00C8060C003A
:10150000BC060C00B0060C00A4060B0099060C00EB
:101510008D060B0082060B0077060B006C060B0095
:1015200061060A0057060B004C060A0042060A0034
:1015300038060A002E060A0024060A001A060A00C7
:101540001006090007060A00FD050900F405090058
:10155000EB050900E2050900D9050900D0050900DD
:10156000C7050900BE050900B5050800AD0508005E
:10157000A50509009C050800940508008C050800D5
:10158000840508007C050800740508006C05070048
:10159000650508005D050700560508004E050700B3
:1015A000470507004005080038050700310507001A
:1015B0002A050700230507001C050600160507007D
:1015C0000F0507000805060002050700FB040600DA
:1015D000F5040700EE040600E8040600E204070034
:1015E000DB040600D5040600CF040600C90406008B
:1015F000C3040600BD040600B7040600B1040500DC
:10160000AC040600A6040600A00405009B04060026
:1016100095040500900406008A0405008504050071
:10162000800406007A0405007504050070040500B6
:101630006B04050066040500610405005C040500F8
:1016400057040500520405004D0405004804050038
:10165000430405003E0404003A0405003504050077
:10166000300404002C0405002704040023040500B2
:101670001E0404001A0404001604050011040400EA
:101680000D0404000904050004040400000404001F
:10169000FC030400F8030400F4030400F003040056
:1016A000EC030400E8030400E4030400E003040086
:1016B000DC030400D8030400D4030400D0030400B6
:1016C000CC030400C8030300C503030024F404D9B9
:1016D000201BC40C5C0E9804C4095F0265077101ED
:1016E000F405F900FB04B30048048700C103690056
:1016F0005803550003034500BE023A00840231003E
:1017000053022A002902250004022000E4011C00E3
:10171000C8011900AF0117009801140084011300DB
:10172000710110006101100051010E0043010D0014
:1017300036010B002B010B0020010B0015010900E5
:101740000C01090003010800FB000800F300080079
:10175000EB000700E4000600DE000600D8000600EB
:10176000D2000600CC000500C7000500C20005003D
:10177000BD000400B9000400B5000400B10004007D
:10178000AD000400A9000400A5000300A2000300AE
:101790009F0004009B0003009800030095000200D6
:1017A00093000300900003008D0002008B000300F3
:1017B000880002008600020084000300810002000D
:1017C0007F0002007D0002007B0002007900020021
:1017D0007700010076000200740002007200010030
:1017E000710002006F0002006D0001006C00020039
:1017F0006A00010069000200670001006600010044
:101800006500010064000200620001006100010047
:10181000600001005F0002005D0001005C0001004B
:101820005B0001005A00010059000100580001004E
:10183000570001005600010055000100540001004E
:10184000530000005300010052000100510001004C
:10185000500001004F0001004E0000004E0001004A
:101860004D0001004C0001004B0000004B00010046
:101870004A00010049000100480000004800010042
:10188000470001004600000046000100450000003E
:101890004500010044000100430000004300010036
:1018A0004200000042000100410000004100010030
:1018B000400001003F0000003F0001003E0000002A
:1018C0003E0001003D0000003D0001003C00000022
:1018D0003C0000003C0001003B0000003B00010018
:1018E0003A0000003A000100390000003900010010
:1018F0003800000038000000380001003700000008
:1019000037000100360000003600000036000100FC
:1019100035000000350000003500010034000000F3
:1019200034000000340001003300000033000000E8
:1019300033000100320000003200000032000100DC
:1019400031000000310000003100010030000000D3
:1019500030000000300001002F0000002F000000C8
:101960002F0000002F0001002E0000002E000000BC
:101970002E0001002D0000002D0000002D000000B1
:101980002D0001002C0000002C0000002C000000A5
:101990002C0001002B0000002B0000002B00000099
:1019A0002B0001002A0000002A0000002A0000008D
:1019B0002A00010029000000290000002900000081
:1019C0002900000029000100280000002800000074
:1019D0002800000028000000280001002700000067
:1019E000270000002700000027000000270001005A
:1019F000260000002600000026000000260000004F
:101A00002600010025000000250000002500000040
:101A10002500000025000000250001002400000032
:101A20002400000024000000240000002400010025
:101A3000230000002300000023000000230000001A
:101A4000230000002300000023000100220000000A
:101A500022000000220000002200000022000000FE
:101A600022000100210000002100000021000000F0
:101A700021000000210000002100000021000100E1
:101A800020000000200000002000000020000000D6
:101A900020000000200000002000000020000100C5
:101AA0001F0000001F0000001F0000001F000000BA
:101AB0001F0000001F0000001F0001001E000000AA
:101AC0001E0000001E0000001E0000003930000053
:101AD0003325000087190000B00F0000DB0800006C
:101AE000BD040000740200003F01000020436F7538
:101AF0006E7420583A00004500626564002C207323
:101B0000797374656D2073746F70706564212048FB
:101B100065617465725F49443A2000486561746983
:101B20006E67204661696C65640048656174696E22
:101B300067206661696C6564004D313132205368FD
:101B40007574646F776E004572723A204D41585437
:101B5000454D50004D415854454D502074726967B1
:101B60006765726564004572723A204D494E54456E
:101B70004D50004D494E54454D5020747269676771
:101B80006572656400544845524D414C2052554E93
:101B90004157415900546865726D616C2052756EF1
:101BA0006177617900202F002042403A0020403ABE
:101BB0000020573A002053004D3130362050007C31
:101BC0003C3E5E2B3D3F2F5B5D3B2C2A225C00435D
:101BD000616E6E6F74206F70656E207375626469DC
:101BE00072200053442063617264206F6B0A006F9F
:101BF00070656E526F6F74206661696C65640A006F
:101C0000766F6C756D652E696E6974206661696C9E
:101C100065640A004E6F20534420636172640A00B9
:101C20002E0A006F70656E206661696C65642C20F9
:101C300046696C653A200046696C652073656C6581
:101C4000637465640A002053697A653A2000466926
:101C50006C65206F70656E65643A2000454E4420C7
:101C6000535542524F5554494E450A002220706F39
:101C700073002220706172656E743A2200535542DF
:101C8000524F5554494E452043414C4C207461728B
:101C90006765743A220053756263616C6C204F76FD
:101CA0006572666C6F77004578636565646564206E
:101CB0006D617820535542524F5554494E4520642A
:101CC000657074683A0057726974696E6720746F42
:101CD0002066696C653A20005344207072696E7406
:101CE000696E67206279746520004E6F74205344DA
:101CF000207072696E74696E670A00667265736837
:101D000000646F696E67002066696C653A20004E5A
:101D10006F7720000A4D3234004D32332025730096
:101D20002F6175746F25632E670070012C0190017F
:101D30002701B0012201C0011D01F00118011002AC
:101D4000130130020E016002090190020401C00279
:101D5000FF000003FA004003F5008003F000D00309
:101D6000EB002004E6007004E100E004DC00400524
:101D7000D700C005D2004006CD00D006C8008007BD
:101D8000C3003008BE00F008B900C009B400B00AB2
:101D9000AF00B00BAA00D00CA500000EA000500FA1
:101DA0009B00C01096005012910000148C00C015CA
:101DB0008700B0178200B0197D00D01B7800001E8C
:101DC000730040206E0090226900F02464004027D8
:101DD0005F0090295A00E02B5500102E5000203053
:101DE0004B0010324600E033410090353C00103784
:101DF000370070383200A0392D00B03A2800A03BDF
:101E00002300603C1E00103D1900903D1400103E60
:101E10000F00703E0A00C03E0500003F0000403F3A
:101E2000FBFF803FF6FFC03FF1FF2020506C616E4A
:101E30006E657242756666657242797465733A20A2
:101E4000002046726565204D656D6F72793A2000FD
:101E500020436F6D70696C65643A2046656220208E
:101E60003120323032330A00204C617374205570B7
:101E700064617465643A20323032312D31322D3252
:101E800035207C20417574686F723A202874686927
:101E90007369736B65697468622C2047656E697538
:101EA00073290A004D61726C696E20322E302E3912
:101EB0002E330A0020536F66747761726520526575
:101EC0007365740A00205761746368646F672052F9
:101ED000657365740A002042726F776E206F7574A7
:101EE0002052657365740A002045787465726E61CE
:101EF0006C2052657365740A00506F776572557077
:101F00000A0073746172740A004732385859004DE0
:101F100031303031006F6B006572726F72207772F2
:101F20006974696E6720746F2066696C650A004485
:101F30006F6E6520736176696E672066696C652EC9
:101F40000A004D323900205A3A0020593A002058F0
:101F50003A00656E6473746F7073206869743A2018
:101F60000000000A0B02090C0D0E08070304010013
:101F70000000000000000000000000000000000061
:101F8000000000000000000000000000001211101E
:101F90000000000000000000000000000000000041
:101FA00000000000000000FFFFFF726573756D65A3
:101FB00064004469736D69737300526573756D696C
:101FC0006E670053656E64204D31303820746F2089
:101FD000726573756D650A00496E7365727420666B
:101FE000696C616D656E7420616E642073656E64EA
:101FF000204D3130380A0052656865617420446FA5
:102000006E6500526568656174696E672E2E2E00DC
:102010005265686561740048656174657220546931
:102020006D656F75740053656E64204D31303820D6
:10203000746F2068656174206E6F7A7A6C650A002F
:102040004E6F7A7A6C65205061726B6564007368BC
:102050006F7700626567696E0050757267654D6FD6
:1020600072650050617573656400656E6400436F4E
:102070006E74696E7565004C6F61642046696C61B1
:102080006D656E74205400496E73657274206669C4
:102090006C616D656E7420616E642073656E642082
:1020A0004D3130380A00220A00556E6B6E6F776E24
:1020B00020636F6D6D616E643A2022002045002020
:1020C0005A0020590020204D3932205800537465A1
:1020D00070732070657220756E6974004572726F3E
:1020E000722077726974696E6720746F204545505D
:1020F000524F4D210A00DB0FC93F45BCDA3F8FB379
:102100000240FCF0274056946140FE4B9B4084A562
:10211000D840E0231841346A5641E859974164DBBE
:10212000D5416E271742B4B75542CE1A9742C8AE72
:10213000D542B5885A43D40684BFA65FA7BF74436F
:10214000E0BF10B11AC01C2C58C0E8F697C0B849BF
:10215000D6C04E4E17C124D355C1802497C1A0B517
:10216000D5C1121A17C244AE55C2781797C26CACCB
:10217000D5C267885AC320746F6F206C6F6E67205A
:10218000657874727573696F6E2070726576656EAE
:102190007465640A0020636F6C64206578747275DE
:1021A00073696F6E2070726576656E7465640A007F
:1021B000486F6D65202573257325732046697273FA
:1021C00074006F6B0A00526573656E643A200000FC
:1021D000002200250028002B002E003100340002D0
:1021E000010000050108010B010000210024002767
:1021F000002A002D00300033000101000004010717
:10220000010A01050505050705080808080202027C
:10221000020A0A0808040404040101010101010181
:10222000010303030303030303040707070C0C0C58
:102230000C0C0C0C0C020202020606060606060630
:10224000060B0B0B0B0B0B0B0B01021020200808CD
:102250001020401020408002010201080402010108
:1022600002040810204080804020100804020180F1
:102270000402018040201008040201080402010148
:102280000204081020408001020408102040802031
:10229000453A00205A3A0020593A00583A00706FE7
:1022A0007765726F6666005072696E746572206839
:1022B000616C7465642E206B696C6C2829206361E5
:1022C0006C6C6564210A0000B5A255A911241FBEDB
:1022D000CFEFD1E2DEBFCDBF00E00CBF84B780936B
:1022E0006B1214BE0FB6F894A895809160008861B7
:1022F00080936000109260000FBE13E0A0E0B2E097
:10230000EEE4FFE601E00BBF02C007900D92AC3196
:10231000B107D9F722E1ACE1B3E001C01D92AB36C1
:10232000B207E1F711E1C5E6D1E100E006C021976F
:102330000109802FFE010E9443B4C436D10780E01A
:102340000807A9F70E945CA30C9496B70C940000B0
:10235000CF93DF93C6EFDAE120E030E048E452E4C7
:102360006091330570913405809135059091360563
:102370000E9484B687FF13C080E0FE01C4912091C3
:10238000020190E002C095958795CA95E2F780FD1D
:102390000EC0207120930001DF91CF910895FE01BE
:1023A000949181E001C0880F9A95EAF7E6CF2095D5
:1023B000F0CFFC0190E1ABE1B4E001900D929A9571
:1023C000E1F70895EF92FF920F931F93E092290394
:1023D000F0922A0300932B0310932C0360932D0398
:1023E00070932E0380932F039FEFFF27621B730BC5
:1023F000840B30F4809570956195790B890B992742
:1024000090932803A6E06A9F00921C03512DEE27AB
:102410007A9F500DE11D8A9FE00D50931D03E093BC
:102420001E03AFE06A9F00922003512DEE277A9F92
:10243000500DE11D8A9FE00D50932103E09322038C
:10244000AAE06A9F00922403512DEE277A9F500D37
:10245000E11D8A9FE00D50932503E09326031F9111
:102460000F91FF90EF90089521E030E0082E02C018
:10247000220F331F0A94E2F7209530959091C30301
:1024800029232093C303813051F0823069F05F9A91
:102490008091FB048E7F8093FB0481E008958A9AEB
:1024A0008091FB048D7FF7CF80910801809581702A
:1024B00080930601479A8091FB048B7FECCF9F921B
:1024C000AF92BF92CF92DF92EF92FF920F931F9342
:1024D000CF93DF9300D01F921F92CDB7DEB7E8E114
:1024E000F0E10027BB27462F572FA82FAA2341F43E
:1024F000A52F542FB85FAA2319F4A52F5527B85F2D
:10250000A03138F45295A295452F4F70507FA42BDF
:10251000BC5FA03428F4550FAA1F550FAA1FBE5F39
:10252000A03818F4550FAA1FB395550FAA1FEA0F2C
:10253000F01F449151E0AA27B85079F1C0F0B0FFE4
:1025400002C0440F551FB1FF04C0440F551F440F74
:10255000551FB2FF06C052954295142F1F70407F41
:10256000512BB3FF1AC0A52F542F442716C0B19585
:10257000B0FF02C055954795B1FF04C055954795EA
:1025800055954795B2FF05C05295407F4295452B22
:102590005F70B3FF02C0452F5527DD24CC24BB2438
:1025A000B2E0649FD018C108B00AB00B749FC01885
:1025B000B108B00B849FB018B109659FC018B1086D
:1025C000B00B759FB018B109859FB0196A9FB018FC
:1025D000B1097A9FB0194D9DA12C992433279927D1
:1025E00022275D9DA00C911C301F901F201FAD9DC8
:1025F000900C311D901F201F4C9DA00C911C301F72
:10260000901F201F5C9D900C311D901F201FAC9DC2
:10261000300D911D201F4B9D900C311D901F201FD0
:102620005B9D300D911D201FAB9D900D211D4B9F7B
:10263000300D911D201F5B9F900D211DAB9F200D24
:10264000B1E0BB24CC24DD24639FD018C108B00ABC
:10265000B00B739FC018B108B00B839FB018B109BD
:10266000699FC018B108B00B799FB018B109899F54
:10267000B019629FB018B109729FB019D61AC70A73
:10268000B80A20F0B1E03B0F901F201F1124792FD2
:10269000632F90E0822F0F900F900F900F900F906C
:1026A000DF91CF911F910F91FF90EF90DF90CF902E
:1026B000BF90AF909F900895AF92BF92CF92DF925C
:1026C000EF92FF920F931F93CF93DF93C5EFDAE062
:1026D0000DE515E085E0A82E8BE0B82EC12CD12C9D
:1026E0007601C39469917991899199910E94B2ADD3
:1026F000288939894A895B890E9413AE0E94A7B54F
:10270000F80161937193819391938F01C616D70657
:10271000E806F90610F46B017C01AC16BD0611F752
:102720006FEF7FEFCB01A70196010E94D8B32093F2
:102730006D0530936E0540936F0550937005DF91E2
:10274000CF911F910F91FF90EF90DF90CF90BF90AE
:10275000AF900895CF92DF92EF92FF928091C003E5
:10276000882309F457C0C090BC03D090BD03E0900B
:10277000BE03F090BF0320E030E0A901C701B6011D
:102780000E94AEAD882309F445C020E030E040E06F
:102790005FE3C701B6010E9413AE9B01AC010E942A
:1027A00013AE2BED3FE049E450E40E9413AE9B01D1
:1027B000AC0160E070E080E89FE30E943AB56B01F5
:1027C0007C01C092A303D092A403E092A503F092EF
:1027D000A6036091170270911802072E000C880B57
:1027E000990B0E94B4AD2AE037ED43E25CE30E940E
:1027F00013AEA70196010E9413AE60934802709336
:10280000490280934A0290934B02FF90EF90DF9031
:10281000CF900895C12CD12C80E8E82E8FE3F82EBC
:10282000D0CF80912D0E90912E0E891B8F7019F4B0
:1028300090E080E0089590912A0E992351F0833022
:1028400030F48FEF890F19F080932A0EF1CF109298
:102850002A0E80912E0E27E5829FC00111248C57ED
:102860009A4FFC01208120FDE3CF20912E0E2F5F97
:102870002F7020932B0E30912E0E20912C0E3213A0
:1028800004C020912B0E20932C0E089590916F0080
:1028900081E091FD02C080E0089590916F009D7FDE
:1028A00090936F000895FC017081472F50E0062E31
:1028B00002C0559547950A94E2F740FF14C0409135
:1028C000960350E0062E02C0559547950A94E2F70C
:1028D00040FF09C021E030E001C0220F6A95EAF70D
:1028E0002095272320830895CF93DF9324E0829FB0
:1028F000C0011124EC01CC52D24FFC01E350FB4F3C
:1029000089569C4FDC012D913D914D915C916081E8
:102910007181828193810E945EB4688379838A8306
:102920009B83DF91CF9108958F929F92AF92BF9238
:10293000CF92DF92EF92FF92CF93DF9320911B0211
:10294000222309F48EC0EC0180919603E82E80FFCB
:102950002CC080901D0290901E02A0901F02B0908B
:102960002002288139814A815B81C501B4010E941E
:1029700084B6181624F488829982AA82BB82809039
:10298000290290902A02A0902B02B0902C0228815C
:1029900039814A815B81C501B4010E94AEAD87FFD8
:1029A00004C088829982AA82BB82E1FE2CC08090FA
:1029B000210290902202A0902302B09024022C8148
:1029C0003D814E815F81C501B4010E9484B6181615
:1029D00024F48C829D82AE82BF8280902D029090E2
:1029E0002E02A0902F02B09030022C813D814E81AA
:1029F0005F81C501B4010E94AEAD87FF04C08C8227
:102A00009D82AE82BF82E2FE2CC0C0902502D09093
:102A10002602E0902702F0902802288539854A8511
:102A20005B85C701B6010E9484B6181624F4C886D7
:102A3000D986EA86FB86C0903102D0903202E090BF
:102A40003302F0903402288539854A855B85C701B9
:102A5000B6010E94AEAD87FF04C0C886D986EA865B
:102A6000FB86DF91CF91FF90EF90DF90CF90BF90EA
:102A7000AF909F908F900895CF93DF93DB01F90182
:102A80009C919130C1F0943080F094509C938830A8
:102A9000D1F480819181009771F0019791838083B7
:102AA000480F591FEA01188206C08C3539F49C5F23
:102AB0009C93943041F4DF91CF9108958B3339F793
:102AC00081E08C93F8CF20813181B9016F5F7F4F16
:102AD00071836083420F531FEA0188838081918153
:102AE0008F3591056CF7E7CF0F931F9381E000912D
:102AF0004A0E10914B0E20914C0E30914D0E40918C
:102B0000460E5091470E6091480E7091490E041781
:102B100015072607370708F480E01F910F910895E5
:102B200090E080E0089520916203833021F425FD38
:102B30000CC024FD0CC030E0A90102C0559547959A
:102B40008A95E2F7CA018170089581E0089580E0D6
:102B5000089580917D0384FD0BC080917F0387FDE4
:102B600007C090918003937081E019F480E008958C
:102B700081E008952FEB280F2A3108F047C0E22F9B
:102B8000F0E080917D0390917E03A0917F03B0914E
:102B9000800304C0B695A795979587952A95D2F797
:102BA00080FD02C081700895ED59FC4FE081EE2355
:102BB00041F18091550590915605E80FF92FF11DCF
:102BC000808190ED980F9A3030F08E3251F48181EF
:102BD00080538A3098F4F0935E03E0935D0381E0C4
:102BE00008958D3211F08B3249F4818190ED980F68
:102BF0009A3088F38E3211F48281EACFF0E0E0E07F
:102C0000EACF10925E0310925D03E9CF80E0089551
:102C10000F931F9380910D05813019F50E946687EF
:102C200000918A0310918B0320918C0330918D03C6
:102C3000601B710B820B930B28EE33E040E050E0F9
:102C40000E94D8B3609186037091870380918803B6
:102C500090918903620F731F841F951F1F910F911D
:102C6000089560918E0370918F03809190039091ED
:102C70009103D6CFCF93DF93C0917404D0917504A4
:102C8000209729F160917004709171048091720411
:102C9000909173040E94A2B56E5F7F4F24976C17CA
:102CA0007D07ACF470935704609356040E946687C6
:102CB000605A75418F4F9F4F609358047093590429
:102CC00080935A0490935B04DF91CF910895109202
:102CD00058041092590410925A0410925B04F4CFD5
:102CE0004091C10321E042276CE070E00C94D08356
:102CF0004091C10321E0422764E070E00C94D0834E
:102D00004091C10321E0422761E070E00C94D08340
:102D10004091C10321E0422761E070E00C94D08330
:102D20004091C10321E0422768E070E00C94D08319
:102D30004091C10321E042276CE070E00C94D08305
:102D400041E061E070E00C94D0834091C10321E048
:102D500042270C94D0836CE070E00C94FF8664E012
:102D600070E00C94FF8661E070E00C94FF8661E0F7
:102D700070E00C94FF866CE070E00C94FF860F937B
:102D80001F93CF93DF9309E01BE0C2E7D5E0F80182
:102D900021913191419151918F0160E070E080E883
:102DA0009FE30E943AB56993799389939993F5E0EB
:102DB000C238DF0761F70E948283DF91CF911F91B4
:102DC0000F917ACCBC018CE492E00C94A2838091A8
:102DD0005D0390915E03009731F04AE050E070E0AF
:102DE00060E00C940EAC60E070E0CB01089580913F
:102DF0005D0390915E03009731F04AE050E070E08F
:102E000060E00C94E2AA60E070E0CB010895EFDF8F
:102E1000CB010895ECDF97FD0AC0E9DF6F3F710534
:102E20008105910509F02CF4E2DF862F089580E0FA
:102E300008958FEF089580915D0390915E03892B33
:102E400039F0E8DF91E0811101C090E0892F089509
:102E500091E0FCCFCF93DF9310928804EFE2F5E08E
:102E60001186108610926504109266041092670411
:102E70001092680412862C98CCE6D4E01986188645
:102E8000F9DE1A8680910201807280930001DF9141
:102E9000CF9108958F929F92AF92BF92CF92DF927F
:102EA000EF92FF920F931F93CF93DF93B0E4A0E0D4
:102EB0006A2F70E0AB014B0F511D5595479541119D
:102EC00019C0ECE2FDE165917491072E000C880BAE
:102ED000990B0E94B4ADDF91CF911F910F91FF909C
:102EE000EF90DF90CF90BF90AF909F908F9008951C
:102EF000B42FE0CFA41711F0B41303C0E8E2FEE151
:102F0000E2CF9A0121503109220F331F220F331FC4
:102F1000F901E65DF24EE590F490F901E25DF24EC2
:102F2000C591D4918E159F051CF3A42FC817D907FE
:102F30000CF4BECFF901E45DF24E05911491F90154
:102F4000E05DF24EC590D490BC016E197F09072E4A
:102F5000000C880B990B0E94B4AD4B015C01B601CB
:102F6000601B710B072E000C880B990B0E94B4ADEF
:102F70009B01AC01C501B4010E9413AE4B015C0181
:102F8000BE016E197F09072E000C880B990B0E9459
:102F9000B4AD9B01AC01C501B4010E943AB56B010F
:102FA0007C01B801110F880B990B0E94B4AD9B01F5
:102FB000AC01C701B6010E945EB48DCF80912B0495
:102FC000882339F060913F0E7091400E8091410E40
:102FD000089560E070E080E00895BC0120910C0449
:102FE00030910D0440910C0450910D0424173507C5
:102FF00031F481E02617370709F080E008959A013F
:10300000F1CF0F930FB70F9300916E000F930B7FCB
:1030100000936E0000916F000D7F00936F000F937F
:103020000BB70F930CB70F921F922F933F934F93B1
:103030005F936F937F938F939F93AF93BF93EF9320
:10304000FF93112471D4FF91EF91BF91AF919F91A4
:103050008F917F916F915F914F913F912F911F9031
:103060000F900CBF0F910BBF0F910260F89400936B
:103070006F000F9100936E000F910FBF0F91189585
:103080008091FC0480FF23C089988FEF8093C40354
:103090008091FC0481FF1EC08F988FEF8093C50341
:1030A0008091FC0482FF19C080910B018095827091
:1030B00080930901439A8FEF8093C6038091FC04AB
:1030C00083FF13C016988FEF8093C7030895899AE2
:1030D00081E0DCCF8F9A81E0E1CF80910B0182709B
:1030E00080930901439881E0E7CF169A81E0ECCF05
:1030F0008091C303877F8093C303129A81E0089570
:1031000080E0B2D981E0B0D982E0AED9F1CF129897
:103110008091C30388608093C3030895813079F060
:10312000823079F05F9821E030E001C0220F8A956B
:10313000EAF78091C303822B8093C30308958A9892
:10314000F2CF909108019170909306014798EBCFD0
:10315000CF93DF938091A703811119C0C091190209
:10316000D0911A02219720E030E040E05FE36091C7
:1031700033057091340580913505909136050E9494
:103180005EB40E94A2B521E06C177D070CF020E030
:10319000822FDF91CF9108952F923F924F925F92AD
:1031A0006F927F928F929F92AF92BF92CF92DF9257
:1031B000EF92FF920F931F93CF93DF93CDB7DEB7BC
:1031C0006C970FB6F894DEBF0FBECDBF8C015B01CC
:1031D0005A834983FC01EA5BFF4F208131814281A0
:1031E000538129873A874B875C87CA01B9010E94BE
:1031F000B2AD6B017C01D5012D913D914D915C915A
:103200000E9413AE0E9424B52B013C01E981FA8192
:103210002081318142815381C701B6010E9413AEE2
:103220000E9424B54B015C01C301B2010E94A7B505
:10323000698B7A8B8B8B9C8B683771058105910527
:1032400040F428E730E040E050E0298B3A8B4B8B8C
:103250005C8BC501B4010E94A7B56D877E878F87FF
:10326000988B683771058105910540F448E750E077
:1032700060E070E04D875E876F87788BF801EE5ACB
:10328000FF4F4080518062807380C301B2010E9471
:10329000B4AD69837A838B839C8369897A898B89AE
:1032A0009C890E94B2AD6D8B7E8B8F8B988F20E0B6
:1032B00030E0A90169817A818B819C810E94AEAD49
:1032C000882309F4E1C1A7019601C701B6010E9454
:1032D00013AE4B015C012D893E894F89588DCA017F
:1032E000B9010E9413AE9B01AC01C501B4010E945B
:1032F0005DB44B015C0129813A814B815C81CA013B
:10330000B9010E945EB49B01AC01C501B4010E94E9
:103310003AB50E9424B50E94A7B56D837E838F8342
:10332000988766277727CB0164197509860997095D
:103330000E94B4AD4B015C016D857E858F859889B7
:103340000E94B2AD2B013C0120E030E0A901C50193
:10335000B4010E94AEAD882309F49AC1A301920181
:10336000C301B2010E9413AE698F7A8F8B8F9C8F3D
:10337000A7019601C701B6010E9413AE9B01AC01E3
:10338000698D7A8D8B8D9C8D0E945DB46B017C0163
:10339000A5019401C501B4010E945EB49B01AC017A
:1033A000C701B6010E943AB50E94D3B5D8019596DF
:1033B0008D909D90AD90BC909897750164012D8182
:1033C0003E814F815885C21AD30AE40AF50A0E9449
:1033D000A7B5C61AD70AE80AF90AF7FE8EC02D89E2
:1033E0003E894F89588DCA01B9010E9413AE6B0105
:1033F0007C0129813A814B815C81CA01B9010E941B
:103400005EB469877A878B879C8720E030E0A901CA
:1034100069817A818B819C810E94AEAD882309F4F9
:103420003BC1C501B4010E94B2AD29853A854B85E7
:103430005C850E9413AEA70196010E945DB46D8366
:103440007E838F839887A3019201C301B2010E94FA
:1034500013AE9B01AC016D817E818F8198850E94A6
:103460005EB42B013C0120E030E040E850E469818B
:103470007A818B819C810E9413AE9B01AC01C301B8
:10348000B2010E943AB50E9424B52B013C0120E014
:1034900030E0A9010E9484B618161CF0412C512C72
:1034A0003201C301B2010E94A7B56D837E838F8371
:1034B000988786169706A806B90620F48D829E8204
:1034C000AF82B8866D817E818F8198850E94B2AD72
:1034D00029853A854B855C850E9413AEA70196012C
:1034E0000E945EB40E94CAB60E94A7B569877A8717
:1034F0008B879C87C12CD12C760169857A858B8539
:103500009C8529893A894B895C89621B730B840BE2
:10351000950B0E94B2AD29813A814B815C810E945A
:103520003AB520E034E244EF59E40E9413AE0E9421
:10353000A7B54B015C0169857A858B859C852D85B6
:103540003E854F855889621B730B840B950B0E9437
:10355000B2AD29813A814B815C810E943AB520E06D
:1035600034E244EF59E40E9413AE0E94A7B52B0148
:103570003C013FE683169104A104B10408F090C019
:10358000F401EE0FFF1FEE0FFF1FE45AF14F85917C
:103590009591A591B4918983292E3A2EBD8B4FE642
:1035A000441651046104710408F083C0F201EE0F67
:1035B000FF1FEE0FFF1FE45AF14F459155916591A2
:1035C00074919A01CB014D815E816F817885D8011C
:1035D00099964D935D936D937C939C974C0D5D1DD7
:1035E0006E1D7F1DF80145A756A767A770ABE65B68
:1035F000FF4F49895A896B897C8940835183628353
:103600007383D5968D929D92AD92BC92D897F80116
:1036100041AE52AE63AE74AEFD96498140832182C5
:1036200032825D89538334962083318382839383EE
:1036300069857A858B859C85D1966D937D938D93D5
:103640009C93D4973D962D853E854F855889208340
:103650003183428353836C960FB6F894DEBF0FBE5E
:10366000CDBFDF91CF911F910F91FF90EF90DF9031
:10367000CF90BF90AF909F908F907F906F905F9012
:103680004F903F902F90089560E070E0CB0141CEC5
:1036900060E070E0CB0188CE60E070E0CB01F3CE5B
:1036A000C501B4010E945F126983272E382E9D8BBD
:1036B00076CFC301B2010E945F129B0184CFEFE677
:1036C000F0E08081826080830895CF93C82FDED898
:1036D00094E0C99F90011124F901E15FFB4F255E41
:1036E0003B4FD9014D915D916D917C914083518308
:1036F0006283738391E090930E04882311F0CF913D
:10370000DECFCF910895CF92DF92EF92FF92CF93C9
:10371000DF93C82FBBD894E0C99FE0011124FE01BC
:10372000E55EFB4FC080D180E280F3808111C7DF6E
:10373000CE58DA4FC701B6010E94B4AD2881398155
:103740004A815B810E9413AEDF91CF91FF90EF9091
:10375000DF90CF900895CF92DF92EF92FF92CF93B8
:10376000DF93C82F93D894E0C99FE0011124FE0194
:10377000E15FFB4FC080D180E280F38081119FDF49
:10378000CE58DA4FC701B6010E94B4AD2881398105
:103790004A815B810E9413AEDF91CF91FF90EF9041
:1037A000DF90CF90089572D890912E0E90932D0EA9
:1037B00090932C0E90932B0E94E690932A0E20ED6E
:1037C00033E03093830520938205811178DF81E017
:1037D00080930E040895CF93DF931F92CDB7DEB789
:1037E000898360E0CE0101965ED861E0CE0101964A
:1037F0005AD862E0CE01019656D889810F90DF91A8
:10380000CF910895CF93DF9380E07DDFCDE3DBE0C0
:10381000688379838A839B8381E075DF6C837D83F2
:103820008E839F8382E06FDF688779878A879B8793
:10383000DF91CF9108950C948283CF93DF93809191
:10384000950365995BC08160809395039091030116
:103850008091950391FD54C082608093950380917F
:1038600095034B994FC08460809395038091950395
:1038700090919403981709F447C092E090939303B2
:10388000809394038091FA04882309F44AC0C0917C
:10389000FF03C0FF0FC08091FC0480FF0BC080912C
:1038A000920380FF07C080910B05816080930B0518
:1038B00080E00BDFC1FF0FC08091FC0481FF0BC0D3
:1038C0008091920381FF07C080910B0582608093F5
:1038D0000B0581E0FADEC2FF24C08091FC0482FF68
:1038E00020C08091920382FF1CC080910B058460F0
:1038F00080930B0582E0DF91CF91E7CE8E7FA4CF3E
:103900008D7FABCF8B7FB0CF80919303882309F459
:10391000B9CF8150809393038111B4CF90939203D8
:10392000B1CFDF91CF9108952F923F924F925F9246
:103930006F927F928F929F92AF92BF92CF92DF92BF
:10394000EF92FF920F931F93CF93DF93CDB7DEB724
:1039500067970FB6F894DEBF0FBECDBF8FEF9FEF16
:1039600090938900809388000AE00A83312C212CEF
:1039700078948091080490910904A0910A04B09170
:103980000B04892B8A2B8B2B09F0E6C180910E0446
:103990008823D1F080910C0490910D0410920E04B4
:1039A000892B91F010920D0410920C041092FF03D9
:1039B00090912D0E80912E0E981731F080912E0E41
:1039C0008F5F8F7080932E0E80910C0490910D0468
:1039D000892B09F4C1C14091040450910504609100
:1039E0000604709107048091000490910104A09155
:1039F0000204B09103040091F50310E030E020E0F0
:103A0000841B950BA60BB70B081719072A073B0752
:103A100010F4D901C8018983840F951FA61FB71F11
:103A20008093040490930504A0930604B0930704C4
:103A30001F8A1E8AE1E0C090CC03D090CD03E090B5
:103A4000CE03F090CF038091DC039091DD03A09131
:103A5000DE03B091DF03C80ED91EEA1EFB1EC09222
:103A6000DC03D092DD03E092DE03F092DF03F7FC8B
:103A700033C04091C403042E000C550B660B770B2A
:103A800080911B0490911C04A0911D04B0911E0410
:103A9000840F951FA61FB71F80931B0490931C04CF
:103AA000A0931D04B0931E048091C8039091C90394
:103AB000A091CA03B091CB03A7019601281B390B33
:103AC0004A0B5B0BDA01C9018093DC039093DD03A1
:103AD000A093DE03B093DF030091D0031091D103D4
:103AE0002091D2033091D3038091E0039091E103C0
:103AF000A091E203B091E303080F191F2A1F3B1F97
:103B00000093E0031093E1032093E2033093E30377
:103B100037FD33C04091C503042E000C550B660BD6
:103B2000770B80911F0490912004A0912104B09103
:103B30002204840F951FA61FB71F80931F04909324
:103B40002004A0932104B09322048091C803909193
:103B5000C903A091CA03B091CB03B901A801481BC6
:103B6000590B6A0B7B0BDB01CA018093E003909336
:103B7000E103A093E203B093E3034091D403509197
:103B8000D5036091D6037091D7038091E40390919F
:103B9000E503A091E603B091E703480F591F6A1FA0
:103BA0007B1F4093E4035093E5036093E603709317
:103BB000E70377FD33C08090C603082C000C9908FA
:103BC000AA08BB088091230490912404A0912504A5
:103BD000B0912604880D991DAA1DBB1D8093230456
:103BE00090932404A0932504B09326048091C803E5
:103BF0009091C903A091CA03B091CB032A013B0164
:103C0000481A590A6A0A7B0AD301C2018093E40365
:103C10009093E503A093E603B093E7038090D80365
:103C20009090D903A090DA03B090DB038091E80371
:103C30009091E903A091EA03B091EB03880D991DDF
:103C4000AA1DBB1D8093E8039093E903A093EA03A8
:103C5000B093EB03B7FD33C04090C703042C000CB6
:103C60005508660877088090270490902804A09053
:103C70002904B0902A04840C951CA61CB71C8092C1
:103C8000270490922804A0922904B0922A048090DC
:103C9000C8039090C903A090CA03B090CB032C0135
:103CA0003D01481859086A087B0853014201809277
:103CB000E8039092E903A092EA03B092EB03E111CA
:103CC0000DC0E0918400F09185004F016E887F88DF
:103CD00086189708E2E08E16910498F3F7FE889A0A
:103CE00037FF8E9A77FD07C0F0910B01F095F870C1
:103CF000F0930901419AB7FF149A409084005090C4
:103D000085005F8A4E8AA0908400B09085006E88FE
:103D10007F88A618B708E2E0AE16B104A0F3F7FE5C
:103D2000889837FF8E9877FD06C020910B01287088
:103D3000209309014198B7FF1498F981FF2331F0CE
:103D400040908400509085005F8A4E8A098101501E
:103D50000983E0E001116FCE80910804909109047D
:103D6000A0910A04B0910B04892B8A2B8B2B09F0AC
:103D70000AC740900C0450900D045D8A4C8A452877
:103D800009F473C78091040490910504A09106047E
:103D9000B091070440910004509101046091020425
:103DA0007091030484179507A607B70708F44AC063
:103DB00010920D0410920C041092FF0390912D0E9E
:103DC00080912E0E981709F450C780912E0E8F5FA8
:103DD0008F7080932E0E10EDC12E17E0D12EE12CA6
:103DE000F12C80910C0490910D04892B09F0C3C62D
:103DF0000E94111490930D0480930C04892B09F4F4
:103E0000BAC640900C0450900D045D8A4C8AD201D1
:103E10008C9183FF24C5C20145960E94D91110924E
:103E20000D0410920C041092FF0390912D0E8091BE
:103E30002E0E9817E9F280912E0E8F5F8F7080936F
:103E40002E0ED6CF4091FB035091FC036091FD03F1
:103E50007091FE03481759076A077B0708F417C2D9
:103E60004091F7035091F8036091F9037091FA03C0
:103E7000EC89FD8985A996A9A7A9B0AD481759076E
:103E80006A077B0708F0D9C1411551056105710525
:103E900009F06FC080902D0390902E03A0902F0307
:103EA000B09030038091F60304C0880C991CAA1CC2
:103EB000BB1C8A95D2F78CEC9AE1A1E0FC0105913C
:103EC000159125913491081519052A053B0558F4DB
:103ED000B694A79497948794AA0F0496E8EEFAE113
:103EE000E817F90759F7A093F503F0E28F1691044C
:103EF000A104B10428F4A0E28A2E912CA12CB12CAB
:103F000000E2801A9108A108B108811428E0920605
:103F1000A104B10408F49AC134E0939EC0011124B5
:103F20008453994EFC01329625913491A82DEE27A9
:103F3000A39F8001A29F010D1E1F06940E1F1E1F2E
:103F4000112430E020E0FC01C590D490F12CE12C4C
:103F5000C01AD10AE20AF30A4C0D5D1D6E1D7F1DC9
:103F60004093F7035093F8036093F9037093FA03B7
:103F700038CF10E0942F852E862FBD81AE81FF8132
:103F8000E88539852A854B805C80E0912903E99F8B
:103F9000A12DFF2730912A03399FA00DF11D10900C
:103FA0002B03199EF00DE89DA00DF11D389DF00D1D
:103FB000E89FF00D5A2EBF2F5A9EE12D332722275E
:103FC0005F9EE00D311D211FBA9FE00D311D211FA5
:103FD000BF9F300D211D532EB22F5A9E412C3327E7
:103FE00022275F9E400C311D211FBA9F400C311DBE
:103FF000211FBF9F300D211D532EB22FEE27909110
:104000002D0380902E0380912F0300902803012A16
:1040100009F483C030912403359DE119910B810A85
:10402000810B20912503259DE0199109810A810BBF
:1040300040902603459C90198108810B3B9FE01915
:104040009109810A810B2B9F90198108810B4B9E4E
:10405000801881095A9E412C332722275F9E400CED
:10406000311D211FBA9F400C311D211FBF9F300DF4
:10407000211D532EB22F30912003359DE10D911F4C
:10408000811E811F20912103259DE00D911D811E20
:10409000811F40902203459C900D811C811F3B9FF6
:1040A000E00D911D811E811F2B9F900D811C811F92
:1040B0004B9E800C811D5A9E412C332722275F9EE8
:1040C000400C311D211FBA9F400C311D211FBF9F85
:1040D000300D211D532EB22F30911C03359DE11957
:1040E000910B810A810B20911D03259DE0199109F7
:1040F000810A810B40901E03459C90198108810B19
:104100003B9FE0199109810A810B2B9F901981082F
:10411000810B4B9E8018810982C030912403359D0C
:10412000E10D911F811E811F20912503259DE00D2A
:10413000911D811E811F40902603459C900D811C7E
:10414000811F3B9FE00D911D811E811F2B9F900DB4
:10415000811C811F4B9E800C811D5A9E412C332750
:1041600022275F9E400C311D211FBA9F400C311D3C
:10417000211FBF9F300D211D532EB22F30912003E0
:10418000359DE119910B810A810B20912103259D19
:10419000E0199109810A810B40902203459C9019F6
:1041A0008108810B3B9FE0199109810A810B2B9FAC
:1041B00090198108810B4B9E801881095A9E412CD1
:1041C000332722275F9E400C311D211FBA9F400CD0
:1041D000311D211FBF9F300D211D532EB22F309155
:1041E0001C03359DE10D911F811E811F20911D0330
:1041F000259DE00D911D811E811F40901E03459C51
:10420000900D811C811F3B9FE00D911D811E811F20
:104210002B9F900D811C811F4B9E800C811D1124B2
:104220005C824B82BD83AE83FF83E88739872A8710
:10423000982C892EB12CA82E35CEAC89BD89D1966B
:104240008D909D90AD90BC90D4972CCED501C4019B
:10425000B695A795979587958C7F84539D4EFC01C5
:10426000C590D490FC01329625913491B82DB77049
:10427000B29FC001B39F900D1124F3E096958795EE
:10428000FA95E1F7C81AD90AF12CE12C65CE4091D4
:10429000F1035091F2036091F3037091F403481716
:1042A00059076A077B0708F039C28090EC039090A9
:1042B000ED03A090EE03B090EF038091F003EC8942
:1042C000FD89811185C0EF5BFF4FE080F1800281A5
:1042D0001381EC89FD89E25BFF4F208131814281AE
:1042E0005381EC89FD8961A972A983A994A90E94CF
:1042F000E211F1E0F093F003AC89BD89D1964D91C4
:104300005D916D917C91D4978091F60304C0440F28
:10431000551F661F771F8A95D2F78CEC9AE1A1E0B2
:10432000FC01059115912591349104171507260775
:10433000370758F47695679557954795AA0F0496D1
:10434000E8EEFAE1E817F90759F7A093F5034032D0
:1043500051056105710520F440E250E060E070E035
:1043600040525109610971094115F8E05F07610583
:10437000710508F4B3C104E0509FC00111248453B7
:10438000994EFC01329625913491AA27439FF00162
:10439000429FE10DFA1F0694EA1FFA1F1124AF0194
:1043A00070E060E0FC01C590D490F12CE12CC41ABF
:1043B000D50AE60AF70A8C0C9D1CAE1CBF1C809225
:1043C000EC039092ED03A092EE03B092EF0309CDBF
:1043D00081AD92ADA3ADB4AD88169906AA06BB0611
:1043E00008F072C181149104A104B10449F4409110
:1043F0002D0350912E0360912F037091300384CFD1
:10440000A0E0FB85982D492D8A2DEC857D856E8554
:10441000BF85588939892A8950912903599F612D6F
:10442000BB2730912A03399F600DB11D10902B03DB
:10443000199EB00D549F600DB11D349FB00D589F53
:10444000B00DE62F7B2FE69F512D33272227EB9FC0
:10445000500D311D2A1F769F500D311D2A1F7B9F45
:10446000300D211DE32F722FE69FF12D33272227D8
:10447000EB9FF00D311D2A1F769FF00D311D2A1F75
:104480007B9F300D211DE32F722F552790912D0317
:1044900040912E0380912F03009028030A2A09F4EB
:1044A00083C0309124033E9F51199A0B4A0B8A0B0B
:1044B000209125032E9F501991094A0B8A0BF091E8
:1044C0002603FE9F901941098A0B379F50199109C5
:1044D0004A0B8A0B279F901941098A0BF79F4019B5
:1044E0008109E69FF12D33272227EB9FF00D311D27
:1044F0002A1F769FF00D311D2A1F7B9F300D211D35
:10450000E32F722F309120033E9F510D9A1F4A1FB7
:104510008A1F209121032E9F500D911D4A1F8A1F33
:10452000F0912203FE9F900D411D8A1F379F500D71
:10453000911D4A1F8A1F279F900D411D8A1FF79FBB
:10454000400D811DE69FF12D33272227EB9FF00DB3
:10455000311D2A1F769FF00D311D2A1F7B9F300DC4
:10456000211DE32F722F30911C033E9F51199A0B8E
:104570004A0B8A0B20911D032E9F501991094A0B5B
:104580008A0BF0911E03FE9F901941098A0B379FF9
:10459000501991094A0B8A0B279F901941098A0BE0
:1045A000F79F4019810982C0309124033E9F510D2D
:1045B0009A1F4A1F8A1F209125032E9F500D911D7F
:1045C0004A1F8A1FF0912603FE9F900D411D8A1FEE
:1045D000379F500D911D4A1F8A1F279F900D411D27
:1045E0008A1FF79F400D811DE69FF12D332722275B
:1045F000EB9FF00D311D2A1F769FF00D311D2A1FF4
:104600007B9F300D211DE32F722F309120033E9FA1
:1046100051199A0B4A0B8A0B209121032E9F501996
:1046200091094A0B8A0BF0912203FE9F90194109D0
:104630008A0B379F501991094A0B8A0B279F9019B3
:1046400041098A0BF79F40198109E69FF12D332715
:104650002227EB9FF00D311D2A1F769FF00D311D93
:104660002A1F7B9F300D211DE32F722F30911C03D9
:104670003E9F510D9A1F4A1F8A1F20911D032E9F96
:10468000500D911D4A1F8A1FF0911E03FE9F900D31
:10469000411D8A1F379F500D911D4A1F8A1F279F5A
:1046A000900D411D8A1FF79F400D811D1124FB872E
:1046B000EC877D876E87BF87588B398B2A8B542F69
:1046C000492F70E0682F20CE2C893D89225B3F4F17
:1046D000D9014D915D916D917C9116CEDB01CA019E
:1046E000B695A795979587958C7F84539D4EFC0131
:1046F000C590D490FC013296259134914770429F29
:10470000C001439F900D112423E0969587952A952B
:10471000E1F7C81AD90AF12CE12C4DCE809135026F
:1047200090913602A0913702B0913802B7FF6BC06A
:104730002C893D892A5B3F4F8091F603D901CD90AA
:10474000DD90ED90FC9004C0CC0CDD1CEE1CFF1C39
:104750008A95D2F78CEC9AE121E0FC0145915591C4
:10476000659174914C155D056E057F0558F4F694BE
:10477000E794D794C794220F0496E8EEFAE1E8177D
:10478000F90759F72093F503F0E2CF16D104E104BD
:10479000F10428F4B0E2CB2ED12CE12CF12C00E274
:1047A000C01AD108E108F108C11428E0D206E104DA
:1047B000F10408F431C034E0D39EC00111248453C5
:1047C000994EFC013296259134917C2D6627739F7A
:1047D000A001729F410D561F0694461F561F1124BB
:1047E00070E060E0FC0185919491B0E0A0E0841B52
:1047F000950BA60BB70B8093350290933602A093CE
:104800003702B0933802C0903502D0903602E09063
:104810003702F0903802E5CAD701C601B695A795D0
:10482000979587958C7F84539D4EFC0125913491FB
:10483000FC013296459154918C2D8770C82EC49EF0
:10484000C001C59E900D1124A3E096958795AA9569
:10485000E1F7281B390BC901B0E0A0E0CCCFEC890F
:10486000FD8985889688A788B08C81E081149104A1
:10487000A104B10409F480E0AC89BD8959960D9179
:104880001D912D913C915C97011511052105310574
:1048900009F08260EC89FD89458D568D678D70A188
:1048A000411551056105710509F084608093FF038E
:1048B0001092EC031092ED031092EE031092EF03AE
:1048C0001092F7031092F8031092F9031092FA0372
:1048D000EC89FD89EA5BFF4F80819181A281B381E0
:1048E000F12C8C31F8E19F07A105B10560F4880F28
:1048F000991FAA1FBB1F8C31E8E19E07A105B105D6
:1049000080F7F394EECFF092F603CF2CEC89FD897B
:1049100085A196A1A7A1B0A50F2C04C0880F991F4F
:10492000AA1FBB1F0A94D2F780930004909301043E
:10493000A0930204B0930304442455243201481A7E
:10494000590A6A0A7B0A4092DC035092DD036092A6
:10495000DE037092DF034092E0035092E103609225
:10496000E2037092E3034092E4035092E503609205
:10497000E6037092E70341A052A063A074A0440C28
:10498000551C661C771C880C991CAA1CBB1C8092A9
:10499000CC039092CD03A092CE03B092CF03000F30
:1049A000111F221F331F0093D0031093D1032093B4
:1049B000D2033093D303440F551F661F771F4093D4
:1049C000D4035093D5036093D6037093D7034092DA
:1049D000D8035092D9036092DA037092DB03880FF8
:1049E000991FAA1FBB1F8093C8039093C903A0936C
:1049F000CA03B093CB0310920404109205041092E2
:104A000006041092070481A592A5A3A5B4A50F2CB6
:104A100004C0880F991FAA1FBB1F0A94D2F7809366
:104A2000FB039093FC03A093FD03B093FE0385A5C5
:104A300096A5A7A5B0A904C0880F991FAA1FBB1FE0
:104A4000FA94D2F78093F1039093F203A093F303C7
:104A5000B093F403EB5BFF4F80819091FC048917C6
:104A600021F08093FC040E9440180E941D1C4424E5
:104A70004A94542C32014092350250923602609290
:104A8000370270923802EC89FD89FD96E080F18052
:104A900002811381AC89BD89D1962D913D914D91B3
:104AA0005C91D497A65BBF4FBD8BAC8B6D917D9114
:104AB0008D919C910E94E2111092F003EC89FD8986
:104AC000408151816281738104C0440F551F661F6C
:104AD000771FCA94D2F78CEC9AE1A1E0FC01059112
:104AE000159125913491041715072607370768F4A7
:104AF0007695679557954795AA0F0496F8EE4F2E31
:104B0000FAE15F2E4816590649F7A093F5034032A3
:104B100051056105710520F440E250E060E070E06D
:104B20004052510961097109411508E050076105BA
:104B3000710508F478C024E0529FC0011124845309
:104B4000994EFC01329625913491AA27439FF0019A
:104B5000429FE10DFA1F0694EA1FFA1F1124AF01CC
:104B600070E060E0FC01C590D490F12CE12CC41AF7
:104B7000D50AE60AF70AC0920804D0920904E09226
:104B80000A04F0920B048091080490910904A0910A
:104B90000A04B0910B04AC01BD01009731E0A307FA
:104BA000B10520F04FEF5FEF60E070E0841B950BE4
:104BB000A60BB70B8093080490930904A0930A04F2
:104BC000B0930B04F89480918400909185004096F6
:104BD000AA81A150AA83AA2309F445C0240E351E38
:104BE0002816390610F40C94B81C309289002092D3
:104BF0008800789467960FB6F894DEBF0FBECDBFDD
:104C0000DF91CF911F910F91FF90EF90DF90CF90A8
:104C1000BF90AF909F908F907F906F905F904F90DC
:104C20003F902F900895DB01CA01B695A7959795FF
:104C300087958C7F84539D4EFC01C590D490FC01D8
:104C40003296259134914770429FC001439F900D49
:104C5000112433E0969587953A95E1F7C81AD90A59
:104C6000F12CE12C88CF1C01C0CF80EDC82E87E04D
:104C7000D82EE12CF12CBCC880910B05882319F0AB
:104C800010920B05089560E08DE89DE00E94408140
:104C900010920D0510928A0310928B0310928C03D0
:104CA00010928D0310928E0310928F031092900336
:104CB000109291031092860310928703109288033A
:104CC00010928903089580910D058130E9F08230BA
:104CD000C9F40E940816609386037093870380933B
:104CE00088039093890381E080930D050E94668775
:104CF00060938A0370938B0380938C0390938D034E
:104D000081E00895C5DFEFCF80E0089580910D0523
:104D10008150823070F410920D050E946687609376
:104D20008E0370938F03809390039093910381E09F
:104D3000089580E008958F929F92AF92BF92CF9294
:104D4000DF92EF92FF920F931F93CF93DF93109216
:104D50008203109281032FE3209385031092840332
:104D60001092830310927D0310927E0310927F03B2
:104D7000109280039C01F90190812F5F3F4F903288
:104D8000D1F39E34C9F4818190ED980F9A3020F0D0
:104D90008D3211F08B3281F432969F012F5F3F4F9D
:104DA000808180538A3008F46BC09F012F5F3F4F92
:104DB0008081803209F466C0F0935605E093550572
:104DC0008F010F5F1F4FC0816AE270E0C8010E942F
:104DD0005CB7009731F0FC01319780818032E1F3BC
:104DE0001182CD3421F0C43511F0C734E1F5F8015A
:104DF00080810F5F1F4F8032D1F380538A3098F546
:104E0000C093850330E020E06AE0AF014F5F5F4F61
:104E1000629FC001639F900D11249C0120533109B2
:104E20008081280F311D87FD3A95FA0180818053DA
:104E30008A3058F33093840320938303DF01319643
:104E40008C918032D9F3CD3449F52E31310539F0CA
:104E5000D8F42731310519F02C313105F9F4B0932C
:104E60008203A0938103DF91CF911F910F91FF9057
:104E7000EF90DF90CF90BF90AF909F908F9008956C
:104E8000F9018BCFF90191CF2537310538F027375C
:104E9000310528F3203A83E0380709F3D09155050E
:104EA00040E050E0BA0110E000E0C12CD12C7601C6
:104EB000C394FD0131968C91882309F47FC081321F
:104EC000E1F4CD34D1F420323105B9F440937D03BF
:104ED00050937E0360937F0370938003F09382036B
:104EE000E093810363E270E0CF010E945CB700971A
:104EF00009F4B9CFFC011082B6CF81548A3108F091
:104F000058C0DF019D91903291F0A0EDA90FAA3019
:104F1000E8F09E3271F4918190539A30B8F0011507
:104F2000110519F48F010150110990E013C0FD0122
:104F3000E8CF9D3211F09B3291F79181A0EDA90F3E
:104F4000AA3020F09E3259F79281E6CF9E2F9D1B0A
:104F5000309759F3A82FB0E04601570104C0880CE0
:104F6000991CAA1CBB1C8A95D2F7482959296A2981
:104F70007B29AD59BC4F9C9380818154DF018A31DC
:104F800008F497CFDF018191882309F492CF90ED47
:104F9000980F9A30B8F393ED980F923098F38B32C4
:104FA00089F3CD010196EC91E03209F082CFDC016A
:104FB000F8CF0115110501F78D01DECF10938203A3
:104FC0000093810340937D0350937E0360937F039E
:104FD0007093800348CF0F931F93CF9380915D030D
:104FE00090915E030097E9F0FC018F01C1912C2F95
:104FF0002F7D81F0C53411F0C536B9F7F801108264
:1050000070E060E00E948CA9F801C083CF911F91ED
:105010000F91089570E060E0CF911F910F910C9473
:105020008CA960E070E0CB01F1CF0E94BA15882313
:1050300041F081E020915D0330915E03232B09F460
:1050400080E008958F929F92AF92BF92CF92DF92AD
:10505000EF92FF920F931F93CF938FE0E82E85E09E
:10506000F82E0CE412E094EDC92E9DE0D92EC0E09C
:1050700088E58C0FDADF882309F474C0ACDF4B01BC
:105080005C018C2F0E949315882309F461C0F801FC
:105090002081318142815381C501B4010E945EB4F7
:1050A000F7016083718382839383CF5FF4E0EF0E17
:1050B000F11C0C5F1F4F84E0C80ED11CC330C1F639
:1050C00085E4B3DF882309F458C085DF6B017C01D8
:1050D00083E00E949315882371F02091580230914B
:1050E000590240915A0250915B02C701B6010E94D9
:1050F0005EB46B017C01C0921B05D0921C05E0924E
:105100001D05F0921E0586E40E943E8420E030E0FA
:10511000A9010E9484B618167CF45DDF20E030E01F
:1051200040E752E40E943AB5609313027093140270
:105130008093150290931602CF911F910F91FF90CB
:10514000EF90DF90CF90BF90AF909F908F90089599
:10515000F6012081318142815381C501B4010E9451
:105160005DB49ECFF80180819181A281B381F70166
:1051700080839183A283B38398CF809158029091CA
:105180005902A0915A02B0915B0280931B05909343
:105190001C05A0931D05B0931E05B5CFCF93DF93DB
:1051A000EB0143DF882321F0DF91CF910C940717A7
:1051B000CE01DF91CF910895CF93DF93C82FD62FE3
:1051C00034DF882321F0DF91CF910C941B178C2FB3
:1051D0000E94BA15811101C08D2FDF91CF910895E2
:1051E000CF93DF93C0913705D0913805209729F1EF
:1051F00060913305709134058091350590913605A5
:105200000E94A2B56E5F7F4F26976C177D07ACF4A6
:1052100070936404609363040E946687605E714BC0
:105220008F4F9F4F6093650470936604809367046B
:1052300090936804DF91CF910895109265041092C5
:1052400066041092670410926804F4CF843021E061
:10525000920714F084E091E090933805809337052D
:10526000BFCFCF93DF93EC01688170E085E00E94AF
:10527000F685698170E084E00E94F6856A8170E0BD
:1052800086E00E94F68588819981482F490F55272D
:10529000551F8A81840F952F911D21E08330910540
:1052A0000CF420E020932B0403976CF05EE0CF33E6
:1052B000D50749F088819981AA8180933F0E909308
:1052C000400EA093410EDF91CF9108958F929F924F
:1052D000AF92BF92CF92DF92EF92FF92CF93DF9384
:1052E00000D0CDB7DEB72FEF8417950731F16A01F3
:1052F000052E000CEE08FF084C01092E000CAA0830
:10530000BB08681779072CF0CB01461757070CF438
:10531000CA019C01990F440B550B281939094A09F8
:105320005B09AFEFB0E00E9416B4A70196012819FF
:1053300039094A095B090E94FAB3809183048217F4
:1053400051F0209383048FEF89831A8220952B8359
:10535000CE01019686DF0F900F900F90DF91CF91D5
:10536000FF90EF90DF90CF90BF90AF909F908F9085
:1053700008958F929F92AF92BF92CF92DF92EF9259
:10538000FF92CF93DF9300D0CDB7DEB72FEF841716
:10539000950731F16A01052E000CEE08FF084C015B
:1053A000092E000CAA08BB08681779072CF0CB015E
:1053B000461757070CF4CA019C01990F440B550B73
:1053C000281939094A095B09AFEFB0E00E9416B409
:1053D000A7019601281939094A095B090E94FAB305
:1053E00080918304821749F02093830429831A82D1
:1053F0008FEF8B83CE01019634DF0F900F900F90CB
:10540000DF91CF91FF90EF90DF90CF90BF90AF9062
:105410009F908F90089590914E0E94FB882780F96D
:1054200094FF06C081E09091E50D911101C080E0EC
:10543000089581E008959091C00095FFFCCF80937E
:10544000C6000895CF93DF93EC01FE01849121966D
:10545000882311F0F0DFF9CFDF91CF9108950F93FA
:105460001F93CF938C01C62F85EF98E0EBDFC80127
:10547000E9DF8AE3E0DF80E38C0FDDDF8AE0CF91B4
:105480001F910F91D8CFCF92DF92EF92FF926A01D6
:105490007B01D8DFC701B6010E94E2818AE0FF905C
:1054A000EF90DF90CF90C7CFCF92DF92EF92FF9235
:1054B000CF93DF93EC01C880D980EA80FB808CEE2B
:1054C0009AE1C0DFC701B6010E94E281CC80DD8095
:1054D000EE80FF8087E992E2B5DFC701B6010E9446
:1054E000E281488559856A857B8583E992E2DF916F
:1054F000CF91FF90EF90DF90CF90C5CFCF93DF9308
:10550000CDB7DEB72C970FB6F894DEBF0FBECDBF78
:105510000E94FC810E9446149CE0EBE1F4E0DE0175
:10552000119601900D929A95E1F781110E945F1BEF
:10553000CE010196B9DF2C960FB6F894DEBF0FBEF0
:10554000CDBFDF91CF9108952F923F924F925F92FE
:105550006F927F928F929F92AF92BF92CF92DF9283
:10556000EF92FF920F931F93CF93DF9300D0CDB7AD
:10557000DEB780904C0290904D02A0904E02B09009
:105580004F02409050025090510260905202709031
:105590005302C0905402D0905502E0905602F09011
:1055A00057020E945C130E94AA1304E211E18DE1EC
:1055B00092E09B838A8388E1282E81E1382E19822C
:1055C00089810E947414F80185919591A591B491F7
:1055D000EA81FB8181939193A193B193FB83EA8349
:1055E000F10185919591A591B491EA81FB81808724
:1055F0009187A287B387F981FF5FF9830C5F1F4F03
:1056000084E0280E311CF330D9F60E94BF16A501A4
:10561000940160914C0270914D0280914E029091E4
:105620004F020E94AEAD81111CC0A3019201609196
:1056300050027091510280915202909153020E9447
:10564000AEAD81110EC020915402309155024091AF
:10565000560250915702C701B6010E94AEAD882391
:10566000B1F00F900F900F90DF91CF911F910F919C
:10567000FF90EF90DF90CF90BF90AF909F908F9072
:105680007F906F905F904F903F902F9037CF0F900B
:105690000F900F90DF91CF911F910F91FF90EF909E
:1056A000DF90CF90BF90AF909F908F907F906F9042
:1056B0005F904F903F902F900895E091330C81E6DA
:1056C000E89FF0011124EB56F34F8081811105C052
:1056D00085E19FE1B7DE8AE0AECE0895CF92DF92FA
:1056E000EF92FF926A017B01ADDE44E0C701B60193
:1056F000FF90EF90DF90CF900C941F98EFDF8AE03F
:105700009ACECF93DF9362EB78E00E940684CDEFD0
:10571000D4E0488159816A817B8189EA98E0DEDFA3
:105720004C815D816E817F8182EC90E2D7DF48857C
:1057300059856A857B858FEB90E2DF91CF91DECF33
:10574000CF93DF9366E276E00E940684CCE6D4E055
:105750004B855C856D857E858DE196E0BFDF2CEA0B
:1057600035EC47E25EE36F85788989899A890E94E2
:105770003AB5AB01BC018AE196E0B0DF2CEA35EC2A
:1057800047E25EE36B897C898D899E890E9413AE16
:10579000AB01BC0187E196E0DF91CF91AFCF68EA22
:1057A00075E00E9406846091050B7091060B809154
:1057B000070B9091080B0E94B2ADAB01BC018FE9C1
:1057C00095E08CDF4091350B5091360B6091370B93
:1057D0007091380B8CE995E081DF4091390B509145
:1057E0003A0B60913B0B70913C0B89E995E076DFB9
:1057F0004091590550915A0560915B0570915C0587
:1058000086E995E07BCFCF93DF936CE475E00E944F
:105810000684C5EFDAE04CA95DA96EA97FA983E4EF
:1058200095E05CDF48AD59AD6AAD7BAD80E495E0B5
:1058300055DF4CAD5DAD6EAD7FAD89E995E0DF9193
:10584000CF915CCFCF93DF9368E275E00E9406842E
:10585000C5EFDAE04CA15DA16EA17FA18FE195E0DB
:105860003DDF48A559A56AA57BA582EC90E236DF0D
:105870004CA55DA56EA57FA58FEB90E22FDF48A913
:1058800059A96AA97BA98CEB90E2DF91CF9136CF21
:10589000CF93DF9363E075E00E940684C5EFDAE002
:1058A000688179818A819B810E94B2ADAB01BC0184
:1058B0008AEF94E013DF6C817D818E819F810E944D
:1058C000B2ADAB01BC0182EC90E208DF688579855E
:1058D0008A859B850E94B2ADAB01BC018FEB90E243
:1058E000FDDE6C857D858E859F850E94B2ADAB0106
:1058F000BC018CEB90E2DF91CF9100CF0F931F930F
:10590000CF932091420E222371F0C62F8C018CE799
:1059100094E098DDC80196DDCC2329F08AE0CF9190
:105920001F910F9188CDCF911F910F9108950F93E3
:105930001F93CF932091420E222379F0C62F8C0122
:1059400060E082EA94E0DADFC8017CDDCC2329F054
:105950008AE0CF911F910F916ECDCF911F910F9142
:105960000895CF93DF932091420E222369F0EC013A
:1059700060E08AEA94E0DBDF80E25DDDCE0162DD9B
:105980008AE0DF91CF9157CDDF91CF910895DF92DB
:10599000EF92FF920F931F93CF93DF93D82E7B014B
:1059A0008A01E9018091420E8823A1F061E08AE634
:1059B00090E2BDDFD09250058091420E882351F0D5
:1059C00060E083E590E2B3DF80E235DDC7013ADDD8
:1059D0008AE031DD0115110511F0C801C2DF209701
:1059E00011F0CE01BEDF61E08EE490E2DF91CF9155
:1059F0001F910F91FF90EF90DF9099CF85E794E092
:105A000021CD8FE694E01ECD4F925F926F927F92F0
:105A10008F929F92AF92BF92DF92EF92FF920F937D
:105A20001F93CF93DF93D82EC82FD0E0FE01E95506
:105A3000F04E6491062E000C770B880B990B0E9498
:105A4000B4AD2B013C017E01EE0CFF1CEE0CFF1CE3
:105A5000F701E05BF14F2591359145915491C301D8
:105A6000B2010E9413AE4B015C01F701EC5BF14FF8
:105A7000659175918591949120E030E040EC5FE371
:105A80000E9413AEA30192010E9413AEAB01BC01B0
:105A900000E010E098018D2D0E94418520E030E06B
:105AA000A901C501B4010E94AEAD882309F444C028
:105AB000B501A401705800E010E098018D2D0E94FE
:105AC0004185A5019401C501B4010E945EB44B015A
:105AD0005C01CF5BD14FFE01C491C11105C091DFC4
