:100000000C945C130C949C130C949C130C949C13F4
:100010000C949C130C949C130C949C130C949C13A4
:100020000C949C130C949C130C949C130C949C1394
:100030000C949C130C949C130C949C130C949C1384
:100040000C949C130C9406230C949C130C949C13FA
:100050000C949C130C9411220C949C130C9488AB5C
:100060000C949C130C9486490C9450490C949C134A
:100070000C949C130C949C130C949C130C949C1344
:100080000C94E6380C949C130C949C130C949C13C5
:100090000C949C130C949C130C949C130C949C1324
:1000A0000C949C130C949C130C94B8380C949C13D3
:1000B0000C949C130C949C130C949C130C949C1304
:1000C0000C949C130C949C130C949C130C949C13F4
:1000D0000C949C130C949C130C949C130C949C13E4
:1000E0000C949C13084AD73B3BCE016E84BCBFFDE9
:1000F000C12F3D6C74319ABD56833DDA3D00C77FF8
:1001000011BED9E4BB4C3E916BAAAABE0000008090
:100110003F05A84CCDB2D44EB93836A9020C50B91F
:10012000918688083CA6AAAA2ABE000000803F004B
:100130004E414E494E495459494E46CDCCCC3D0ACC
:10014000D7233C17B7D13877CC2B329595E6241FAF
:10015000B14F0A000020410000C84200401C462068
:10016000BCBE4CCA1B0E5AAEC59D7400407A10F33B
:100170005A00A0724E18090010A5D4E80000E876D5
:1001800048170000E40B54020000CA9A3B0000002C
:10019000E1F505000080969800000040420F000045
:1001A00000A08601000000102700000000E8030006
:1001B0000000006400000000000A000000000001D0
:1001C00000000000002C76D888DC674F0823DFC1D0
:1001D000DFAE59E1B1B796E5E3E453C63AE651998B
:1001E0007696E8E6C28426EB898C9B62ED407C6FB4
:1001F000FCEFBC9C9F40F2BAA56FA5F490055A2A6B
:10020000F75C936B6CF9676DC11BFCE0E40D47FE76
:10021000F520E6B500D0ED902E030094357705006B
:1002200080841E080000204E0A000000C80C3333F2
:1002300033330F986E12831141EF8D2114893BE601
:100240005516CFFEE6DB18D1844B381BF77C1D908A
:100250001DA4BBE424203284725E228100C9F124F3
:10026000ECA1E53D27434F4D4D554E49434154497F
:100270004F4E0044525952554E004552524F525320
:1002800000494E464F004543484F0053544F50508D
:1002900045442E20005072696E7465722073746F2D
:1002A000707065642064756520746F206572726F6C
:1002B00072732E2046697820746865206572726FAB
:1002C0007220616E6420757365204D393939207450
:1002D0006F20726573746172742E202854656D707E
:1002E00065726174757265206973207265736574D7
:1002F0002E205365742069742061667465722072C3
:10030000657374617274696E67290A004E6F2043C9
:100310006865636B73756D2077697468206C696EAE
:1003200065206E756D6265722C204C617374204C73
:10033000696E653A20004E6F20436865636B737584
:100340006D2077697468206C696E65206E756D62CA
:1003500065722C204C617374204C696E653A2000E4
:10036000636865636B73756D206D69736D6174632C
:10037000682C204C617374204C696E653A20004CE7
:10038000696E65204E756D626572206973206E6FAF
:1003900074204C617374204C696E65204E756D62DB
:1003A00065722B312C204C617374204C696E653A58
:1003B00020004D3131300053657269616C207374D7
:1003C00061747573206D69736D617463680A00539D
:1003D000442072656164206572726F720A00746FE6
:1003E0006F206D75636820696E616374697665203E
:1003F00074696D65202D2063757272656E7420635B
:100400006F6D6D616E643A20002121204B494C4C88
:100410002063617573656420627920004D656469AD
:100420006120496E73657274656400627573793A10
:100430002070617573656420666F7220696E7075D7
:10044000740A00627573793A20706175736564206F
:10045000666F7220757365720A00627573793A204F
:1004600070726F63657373696E670A006563686FA6
:100470003A004572726F723A004F4646004F4E0086
:1004800042696C696E656172204C6576656C696E57
:100490006720477269643A0A002F2F616374696F9D
:1004A0006E3A006E6F74696669636174696F6E207D
:1004B000006E6F74696669636174696F6E200070A5
:1004C000726F6D70745F00627574746F6E004F466A
:1004D000460A0046616465204865696768742000C3
:1004E000426564204C6576656C696E6720004661E4
:1004F000696C656420746F20656E61626C65204272
:100500006564204C6576656C696E670A00496E7695
:10051000616C6964206D6573682E0A002E0A002FD5
:100520000050726F62696E67206D65736820706F2E
:10053000696E742000202844525952554E290047B4
:100540003239204175746F20426564204C657665B0
:100550006C696E67003F20284C2C522C462C422997
:10056000206F7574206F6620626F756E64732E0A3B
:10057000003F2856296572626F7365206C65766549
:100580006C20696D706C61757369626C65202830D0
:100590002D34292E0A00426164205A2076616C7540
:1005A000650A004E6F2062696C696E656172206732
:1005B0007269640A0020440020204D3230302053FC
:1005C00000202844697361626C6564293A004669B9
:1005D0006C616D656E742073657474696E67730009
:1005E00020204D3230312058004D61782041636326
:1005F000656C65726174696F6E2028756E697473BD
:100600002F7332290020204D3230332058004D61A5
:1006100078206665656472617465732028756E69FB
:1006200074732F73290020520020204D3230342063
:100630005000416363656C65726174696F6E202858
:10064000756E6974732F7332292028503C7072695B
:100650006E742D616363656C3E20523C72657472EA
:100660006163742D616363656C3E20543C747261F8
:1006700076656C2D616363656C3E2900204A00201D
:10068000540020530020204D323035204200416478
:1006900076616E6365642028423C6D696E5F7365A8
:1006A000676D656E745F74696D655F75733E205329
:1006B0003C6D696E5F66656564726174653E205469
:1006C0003C6D696E5F74726176656C5F66656564CA
:1006D000726174653E204A3C6A756E635F6465763C
:1006E0003E290020440020490020204D3330312095
:1006F0005000486F74656E642050494400204400E7
:1007000020490020204D33303420500042656420C1
:100710005049440020440020204D353933205920D1
:10072000460020440020204D353933205820460013
:10073000496E7075742053686170696E6700206F30
:1007400072203020746F2064697361626C650A00E6
:100750003F4672657175656E637920284629206D64
:1007600075737420626520677265617465722074A8
:1007700068616E20003F5A65746120284429207604
:10078000616C7565206F7574206F662072616E678D
:10079000652028302D31290A0020496E76616C6968
:1007A000642065787472756465722000536C6565A9
:1007B000702E2E2E005A2050726F62652050617389
:1007C00074204265640A005A2050726F626520509E
:1007D0006173742042656400473238005A205072B9
:1007E0006F626520506173742042656400205A3A3C
:1007F000200020593A200042656420583A20004DDC
:1008000065736820706F696E74206F7574206F66F1
:100810002072616E67650A00626567696E004D301F
:100820002053746F70004D312053746F70004E6F01
:10083000204D6F76652E00456E642066696C6520DC
:100840006C6973740A00426567696E2066696C653D
:10085000206C6973740A004E6F206D656469610ACB
:1008600000534420636172642072656C6561736536
:10087000640A00726573756D65004469736D697310
:100880007300526573756D696E6720534400706123
:1008900075736500526573756D650050617573659C
:1008A00020534400286E6F2066696C6529004375EB
:1008B0007272656E742066696C653A20002E0A00BB
:1008C00044656C6574696F6E206661696C65642C43
:1008D0002046696C653A200046696C652064656C49
:1008E000657465643A0043616E6E6F74206F706565
:1008F0006E20737562646972200025697300256932
:100900006D20256973002569682025696D2025699A
:100910007300256964202569682025696D20256993
:100920007300256979202569642025696820256977
:100930006D20256973005072696E742074696D654D
:100940003A20006F6B006F666600860281027A02B1
:100950007302650244454255473A004D3131332018
:10096000530047656E697573204F46462E002F2F42
:10097000003F4A206F7574206F662072616E676554
:100980002028302E303120746F20302E33290A0079
:100990002058003B200020204D61783A20002000A4
:1009A00020204D696E3A2000203B200020204D324F
:1009B0003131205300250A0046523A0020466C6F20
:1009C000773A20003A200020536572766F2000208D
:1009D0006F7574206F662072616E67650A005365DB
:1009E00072766F200050726F6265204F6666736585
:1009F00074205A0050726F6265204F66667365748A
:100A0000205A0064697300656E0043290A00616220
:100A10006C656420286D696E2074656D70200043DC
:100A20006F6C64206578747275646573206172659B
:100A300020004D34323120696E636F7272656374C9
:100A400020706172616D6574657220757361676590
:100A50000A004D65736820706F696E74206F75743D
:100A6000206F662072616E67650A004F6666736567
:100A70007473204170706C69656400546F6F2066F8
:100A800061722066726F6D207265666572656E6355
:100A90006520706F696E740A00454550524F4D20B5
:100AA0004F4B0A00290A0020746F20003F5A206F24
:100AB0007574206F662072616E6765202800290AB0
:100AC0000020746F20003F59206F7574206F6620DE
:100AD00072616E676520282D00290A0020746F203E
:100AE000003F58206F7574206F662072616E6765D5
:100AF00020282D00436F6E74696E7565004D383483
:100B0000005072696E7420446F6E6500446F6E65AC
:100B1000207072696E74696E672066696C650A0080
:100B20004D3737004D333100496E76616C69642072
:100B300065787472756465720A0020204D32303613
:100B4000205800486F6D65206F66667365740044B9
:100B50006966663A2020200046726F6D5374703AC1
:100B600000537465707065723A00556E4C65766519
:100B70006C3A004C6576656C65643A005261773A70
:100B800020202020000A4C6F676963616C3A0043A3
:100B90006F756E7420453A004361703A007D7D7D2B
:100BA0000A002C7A3A002C793A007D2C6D61783A53
:100BB0007B783A002C7A3A002C793A007D7D2C77AC
:100BC0006F726B3A7B6D696E3A7B783A002C7A3A99
:100BD000002C793A007D2C6D61783A7B783A002CB4
:100BE0007A3A002C793A00617265613A7B66756CDD
:100BF0006C3A7B6D696E3A7B783A00434F4E4649BA
:100C0000475F4558504F5254004D45415450414361
:100C10004B00434F4F4C45525F54454D5045524158
:100C200054555245004348414D4245525F54454D4D
:100C30005045524154555245004241425953544542
:100C40005050494E470041524353004D4F54494F75
:100C50004E5F4D4F44455300544845524D414C5F03
:100C600050524F54454354494F4E00455854454EF9
:100C70004445445F4D323000435553544F4D5F4619
:100C800049524D574152455F55504C4F4144004CDD
:100C9000464E5F5752495445004C4F4E475F4649B8
:100CA0004C454E414D45004155544F5245504F52D1
:100CB000545F53445F5354415455530053445F575A
:100CC0005249544500524550454154004D554C54ED
:100CD000495F564F4C554D450053444341524400E3
:100CE00050524F4D50545F535550504F525400483E
:100CF0004F53545F414354494F4E5F434F4D4D4115
:100D00004E445300454D455247454E43595F50416F
:100D10005253455200434153455F4C494748545F45
:100D20004252494748544E45535300544F47474C4D
:100D3000455F4C494748545300534F46545741521E
:100D4000455F504F574552004255494C445F50450E
:100D50005243454E54004C4556454C494E475F441E
:100D6000415441005A5F50524F42450052554E4F38
:100D70005554004155544F4C4556454C005052492E
:100D80004E545F4A4F420050524F47524553530012
:100D90004155544F5245504F52545F54454D5000A9
:100DA0004155544F5245504F52545F504F53005687
:100DB0004F4C554D455452494300454550524F4DB7
:100DC0000042494E4152595F46494C455F54524199
:100DD0004E534645520053455249414C5F584F4E81
:100DE0005F584F4646004649524D574152455F4E67
:100DF000414D453A4D61726C696E20322E312E3272
:100E00002E3120284D61722031362032303234208C
:100E100030363A30373A35382920534F555243450A
:100E20005F434F44455F55524C3A67697468756239
:100E30002E636F6D2F4D61726C696E4669726D77AE
:100E40006172652F4D61726C696E2050524F544F24
:100E5000434F4C5F56455253494F4E3A312E302046
:100E60004D414348494E455F545950453A47656E98
:100E70006975732045585452554445525F434F5548
:100E80004E543A3120555549443A636564653261A0
:100E900032662D343161322D343734382D39623198
:100EA000322D633535633632663336376666004732
:100EB000322F47332062616420706172616D657406
:100EC0006572730A00203B0020204D3835312058D0
:100ED000005A2D50726F6265204F6666736574000C
:100EE00020573A0020573A0042656420436F6F6CE8
:100EF000696E672E2E2E0042656420486561746914
:100F00006E672E2E2E00206661696C65642120427A
:100F10006164206865617465722069640A005049E3
:100F200044204175746F74756E650023646566694D
:100F30006E652044454641554C545F00006265642F
:100F4000004B6420004B6920004B70200050494446
:100F50002074756E696E6720646F6E650020666927
:100F60006E6973686564212050757420746865200B
:100F70006C617374204B702C204B6920616E64206F
:100F80004B6420636F6E7374616E74732066726F4E
:100F90006D2062656C6F7720696E746F20436F6E91
:100FA00066696775726174696F6E2E680A005049D0
:100FB00044204175746F74756E6500206661696CBC
:100FC0006564212074696D656F75740A0050494429
:100FD000204175746F74756E65004175746F74751A
:100FE0006E65206661696C6564212054696D656F6A
:100FF00075742E00206661696C6564212054656DEE
:10100000706572617475726520746F6F20686967AE
:10101000680A00504944204175746F74756E65000C
:10102000204B643A2000204B693A2000204B703A54
:10103000200020436C617373696320504944200A87
:1010400000204E6F206F76657273686F6F740A00B0
:101050002054753A2000204B753A2000206D6178AD
:101060003A2000206D696E3A200020643A2000206A
:10107000626961733A200048656174696E672E2E5B
:101080002E002073746172740A0050494420417527
:10109000746F74756E65004175746F74756E65203C
:1010A0006661696C6564212054656D706572617458
:1010B00075726520746F6F20686967682E002066FE
:1010C00061696C6564212054656D70657261747529
:1010D000726520746F6F20686967680A0050494420
:1010E000204175746F74756E6500504944204175D8
:1010F000746F74756E6500486F6D696E6720466128
:10110000696C6564006F70656E00545249474745CD
:10111000524544003A20007A5F70726F6265007A2F
:101120005F6D696E00795F6D696E00785F6D696EE5
:10113000005265706F7274696E6720656E647374B7
:101140006F70207374617475730A0020746F6F2060
:101150006C6F6E6720657874727573696F6E20703E
:10116000726576656E7465640A0020636F6C642036
:10117000657874727573696F6E2070726576656ECE
:101180007465640A00486F6D652025732046697296
:10119000737400000000C00000A0C00000000057F1
:1011A00061726E696E673A20486F6D696E672042A2
:1011B000756D702044697669736F72203C20310A26
:1011C0000002020400005E4300006B4300007A430B
:1011D0000000A0400000A04000000040000000010E
:1011E000000000010000800055555500000040003F
:1011F00033333300AAAA2A004992240000002000B9
:10120000C7711C0099991900D14517005555150053
:101210003BB113002449120011111100000010000D
:101220000F0F0F00E3380E0043790D00CCCC0C00FB
:10123000C3300C00E8A20B0064210B00AAAA0A002C
:10124000703D0A009DD80900427B090092240900E4
:10125000DCD308008888080010420800000008005D
:10126000F0C107008787070075500700711C070051
:101270003EEB0600A1BC060069900600666606000B
:10128000703E06006118060017F4050074D10500D1
:101290005BB00500B290050062720500555505006F
:1012A00078390500B81E0500050505004EEC040060
:1012B00087D40400A1BD040090A704004992040053
:1012C000C17D0400EE690400C756040044440400D4
:1012D0005C320400082104004110040000000400F6
:1012E0003FF00300F8E0030026D20300C3C303006D
:1012F000CCB503003AA803000A9B0300388E030014
:10130000C08103009F750300D0690300505E030095
:101310001D53030034480300913D030033330300A1
:1013200016290300381F030097150300300C030033
:10133000030303000BFA020049F10200BAE80200BD
:101340005CE002002DD802002DD0020059C8020036
:10135000B0C0020031B90200DAB10200AAAA02004C
:10136000A0A30200BC9C0200FA9502005C8F020060
:10137000DF88020082820200457C0200277602009C
:1013800027700200436A02007C640200D05E020003
:101390003F590200C8530200FFFDFCFAF8F6F4F2D0
:1013A000F0EEECEAE9E7E5E3E1E0DEDCDAD9D7D517
:1013B000D4D2D0CFCDCBCAC8C7C5C3C2C0BFBDBCB5
:1013C000BAB9B7B6B4B3B2B0AFADACAAA9A8A6A526
:1013D000A4A2A1A09E9D9C9A99989795949392906F
:1013E0008F8E8D8B8A8988878684838281807F7E99
:1013F0007D7B7A797877767574737271706F6E6DA4
:101400006C6B6A696867666564636261605F5E5D94
:101410005C5B5A5958585756555453525150504F77
:101420004E4D4C4B4A4A4948474646454443424242
:1014300041403F3E3E3D3C3B3B3A393838373635FC
:1014400035343332323130302F2E2E2D2C2B2B2AA7
:101450002929282727262525242323222121202046
:101460001F1E1E1D1C1C1B1B1A19191818171616D7
:10147000151514131312121111100F0F0E0E0D0D5E
:101480000C0C0B0A0A0909080807070606050504DB
:10149000040303020201000053544F505045442EF0
:1014A00020005072696E7465722073746F7070657D
:1014B000642064756520746F206572726F72732E7C
:1014C0002046697820746865206572726F722061A9
:1014D0006E6420757365204D39393920746F207220
:1014E0006573746172742E202854656D7065726125
:1014F000747572652069732072657365742E20534C
:1015000065742069742061667465722072657374F5
:10151000617274696E67290A00206572726F7220A9
:101520002D20726573746172742077697468204D20
:101530003939390A00424C546F7563680021212003
:1015400053544F502063616C6C6564206265636125
:10155000757365206F66200000005C4300006643E1
:1015600000007A43000000C00000A0C0000000009E
:1015700053657474696E67732053746F7265640089
:10158000290A002062797465733B2063726320002E
:1015900053657474696E67732053746F7265642049
:1015A0002800454550524F4D20496E697469616C61
:1015B000697A65640A0048617264636F64656420D7
:1015C00044656661756C742053657474696E6773E5
:1015D000204C6F616465640020286D6D2900203BFC
:1015E000204C6576656C696E67200020204D343292
:1015F000302053004175746F20426564204C65763D
:10160000656C696E6700204A0020204732392057F8
:1016100020490020204D3134392043203B20556E95
:1016200069747320696E2043656C736975730A0071
:1016300054656D706572617475726520556E69745C
:1016400073002020473231203B004C696E65617287
:1016500020556E69747300454550524F4D206461AA
:10166000746173697A65206572726F722E0A004523
:1016700072723A20454550524F4D2043524300204C
:101680002863616C63756C6174656429210A0020AC
:10169000213D2000454550524F4D20435243206D7F
:1016A00069736D61746368202D202873746F72658F
:1016B00064292000454550524F4D20436F7272758A
:1016C00070740A002053697A653A2000496E646597
:1016D000783A200053746F7265642073657474697E
:1016E0006E67732072657472696576656400290A95
:1016F000002062797465733B20637263200020735D
:10170000746F7265642073657474696E6773207298
:101710006574726965766564202800000096430050
:1017200000964300004842000020420000A0420012
:1017300000A0420000C8430080DE43D0070000D074
:101740000700006400000010270000204D61726C4B
:10175000696E3D563838290A00454550524F4D2094
:1017600076657273696F6E206D69736D61746368FD
:101770002028454550524F4D3D0020436F756E74F3
:1017800020583A00004500626564002C207379738C
:1017900074656D2073746F70706564212048656195
:1017A0007465725F49443A20004572723A204D4197
:1017B0005854454D50004D415854454D5020747279
:1017C000696767657265640048656174696E672062
:1017D0004661696C65640048656174696E6720667E
:1017E00061696C6564004D353234004D3131322011
:1017F00053687574646F776E004572723A204D4974
:101800004E54454D50004D494E54454D5020747234
:101810006967676572656400544845524D414C20C4
:1018200052554E4157415900546865726D616C20A4
:1018300052756E6177617900202F0020583A0020A0
:1018400042403A0020403A002053004D31303620CB
:1018500050007C3C3E5E2B3D3F2F5B5D3B2C2A22A3
:101860005C0043616E6E6F74206F70656E207375DF
:1018700062646972200053442063617264206F6B5C
:101880000A006F70656E526F6F74206661696C65D7
:10189000640A00766F6C756D652E696E69742066DA
:1018A00061696C65640A004E6F2053442063617265
:1018B000640A002E0A006F70656E206661696C65AF
:1018C000642C2046696C653A200046696C6520737B
:1018D000656C65637465640A002053697A653A2013
:1018E0000046696C65206F70656E65643A2000453E
:1018F0004E4420535542524F5554494E450A0022FA
:1019000020706F73002220706172656E743A22003D
:10191000535542524F5554494E452043414C4C205B
:101920007461726765743A220053756263616C6C0E
:10193000204F766572666C6F7700457863656564E5
:101940006564206D617820535542524F5554494E7D
:10195000452064657074683A0057726974696E67EF
:1019600020746F2066696C653A20004E6F742053B6
:1019700044207072696E74696E670A005344207067
:1019800072696E74696E6720627974652000667290
:1019900065736800646F696E67002066696C653AFC
:1019A00020004E6F7720000A4D3234004D32332034
:1019B0002573002F6175746F25632E670070012CED
:1019C0000190012701B0012201C0011D01F00118A1
:1019D000011002130130020E01600209019002049D
:1019E00001C002FF000003FA004003F5008003F08D
:1019F00000D003EB002004E6007004E100E004DC0A
:101A0000004005D700C005D2004006CD00D006C872
:101A1000008007C3003008BE00F008B900C009B458
:101A200000B00AAF00B00BAA00D00CA500000EA0B9
:101A300000500F9B00C01096005012910000148CB3
:101A400000C0158700B0178200B0197D00D01B7848
:101A500000001E730040206E0090226900F0246494
:101A60000040275F0090295A00E02B5500102E50AF
:101A70000020304B0010324600E033410090353CEE
:101A8000001037370070383200A0392D00B03A28E6
:101A900000A03B2300603C1E00103D1900903D1447
:101AA00000103E0F00703E0A00C03E0500003F00DF
:101AB00000403FFBFF803FF6FFC03FF1FF2020507A
:101AC0006C616E6E657242756666657242797465A8
:101AD000733A20002046726565204D656D6F7279FE
:101AE0003A200020436F6D70696C65643A204D6147
:101AF0007220313620323032340A00204C61737447
:101B000020557064617465643A20323032332D3070
:101B1000352D3136207C20417574686F723A20284B
:101B20006467746168656E6F2C2047656E697573B4
:101B3000290A004D61726C696E20322E312E322ED0
:101B4000310A0020536F66747761726520526573A5
:101B500065740A00205761746368646F672052657A
:101B60007365740A002042726F776E206F7574205F
:101B700052657365740A002045787465726E616CF5
:101B80002052657365740A00506F77657255700A4C
:101B90000073746172740A004732385859004D312D
:101BA000303031006F6B006572726F72207772692E
:101BB00074696E6720746F2066696C650A00446FF3
:101BC0006E6520736176696E672066696C652E0AA2
:101BD000004D32390020503A00205A3A0020593A3C
:101BE0000020583A00656E6473746F7073206869E2
:101BF000743A200000000A0B02090C0D0E080703BE
:101C000004010000000000000000000000000000CF
:101C100000000000000000000000000000000000C4
:101C20001211100000000000000000000000000081
:101C30000000000000000000000024F404D9201B74
:101C4000C40C5C0E9804C4095F0265077101F405B9
:101C5000F900FB04B30048048700C103690058037E
:101C6000550003034500BE023A00840231005302CE
:101C70002A002902250004022000E4011C00C801FA
:101C80001900AF01170098011400840113007101BD
:101C900010006101100051010E0043010D003601DA
:101CA0000B002B010B0020010B00150109000C019A
:101CB000090003010800FB000800F3000800EB0026
:101CC0000700E4000600DE000600D8000600D2008F
:101CD0000600CC000500C7000500C2000500BD00DD
:101CE0000400B9000400B5000400B1000400AD0018
:101CF0000400A9000400A5000300A20003009F0047
:101D000004009B000300980003009500020093006C
:101D10000300900003008D0002008B000300880088
:101D200002008600020084000300810002007F00A0
:101D300002007D0002007B000200790002007700B3
:101D400001007600020074000200720001007100C0
:101D500002006F0002006D0001006C0002006A00CA
:101D600001006900020067000100660001006500D3
:101D700001006400020062000100610001006000D7
:101D800001005F0002005D0001005C0001005B00DB
:101D900001005A00010059000100580001005700DD
:101DA00001005600010055000100540001005300DD
:101DB00000005300010052000100510001005000DA
:101DC00001004F0001004E0000004E0001004D00D8
:101DD00001004C0001004B0000004B0001004A00D4
:101DE00001004900010048000000480001004700D0
:101DF00001004600000046000100450000004500CB
:101E000001004400010043000000430001004200C3
:101E100000004200010041000000410001004000BC
:101E200001003F0000003F0001003E0000003E00B6
:101E300001003D0000003D0001003C0000003C00AE
:101E400000003C0001003B0000003B0001003A00A4
:101E500000003A000100390000003900010038009C
:101E60000000380000003800010037000000370093
:101E70000100360000003600000036000100350089
:101E8000000035000000350001003400000034007F
:101E90000000340001003300000033000000330074
:101EA0000100320000003200000032000100310069
:101EB000000031000000310001003000000030005F
:101EC0000000300001002F0000002F0000002F0054
:101ED00000002F0001002E0000002E0000002E0048
:101EE00001002D0000002D0000002D0000002D003D
:101EF00001002C0000002C0000002C0000002C0031
:101F000001002B0000002B0000002B0000002B0024
:101F100001002A0000002A0000002A0000002A0018
:101F2000010029000000290000002900000029000C
:101F300000002900010028000000280000002800FF
:101F400000002800000028000100270000002700F2
:101F500000002700000027000000270001002600E5
:101F600000002600000026000000260000002600D9
:101F700001002500000025000000250000002500CC
:101F800000002500000025000100240000002400BE
:101F900000002400000024000000240001002300B1
:101FA00000002300000023000000230000002300A5
:101FB0000000230000002300010022000000220096
:101FC0000000220000002200000022000000220089
:101FD000010021000000210000002100000021007C
:101FE000000021000000210000002100010020006D
:101FF0000000200000002000000020000000200061
:1020000000002000000020000000200001001F0050
:1020100000001F0000001F0000001F0000001F0044
:1020200000001F0000001F0001001E0000001E0035
:1020300000001E0000001E00000024F4D43050C335
:102040008E20C2A24017828B7011127A910D816C82
:10205000D90AA861E108C7586607615143061E4BBB
:102060005D05C145A7041A411104093D9803713962
:1020700031034036DB0265339102D4305402802EA6
:102080001D02632CEE01752AC501B028A00110279E
:1020900081018F2564012B244B01E0223401AC2106
:1020A0001F018D200D01801FFC00841EED00971D77
:1020B000DF00B81CD200E61BC600201BBC00641A5F
:1020C000B200B219A8000A19A0006A189900D11725
:1020D000910040178B00B516840031167E00B315B1
:1020E00079003A157300C7146F0058146A00EE1394
:1020F00066008813630025135E00C7125B006C1234
:10210000570015125400C111510070114F002111D8
:102110004B00D61049008D104700461044000210B5
:102120004200C00F4000800F3E00420F3C00060FEF
:102130003B00CB0E3800930E37005C0E3500270EA7
:102140003400F30D3200C10D3100900D3000600DF0
:102150002E00320D2D00050D2C00D90C2B00AE0CDD
:102160002900850C29005C0C2700350C27000E0C7B
:102170002600E80B2400C40B2400A00B23007D0BD9
:1021800023005A0B2100390B2100180B2000F80AFC
:102190001F00D90A1E00BB0A1E009D0A1D00800AEE
:1021A0001D00630A1C00470A1B002C0A1B00110AB1
:1021B0001A00F7091A00DD091900C4091900AB0952
:1021C0001900920917007B091800630917004C09D0
:1021D000160036091600200916000A091500F50830
:1021E0001500E0081400CC081400B8081400A40876
:1021F0001400900813007D0812006B0813005808A3
:1022000012004608120034081100230811001208B9
:10221000110001081100F0071000E0071000D007BE
:102220001000C0071000B0070F00A10710009107B1
:102230000E0083070F0074070F0065070E00570795
:102240000E0049070E003B070D002E070E00200769
:102250000D0013070D0006070D00F9060C00ED0632
:102260000D00E0060C00D4060C00C8060C00BC06ED
:102270000C00B0060C00A4060B0099060C008D069D
:102280000B0082060B0077060B006C060B00610644
:102290000A0057060B004C060A0042060A003806E0
:1022A0000A002E060A0024060A001A060A00100672
:1022B000090007060A00FD050900F4050900EB0501
:1022C0000900E2050900D9050900D0050900C70584
:1022D0000900BE050900B5050800AD050800A50503
:1022E00009009C050800940508008C050800840579
:1022F00008007C050800740508006C0507006505EA
:1023000008005D050700560508004E050700470553
:1023100007004005080038050700310507002A05B9
:102320000700230507001C050600160507000F051A
:1023300007000805060002050700FB040600F50477
:102340000700EE040600E8040600E2040700DB04D0
:102350000600D5040600CF040600C9040600C30425
:102360000600BD040600B7040600B1040500AC0475
:102370000600A6040600A00405009B0406009504C0
:102380000500900406008A04050085040500800409
:1023900006007A04050075040500700405006B044E
:1023A000050066040500610405005C04050057048F
:1023B0000500520405004D040500480405004304CF
:1023C00005003E0404003A0405003504050030040D
:1023D00004002C04050027040400230405001E0447
:1023E00004001A04040016040500110404000D047E
:1023F0000400090405000404040000040400FC03B4
:102400000400F8030400F4030400F0030400EC03E8
:102410000400E8030400E4030400E0030400DC0318
:102420000400D8030400D4030400D0030400CC0348
:102430000400C8030300C5030300281F00007A1727
:102440000000BC0F00007B09000047050000CC0223
:10245000000071010000BB0000004572726F722025
:1024600077726974696E6720746F20454550524FCA
:102470004D210A00DB0FC93F45BCDA3F8FB3024054
:10248000FCF0274056946140FE4B9B4084A5D84009
:10249000E0231841346A5641E859974164DBD5413D
:1024A0006E271742B4B75542CE1A9742C8AED542EE
:1024B000B5885A43D40684BFA65FA7BF7443E0BF64
:1024C00010B11AC01C2C58C0E8F697C0B849D6C045
:1024D0004E4E17C124D355C1802497C1A0B5D5C194
:1024E000121A17C244AE55C2781797C26CACD5C247
:1024F00067885AC320746F6F206C6F6E6720657891
:1025000074727573696F6E2070726576656E74652E
:10251000640A0020636F6C64206578747275736957
:102520006F6E2070726576656E7465640A00507215
:102530006F62696E67204661696C65640A0050725B
:102540006F62696E67204661696C656400205A3A63
:10255000200020593A200042656420583A2000FFAC
:10256000FFFF3B185F265B26572600002200250050
:1025700028002B002E00310034000201000005016C
:1025800008010B0100002100240027002A002D0073
:102590003000330001010000040107010A010505B4
:1025A0000505070508080808020202020A0A0808C9
:1025B00004040404010101010101010103030303F7
:1025C00003030303040707070C0C0C0C0C0C0C0C86
:1025D0000202020206060606060606060B0B0B0B97
:1025E0000B0B0B0B010210202008081020401020BC
:1025F00040800201020108040201010204081020C7
:1026000040808040201008040201800402018040C4
:10261000201008040201080402010102040810202D
:1026200040800102040810204080204500205A000C
:1026300020590020204D39322058005374657073A2
:102640002070657220756E6974006F6B0A005265A8
:1026500073656E643A200020453A00205A3A002003
:10266000593A00583A0073686F7700656E640062EB
:102670006567696E00220A00556E6B6E6F776E207B
:10268000636F6D6D616E643A202200706F776572C2
:102690006F6666005072696E7465722068616C7452
:1026A00065642E206B696C6C28292063616C6C65F5
:1026B00064210A00EDBE48C811241FBECFEFD1E24D
:1026C000DEBFCDBF00E00CBF84B78093ED1C14BE0D
:1026D0000FB6F894A895809160008861809360009F
:1026E000109260000FBE13E0A0E0B2E0EEE6FDEA5B
:1026F00001E00BBF02C007900D92A634B107D9F7D5
:102700002CE1A6E4B3E001C01D92AD3EB207E1F7B3
:1027100013E1CBE5D3E100E006C021970109802F4A
:10272000FE010E9442D3CA35D10780E00807A9F70D
:102730000E9451C00C94A6D60C940000CF93DF9356
:10274000C4E8D7E120E030E048E452E46091161894
:102750007091171880911818909119180E9494D5AB
:1027600087FF13C080E0FE01C4912091020190E038
:1027700002C095958795CA95E2F780FD0EC020713D
:1027800020930001DF91CF910895FE01949181E0A3
:1027900001C0880F9A95EAF7E6CF2095F0CF809197
:1027A000D808882339F06091D1187091D21880919F
:1027B000D318089560E070E080E008954F925F9232
:1027C0006F927F928F929F92AF92BF92CF92DF9241
:1027D000EF92FF920F931F93CF930091C80810912F
:1027E000C9082091CA083091CB0880905E1890905B
:1027F0005F18A0906018B09061184091CC0850917B
:10280000CD086091CE087091CF08C0904C18D09040
:102810004D18E0904E18F0904F18C0E1FC01A8EC64
:10282000B8E001900D92CA95E1F7E0915818EE23B7
:1028300049F128013901481859086A087B085301F1
:1028400042010091C8081091C9082091CA0830912E
:10285000CB08080D191D2A1D3B1D0093C8081093B5
:10286000C9082093CA083093CB08FC01008111816C
:102870002281338100935E1810935F1820936018B3
:102880003093611820914618222339F18A019B0167
:102890000C191D092E093F094091CC085091CD0813
:1028A0006091CE087091CF08400F511F621F731FB7
:1028B0004093CC085093CD086093CE087093CF0816
:1028C000FC0184819581A681B78180934C189093F7
:1028D0004D18A0934E18B0934F18CF911F910F91A0
:1028E000FF90EF90DF90CF90BF90AF909F908F9030
:1028F0007F906F905F904F900895EF92FF920F93AB
:102900001F93E0925303F0925403009355031093E6
:1029100056036093570370935803809359039FEFB6
:10292000FF27621B730B840B30F4809570956195C3
:10293000790B890B992790935203A6E06A9F009226
:102940004603512DEE277A9F500DE11D8A9FE00D21
:1029500050934703E0934803AFE06A9F00924A0315
:10296000512DEE277A9F500DE11D8A9FE00D509367
:102970004B03E0934C03AAE06A9F00924E03512D53
:10298000EE277A9F500DE11D8A9FE00D50934F0373
:10299000E09350031F910F91FF90EF90089521E075
:1029A00030E0082E02C0220F331F0A94E2F7209570
:1029B00030959091D80429232093D804813061F078
:1029C00020F0823071F081E008955F9A8091B41414
:1029D0008E7F8093B414F7CF8A9A8091B4148D7F40
:1029E000F8CF809108018095817080930601479A05
:1029F0008091B4148B7FEDCF20916E0830916F08D9
:102A0000F901E752FB4F908196959695937081E07E
:102A1000913009F080E04091390250913A02609182
:102A20006C0870916D084F5F5F4F2F5F3F4F2F32E3
:102A300091E0390711F430E020E06217730721F1CB
:102A4000F901E752FB4F908196959695937059F353
:102A500030936F0820936E0850933A0240933902E6
:102A60004091B7085091B8086091AF087091B008D4
:102A7000461B570B220F331FF901E85FF94F2081E6
:102A80003181240F351F0AC070936F0860936E0860
:102A900050933A02409339022FEF3FEF30934402B4
:102AA00020934302089520916A0830916B08F90140
:102AB000E752FB4F9081937081E0913009F080E004
:102AC00040913B0250913C0260916C0870916D08FE
:102AD0004F5F5F4F2F5F3F4F2F3291E0390711F467
:102AE00030E020E06217730711F1F901E752FB4F64
:102AF0009081937069F330936B0820936A08509328
:102B00003C0240933B024091B9085091BA08609151
:102B1000AF087091B008461B570B220F331FF90105
:102B2000E85FF94F20813181240F351F0AC070936F
:102B30006B0860936A0850933C0240933B022FEF6E
:102B40003FEF309342022093410208959F92AF924B
:102B5000BF92CF92DF92EF92FF920F931F93CF938A
:102B6000DF9300D01F921F92CDB7DEB7E8E9F3E103
:102B70000027BB27462F572FA82FAA2341F4A52FA4
:102B8000542FB85FAA2319F4A52F5527B85FA03199
:102B900038F45295A295452F4F70507FA42BBC5FFF
:102BA000A03428F4550FAA1F550FAA1FBE5FA038E6
:102BB00018F4550FAA1FB395550FAA1FEA0FF01F5F
:102BC000449151E0AA27B85079F1C0F0B0FF02C09B
:102BD000440F551FB1FF04C0440F551F440F551F2C
:102BE000B2FF06C052954295142F1F70407F512BA3
:102BF000B3FF1AC0A52F542F442716C0B195B0FFBC
:102C000002C055954795B1FF04C055954795559518
:102C10004795B2FF05C05295407F4295452B5F70A6
:102C2000B3FF02C0452F5527DD24CC24BB24B2E0DE
:102C3000649FD018C108B00AB00B749FC018B108C7
:102C4000B00B849FB018B109659FC018B108B00BD4
:102C5000759FB018B109859FB0196A9FB018B10966
:102C60007A9FB0194D9DA12C9924332799272227AB
:102C70005D9DA00C911C301F901F201FAD9D900CDE
:102C8000311D901F201F4C9DA00C911C301F901FC8
:102C9000201F5C9D900C311D901F201FAC9D300D9E
:102CA000911D201F4B9D900C311D901F201F5B9D7F
:102CB000300D911D201FAB9D900D211D4B9F300DA0
:102CC000911D201F5B9F900D211DAB9F200DB1E03A
:102CD000BB24CC24DD24639FD018C108B00AB00BFC
:102CE000739FC018B108B00B839FB018B109699FDA
:102CF000C018B108B00B799FB018B109899FB019FD
:102D0000629FB018B109729FB019D61AC70AB80AE3
:102D100020F0B1E03B0F901F201F1124792F632F6B
:102D200090E0822F0F900F900F900F900F90DF91F7
:102D3000CF911F910F91FF90EF90DF90CF90BF90B8
:102D4000AF909F900895AF92BF92CF92DF92EF9293
:102D5000FF920F931F93CF93DF93C7EBD4E10EEA5B
:102D600019E087ECA82E84E1B82EC12CD12C760175
:102D7000C39469917991899199910E94A5CC2889F0
:102D800039894A895B890E9406CD0E94B6D4F80130
:102D900061937193819391938F01C616D706E806CC
:102DA000F90610F46B017C01AC16BD0611F76FEF4C
:102DB0007FEFCB01A70196010E94CBD22093BE09E1
:102DC0003093BF094093C0095093C109DF91CF915F
:102DD0001F910F91FF90EF90DF90CF90BF90AF9039
:102DE0000895CF92DF92EF92FF9280916E04882334
:102DF00009F457C0C0906A04D0906B04E0906C0452
:102E0000F0906D0420E030E0A901C701B6010E94F6
:102E1000A1CC882309F445C020E030E040E05FE326
:102E2000C701B6010E9406CD9B01AC010E9406CDF0
:102E30002BED3FE049E450E40E9406CD9B01AC013C
:102E400060E070E080E89FE30E9449D46B017C0160
:102E5000C0924904D0924A04E0924B04F0924C0490
:102E60006091170270911802072E000C880B990BC5
:102E70000E94A7CC2AE037ED43E25CE30E9406CD36
:102E8000A70196010E9406CD6093530270935402ED
:102E90008093550290935602FF90EF90DF90CF9071
:102EA0000895C12CD12C80E8E82E8FE3F82ED0CFE6
:102EB0008091BF189091C018891B8F7119F490E010
:102EC00080E008959091BC18992351F0833030F43C
:102ED0008FEF890F19F08093BC18F1CF1092BC18B6
:102EE0008091C01827E5829FC00111248D52964F12
:102EF000FC01208120FDE3CF2091C0182F5F2F71AE
:102F00002093BD183091C0182091BE18321304C010
:102F10002091BD182093BE18089590916F0081E014
:102F200091FD02C080E0089590916F009D7F909385
:102F30006F000895FC017081472F50E0062E02C0FB
:102F4000559547950A94E2F740FF14C040912C0430
:102F500050E0062E02C0559547950A94E2F740FFCF
:102F600009C021E030E001C0220F6A95EAF7209500
:102F7000272320830895CF93DF9324E0829FC0010D
:102F80001124EC01C457D84EFC01E457F64F835D81
:102F90009B4FDC012D913D914D915C916081718140
:102FA000828193810E946DD3688379838A839B8316
:102FB000DF91CF910895CF93DF931F92CDB7DEB706
:102FC000898360E0CE010196B5DF61E0CE01019614
:102FD000B1DF62E0CE010196ADDF89810F90DF9114
:102FE000CF9108958F929F92AF92BF92CF92DF922E
:102FF000EF92FF92CF93DF9320911F02222309F4D7
:103000008EC0EC0180912C04E82E80FF2CC08090B3
:10301000210290902202A0902302B09024022881E5
:1030200039814A815B81C501B4010E9494D518168B
:1030300024F488829982AA82BB8280902D0290908B
:103040002E02A0902F02B0903002288139814A814F
:103050005B81C501B4010E94A1CC87FF04C08882B6
:103060009982AA82BB82E1FE2CC0809025029090BA
:103070002602A0902702B09028022C813D814E812B
:103080005F81C501B4010E9494D5181624F48C8286
:103090009D82AE82BF828090310290903202A090D9
:1030A0003302B09034022C813D814E815F81C50195
:1030B000B4010E94A1CC87FF04C08C829D82AE82A5
:1030C000BF82E2FE2CC0C0902902D0902A02E0907C
:1030D0002B02F0902C02288539854A855B85C70133
:1030E000B6010E9494D5181624F4C886D986EA86BB
:1030F000FB86C0903502D0903602E0903702F09007
:103100003802288539854A855B85C701B6010E944A
:10311000A1CC87FF04C0C886D986EA86FB86DF91EA
:10312000CF91FF90EF90DF90CF90BF90AF909F90A6
:103130008F9008958091280490912904A0912A04E9
:10314000B0912B048093130290931402A093150264
:10315000B093160280912604909127049093120256
:103160008093110208958091130290911402A0910E
:103170001502B09116028093280490932904A0931D
:103180002A04B0932B048091110290911202909323
:1031900027048093260484E690E0909312028093A3
:1031A00011020895CF93DF93DB01F9019C919130D7
:1031B000C1F0943080F094509C938830D1F4808199
:1031C0009181009771F0019791838083480F591F77
:1031D000EA01188206C08C3539F49C5F9C939430C8
:1031E00041F4DF91CF9108958B3339F781E08C93CF
:1031F000F8CF20813181B9016F5F7F4F7183608388
:10320000420F531FEA018883808191818F35910598
:103210006CF7E7CF0F931F9381E00091DB181091BB
:10322000DC182091DD183091DE184091D7185091AC
:10323000D8186091D9187091DA1804171507260765
:10324000370708F480E01F910F91089590E080E027
:1032500008952091E003833021F425FD0CC024FD66
:103260000CC030E0A90102C0559547958A95E2F758
:10327000CA018170089581E0089580E008958091E9
:10328000FB0384FD0BC08091FD0387FD07C0909177
:10329000FE03937081E019F480E0089581E00895C1
:1032A000FC01659175918591949108952FEB280FFC
:1032B0002A3108F047C0E22FF0E08091FB039091A3
:1032C000FC03A091FD03B091FE0304C0B695A79541
:1032D000979587952A95D2F780FD02C08170089551
:1032E000EF51FC4FE081EE2341F180919A179091CC
:1032F0009B17E80FF92FF11D808190ED980F9A3000
:1033000030F08E3251F4818180538A3098F4F093FA
:10331000DC03E093DB0381E008958D3211F08B3202
:1033200049F4818190ED980F9A3088F38E3211F430
:103330008281EACFF0E0E0E0EACF1092DC03109265
:10334000DB03E9CF80E00895B1DF882341F081E01D
:103350002091DB033091DC03232B09F480E00895F6
:10336000E0ECF3E080EF9FEFA9E7B4EC8483958372
:10337000A683B78380839183A283B383EAEAF3E0D1
:103380008DE98183808308958F929F92AF92BF923F
:10339000CF92DF92EF92FF92FC0198E0A2E6B4E0B8
:1033A00001900D929A95E1F788E0FB01AAE5B4E05F
:1033B00001900D928A95E1F7C0906204D090630469
:1033C000E0906404F090650420E030E0A901C701BA
:1033D000B6010E94A1CC8823E1F1A701960160E02B
:1033E00070E080E89FE30E9449D46B017C018090EB
:1033F000660490906704A0906804B090690420E08F
:1034000030E0A901C501B4010E94A1CC882329F1B3
:10341000A501940160E070E080E89FE30E9449D438
:10342000C092B803D092B903E092BA03F092BB0302
:103430006093BC037093BD038093BE039093BF035E
:10344000FF90EF90DF90CF90BF90AF909F908F90C4
:103450000895C12CD12C7601CACF60E070E0CB0179
:10346000DFCF8F929F92AF92BF92CF92DF92EF9277
:10347000FF92FC01828158E5C52E52E0D52EC81A74
:10348000D10887FDD394CC0CDD1CCC0CDD1C0D2C9D
:10349000000CEE08FF08818178E8872E912C881AAD
:1034A000910887FD9394880C991C880C991C092C11
:1034B000000CAA08BB0880818F3FD1F190E0FC018D
:1034C000EE0FFF1FE80FF91FEE59F74E8181928131
:1034D00033E0880F991F3A95E1F7B0E0A0E044E0AF
:1034E000B595A795979587954A95D1F702969C0132
:1034F0002F5F3F4F032E000C440B550B2819390941
:103500004A095B09A4EBB0E00E9409D3A701960128
:10351000281939094A095B090E94EDD2C901FF90B7
:10352000EF90DF90CF90BF90AF909F908F900895D5
:1035300090E080E0DCCFCF93DF93EC01C23281E0FA
:10354000D8076CF182E291E090931B1880931A18CF
:10355000C2E2D1E060911618709117188091181886
:10356000909119180E94B1D46E5F7F4F26976C1707
:103570007D07DCF470930509609304090E945DA83F
:10358000605C73468F4F9F4F6093060970930709E5
:103590008093080990930909DF91CF910895D09302
:1035A0001B18C0931A182097A9F6109206091092BA
:1035B00007091092080910920909EECF0F931F9383
:1035C00080911504813019F50E945DA800910D04C9
:1035D00010910E0420910F0430911004601B710BA8
:1035E000820B930B28EE33E040E050E00E94CBD2F8
:1035F0006091090470910A0480910B0490910C046D
:10360000620F731F841F951F1F910F910895609182
:103610001104709112048091130490911404D6CF78
:10362000CF93DF93C091EE17D091EF17209729F138
:103630006091EA177091EB178091EC179091ED175C
:103640000E94B1D46E5F7F4F24976C177D07ACF456
:103650007093E5086093E4080E945DA8605A754184
:103660008F4F9F4F6093E6087093E7088093E808B8
:103670009093E908DF91CF9108951092E608109297
:10368000E7081092E8081092E908F4CF4F925F9291
:103690006F927F928F929F92AF92BF92CF92DF9262
:1036A000EF92FF920F931F93CF93DF93082FEB01BD
:1036B000C880D980EA80FB8020E030E0A901C70102
:1036C000B6010E94A1CC18160CF079C020E030E0C1
:1036D00040E85FE3C701B6010E9494D587FF76C03A
:1036E00029E43AE046EC52ECC701B6010E9406CD4F
:1036F00021E931EE40E852E40E946DD32B013C01F8
:10370000A7019601C701B6010E9406CD4B015C01DD
:103710002FE237E942EF50EC0E9406CDA30192015F
:103720000E946DD32B013C01A5019401C701B60194
:103730000E9406CD29EF3AE44CE252E40E9406CD05
:10374000A30192010E946DD30E94E2D46B017C011F
:10375000BFB6F894C701B6010E94B6D4162FA701D0
:10376000960160E070E080E093E40E946CD30E94D8
:10377000B6D401112FC010935C1860935B18888138
:103780009981AA81BB818093541890935518A09376
:103790005618B0935718B7FE01C07894DF91CF91B7
:1037A0001F910F91FF90EF90DF90CF90BF90AF905F
:1037B0009F908F907F906F905F904F900895C12C55
:1037C000D12C80E8E82E82E4F82EC2CFC12CD12C77
:1037D0007601BECF10934A18609349188881998169
:1037E000AA81BB818093421890934318A0934418F8
:1037F000B0934518D0CF4F925F926F927F928F9285
:103800009F92AF92BF92CF92DF92EF92FF920F936F
:103810001F93CF93DF93EC0120915A0430915B0406
:1038200040915C0450915D04688179818A819B811B
:103830000E946CD36B017C0120915E0430915F0487
:1038400040916004509161046C817D818E819F81E3
:103850000E946CD34B015C01A70196016091C003EB
:103860007091C1038091C2039091C3030E94A1CCC7
:10387000882309F45AC0C092C003D092C103E092D9
:10388000C203F092C3032091B8033091B903409171
:10389000BA035091BB03C701B6010E9406CD2B01AC
:1038A0003C010E94E2D46B017C0120E030E0A901E0
:1038B0000E94A1CC87FD7AC020E030E040E850E4CF
:1038C000C701B6010E9494D5181634F4C12CD12C2E
:1038D000C0E8EC2EC0E4FC2EA7019601C301B201A2
:1038E0000E946CD32B013C0120E030E0A9010E9432
:1038F000A1CC87FD5FC04092B0035092B1036092AB
:10390000B2037092B303C701B6010E94B1D46093B1
:10391000AE03062E000C770B6F5F7F4F643071058E
:1039200014F064E070E06093AC03D091AA031091AE
:10393000AE03A50194016091C4037091C503809109
:10394000C6039091C7030E94A1CC81113CC0D11342
:1039500094C020919203309193034091940350912D
:1039600095036091B0037091B1038091B20390917F
:10397000B3030E9406CD20919603309197034091A6
:103980009803509199030E946DD3DF91CF911F91BD
:103990000F91FF90EF90DF90CF90BF90AF909F90EE
:1039A0008F907F906F905F904F900895C12CD12C95
:1039B000760192CF1092B0031092B1031092B2032D
:1039C0001092B303A0CF8092C4039092C503A0923B
:1039D000C603B092C7032091BC033091BD03409150
:1039E000BE035091BF03C501B4010E9406CD4B0137
:1039F0005C010E94E2D46B017C0120E030E0A9016F
:103A00000E94A1CC87FDFDC020E030E040E850E4FA
:103A1000C701B6010E9494D5181634F4C12CD12CDC
:103A2000B0E8EB2EB0E4FB2EA7019601C501B4016E
:103A30000E946CD34B015C0120E030E0A9010E94A0
:103A4000A1CC87FDE2C08092B4039092B503A0920E
:103A5000B603B092B703C701B6010E94B1D4609318
:103A6000AF03062E000C770B6F5F7F4F643071053C
:103A700014F064E070E06093AD03C091AF03D11324
:103A800005C08091AB038C1709F470C08091AE0320
:103A90009091AF039093AB038093AA030C2E000C7C
:103AA000DD0B25E01203C0011124FC01EC0FFD1F0A
:103AB000EE0FFF1FEE0FFF1FE159FB4F20813181F9
:103AC000428153812093A6033093A7034093A80318
:103AD0005093A9030091AD03002E000C110BFC01C3
:103AE000E00FF11FEE0FFF1FEE0FFF1FE159FB4F1D
:103AF00060817181828193810E946CD36093A20363
:103B00007093A3038093A4039093A5032091AC0327
:103B100035E02303F0011124CE0FDF1FCC0FDD1F92
:103B2000CC0FDD1FC159DB4F288139814A815B8170
:103B300020939E0330939F034093A0035093A103CF
:103B4000E00FF11FEE0FFF1FEE0FFF1FE159FB4FBC
:103B500060817181828193810E946CD360939A030A
:103B600070939B0380939C0390939D038090B40378
:103B70009090B503A090B603B090B7032091A20334
:103B80003091A3034091A4035091A503C501B40152
:103B90000E9406CD2091A6033091A7034091A8036F
:103BA0005091A9030E946DD36B017C01C0929603D2
:103BB000D0929703E0929803F092990320919A0390
:103BC00030919B0340919C0350919D03C501B4012A
:103BD0000E9406CD20919E0330919F034091A00347
:103BE0005091A1030E946DD3A70196010E946CD34E
:103BF000609392037093930380939403909395033F
:103C0000A8CEC12CD12C76010FCF1092B403109204
:103C1000B5031092B6031092B7031DCF4F925F9277
:103C20006F927F928F929F92AF92BF92CF92DF92CC
:103C3000EF92FF92CF93DF9300D000D0CDB7DEB7E5
:103C40002091A5092223D9F19E838D83D4DD4B01D8
:103C50005C01AD81BE8118964D905D906D907C9019
:103C60001B97AC019B01C301B2010E946CD36B0195
:103C70007C018091A6099091A709A091A809B09113
:103C8000A90989839A83AB83BC8320E030E0A90132
:103C9000BC01CD010E94A1CC882349F020E030E096
:103CA000A901C701B6010E94A1CC1816ECF0AD81A4
:103CB000BE811896CD92DD92ED92FC921B972696CE
:103CC0000FB6F894DEBF0FBECDBFDF91CF91FF904E
:103CD000EF90DF90CF90BF90AF909F908F907F90AC
:103CE0006F905F904F90089529813A814B815C815C
:103CF000C301B2010E9494D587FFE1CF2091A109B1
:103D00003091A2094091A3095091A409C501B401C1
:103D10000E9406CD9B01AC0160E070E080E89FE36B
:103D20000E946CD39B01AC01C701B6010E9449D42B
:103D3000ED81FE816087718782879387C0CF409134
:103D4000D70421E0422768E070E00C942CA0409159
:103D5000D70421E042276CE070E00C942CA0409145
:103D6000D70421E0422764E070E00C942CA040913D
:103D7000D70421E0422761E070E00C942CA0409130
:103D8000D70421E0422761E070E00C942CA0409120
:103D9000D70421E0422768E070E00C942CA0409109
:103DA000D70421E042276CE070E00C942CA041E0A5
:103DB00061E070E00C942CA041E062E070E00C94B3
:103DC0002CA04091D70421E042270C942CA06CE059
:103DD00070E00C94F6A764E070E00C94F6A762E043
:103DE00070E00C94F6A761E070E00C94F6A761E037
:103DF00070E00C94F6A76CE070E00C94F6A70F93BB
:103E00001F93CF93DF930BEC14E1C3ECD9E0F801DF
:103E100021913191419151918F0160E070E080E8F2
:103E20009FE30E9449D46993799389939993F9E028
:103E3000C33DDF0761F70E94B1A5DF91CF911F91CC
:103E40000F910C94A316CF93DF93CDB7DEB72C97C9
:103E50000FB6F894DEBF0FBECDBF19821A821B8247
:103E60001C821D821E821F82188619861A861B8656
:103E70001C86AE014F5F5F4FBC018BE592E00E9454
:103E800075A42C960FB6F894DEBF0FBECDBFDF91A0
:103E9000CF91089563E00C94E4AB8091DB039091A3
:103EA000DC03009731F04AE050E070E060E00C94F1
:103EB00001CB60E070E0CB0108958091DB0390912D
:103EC000DC03009731F04AE050E070E060E00C94D1
:103ED000D5C960E070E0CB010895EFDF97FD0AC01F
:103EE000ECDF6F3F71058105910509F02CF4E5DFEA
:103EF000862F089580E008958FEF0895CF93C62F01
:103F000023DA882311F0CF91E8CF8C2FCF91089539
:103F10008091DB039091DC03892B39F0DEDF91E0A7
:103F2000811101C090E0892F089591E0FCCFCF93DB
:103F3000DF93C82FD62F08DA882319F0DF91CF91AD
:103F4000E7CF8C2FB3D9811101C08D2FDF91CF9195
:103F50000895B3DFCB010895CF93DF93EB01F4D93C
:103F6000882319F0DF91CF91F4CFCE01DF91CF916B
:103F700008950F931F93CF938091DB039091DC03FF
:103F8000009709F1FC018F01C1912C2F2F7DA1F029
:103F9000C53431F0C53621F0C83511F0C83799F76E
:103FA000F801108270E060E00E947FC8F801C083D1
:103FB000CF911F910F91089570E060E0CF911F9114
:103FC0000F910C947FC860E070E0CB01F1CFCF92ED
:103FD000DF92EF92FF926A017B01B6D9882329F024
:103FE000FF90EF90DF90CF90C4CFC701B601FF9054
:103FF000EF90DF90CF9008954F925F926F927F92F3
:10400000AF92BF92CF92DF92EF92FF920F931F93E6
:10401000CF938AEFA82E82E0B82E99E3E92E94E0A0
:10402000F92E0BE512E02CE8C22E27E1D22EC0E0DB
:10403000F50181915F0188D9882309F476C099DF61
:104040002B013C018C2F05D9882309F464C0F801A9
:104050002081318142815381C301B2010E946DD31D
:10406000F7016083718382839383CF5FF4E0EF0E67
:10407000F11C0C5F1F4F84E0C80ED11CC330C1F689
:1040800085E462D9882309F45BC073DF6B017C018E
:1040900083E0DFD8882371F02091670230916802B5
:1040A0004091690250916A02C701B6010E946DD326
:1040B0006B017C01C0924504D0924604E092470413
:1040C000F092480440E050E0BA0186E480DF20E04E
:1040D00030E0A9010E9494D518167CF44ADF20E054
:1040E00030E040E752E40E9449D460931302709399
:1040F00014028093150290931602CF911F910F9195
:10410000FF90EF90DF90CF90BF90AF907F906F9037
:104110005F904F900895F601208131814281538153
:10412000C301B2010E946CD39BCFF80180819181C1
:10413000A281B381F70180839183A283B38395CF5A
:104140008091670290916802A0916902B0916A0221
:104150008093450490934604A0934704B093480489
:10416000B1CFCF93DF93EC01688170E085E00E94CE
:10417000D6A6698170E084E00E94D6A66A8170E0CC
:1041800086E00E94D6A688819981482F490F55273D
:10419000551F8A81840F952F911D21E08330910551
:1041A0000CF420E02093D80803974CF08881998183
:1041B000AA818093D1189093D218A093D318DF913D
:1041C000CF9108958F929F92AF92BF92CF92DF923C
:1041D000EF92FF92CF93DF9300D0CDB7DEB72FEFF2
:1041E0008417950731F16A01052E000CEE08FF08CF
:1041F0004C01092E000CAA08BB08681779072CF09F
:10420000CB01461757070CF4CA019C01990F440BC8
:10421000550B281939094A095B09AFEFB0E00E9434
:1042200009D3A7019601281939094A095B090E9497
:10423000EDD280910804821751F0209308048FEF8B
:1042400089831A8220952B83CE0101968ADF0F90F5
:104250000F900F90DF91CF91FF90EF90DF90CF9074
:10426000BF90AF909F908F9008958F929F92AF9242
:10427000BF92CF92DF92EF92FF92CF93DF9300D065
:10428000CDB7DEB72FEF8417950731F16A01052E00
:10429000000CEE08FF084C01092E000CAA08BB0810
:1042A000681779072CF0CB01461757070CF4CA01A1
:1042B0009C01990F440B550B281939094A095B09D0
:1042C000AFEFB0E00E9409D3A70196012819390980
:1042D0004A095B090E94EDD280910804821749F0D7
:1042E0002093080429831A828FEF8B83CE010196D5
:1042F00038DF0F900F900F90DF91CF91FF90EF90EC
:10430000DF90CF90BF90AF909F908F900895AF9225
:10431000BF92CF92DF92EF92FF920F931F93CF93B2
:104320005C016B018A018E579C4F7C01DC01CC91B2
:10433000C7FF3DC0FB0111821082CF5FD701CC9334
:10434000CC300CF053C08CE08A9DF0018B9DF00DB9
:104350001124CF018C0F911DC7FD9A952091AA18A9
:104360002817190609F00CF441C0F60120813181AB
:10437000FC01EE0FFF1FE80FF91FEE59F74E818188
:104380009281820F931FD80111969C938E93808106
:1043900087FF3DC061E08F77CF911F910F91FF9014
:1043A000EF90DF90CF90BF90AF900C944AA68CE036
:1043B0008A9DF0018B9DF00D1124CF018C0F911D72
:1043C000C7FD9A952091AA182817190609F00CF430
:1043D000B4CFFC01EE0FFF1FE80FF91FEE59F74EA7
:1043E000808160E08F770E944AA6A7CFF601808186
:1043F000918104968034FCE99F0710F480E49CE9E5
:10440000D80111969C938E938FEFF7018083CF9103
:104410001F910F91FF90EF90DF90CF90BF90AF90E2
:1044200008950F930FB70F9300916E000D7F0093C7
:104430006E0078940F930BB70F930CB70F921F92E7
:104440002F933F934F935F936F937F938F939F939C
:10445000AF93BF93EF93FF9311244BD5FF91EF914F
:10446000BF91AF919F918F917F916F915F914F918C
:104470003F912F911F900F900CBF0F910BBF0F9189
:104480000260F89400936E000F910FBF0F91189582
:10449000CF93DF931092FC08C2E1D8E11986188609
:1044A0000E947DB91A862C98C6EED7E11986188627
:1044B000B7D81A8680910201807280930001DF9143
:1044C000CF9108958F929F92AF92BF92CF92DF9239
:1044D000EF92FF920F931F93CF93DF93B0E4A0E08E
:1044E0006A2F70E0AB014B0F511D55954795411157
:1044F00019C0EFEBF9E165917491072E000C880B60
:10450000990B0E94A7CCDF91CF911F910F91FF9043
:10451000EF90DF90CF90BF90AF909F908F900895D5
:10452000B42FE0CFA41711F0B41303C0EBEBFAE102
:10453000E2CF9A0121503109220F331F220F331F7E
:10454000F901E354F64EE590F490F901EF53F64E7D
:10455000C591D4918E159F0518F3A42FC817D907BC
:1045600008F4BECFF901E154F64E05911491F9011A
:10457000ED53F64EC590D4908E199F09BC0190E082
:1045800080E00E94A5CC4B015C01B601601B710B61
:10459000072E000C880B990B0E94A7CC9B01AC0145
:1045A000C501B4010E9406CD4B015C01CE19DF09A3
:1045B000BE0190E080E00E94A5CC9B01AC01C5014A
:1045C000B4010E9449D46B017C01B801110F880B22
:1045D000990B0E94A7CC9B01AC01C701B6010E94B8
:1045E0006DD391CFBC012091B5083091B6084091B0
:1045F000B5085091B6082417350731F481E0261725
:10460000370709F080E008959A01F1CF0F930FB7B3
:104610000F9300916E000F930D7F00936E00009139
:104620006F000D7F00936F000F930BB70F930CB7C4
:104630000F921F922F933F934F935F936F937F93AC
:104640008F939F93AF93BF93EF93FF93112483D5E1
:10465000FF91EF91BF91AF919F918F917F916F915A
:104660005F914F913F912F911F900F900CBF0F9131
:104670000BBF0F910260F89400936F000F910093AD
:104680006E000F910FBF0F9118958091890980FFDF
:1046900023C089988FEF809366088091890981FFF4
:1046A0001EC08F988FEF809367088091890982FFE1
:1046B00019C080910B018095827080930901439A03
:1046C0008FEF809368088091890983FF13C0169843
:1046D0008FEF809369080895899A81E0DCCF8F9AE3
:1046E00081E0E1CF80910B018270809309014398B2
:1046F00081E0E7CF169A81E0ECCF8091D804877FE4
:104700008093D804129A81E0089580E00E94CF142B
:1047100081E00E94CF1482E00E94CF14EECF129865
:104720008091D80488608093D8040895813089F0FE
:1047300070F0823081F021E030E001C0220F8A95D4
:10474000EAF78091D804822B8093D80408955F986B
:10475000F2CF8A98F0CF9091080191709093060162
:104760004798E9CFCF93DF9380914D04811119C011
:10477000C0911D02D0911E02219720E030E040E060
:104780005FE3609116187091171880911818909136
:1047900019180E946DD30E94B1D421E06C177D07D7
:1047A0000CF020E0822FDF91CF9108958F929F929D
:1047B000AF92BF92CF92DF92EF92FF92CF93DF93AF
:1047C0002091A509222309F482C0EC018090A6095A
:1047D0009090A709A090A809B090A90920E030E026
:1047E000A901C501B4010E94A1CC882309F47AC0B3
:1047F000C884D984EA84FB8420E030E0A901C701A1
:10480000B6010E94A1CC18160CF06CC0A70196014D
:10481000C501B4010E94A1CC18160CF058C020911B
:104820009D0930919E0940919F095091A009C701AF
:10483000B6010E94A1CC882321F1C0929D09D0929B
:104840009E09E0929F09F092A0092091A109309160
:10485000A2094091A3095091A409C701B6010E9481
:1048600006CD9B01AC0160E070E080E89FE30E9410
:104870006CD36093190270931A0280931B02909379
:104880001C02C0901902D0901A02E0901B02F09016
:104890001C0220E030E0A901C701B6010E94A1CCB2
:1048A0008823A9F0CE010E94FB1B9B01AC01C7012C
:1048B000B6010E9406CD9B01AC01688579858A8589
:1048C0009B850E946DD3688779878A879B87DF9154
:1048D000CF91FF90EF90DF90CF90BF90AF909F90DF
:1048E0008F900895C12CD12C80E8E82E8FE3F82E0C
:1048F000D9CF2F923F924F925F926F927F928F9279
:104900009F92AF92BF92CF92DF92EF92FF920F935E
:104910001F93CF93DF93CDB7DEB7A0970FB6F89470
:10492000DEBF0FBECDBF1C017B015E834D83FC014A
:10493000EA5BFF4F208131814281538129833A8391
:104940004B835C83CA01B9010E94A5CC4B015C0179
:10495000D7012D913D914D915C910E9406CD0E9411
:1049600033D42B013C01ED81FE81208131814281D4
:104970005381C501B4010E9406CD0E9433D46B015E
:104980007C01C301B2010E94B6D469877A878B8704
:104990009C87683771058105910540F428E730E070
:1049A00040E050E029873A874B875C87C701B60112
:1049B0000E94B6D46D877E878F87988B6837710584
:1049C0008105910548F428E7C22ED12CE12CF12C69
:1049D000CD86DE86EF86F88AD1019596CD90DD9062
:1049E000ED90FC909897CD82DE82EF82F886F101FF
:1049F000EE5AFF4F6081718182819381611571054B
:104A00008105910509F49FC10E94A7CC6D8B7E8B17
:104A10008F8B988F9B01AC0160E070E080E89FE392
:104A20000E9449D4698F7A8F8B8F9C8F20E030E071
:104A300040E05FE30E9406CD6B017C01A50194017B
:104A4000C501B4010E9406CD2B013C016D857E8518
:104A50008F8598890E94A5CC9B01AC010E9406CD50
:104A60009B01AC01C301B2010E946CD3A701960166
:104A70000E9406CD4B015C0169857A858B859C85FA
:104A80000E94A5CC9B01AC010E9406CD6D8F7E8F4C
:104A90008F8F98A39B01AC01C301B2010E946CD31C
:104AA000A70196010E9406CD2B013C010E9433D440
:104AB0000E94B6D46B017C01C501B4010E94E2D40E
:104AC0000E94B6D4698B7A8B8B8B9C8BDC01CB01DB
:104AD0008C0D9D1DAE1DBF1D2D813E814F815885C2
:104AE000281B390B4A0B5B0BDA01C901B7FF61C008
:104AF0006D817E818F8198850E94A5CCA301920152
:104B00000E946DD3A50194010E946CD320E030E097
:104B100040E05FE30E9406CD0E9433D46B017C012C
:104B200020E030E0A9010E9494D518161CF0C12C99
:104B3000D12C7601C701B6010E94B6D46B017C016D
:104B40004D815E816F8178854C155D056E057F0511
:104B500010F46A017B016D817E818F8198856C19CB
:104B60007D098E099F09698B7A8B8B8B9C8BC70182
:104B7000B6010E94A5CC4B015C012D893E894F896D
:104B8000588DCA01B9010E946DD39B01AC01C501CA
:104B9000B4010E9406CD2D8D3E8D4F8D58A10E94EF
:104BA0006DD30E94DAD50E94B6D469837A838B8351
:104BB0009C8320E034E244EF59E4698D7A8D8B8D3B
:104BC0009C8D0E9406CD4B015C0169817A818B81AD
:104BD0009C8129853A854B855C85621B730B840B10
:104BE000950B0E94A5CCA50194010E9406CD0E94C0
:104BF000B6D42B013C0169817A818B819C812D8502
:104C00003E854F855889621B730B840B950B0E9460
:104C1000A5CCA50194010E9406CD0E94B6D44B01FB
:104C20005C013FE6431651046104710408F097C02B
:104C3000F201EE0FFF1FEE0FFF1FE452FE4E8591B3
:104C40009591A591B4918C01AD8BBD834FE68416EF
:104C50009104A104B10408F08AC0F401EE0FFF1F13
:104C6000EE0FFF1FE452FE4E4591559165917491F0
:104C70009A01CB01D1019996CD92DD92ED92FC92F1
:104C80009C9795964D915D916D917C919897C9886F
:104C9000DA88EB88FC884C195D096E097F099D96BE
:104CA0004D935D936D937C93D097F101E65BFF4F3D
:104CB000C984DA84EB84FC84C082D182E282F382EC
:104CC000D5964D925D926D927C92D897F10181AE0E
:104CD00092AEA3AEB4AEFD9600831183CD88C2829E
:104CE000DD80D38234962083318382839383C9808D
:104CF000DA80EB80FC80D196CD92DD92ED92FC9231
:104D0000D4973D96CD84DE84EF84F888C082D1822A
:104D1000E282F382A0960FB6F894DEBF0FBECDBF3D
:104D2000DF91CF911F910F91FF90EF90DF90CF9087
:104D3000BF90AF909F908F907F906F905F904F90BB
:104D40003F902F900895198E1A8E1B8E1C8E198AF3
:104D50001A8A1B8A1C8AC12CD12C76012ACFC30146
:104D6000B2010E94A6158B018D8B9D836FCFC5016B
:104D7000B4010E94A6159B017DCFEFE6F0E0808193
:104D8000826080830895CF93C82F0E948D1794E08E
:104D9000C99F90011124F901E454F74F2853374F6C
:104DA000D9014D915D916D917C91408351836283D6
:104DB000738391E09093BB08882311F0CF91DDCFEE
:104DC000CF910895CF93DF9380911904659979C0AD
:104DD000816080931904909103018091190491FDE1
:104DE00072C0826080931904809119044B996DC040
:104DF000846080931904809119044A9B68C088607C
:104E0000809319048091190490911804981709F45B
:104E100060C092E0909317048093180480918809F1
:104E2000811105C080918A09882309F45FC0C0916F
:104E3000A608C0FF0FC08091890980FF0BC0809138
:104E4000160480FF07C080919809816080939809BB
:104E500080E099DFC1FF0FC08091890981FF0BC0FD
:104E60008091160481FF07C0809198098260809329
:104E7000980981E088DFC2FF39C08091890982FFEB
:104E800035C080918A0981110BC08091160482FF80
:104E900007C08091980984608093980982E073DF4D
:104EA00080918A09882311F18091160483FF1EC026
:104EB0008091980988608093980982E0DF91CF9172
:104EC00062CF8E7F86CF8D7F8DCF8B7F92CF877F76
:104ED00097CF80911704882309F4A0CF8150809345
:104EE000170481119BCF9093160498CFDF91CF9137
:104EF00008951F93CF93DF93809147028F3708F473
:104F00009AC08F5790911C1890930309992309F424
:104F100090C02C9A2091F0172093020990910201E1
:104F2000211190959072909300018F5F80934702BA
:104F30008091010991E089278093010980914602BF
:104F4000980F85300CF090E0823009F4CFC00CF05F
:104F50007FC0882309F494C0813009F4BBC09093CA
:104F60004602C091FE08D091FF08209709F451C075
:104F7000F89410910901127082E0D8DB80910B0146
:104F80001C161D060CF080958270809309011C167A
:104F90001D060CF4DAC0439A2091840030918500FC
:104FA00080910B018095887080930901419A8091CE
:104FB000840090918500821B930BB0E0A0E043E059
:104FC000880F991FAA1FBB1F4A95D1F78097A1058B
:104FD000B10568F380910B018870809309014198B5
:104FE00080910B011111809582708093090111232A
:104FF00009F4ADC0439A78948091FE089091FF081F
:105000001C161D060CF0A5C001979093FF08809315
:10501000FE08D8DE8091B5149091B614009729F05F
:1050200001979093B6148093B514DF91CF911F919F
:1050300008952C986FCF90910309891708F02C9848
:1050400090910209891708F470CF909102016ACFFC
:10505000843009F463C00CF45CC0853009F07FCF64
:1050600020910009211102C080930009809100095C
:10507000815080930009882309F471CF95E06FCFA8
:10508000809145028F5F80311CF48093450267CF89
:10509000109245028091FD08811113C020911218D1
:1050A0003091131830931518209314182091E61797
:1050B0003091E7173093E9172093E81781E0809348
:1050C000FD0810921318109212181092E717109200
:1050D000E61745CF88E080937B0085E480937C00D1
:1050E00080917A00806480937A0039CF80917A0031
:1050F00086FD27C0409178005091790020911218C8
:1051000030911318240F351F309313182093121861
:1051100026CF88E080937B0086E4E0CF80917A0000
:1051200086FD11C040917800509179002091E617DA
:105130003091E717240F351F3093E7172093E617B8
:105140000ECF92E00CCF94E00ACF439825CF43983E
:1051500052CF01965ACF2F923F924F925F926F9209
:105160007F928F929F92AF92BF92CF92DF92EF92F7
:10517000FF920F931F93CF93DF93CDB7DEB76B975B
:105180000FB6F894DEBF0FBECDBF8FEF9FEF9093A9
:105190008900809388002AE028871A8219827894EF
:1051A000809141029091420221E0892B61F030917F
:1051B0009A0921E080913B0290913C023817190630
:1051C00009F008F420E08091430290914402892B79
:1051D00009F455C030919A0941E04B83809139021E
:1051E00090913A023817190609F008F41B82211130
:1051F00049C04B80442009F45DC11F821FEF02E0CB
:105200004F80442009F47BC00E94531560915918C7
:1052100070915A1820915C1830E041E050E0811103
:1052200002C04FEF5FEF249FC001259F900D349F78
:10523000900D1124860F971F90935A188093591838
:105240002091660812160CF5813C9F4F1CF52091A9
:105250008400309185008091840090918500821BAC
:10526000930B0297C0F38091890991E0982790935E
:10527000890980FD83C08998109366080BC051E0AE
:105280005B83B5CF21E02F83B9CF222319F080347F
:105290009105ECF68091591890915A189C01215C67
:1052A0003F4F2F37310508F46EC04091660820E863
:1052B00030E0141614F420E83FEF820F931F909310
:1052C0005A1880935918842F440F990BAA0BBB0BC3
:1052D0004091C8085091C9086091CA087091CB08E4
:1052E000840F951FA61FB71F8093C8089093C90805
:1052F000A093CA08B093CB08889A41E04F834B80B3
:10530000442009F47CC00E94FC14609147187091FD
:10531000481820914A1830E041E050E0811102C065
:105320004FEF5FEF249FC001259F900D349F900D9C
:105330001124860F971F9093481880934718209147
:105340006708121614F5813C9F4F24F520918400C4
:10535000309185008091840090918500821B930B91
:105360000297C0F380918909982F9027909389091B
:1053700081FD96C08F98109367080CC0899A31E020
:105380003093660887CF1F82BACF222319F080346A
:105390009105E4F680914718909148189C01215C92
:1053A0003F4F2F37310508F480C04091670820E84F
:1053B00030E0141614F420E83FEF820F931F90930F
:1053C000481880934718842F440F990BAA0BBB0BE6
:1053D0004091CC085091CD086091CE087091CF08D3
:1053E000840F951FA61FB71F8093CC089093CD08FC
:1053F000A093CE08B093CF088E9A41E04B834F80A4
:10540000411003C05B80552091F0209184003091C1
:1054100085008091840090918500821B930B0297F8
:10542000C0F36F80611088987B8071108E98809196
:1054300041029091420221E0892B61F030919A095A
:1054400021E080913B0290913C023817190609F047
:1054500008F420E02F838091430290914402892B2D
:1054600031F130919A0941E04B838091390290915A
:105470003A023817190609F008F41B82211103C0FB
:105480004B804420B9F020918400309185008091B8
:10549000840090918500821B930B0297C0F3B0CEDD
:1054A0008F9A31E03093670875CF1B82A8CF51E007
:1054B0005B83E4CF8091B1089091B208A091B308CA
:1054C000B091B408892B8A2B8B2B09F0B4C380913F
:1054D000BB08882309F464C08091B5089091B60890
:1054E0001092BB08892B09F45BC01092B608109289
:1054F000B5081092A6089091BF188091C01898170F
:1055000031F08091C0188F5F8F718093C018209107
:105510006C0830916D0830936B0820936A088EE216
:1055200091E090933C0280933B0266246A94762C2F
:10553000709242026092410230936F0820936E088D
:1055400090933A028093390270924402609243022F
:1055500010925A18109259188091C8089091C90851
:10556000A091CA08B091CB0880935E1890935F1801
:10557000A0936018B09361181092481810924718C1
:105580008091CC089091CD08A091CE08B091CF0821
:1055900080934C1890934D18A0934E18B0934F18C9
:1055A0008091B5089091B608892B09F444C34091C5
:1055B000AB085091AC086091AD087091AE08809135
:1055C000A7089091A808A091A908B091AA08481727
:1055D00059076A077B0708F02EC300919A0910E06B
:1055E00030E020E0841B950BA60BB70B08171907BA
:1055F0002A073B0710F4D901C8018F83840F951F38
:10560000A61FB71F8093AB089093AC08A093AD087A
:10561000B093AE08312C212C21E0298780907408AA
:1056200090907508A0907608B090770880918408D3
:1056300090918508A0918608B0918708880E991EE0
:10564000AA1EBB1E8092840890928508A0928608AC
:10565000B0928708950184010095109520953095AA
:10566000002737FD0395112722273327602FB7FC2A
:1056700018C08091700890917108A0917208B09143
:10568000730824013501481A590A6A0A7B0AD301B2
:10569000C2018093840890938508A0938608B093F4
:1056A0008708C0907808D0907908E0907A08F09048
:1056B0007B088091880890918908A0918A08B09110
:1056C0008B08C80ED91EEA1EFB1EC0928808D09215
:1056D0008908E0928A08F0928B08D701C60180956C
:1056E0009095A095B0958827B7FD83959927AA270F
:1056F000BB27182FF7FC18C0809170089091710893
:10570000A0917208B0917308A7019601281B390B6C
:105710004A0B5B0BDA01C9018093880890938908D2
:10572000A0938A08B0938B0840907C0850907D0825
:1057300060907E0870907F0880918C0890918D0811
:10574000A0918E08B0918F08A3019201280F391FF4
:105750004A1F5B1F2B833C834D835E8320938C0801
:1057600030938D0840938E0850938F0857FD16C0D4
:105770008091700890917108A0917208B09173089F
:10578000281B390B4A0B5B0BDA01C90180938C088B
:1057900090938D08A0938E08B0938F088091800815
:1057A00090918108A0918208B09183084090900860
:1057B000509091086090920870909308480E591E7E
:1057C0006A1E7B1E40929008509291086092920847
:1057D0007092930877FC18C08091700890917108BE
:1057E000A0917208B0917308A3019201281B390B94
:1057F0004A0B5B0BDA01C9018093900890939108E2
:10580000A0939208B093930880915818811101C019
:1058100060E070914618772311F40C94F034F7FE91
:1058200002C00C94F034A0914B18B0915D182091F7
:105830006A0830916B0880916C0890916D08281768
:10584000390751F4662341F04091B9085091BA08E4
:10585000509342024093410240916E0850916F086C
:105860005B8F4A8F8417950751F4772341F040915D
:10587000B7085091B8085093440240934302FC018A
:10588000EE0FFF1FE85FF94F4091AF085091B0084D
:105890005183408350E0662321F051E0B11101C0F3
:1058A00052E0FC01E752FB4F40814C7F452B408387
:1058B00050E0772321F051E0A11101C052E0550FD3
:1058C000550F4081437F452B408301968F3251E035
:1058D000950709F46CC090936D0880936C088091D3
:1058E0003B0290913C02019790933C0280933B02D3
:1058F0008091390290913A02019790933A028093F5
:10590000390227523B4FD9018C91837011F40E94C8
:105910005315EA8DFB8DE752FB4F80818695869566
:10592000837011F40E94FC1480915818882309F4A4
:1059300061C0B7FC5FC06091591870915A182091EE
:105940005B1830E080915D1841E050E0811102C0A9
:105950004FEF5FEF249FC001259F900D349F900D66
:105960001124860F971F90935A18809359182091ED
:10597000660812160CF5813C9F4F1CF5209184009F
:10598000309185008091840090918500821B930B5B
:105990000297C0F38091890991E098279093890933
:1059A00080FD6BC089982FEF209366080AC0109283
:1059B0006D0810926C0893CF222319F08034910562
:1059C000ECF68091591890915A189C01215C3F4F38
:1059D00000E02F37310570F02091660812160CF0A8
:1059E00051C020E83FEF820F931F90935A18809385
:1059F000591801E080914618882309F464C0F7FC27
:105A000062C060914718709148182091491830E0A1
:105A100080914B1841E050E0811102C04FEF5FEFE1
:105A2000249FC001259F900D349F900D1124860F57
:105A3000971F909348188093471820916708121673
:105A400024F5813C9F4F34F52091840030918500EE
:105A50008091840090918500821B930B0297C0F384
:105A60008091890992E098279093890981FD95C1D9
:105A70008F985FEF509367080DC0899A31E030939B
:105A800066089FCF20E830E0AECF222319F08034A3
:105A90009105D4F680914718909148189C01215C9B
:105AA0003F4F10E02F37310570F020916708121634
:105AB0000CF078C120E83FEF820F931F90934818B5
:105AC0008093471811E09985911108C08091840056
:105AD00090918500821993090297C0F30023E1F0A9
