:100000000C94F2100C9432110C9432110C943211A5
:100010000C9432110C9432110C9432110C94321154
:100020000C9432110C9432110C9432110C94321144
:100030000C9432110C9432110C9432110C94321134
:100040000C9432110C94141A0C9432110C94321139
:100050000C9432110C94CF180C9432110C947A98A1
:100060000C9432110C9409390C94D3380C9432113D
:100070000C9432110C9432110C9432110C943211F4
:100080000C9432110C9432110C9432110C943211E4
:100090000C9432110C9432110C9432110C943211D4
:1000A0000C9432110C9432110C9432110C943211C4
:1000B0000C9432110C9432110C9432110C943211B4
:1000C0000C9432110C9432110C9432110C943211A4
:1000D0000C9432110C9432110C9432110C94321194
:1000E0000C943211084AD73B3BCE016E84BCBFFD55
:1000F000C12F3D6C74319ABD56833DDA3D00C77FF8
:1001000011BED9E4BB4C3E916BAAAABE0000008090
:100110003F05A84CCDB2D44EB93836A9020C50B91F
:10012000918688083CA6AAAA2ABE000000803F004B
:100130004E414E494E495459494E46CDCCCC3D0ACC
:10014000D7233C17B7D13877CC2B329595E6241FAF
:10015000B14F0A000020410000C84200401C462068
:10016000BCBE4CCA1B0E5AAEC59D7400407A10F33B
:100170005A00A0724E18090010A5D4E80000E876D5
:1001800048170000E40B54020000CA9A3B0000002C
:10019000E1F505000080969800000040420F000045
:1001A00000A08601000000102700000000E8030006
:1001B0000000006400000000000A000000000001D0
:1001C00000000000002C76D888DC674F0823DFC1D0
:1001D000DFAE59E1B1B796E5E3E453C63AE651998B
:1001E0007696E8E6C28426EB898C9B62ED407C6FB4
:1001F000FCEFBC9C9F40F2BAA56FA5F490055A2A6B
:10020000F75C936B6CF9676DC11BFCE0E40D47FE76
:10021000F520E6B500D0ED902E030094357705006B
:1002200080841E080000204E0A000000C80C3333F2
:1002300033330F986E12831141EF8D2114893BE601
:100240005516CFFEE6DB18D1844B381BF77C1D908A
:100250001DA4BBE424203284725E228100C9F124F3
:10026000ECA1E53D27434F4D4D554E49434154497F
:100270004F4E0044525952554E004552524F525320
:1002800000494E464F004543484F004D323400531D
:10029000544F505045442E20005072696E74657260
:1002A0002073746F707065642064756520746F20AE
:1002B0006572726F72732E204669782074686520AB
:1002C0006572726F7220616E6420757365204D399E
:1002D000393920746F20726573746172742E20280E
:1002E00054656D70657261747572652069732072F2
:1002F000657365742E20536574206974206166747B
:1003000065722072657374617274696E67290A0080
:100310004E6F20436865636B73756D2077697468F1
:10032000206C696E65206E756D6265722C204C6163
:100330007374204C696E653A20004E6F20436865E7
:10034000636B73756D2077697468206C696E6520C6
:100350006E756D6265722C204C617374204C696EF1
:10036000653A2000636865636B73756D206D697312
:100370006D617463682C204C617374204C696E65E8
:100380003A20004C696E65204E756D626572206979
:1003900073206E6F74204C617374204C696E6520FD
:1003A0004E756D6265722B312C204C617374204C3C
:1003B000696E653A20004D313130005365726961D4
:1003C0006C20737461747573206D69736D617463EF
:1003D000680A0053442072656164206572726F720E
:1003E0000A00746F6F206D75636820696E616374B5
:1003F0006976652074696D65202D2063757272655C
:100400006E7420636F6D6D616E643A20002121204F
:100410004B494C4C20636175736564206279200000
:100420004D6564696120496E73657274656400622C
:100430007573793A2070617573656420666F7220F8
:10044000696E7075740A00627573793A207061750F
:1004500073656420666F7220757365720A00627539
:1004600073793A2070726F63657373696E670A00FF
:100470006563686F3A004572726F723A002F2F61A0
:100480006374696F6E3A006E6F7469666963617454
:10049000696F6E20006E6F74696669636174696F5D
:1004A0006E2000656E6400627574746F6E00486F34
:1004B00074656E6420746F6F20636F6C640A0070E3
:1004C000617573656400486561642063616E6E6F79
:1004D00074206265207061726B6564005061757391
:1004E000650020440020204D323030205300202869
:1004F00044697361626C6564293A0046696C616D98
:10050000656E742073657474696E67730020204D86
:100510003230312058004D617820416363656C654D
:10052000726174696F6E2028756E6974732F7332EF
:10053000290020204D3230332058004D617820664C
:1005400065656472617465732028756E6974732FB4
:1005500073290020520020204D32303420500041B9
:100560006363656C65726174696F6E2028756E696E
:1005700074732F7332292028503C7072696E742D69
:10058000616363656C3E20523C7265747261637492
:100590002D616363656C3E20543C74726176656CBA
:1005A0002D616363656C3E2900204A0020540020C1
:1005B000530020204D323035204200416476616E78
:1005C0006365642028423C6D696E5F7365676D6585
:1005D0006E745F74696D655F75733E20533C6D6921
:1005E0006E5F66656564726174653E20543C6D693A
:1005F0006E5F74726176656C5F6665656472617466
:10060000653E204A3C6A756E635F6465763E2900EC
:1006100020440020490020204D3330312050004834
:100620006F74656E642050494400204400204900E6
:1006300020204D333034205000426564205049441E
:100640000020440020204D35393320592046002019
:10065000440020204D3539332058204600496E7023
:1006600075742053686170696E6700203B002055E7
:100670000020204D363033204C0046696C616D659A
:100680006E74206C6F61642F756E6C6F6164003BDB
:10069000200020496E76616C6964206578747275FB
:1006A0006465722000536C6565702E2E2E0070728A
:1006B0006F6D70745F00626567696E004D30205326
:1006C000746F70004D312053746F70004E6F204D69
:1006D0006F76652E00456E642066696C65206C69D6
:1006E00073740A00426567696E2066696C65206CE8
:1006F0006973740A004E6F206D656469610A005366
:100700004420636172642072656C65617365640A7C
:1007100000726573756D6500526573756D696E67FE
:1007200020534400286E6F2066696C65290043756C
:100730007272656E742066696C653A20002E0A003C
:1007400044656C6574696F6E206661696C65642CC4
:100750002046696C653A200046696C652064656CCA
:10076000657465643A0043616E6E6F74206F7065E6
:100770006E207375626469722000256973002569B3
:100780006D20256973002569682025696D2025691C
:100790007300256964202569682025696D20256915
:1007A00073002569792025696420256968202569F9
:1007B0006D20256973005072696E742074696D65CF
:1007C0003A20006F6B006F666600860281027A0233
:1007D0007302650244454255473A004D313133209A
:1007E000530047656E697573204F46462E007D7D28
:1007F0007D0A002C7A3A002C793A007D2C6D6178C4
:100800003A7B783A002C7A3A002C793A007D7D2C9C
:10081000776F726B3A7B6D696E3A7B783A002C7A0F
:100820003A002C793A007D2C6D61783A7B783A0059
:100830002C7A3A002C793A00617265613A7B6675D0
:100840006C6C3A7B6D696E3A7B783A00434F4E464A
:1008500049475F4558504F5254004D45415450410F
:10086000434B00434F4F4C45525F54454D5045520A
:100870004154555245004348414D4245525F54450D
:100880004D504552415455524500424142595354EE
:10089000455050494E470041524353004D4F544933
:1008A0004F4E5F4D4F44455300544845524D414CC7
:1008B0005F50524F54454354494F4E00455854459C
:1008C0004E4445445F4D323000435553544F4D5FC5
:1008D0004649524D574152455F55504C4F41440097
:1008E0004C464E5F5752495445004C4F4E475F4669
:1008F000494C454E414D45004155544F5245504F8E
:1009000052545F53445F5354415455530053445F12
:10091000575249544500524550454154004D554C9D
:1009200054495F564F4C554D450053444341524442
:100930000050524F4D50545F535550504F52540039
:10094000484F53545F414354494F4E5F434F4D4DC1
:10095000414E445300454D455247454E43595F5023
:10096000415253455200434153455F4C4947485417
:100970005F4252494748544E45535300544F4747EE
:100980004C455F4C494748545300534F46545741D8
:1009900052455F504F574552004255494C445F50B5
:1009A000455243454E54004C4556454C494E475FD1
:1009B00044415441005A5F50524F42450052554EF7
:1009C0004F5554004155544F4C4556454C005052DC
:1009D000494E545F4A4F420050524F47524553537D
:1009E000004155544F5245504F52545F54454D505D
:1009F000004155544F5245504F52545F504F530091
:100A0000564F4C554D455452494300454550524F61
:100A10004D0042494E4152595F46494C455F545240
:100A2000414E534645520053455249414C5F584F41
:100A30004E5F584F4646004649524D574152455F1A
:100A40004E414D453A4D61726C696E20322E312E09
:100A5000322E3120284E6F7620203520323032332E
:100A60002030383A33363A34392920534F555243DF
:100A7000455F434F44455F55524C3A67697468750A
:100A8000622E636F6D2F4D61726C696E4669726D77
:100A9000776172652F4D61726C696E2050524F54B0
:100AA0004F434F4C5F56455253494F4E3A312E30CB
:100AB000204D414348494E455F545950453A47659A
:100AC0006E6975732045585452554445525F434FE3
:100AD000554E543A3120555549443A636564653260
:100AE0006132662D343161322D343734382D39621C
:100AF00031322D63353563363266333637666600FC
:100B00002F2F003F4A206F7574206F662072616E30
:100B100067652028302E303120746F20302E332925
:100B20000A002058004F4646004F4E0020204D61DD
:100B3000783A2000200020204D696E3A2000203BAA
:100B4000200020204D323131205300536F66742035
:100B5000656E6473746F707300250A0046523A0024
:100B600020466C6F773A200064697300656E00431D
:100B7000290A0061626C656420286D696E207465C5
:100B80006D702000436F6C642065787472756465C5
:100B9000732061726520004F66667365747320412F
:100BA00070706C69656400546F6F206661722066B6
:100BB000726F6D207265666572656E636520706F19
:100BC000696E740A00454550524F4D204F4B0A0044
:100BD000206F72203020746F2064697361626C65CD
:100BE0000A003F4672657175656E63792028462953
:100BF000206D75737420626520677265617465721B
:100C0000207468616E20003F5A6574612028442971
:100C10002076616C7565206F7574206F6620726137
:100C20006E67652028302D31290A002E0A00202801
:100C3000302D313029002076616C7565206F757418
:100C4000206F662072616E676500416476616E6335
:100C500065204B3D004D3834005072696E7420445D
:100C60006F6E6500446F6E65207072696E74696E98
:100C7000672066696C650A004D3737004D333100D7
:100C8000496E76616C69642065787472756465720A
:100C90000A0020204D323036205800486F6D652004
:100CA0006F666673657400446966663A20202000AA
:100CB00046726F6D5374703A00537465707065724C
:100CC0003A005261773A20202020000A4C6F676971
:100CD00063616C3A00436F756E7420453A0043615E
:100CE000703A0047322F473320626164207061728E
:100CF000616D65746572730A0020573A004265643D
:100D000020436F6F6C696E672E2E2E004265642043
:100D100048656174696E672E2E2E00206661696CCD
:100D20006564212042616420686561746572206990
:100D3000640A00504944204175746F74756E6500F3
:100D400023646566696E652044454641554C545F91
:100D50000000626564004B6420004B6920004B700A
:100D600020005049442074756E696E6720646F6E70
:100D700065002066696E697368656421205075742A
:100D800020746865206C617374204B702C204B6953
:100D900020616E64204B6420636F6E7374616E74A7
:100DA000732066726F6D2062656C6F7720696E7458
:100DB0006F20436F6E66696775726174696F6E2E1E
:100DC000680A00504944204175746F74756E65005F
:100DD000206661696C6564212074696D656F757446
:100DE0000A00504944204175746F74756E65004166
:100DF00075746F74756E65206661696C6564212019
:100E000054696D656F75742E00206661696C656448
:100E1000212054656D706572617475726520746F00
:100E20006F20686967680A00504944204175746FF3
:100E300074756E6500204B643A2000204B693A209F
:100E400000204B703A200020436C6173736963206B
:100E5000504944200A00204E6F206F7665727368F7
:100E60006F6F740A002054753A2000204B753A20A9
:100E700000206D61783A2000206D696E3A200020D4
:100E8000643A200020626961733A20004865617409
:100E9000696E672E2E2E002073746172740A0050E2
:100EA0004944204175746F74756E65004175746FA7
:100EB00074756E65206661696C6564212054656D8A
:100EC000706572617475726520746F6F20686967F0
:100ED000682E00206661696C6564212054656D7020
:100EE0006572617475726520746F6F2068696768D8
:100EF0000A00504944204175746F74756E65005046
:100F00004944204175746F74756E6500486F6D6952
:100F10006E67204661696C6564006F70656E005491
:100F20005249474745524544003A20007A5F6D696F
:100F30006E00795F6D696E00785F6D696E00526555
:100F4000706F7274696E6720656E6473746F702061
:100F50007374617475730A0020746F6F206C6F6E08
:100F60006720657874727573696F6E20707265762C
:100F7000656E7465640A0020636F6C642065787424
:100F8000727573696F6E2070726576656E746564D4
:100F90000A00000000C00000A0C00000000057616F
:100FA000726E696E673A20486F6D696E6720427590
:100FB0006D702044697669736F72203C20310A009D
:100FC00002020400005E4300006B4300007A43000D
:100FD00000A0400000A0400000004000005C430072
:100FE00000664300007A43000000C00000A0C0007B
:100FF00000000053657474696E67732053746F72D8
:10100000656400290A002062797465733B2063726D
:1010100063200053657474696E67732053746F7234
:101020006564202800454550524F4D20496E697433
:1010300069616C697A65640A0048617264636F640F
:1010400065642044656661756C74205365747469C9
:101050006E6773204C6F616465640020286D6D2994
:101060000020204D393030204B004C696E65617294
:1010700020416476616E63650020204D3134392053
:1010800043203B20556E69747320696E2043656C64
:10109000736975730A0054656D7065726174757259
:1010A0006520556E697473002020473231203B0063
:1010B0004C696E65617220556E69747300454550C8
:1010C000524F4D206461746173697A652065727254
:1010D0006F722E0A004572723A20454550524F4DAC
:1010E0002043524300202863616C63756C61746512
:1010F0006429210A0020213D2000454550524F4DD2
:1011000020435243206D69736D61746368202D2004
:101110002873746F726564292000454550524F4D05
:1011200020436F72727570740A002053697A653AB1
:101130002000496E6465783A200053746F726564CC
:101140002073657474696E67732072657472696563
:1011500076656400290A002062797465733B206318
:10116000726320002073746F7265642073657474F9
:10117000696E67732072657472696576656420288C
:101180000000009643000096430000484200002003
:10119000420000A0420000A0420000C8430080DEE0
:1011A00043D0070000D007000064000000102700B3
:1011B00000204D61726C696E3D563838290A004531
:1011C0004550524F4D2076657273696F6E206D6980
:1011D000736D617463682028454550524F4D3D0042
:1011E00024F404D9201BC40C5C0E9804C4095F02CB
:1011F00065077101F405F900FB04B300480487009A
:10120000C10369005803550003034500BE023A00BC
:101210008402310053022A00290225000402200022
:10122000E4011C00C8011900AF0117009801140067
:1012300084011300710110006101100051010E00C2
:1012400043010D0036010B002B010B0020010B00A8
:10125000150109000C01090003010800FB0008004A
:10126000F3000800EB000700E4000600DE000600C3
:10127000D8000600D2000600CC000500C70005001B
:10128000C2000500BD000400B9000400B500040060
:10129000B1000400AD000400A9000400A500030093
:1012A000A20003009F0004009B00030098000300BD
:1012B0009500020093000300900003008D000200DF
:1012C0008B000300880002008600020084000300F7
:1012D000810002007F0002007D0002007B0002000E
:1012E000790002007700010076000200740002001D
:1012F00072000100710002006F0002006D00010029
:101300006C0002006A000100690002006700010031
:101310006600010065000100640002006200010037
:1013200061000100600001005F0002005D0001003B
:101330005C0001005B0001005A000100590001003F
:10134000580001005700010056000100550001003F
:10135000540001005300000053000100520001003E
:1013600051000100500001004F0001004E0000003C
:101370004E0001004D0001004C0001004B00000038
:101380004B0001004A000100490001004800000034
:10139000480001004700010046000000460001002F
:1013A000450000004500010044000100430000002A
:1013B0004300010042000000420001004100000023
:1013C00041000100400001003F0000003F0001001B
:1013D0003E0000003E0001003D0000003D00010015
:1013E0003C0000003C0000003C0001003B0000000D
:1013F0003B0001003A0000003A0001003900000003
:1014000039000100380000003800000038000100F9
:1014100037000000370001003600000036000000F1
:1014200036000100350000003500000035000100E5
:1014300034000000340000003400010033000000DC
:1014400033000000330001003200000032000000D1
:1014500032000100310000003100000031000100C5
:101460003000000030000000300001002F000000BC
:101470002F0000002F0000002F0001002E000000B0
:101480002E0000002E0001002D0000002D000000A5
:101490002D0000002D0001002C0000002C00000099
:1014A0002C0000002C0001002B0000002B0000008D
:1014B0002B0000002B0001002A0000002A00000081
:1014C0002A0000002A000100290000002900000075
:1014D0002900000029000000290001002800000068
:1014E000280000002800000028000000280001005B
:1014F0002700000027000000270000002700000050
:101500002700010026000000260000002600000041
:101510002600000026000100250000002500000034
:101520002500000025000000250000002500010026
:10153000240000002400000024000000240000001B
:10154000240001002300000023000000230000000D
:1015500023000000230000002300000023000100FE
:1015600022000000220000002200000022000000F3
:1015700022000000220001002100000021000000E4
:1015800021000000210000002100000021000000D7
:1015900021000100200000002000000020000000C9
:1015A00020000000200000002000000020000000BB
:1015B000200001001F0000001F0000001F000000AD
:1015C0001F0000001F0000001F0000001F0001009E
:1015D0001E0000001E0000001E0000001E00000093
:1015E00024F4D43050C38E20C2A24017828B7011D5
:1015F000127A910D816CD90AA861E108C758660773
:10160000615143061E4B5D05C145A7041A411104F3
:10161000093D9803713931034036DB02653391028D
:10162000D4305402802E1D02632CEE01752AC501B0
:10163000B028A001102781018F2564012B244B01C4
:10164000E0223401AC211F018D200D01801FFC0020
:10165000841EED00971DDF00B81CD200E61BC600FB
:10166000201BBC00641AB200B219A8000A19A0001D
:101670006A189900D117910040178B00B5168400A5
:1016800031167E00B31579003A157300C7146F0048
:1016900058146A00EE1366008813630025135E0079
:1016A000C7125B006C12570015125400C111510093
:1016B00070114F0021114B00D61049008D104700CA
:1016C0004610440002104200C00F4000800F3E0050
:1016D000420F3C00060F3B00CB0E3800930E370044
:1016E0005C0E3500270E3400F30D3200C10D3100C1
:1016F000900D3000600D2E00320D2D00050D2C00D8
:10170000D90C2B00AE0C2900850C29005C0C27009D
:10171000350C27000E0C2600E80B2400C40B240017
:10172000A00B23007D0B23005A0B2100390B210055
:10173000180B2000F80A1F00D90A1E00BB0A1E0061
:101740009D0A1D00800A1D00630A1C00470A1B0039
:101750002C0A1B00110A1A00F7091A00DD091900EA
:10176000C4091900AB091900920917007B09180078
:10177000630917004C0916003609160020091600E7
:101780000A091500F5081500E0081400CC0814003B
:10179000B8081400A4081400900813007D08120073
:1017A0006B08130058081200460812003408110094
:1017B000230811001208110001081100F0071000A1
:1017C000E0071000D0071000C0071000B0070F009E
:1017D000A107100091070E0083070F0074070F0088
:1017E00065070E0057070E0049070E003B070D0066
:1017F0002E070E0020070D0013070D0006070D0031
:10180000F9060C00ED060D00E0060C00D4060C00F5
:10181000C8060C00BC060C00B0060C00A4060B00A9
:1018200099060C008D060B0082060B0077060B0054
:101830006C060B0061060A0057060B004C060A00F6
:1018400042060A0038060A002E060A0024060A008C
:101850001A060A001006090007060A00FD0509001D
:10186000F4050900EB050900E2050900D9050900A6
:10187000D0050900C7050900BE050900B505080027
:10188000AD050800A50509009C05080094050800A1
:101890008C050800840508007C0508007405080014
:1018A0006C050700650508005D0507005605080082
:1018B0004E050700470507004005080038050700EA
:1018C000310507002A050700230507001C0506004F
:1018D000160507000F0507000805060002050700AA
:1018E000FB040600F5040700EE040600E804060009
:1018F000E2040700DB040600D5040600CF0406005E
:10190000C9040600C3040600BD040600B7040600AF
:10191000B1040500AC040600A6040600A0040500FE
:101920009B04060095040500900406008A04050047
:1019300085040500800406007A040500750405008E
:10194000700405006B0405006604050061040500D1
:101950005C04050057040500520405004D04050011
:1019600048040500430405003E0404003A04050051
:1019700035040500300404002C040500270404008D
:10198000230405001E0404001A04040016040500C4
:10199000110404000D0404000904050004040400FB
:1019A00000040400FC030400F8030400F403040032
:1019B000F0030400EC030400E8030400E403040063
:1019C000E0030400DC030400D8030400D403040093
:1019D000D0030400CC030400C8030300C5030300C4
:1019E00020436F756E7420583A00004500626564AC
:1019F000002C2073797374656D2073746F7070653B
:101A00006421204865617465725F49443A2000454D
:101A100072723A204D415854454D50004D41585432
:101A2000454D50207472696767657265640048654A
:101A30006174696E67204661696C65640048656120
:101A400074696E67206661696C6564004D35323477
:101A5000004D3131322053687574646F776E0045E4
:101A600072723A204D494E54454D50004D494E54E6
:101A7000454D50207472696767657265640054480B
:101A800045524D414C2052554E41574159005468E2
:101A900065726D616C2052756E6177617900202FDF
:101AA000002042403A0020403A0020573A00205897
:101AB0003A002053004D3130362050000000210004
:101AC000240027002A002D0030003300010100000F
:101AD000040107010A017C3C3E5E2B3D3F2F5B5D0C
:101AE0003B2C2A225C0043616E6E6F74206F706520
:101AF0006E207375626469722000534420636172C2
:101B000064206F6B0A006F70656E526F6F74206691
:101B100061696C65640A00766F6C756D652E696E1F
:101B20006974206661696C65640A004E6F205344D5
:101B300020636172640A002E0A006F70656E206671
:101B400061696C65642C2046696C653A20004669C1
:101B50006C652073656C65637465640A0020536965
:101B60007A653A200046696C65206F70656E656421
:101B70003A2000454E4420535542524F5554494E49
:101B8000450A002220706F73002220706172656E1A
:101B9000743A2200535542524F5554494E45204302
:101BA000414C4C207461726765743A22005375622F
:101BB00063616C6C204F766572666C6F7700457858
:101BC000636565646564206D617820535542524FAA
:101BD0005554494E452064657074683A00577269DF
:101BE00074696E6720746F2066696C653A20004ED8
:101BF0006F74205344207072696E74696E670A00B6
:101C00005344207072696E74696E672062797465DE
:101C10002000667265736800646F696E67002066F5
:101C2000696C653A20004E6F7720000A4D3234000F
:101C30004D3233202573002F6175746F25632E6735
:101C40000070012C0190012701B0012201C0011D8B
:101C500001F00118011002130130020E01600209A7
:101C60000190020401C002FF000003FA004003F5E6
:101C7000008003F000D003EB002004E6007004E1D4
:101C800000E004DC004005D700C005D2004006CDCE
:101C900000D006C8008007C3003008BE00F008B9B5
:101CA00000C009B400B00AAF00B00BAA00D00CA568
:101CB00000000EA000500F9B00C010960050129123
:101CC0000000148C00C0158700B0178200B0197D89
:101CD00000D01B7800001E730040206E0090226927
:101CE00000F024640040275F0090295A00E02B5543
:101CF00000102E500020304B0010324600E03341DF
:101D00000090353C001037370070383200A0392D74
:101D100000B03A2800A03B2300603C1E00103D1993
:101D200000903D1400103E0F00703E0A00C03E05BA
:101D300000003F0000403FFBFF803FF6FFC03FF147
:101D4000FF2020506C616E6E65724275666665722A
:101D500042797465733A20002046726565204D65AE
:101D60006D6F72793A200020436F6D70696C656405
:101D70003A204E6F7620203520323032330A002050
:101D80004C61737420557064617465643A2032301C
:101D900032332D30352D3136207C20417574686FFB
:101DA000723A20286467746168656E6F2C204765FD
:101DB0006E697573290A004D61726C696E20322E4E
:101DC000312E322E310A0020536F667477617265AE
:101DD0002052657365740A00205761746368646FEC
:101DE000672052657365740A002042726F776E2017
:101DF0006F75742052657365740A002045787465A8
:101E0000726E616C2052657365740A00506F77655D
:101E10007255700A0073746172740A004732385840
:101E200059004D31303031006F6B006572726F7246
:101E30002077726974696E6720746F2066696C65BB
:101E40000A00446F6E6520736176696E672066696B
:101E50006C652E0A004D323900205A3A0020593A5A
:101E60000020583A00656E6473746F70732068695F
:101E7000743A200000002200250028002B002E00CC
:101E80003100340002010000050108010B010505C5
:101E90000505070508080808020202020A0A0808E0
:101EA000040404040101010101010101030303030E
:101EB00003030303040707070C0C0C0C0C0C0C0C9D
:101EC0000202020206060606060606060B0B0B0BAE
:101ED0000B0B0B0B010210202008081020401020D3
:101EE00040800201020108040201010204081020DE
:101EF00040808040201008040201800402018040DC
:101F00002010080402010804020101020408102044
:101F10004080010204081020408000000A0B0209E2
:101F20000C0D0E0807030401000000000000000073
:101F300000000000000000000000000000000000A1
:101F4000000000000000121110000000000000005E
:101F50000000000000000000000000000000000081
:101F6000D21F0000DA170000E50F00008A09000008
:101F70004C050000CE02000071010000BB00000013
:101F80004572726F722077726974696E6720746F20
:101F900020454550524F4D210A00DB0FC93F45BC3B
:101FA000DA3F8FB30240FCF0274056946140FE4B6D
:101FB0009B4084A5D840E0231841346A5641E85933
:101FC000974164DBD5416E271742B4B75542CE1A0C
:101FD0009742C8AED542B5885A43D40684BFA65F9F
:101FE000A7BF7443E0BF10B11AC01C2C58C0E8F65C
:101FF00097C0B849D6C04E4E17C124D355C18024CE
:1020000097C1A0B5D5C1121A17C244AE55C27817F0
:1020100097C26CACD5C267885AC320746F6F206CAE
:102020006F6E6720657874727573696F6E20707259
:102030006576656E7465640A0020636F6C64206564
:102040007874727573696F6E2070726576656E74E0
:1020500065640A0073686F7700626567696E005097
:10206000757267654D6F72650050617573656400C8
:10207000436F6E74696E7565004C6F6164204669CC
:102080006C616D656E74205400496E7365727420C6
:1020900066696C616D656E7420616E642073656E37
:1020A00064204D3130380A0053656E64204D313064
:1020B0003820746F20726573756D650A00496E7300
:1020C0006572742066696C616D656E7420616E6402
:1020D0002073656E64204D3130380A0052656865A2
:1020E000617420446F6E6500526568656174696E45
:1020F000672E2E2E00526568656174004865617414
:1021000065722054696D656F75740053656E642047
:102110004D31303820746F2068656174206E6F7A9D
:102120007A6C650A004E6F7A7A6C65205061726B2A
:10213000656400726573756D6564004469736D69EB
:10214000737300526573756D696E6700FFFFFFAEB4
:102150001AB021AC21A821204500205A00205900A6
:1021600020204D39322058005374657073207065FB
:102170007220756E697400220A00556E6B6E6F775F
:102180006E20636F6D6D616E643A202200486F6D42
:1021900065202573204669727374006F6B0A0052C4
:1021A0006573656E643A200020453A00205A3A0073
:1021B00020593A00583A00706F7765726F66660072
:1021C0005072696E7465722068616C7465642E204B
:1021D0006B696C6C28292063616C6C6564210A0052
:1021E00077AD38B611241FBECFEFD1E2DEBFCDBF31
:1021F00000E00CBF84B780932A1B14BE0FB6F8947E
:10220000A8958091600088618093600010926000C2
:102210000FBE13E0A0E0B2E0E6E3F9E801E00BBF97
:1022200002C007900D92A634B107D9F72BE1A6E4BE
:10223000B3E001C01D92AA32B207E1F710E1C1EF8D
:10224000D0E100E006C021970109802FFE010E9425
:1022500026C1C03FD10780E00807A9F70E94D9AE88
:102260000C948AC40C940000CF93DF93CAEED9E19A
:1022700020E030E048E452E460919F167091A0168F
:102280008091A1169091A2160E9478C387FF13C077
:1022900080E0FE01C4912091020190E002C095957A
:1022A0008795CA95E2F780FD0EC02071209300014A
:1022B000DF91CF910895FE01949181E001C0880FD4
:1022C0009A95EAF7E6CF2095F0CF80910808882309
:1022D00039F06091101770911117809112170895BD
:1022E00060E070E080E008954F925F926F927F927D
:1022F0008F929F92AF92BF92CF92DF92EF92FF9216
:102300000F931F93CF930091F8071091F907209135
:10231000FA073091FB078090E7169090E816A0909E
:10232000E916B090EA164091FC075091FD076091C4
:10233000FE077091FF07C090D516D090D616E0909A
:10234000D716F090D816C0E1FC01A8EFB7E00190D5
:102350000D92CA95E1F7E091E116EE2349F12801CB
:102360003901481859086A087B0853014201009155
:10237000F8071091F9072091FA073091FB07080D33
:10238000191D2A1D3B1D0093F8071093F907209390
:10239000FA073093FB07FC01008111812281338110
:1023A0000093E7161093E8162093E9163093EA1687
:1023B0002091CF16222339F18A019B010C191D09A6
:1023C0002E093F094091FC075091FD076091FE07DF
:1023D0007091FF07400F511F621F731F4093FC074E
:1023E0005093FD076093FE077093FF07FC01848103
:1023F0009581A681B7818093D5169093D616A09328
:10240000D716B093D816CF911F910F91FF90EF90F0
:10241000DF90CF90BF90AF909F908F907F906F9004
:102420005F904F90089521E030E0082E02C0220F07
:10243000331F0A94E2F7209530959091F9032923F0
:102440002093F903813061F020F0823071F081E057
:1024500008955F9A8091BE088E7F8093BE08F7CF63
:102460008A9A8091BE088D7FF8CF8091080180956F
:10247000817080930601479A8091BE088B7FEDCFD3
:1024800020918B0730918C07F901E650FC4F908129
:1024900096959695937081E0913009F080E0409197
:1024A0003502509136026091890770918A074F5F1B
:1024B0005F4F2F5F3F4F2F3291E0390711F430E02B
:1024C00020E06217730721F1F901E650FC4F90817B
:1024D00096959695937059F330938C0720938B07BC
:1024E00050933602409335024091E7075091E80738
:1024F0006091DF077091E007461B570B220F331FD7
:10250000F901E75DFA4F20813181240F351F0AC0A0
:1025100070938C0760938B0750933602409335027B
:102520002FEF3FEF3093400220933F020895209118
:10253000870730918807F901E650FC4F908193702E
:1025400081E0913009F080E04091370250913802EB
:102550006091890770918A074F5F5F4F2F5F3F4FF0
:102560002F3291E0390711F430E020E06217730751
:1025700011F1F901E650FC4F9081937069F33093AB
:102580008807209387075093380240933702409181
:10259000E9075091EA076091DF077091E007461B59
:1025A000570B220F331FF901E75DFA4F208131816C
:1025B000240F351F0AC070938807609387075093D4
:1025C0003802409337022FEF3FEF30933E022093C3
:1025D0003D020895CF92DF92EF92FF928091F70330
:1025E000882309F457C0C090F303D090F403E0901F
:1025F000F503F090F60320E030E0A901C701B60131
:102600000E9491BA882309F445C020E030E040E000
:102610005FE3C701B6010E94F6BA9B01AC010E94BC
:10262000F6BA2BED3FE049E450E40E94F6BA9B0174
:10263000AC0160E070E080E89FE30E942DC26B0176
:102640007C01C092DA03D092DB03E092DC03F092CB
:10265000DD036091170270911802072E000C880BA1
:10266000990B0E9497BA2AE037ED43E25CE30E949F
:10267000F6BAA70196010E94F6BA609357027093CA
:1026800058028093590290935A02FF90EF90DF9086
:10269000CF900895C12CD12C80E8E82E8FE3F82E3E
:1026A000D0CF8091EE169091EF16891B8F7119F49F
:1026B00090E080E008959091EB16992351F08330DB
:1026C00030F48FEF890F19F08093EB16F1CF109251
:1026D000EB168091EF1620E5829FC00111248D5FDB
:1026E000964FFC01208120FDE3CF2091EF162F5F54
:1026F0002F712093EC163091EF162091ED163213C6
:1027000004C02091EC162093ED16089590916F006F
:1027100081E091FD02C080E0089590916F009D7F5F
:1027200090936F000895FC017081472F50E0062EB2
:1027300002C0559547950A94E2F740FF14C04091B6
:10274000CD0350E0062E02C0559547950A94E2F756
:1027500040FF09C021E030E001C0220F6A95EAF78E
:102760002095272320830895CF93DF9324E0829F31
:10277000C0011124EC01C75ED94EFC01E054F74FB3
:1027800082539C4FDC012D913D914D915C91608174
:102790007181828193810E9451C1688379838A8388
:1027A0009B83DF91CF9108958F929F92AF92BF92BA
:1027B000CF92DF92EF92FF92CF93DF9320911B0293
:1027C000222309F48EC0EC018091CD03E82E80FF16
:1027D0002CC080901D0290901E02A0901F02B0900D
:1027E0002002288139814A815B81C501B4010E94A0
:1027F00078C3181624F488829982AA82BB828090BA
:10280000290290902A02A0902B02B0902C022881DD
:1028100039814A815B81C501B4010E9491BA87FF69
:1028200004C088829982AA82BB82E1FE2CC080907B
:10283000210290902202A0902302B09024022C81C9
:102840003D814E815F81C501B4010E9478C3181695
:1028500024F48C829D82AE82BF8280902D02909063
:102860002E02A0902F02B09030022C813D814E812B
:102870005F81C501B4010E9491BA87FF04C08C82B8
:102880009D82AE82BF82E2FE2CC0C0902502D09015
:102890002602E0902702F0902802288539854A8593
:1028A0005B85C701B6010E9478C3181624F4C88658
:1028B000D986EA86FB86C0903102D0903202E09041
:1028C0003302F0903402288539854A855B85C7013B
:1028D000B6010E9491BA87FF04C0C886D986EA86ED
:1028E000FB86DF91CF91FF90EF90DF90CF90BF906C
:1028F000AF909F908F900895CF93DF93DB01F90104
:102900009C919130C1F0943080F094509C93883029
:10291000D1F480819181009771F001979183808338
:10292000480F591FEA01188206C08C3539F49C5FA4
:102930009C93943041F4DF91CF9108958B3339F714
:1029400081E08C93F8CF20813181B9016F5F7F4F97
:1029500071836083420F531FEA01888380819181D4
:102960008F3591056CF7E7CF0F931F9381E00091AE
:102970001A1710911B1720911C1730911D174091A9
:10298000161750911717609118177091191704179F
:1029900015072607370708F480E01F910F91089567
:1029A00090E080E0089520919903833021F425FD83
:1029B0000CC024FD0CC030E0A90102C0559547951C
:1029C0008A95E2F7CA018170089581E0089580E058
:1029D00008958091B40384FD0BC08091B60387FDF8
:1029E00007C09091B703937081E019F480E00895D7
:1029F00081E008952FEB280F2A3108F047C0E22F1D
:102A0000F0E08091B4039091B503A091B603B0912A
:102A1000B70304C0B695A795979587952A95D2F7E1
:102A200080FD02C081700895E656FC4FE081EE23E0
:102A300041F180918C1390918D13E80FF92FF11DC6
:102A4000808190ED980F9A3030F08E3251F4818170
:102A500080538A3098F4F0939503E093940381E0D7
:102A600008958D3211F08B3249F4818190ED980FE9
:102A70009A3088F38E3211F48281EACFF0E0E0E000
:102A8000EACF1092950310929403E9CF80E0089565
:102A90008091DE0381110EC02091190230911A023B
:102AA0002150310981E04091A3165091A41642179C
:102AB00053070CF080E008950F931F938091071344
:102AC000813019F50E94C8940091C1031091C2038E
:102AD0002091C3033091C403601B710B820B930BD5
:102AE00028EE33E040E050E00E94BBC06091BD039F
:102AF0007091BE038091BF039091C003620F731F5A
:102B0000841F951F1F910F9108956091C5037091C7
:102B1000C6038091C7039091C803D6CF8091071355
:102B2000813079F482E0809307130E94C894609307
:102B3000C5037093C6038093C7039093C80381E0D5
:102B4000089580E00895CF93DF93C0917716D091D8
:102B50007816209729F16091731670917416809100
:102B60007516909176160E9495C26E5F7F4F2497DE
:102B70006C177D07ACF470931508609314080E94DD
:102B8000C894605A75418F4F9F4F60931608709399
:102B900017088093180890931908DF91CF91089532
:102BA000109216081092170810921808109219081F
:102BB000F4CF4F925F926F927F928F929F92AF92DB
:102BC000BF92CF92DF92EF92FF920F931F93CF931A
:102BD000DF93082FEB01C880D980EA80FB8020E0DA
:102BE00030E0A901C701B6010E9491BA18160CF095
:102BF00079C020E030E040E85FE3C701B6010E9401
:102C000078C387FF76C029E43AE046EC52ECC7016E
:102C1000B6010E94F6BA21E931EE40E852E40E9482
:102C200051C12B013C01A7019601C701B6010E94C9
:102C3000F6BA4B015C012FE237E942EF50EC0E94FB
:102C4000F6BAA30192010E9451C12B013C01A501DA
:102C50009401C701B6010E94F6BA29EF3AE44CE2AA
:102C600052E40E94F6BAA30192010E9451C10E944F
:102C7000C6C26B017C01BFB6F894C701B6010E94C1
:102C80009AC2162FA701960160E070E080E093E4FD
:102C90000E9450C10E949AC201112FC01093E516E4
:102CA0006093E41688819981AA81BB818093DD16A7
:102CB0009093DE16A093DF16B093E016B7FE01C026
:102CC0007894DF91CF911F910F91FF90EF90DF905B
:102CD000CF90BF90AF909F908F907F906F905F90BC
:102CE0004F900895C12CD12C80E8E82E82E4F82E74
:102CF000C2CFC12CD12C7601BECF1093D3166093D6
:102D0000D21688819981AA81BB818093CB1690933A
:102D1000CC16A093CD16B093CE16D0CF4091F80329
:102D200021E0422768E070E00C9442914091F80362
:102D300021E042276CE070E00C9442914091F8034E
:102D400021E0422764E070E00C9442914091F80346
:102D500021E0422761E070E00C9442914091F80339
:102D600021E0422761E070E00C9442914091F80329
:102D700021E0422768E070E00C9442914091F80312
:102D800021E042276CE070E00C94429141E061E068
:102D900070E00C94429141E062E070E00C9442914A
:102DA0004091F80321E042270C9442916CE070E0DE
:102DB0000C94619464E070E00C94619462E070E0C3
:102DC0000C94619461E070E00C94619461E070E0B7
:102DD0000C9461946CE070E00C946194AF92BF929B
:102DE000CF92DF92EF92FF920F931F93CF93DF93D7
:102DF000C1E4D3E105ED18E081E5A82E83E1B82E0A
:102E0000C12CD12C7601C3946991799189919991C2
:102E10000E9495BA288939894A895B890E94F6BA45
:102E20000E949AC2F80161937193819391938F01EB
:102E3000C616D706E806F90610F46B017C01AC163D
:102E4000BD0611F76FEF7FEFCB01A70196010E943E
:102E5000BBC02093E5083093E6084093E708509301
:102E6000E80823EF34E045E35FE36091D108709117
:102E7000D2088091D3089091D4080E94F6BA2AE132
:102E800036EF45E95EE30E942DC26B017C01609143
:102E90004D1370914E1380914F13909150130E94D7
:102EA00095BA9B01AC01C701B6010E94F6BA0E9417
:102EB000BEC36093E9087093EA088093EB0890938F
:102EC000EC08DF91CF911F910F91FF90EF90DF9071
:102ED000CF90BF90AF9008950F931F93CF93DF9340
:102EE00005E513E1C2EFD8E0F8012191319141915C
:102EF00051918F0160E070E080E89FE30E942DC255
:102F00006993799389939993F9E0C230DF0761F768
:102F10000E949F92DF91CF911F910F915FCFCF932E
:102F2000DF93CDB7DEB72C970FB6F894DEBF0FBE98
:102F3000CDBF19821A821B821C821D821E821F82B3
:102F4000188619861A861B861C86AE014F5F5F4F56
:102F5000BC018BE592E00E94E3932C960FB6F894A7
:102F6000DEBF0FBECDBFDF91CF9108958091940356
:102F700090919503009731F04AE050E070E060E0F6
:102F80000C94F1B860E070E0CB0108958091940357
:102F900090919503009731F04AE050E070E060E0D6
:102FA0000C94C5B760E070E0CB010895EFDFCB0172
:102FB0000895ECDF97FD0AC0E9DF6F3F71058105D9
:102FC000910509F02CF4E2DF862F089580E0089542
:102FD0008FEF08958091940390919503892B39F098
:102FE000E8DF91E0811101C090E0892F089591E020
:102FF000FCCFCF93DF93EC01688170E085E00E9405
:10300000A38F698170E084E00E94A38F6A8170E0E1
:1030100086E00E94A38F88819981482F490F552708
:10302000551F8A81840F952F911D21E083309105D2
:103030000CF420E02093080803974CF088819981D4
:10304000AA818093101790931117A0931217DF9104
:10305000CF9108958F929F92AF92BF92CF92DF92BD
:10306000EF92FF92CF93DF9300D0CDB7DEB72FEF73
:103070008417950731F16A01052E000CEE08FF0850
:103080004C01092E000CAA08BB08681779072CF020
:10309000CB01461757070CF4CA019C01990F440B4A
:1030A000550B281939094A095B09AFEFB0E00E94B6
:1030B000F9C0A7019601281939094A095B090E943C
:1030C000DDC080913308821751F0209333088FEFD1
:1030D00089831A8220952B83CE0101968ADF0F9077
:1030E0000F900F90DF91CF91FF90EF90DF90CF90F6
:1030F000BF90AF909F908F9008958F929F92AF92C4
:10310000BF92CF92DF92EF92FF92CF93DF9300D0E6
:10311000CDB7DEB72FEF8417950731F16A01052E81
:10312000000CEE08FF084C01092E000CAA08BB0891
:10313000681779072CF0CB01461757070CF4CA0122
:103140009C01990F440B550B281939094A095B0951
:10315000AFEFB0E00E94F9C0A70196012819390924
:103160004A095B090E94DDC080913308821749F04B
:103170002093330829831A828FEF8B83CE01019627
:1031800038DF0F900F900F90DF91CF91FF90EF906D
:10319000DF90CF90BF90AF909F908F9008950F9346
:1031A0000FB70F9300916E000D7F00936E0078941F
:1031B0000F930BB70F930CB70F921F922F933F9360
:1031C0004F935F936F937F938F939F93AF93BF932F
:1031D000EF93FF93112479D4FF91EF91BF91AF91B9
:1031E0009F918F917F916F915F914F913F912F911F
:1031F0001F900F900CBF0F910BBF0F910260F894BE
:1032000000936E000F910FBF0F911895CF93DF932E
:1032100010923808CBE9D6E1198618860E9441A899
:103220001A862C98CFE6D6E1198618868CDC1A8689
:1032300080910201807280930001DF91CF91089507
:103240008F929F92AF92BF92CF92DF92EF92FF92B6
:103250000F931F93CF93DF93B0E4A0E06A2F70E049
:10326000AB014B0F511D55954795411119C0E3E432
:10327000FCE165917491072E000C880B990B0E945C
:1032800097BADF91CF911F910F91FF90EF90DF9050
:10329000CF90BF90AF909F908F900895B42FE0CFC4
:1032A000A41711F0B41303C0EFE3FDE1E2CF9A01DC
:1032B00021503109220F331F220F331FF901EF5B19
:1032C000F34EE590F490F901EB5BF34EC591D49188
:1032D0008E159F0518F3A42FC817D90708F4BECF81
:1032E000F901ED5BF34E05911491F901E95BF34EA1
:1032F000C590D4908E199F09BC0190E080E00E9497
:1033000095BA4B015C01B601601B710B072E000CD6
:10331000880B990B0E9497BA9B01AC01C501B401BF
:103320000E94F6BA4B015C01CE19DF09BE0190E0A4
:1033300080E00E9495BA9B01AC01C501B4010E94D6
:103340002DC26B017C01B801110F880B990B0E94F3
:1033500097BA9B01AC01C701B6010E9451C191CF40
:10336000BC012091E5073091E6074091E5075091B7
:10337000E6072417350731F481E02617370709F0EF
:1033800080E008959A01F1CF6132710581059105C0
:1033900038F4E0EEF5E16591749190E080E00895F5
:1033A000AB01BC014052510961097109411528E086
:1033B000520761057105C8F024E0529FC001112435
:1033C00080529E4EFC01329625913491FC018591EC
:1033D0009491AA27439FF001429F000CE11DFA1F20
:1033E00011248E1B9F0BBC01D8CFDB01CA01B695FF
:1033F000A795979587958C7F9C0120523A4EF901AD
:1034000085919491F9013296A591B49147704A9FA4
:1034100090014B9F300D112443E0369527954A9536
:10342000E1F7821B930BDFCF0F930FB70F93009140
:103430006E000F930D7F00936E0000916F000D7F63
:1034400000936F000F930BB70F930CB70F921F925F
:103450002F933F934F935F936F937F938F939F939C
:10346000AF93BF93EF93FF93112461D4FF91EF913A
:10347000BF91AF919F918F917F916F915F914F918C
:103480003F912F911F900F900CBF0F910BBF0F9189
:103490000260F89400936F000F9100936E000F91FB
:1034A0000FBF0F9118958091BF0880FF23C08998A6
:1034B0008FEF8093B9078091BF0881FF1EC08F985E
:1034C0008FEF8093BA078091BF0882FF19C0809167
:1034D0000B018095827080930901439A8FEF80934E
:1034E000BB078091BF0883FF13C016988FEF8093AE
:1034F000BC070895899A81E0DCCF8F9A81E0E1CF03
:1035000080910B01827080930901439881E0E7CF9D
:10351000169A81E0ECCF8091F903877F8093F903BD
:10352000129A81E0089580E00E94131281E00E94C7
:10353000131282E00E941312EECF12988091F903C9
:1035400088608093F9030895813089F070F08230AB
:1035500081F021E030E001C0220F8A95EAF78091E6
:10356000F903822B8093F90308955F98F2CF8A982C
:10357000F0CF909108019170909306014798E9CFA0
:10358000CF93DF938091DE03811119C0C09119029E
:10359000D0911A02219720E030E040E05FE3609193
:1035A0009F167091A0168091A1169091A2160E946C
:1035B00051C10E9495C221E06C177D070CF020E0FC
:1035C000822FDF91CF9108954F925F926F927F92F9
:1035D0008F929F92AF92BF92CF92DF92EF92FF9223
:1035E0000F931F93CF93DF93CDB7DEB76E970FB6D0
:1035F000F894DEBF0FBECDBF9E8F8D8F5B018A0119
:10360000FC01FF9620813181428153812D833E83CD
:103610004F835887CA01B9010E9495BA6B017C019A
:10362000D5012D913D914D915C910E94F6BA0E9479
:1036300017C22B013C01F801208131814281538165
:10364000C701B6010E94F6BA0E9417C24B015C0185
:10365000C301B2010E949AC269877A878B879C87CF
:10366000683771058105910540F428E730E040E0B6
:1036700050E029873A874B875C87C501B4010E94D7
:103680009AC269837A838B839C836837710581052D
:10369000910540F488E790E0A0E0B0E089839A8348
:1036A000AB83BC83AD8DBE8D95964D905D906D9036
:1036B0007C909897FD01E55BFF4F6081718182816D
:1036C0009381611571058105910509F45BC10E9423
:1036D00097BA6D877E878F87988B9B01AC0160E0DE
:1036E00070E080E89FE30E942DC220E030E040E0DF
:1036F0005FE30E94F6BA4B015C01A7019601C70186
:10370000B6010E94F6BA6B017C0169817A818B81D6
:103710009C810E9495BA9B01AC010E94F6BA9B0164
:10372000AC01C701B6010E9450C1A50194010E94DD
:10373000F6BA6D8B7E8B8F8B988F69857A858B859A
:103740009C850E9495BA9B01AC010E94F6BA698BD8
:103750007A8B8B8B9C8B9B01AC01C701B6010E94BD
:1037600050C1A50194010E94F6BA698F7A8F8B8FA0
:103770009C8F0E9417C20E949AC26B017C016D89C6
:103780007E898F89988D0E94C6C20E949AC24B0181
:103790005C01D701C601880D991DAA1DBB1DA3019F
:1037A0009201281B390B4A0B5B0BDA01C901B7FFE9
:1037B0005DC0C301B2010E9495BA298D3A8D4B8D2F
:1037C0005C8D0E9451C12D893E894F89588D0E9480
:1037D00050C120E030E040E05FE30E94F6BA0E9472
:1037E00017C26B017C0120E030E0A9010E9478C380
:1037F00018161CF0C12CD12C7601C701B6010E940D
:103800009AC26B017C014C145D046E047F0410F4B9
:1038100073016201530142018C189D08AE08BF0874
:10382000C701B6010E9495BA6D837E838F83988706
:103830002D853E854F855889CA01B9010E9451C125
:103840009B01AC016D817E818F8198850E94F6BAC3
:1038500029893A894B895C890E9451C10E94BEC363
:103860000E949AC26D837E838F839887AD8DBE8DB3
:103870009996CD92DD92ED92FC929C97D301C20174
:1038800088199909AA09BB09ED8DFE8D85A796A710
:10389000A7A7B0ABED5BFF4F29853A854B855C85CB
:1038A0002083318342835383ED8DFE8DE95BFF4F8F
:1038B00089819A81AB81BC8180839183A283B38308
:1038C000ED8DFE8D86A997A9A0ADB1AD892B8A2B70
:1038D0008B2B09F440C061A172A183A194A10E9425
:1038E00095BA2091ED083091EE084091EF08509183
:1038F000F0080E94F6BA6B017C01C301B2010E947C
:1039000095BA9B01AC01C701B6010E942DC26B01A3
:103910007C016D817E818F8198850E9495BAA70177
:1039200096010E94F6BA0E949AC2AD8DBE8DDC96B9
:103930007C936E93DB9769817A818B819C810E9455
:1039400095BAA70196010E94F6BA0E949AC2ED8D1F
:10395000FE8D76AF65AF6E960FB6F894DEBF0FBEE4
:10396000CDBFDF91CF911F910F91FF90EF90DF902E
:10397000CF90BF90AF909F908F907F906F905F900F
:103980004F900895812C912C5401C12CD12C76019B
:103990006DCFEFE6F0E08081826080830895CF9361
:1039A000C82F0E94861394E0C99F90011124F90149
:1039B000E451F84F2850384FD9014D915D916D91E8
:1039C0007C91408351836283738391E09093EB07F2
:1039D000882311F0CF91DDCFCF910895CF93DF935E
:1039E0008091CC0365995BC081608093CC039091FA
:1039F00003018091CC0391FD54C082608093CC037D
:103A00008091CC034B994FC084608093CC0380910C
:103A1000CC039091CB03981709F447C092E09093A0
:103A2000CA038093CB038091BD08882309F44AC060
:103A3000C091D607C0FF0FC08091BF0880FF0BC0A8
:103A40008091C90380FF07C08091CE088160809378
:103A5000CE0880E0A4DFC1FF0FC08091BF0881FFC6
:103A60000BC08091C90381FF07C08091CE0882609E
:103A70008093CE0881E093DFC2FF24C08091BF080D
:103A800082FF20C08091C90382FF1CC08091CE08B4
:103A900084608093CE0882E0DF91CF9180CF8E7FCB
:103AA000A4CF8D7FABCF8B7FB0CF8091CA0388230B
:103AB00009F4B9CF81508093CA038111B4CF909398
:103AC000C903B1CFDF91CF9108951F93CF93DF93B7
:103AD00080914B028F3708F49AC08F579091A516AA
:103AE00090933208992309F490C02C9A209179166A
:103AF000209331089091020121119095907290933A
:103B000000018F5F80934B028091300891E08927FC
:103B10008093300880914A02980F85300CF090E035
:103B2000823009F4CFC00CF07FC0882309F494C020
:103B3000813009F4BBC090934A02C0912D08D09106
:103B40002E08209709F451C0F894109109011270C1
:103B500082E0FADC80910B011C161D060CF08095AA
:103B60008270809309011C161D060CF4DAC0439A7A
:103B7000209184003091850080910B0180958870A0
:103B800080930901419A8091840090918500821B65
:103B9000930BB0E0A0E043E0880F991FAA1FBB1F62
:103BA0004A95D1F78097A105B10568F380910B0183
:103BB000887080930901419880910B0111118095C3
:103BC000827080930901112309F4ADC0439A78945F
:103BD00080912D0890912E081C161D060CF0A5C092
:103BE000019790932E0880932D08F8DE809133136F
:103BF00090913413009729F0019790933413809398
:103C00003313DF91CF911F9108952C986FCF90912E
:103C10003208891708F02C9890913108891708F418
:103C200070CF909102016ACF843009F463C00CF424
:103C30005CC0853009F07FCF20912F08211102C090
:103C400080932F0880912F08815080932F0888231C
:103C500009F471CF95E06FCF809149028F5F803179
:103C60001CF48093490267CF1092490280912C087E
:103C7000811113C020919B1630919C1630939E1693
:103C800020939D1620916F16309170163093721606
:103C90002093711681E080932C0810929C1610924C
:103CA0009B161092701610926F1645CF88E0809385
:103CB0007B0085E480937C0080917A00806480930F
:103CC0007A0039CF80917A0086FD27C04091780034
:103CD0005091790020919B1630919C16240F351F2E
:103CE00030939C1620939B1626CF88E080937B0010
:103CF00086E4E0CF80917A0086FD11C04091780083
:103D00005091790020916F1630917016240F351F55
:103D10003093701620936F160ECF92E00CCF94E084
:103D20000ACF439825CF439852CF01965ACF2F926E
:103D30003F924F925F926F927F928F929F92AF923B
:103D4000BF92CF92DF92EF92FF920F931F93CF9388
:103D5000DF9300D000D000D01F921F92CDB7DEB706
:103D60008FEF9FEF90938900809388000AE00F8384
:103D7000312C212C789480913D0290913E02892B28
:103D800009F468C09091D00881E020913702309109
:103D900038029217130609F008F480E020913F02E0
:103DA00030914002232B09F457C09091D00811E0C4
:103DB000198320913502309136029217130609F0CB
:103DC00008F4198281114BC08980882009F460C1F0
:103DD0001B821FEF02E08B80882009F47DC00E94C7
:103DE00097126091E2167091E3162091E51630E08B
:103DF00041E050E0811102C04FEF5FEF249FC0010E
:103E0000259F900D349F900D1124860F971F90933E
:103E1000E3168093E2162091B90712161CF5813C37
:103E20009F4F2CF520918400309185008091840073
:103E300090918500821B930B0297C0F38091BF087D
:103E400091E098279093BF0880FD85C089981093D2
:103E5000B9070DC081E0A2CF21E02983B3CF01E0F3
:103E60000B83B7CF222319F080349105DCF68091C3
:103E7000E2169091E3169C01215C3F4F2F373105EC
:103E800008F46EC04091B90720E830E0141614F42D
:103E900020E83FEF820F931F9093E3168093E21682
:103EA000842F440F990BAA0BBB0B4091F80750913C
:103EB000F9076091FA077091FB07840F951FA61F01
:103EC000B71F8093F8079093F907A093FA07B09370
:103ED000FB07889A41E04B838980882009F47CC0E5
:103EE0000E9440126091D0167091D1162091D31685
:103EF00030E041E050E0811102C04FEF5FEF249FBE
:103F0000C001259F900D349F900D1124860F971F9F
:103F10009093D1168093D0162091BA07121614F5FB
:103F2000813C9F4F24F52091840030918500809141
:103F3000840090918500821B930B0297C0F38091BF
:103F4000BF08982F90279093BF0881FD95C08F9848
:103F50001093BA070CC0899A31E03093B90787CF24
:103F60001B82BACF222319F080349105E4F68091A8
:103F7000D0169091D1169C01215C3F4F2F3731050F
:103F800008F47FC04091BA0720E830E0141614F41A
:103F900020E83FEF820F931F9093D1168093D016A5
:103FA000842F440F990BAA0BBB0B4091FC07509137
:103FB000FD076091FE077091FF07840F951FA61FF4
:103FC000B71F8093FC079093FD07A093FE07B09363
:103FD000FF078E9A41E049838B80811003C099804E
:103FE000992091F020918400309185008091840087
:103FF00090918500821B930B0297C0F3AB80A110B8
:104000008898B980B1108E9880913D0290913E02BF
:10401000892BC9F19091D00881E02091370230912D
:1040200038029217130609F008F480E08B83209180
:104030003F0230914002232B41F19091D00821E0C2
:10404000298320913502309136029217130609F028
:1040500008F41982811103C089808820C9F0209159
:104060008400309185008091840090918500821BAE
:10407000930B0297C0F3AFCE8F9A31E03093BA071B
:1040800076CF1982A9CF81E0D1CF31E03983E2CF59
:104090008091E1079091E207A091E307B091E407D6
:1040A000892B8A2B8B2B09F0E7C38091EB078823A0
:1040B00009F476C08091E5079091E6071092EB072E
:1040C000892B09F4D9C31092E6071092E5071092E4
:1040D000D6079091EE168091EF16981731F08091E7
:1040E000EF168F5F8F718093EF160FEF1FEF980120
:1040F00000934502109346022093470230934802F2
:1041000000934102109342022093430230934402F1
:104110002091890730918A07309388072093870779
:104120008EE291E090933802809337024FEF5FEF79
:1041300050933E0240933D0230938C0720938B07AF
:1041400090933602809335025093400240933F0291
:104150001092E3161092E2168091F8079091F907F9
:10416000A091FA07B091FB078093E7169093E816A9
:10417000A093E916B093EA161092D1161092D016B9
:104180008091FC079091FD07A091FE07B091FF0779
:104190008093D5169093D616A093D716B093D816C1
:1041A0008091E5079091E607892B09F465C340915A
:1041B000DB075091DC076091DD077091DE0780918D
:1041C000D7079091D807A091D907B091DA0748177F
:1041D00059076A077B0708F04FC30091D00810E029
:1041E00030E020E0841B950BA60BB70B08171907CE
:1041F0002A073B0710F4D901C801082F840F951F27
:10420000A61FB71F8093DB079093DC07A093DD0701
:10421000B093DE071A82198211E01B838090950704
:1042200090909607A0909707B09098078091A50767
:104230009091A607A091A707B091A807880E991E94
:10424000AA1EBB1E8092A5079092A607A092A70760
:10425000B092A807D501C40180959095A095B0951E
:104260008827B7FD83959927AA27BB27282F8B87F7
:10427000B7FC18C08091910790919207A091930785
:10428000B0919407B501A401481B590B6A0B7B0B35
:10429000DB01CA018093A5079093A607A093A70707
:1042A000B093A807C0909907D0909A07E0909B0719
:1042B000F0909C078091A9079091AA07A091AB0765
:1042C000B091AC07C80ED91EEA1EFB1EC092A9070A
:1042D000D092AA07E092AB07F092AC07D701C601D3
:1042E00080959095A095B0958827B7FD83959927DF
:1042F000AA27BB27182FF7FC18C08091910790912F
:104300009207A0919307B0919407B701A601481BAB
:10431000590B6A0B7B0BDB01CA018093A9079093B1
:10432000AA07A093AB07B093AC0780919D0790912B
:104330009E07A0919F07B091A0074090AD075090B5
:10434000AE076090AF077090B007480E591E6A1E06
:104350007B1E4092AD075092AE076092AF077092FD
:10436000B00777FC18C08091910790919207A091B7
:104370009307B0919407B301A201481B590B6A0B34
:104380007B0BDB01CA018093AD079093AE07A0932E
:10439000AF07B093B0074091A1075091A207609179
:1043A000A3077091A4078091B1079091B207A091E3
:1043B000B307B091B407840F951FA61FB71F809352
:1043C000B1079093B207A093B307B093B407B7FDBA
:1043D00034C040919107509192076091930770917A
:1043E0009407841B950BA60BB70B8093B107909392
:1043F000B207A093B307B093B407E091E507F0913B
:10440000E60786A997A9A0ADB1AD892B8A2B8B2B86
:1044100009F46FC08091C5079091C607A091C707A6
:10442000B091C8070197A109B1098093C50790937E
:10443000C607A093C707B093C8071A868091E116F4
:10444000811101C020E03091CF16332311F40C9478
:104450009F2AF7FE02C00C949F2A6091D416709197
:10446000E616A0918707B0918807809189079091FF
:104470008A07A817B90751F4222341F04091E907B0
:104480005091EA0750933E0240933D02E0918B0722
:10449000F0918C07F987E8878E179F0751F4332333
:1044A00041F04091E7075091E80750934002409354
:1044B0003F02FC01EE0FFF1FE75DFA4F4091DF075F
:1044C0005091E0075183408340E0222321F041E0F6
:1044D000711101C042E0FC01E650FC4F20812C7FAD
:1044E000242B2083332341F031E0611106C032E0F8
:1044F00004C051E05A87A2CF30E0330F330F208140
:10450000237F232B208301968F32F1E09F0709F44C
:104510006BC090938A0780938907809137029091AE
:1045200038020197909338028093370280913502C8
:104530009091360201979093360280933502A650EF
:10454000BC4F8C91837011F40E949712E885F98515
:10455000E650FC4F808186958695837011F40E9409
:1045600040128091E116882309F462C0B7FC60C054
:104570006091E2167091E3162091E41630E080918C
:10458000E61641E050E0811102C04FEF5FEF249F3B
:10459000C001259F900D349F900D1124860F971F09
:1045A0009093E3168093E2162091B90712160CF54A
:1045B000813C9F4F1CF520918400309185008091B3
:1045C000840090918500821B930B0297C0F3809129
:1045D000BF0891E098279093BF0880FD6CC0899830
:1045E0003FEF3093B9070AC010928A0710928907EB
:1045F00094CF222319F080349105ECF68091E216D5
:104600009091E3169C01215C3F4F2F37310508F450
:104610005AC02091B90712160CF052C020E83FEFA3
:10462000820F931F9093E3168093E21651E05B870D
:104630008091CF16882309F466C0F7FC64C06091AE
:10464000D0167091D1162091D21630E08091D416F8
:1046500041E050E0811102C04FEF5FEF249FC001A5
:10466000259F900D349F900D1124860F971F9093D6
:10467000D1168093D0162091BA07121634F5813CDA
:104680009F4F44F5209184003091850080918400F3
:1046900090918500821B930B0297C0F38091BF0815
:1046A00092E098279093BF0881FD73C18F987FEFA8
:1046B0007093BA070FC0899A41E04093B9079ECF23
:1046C00020E830E0ADCF1B86B3CF222319F0803431
:1046D0009105C4F68091D0169091D1169C01215C71
:1046E0003F4F10E02F37310570F02091BA071216B6
:1046F0000CF054C120E83FEF820F931F9093D11626
:104700008093D01611E08B8081100AC080918400C4
:1047100090918500A980BA808A199B090297B0F30D
:10472000BB84BB20E1F04091B907042E000C550B6F
:10473000660B770B8091F8079091F907A091FA0723
:10474000B091FB07840F951FA61FB71F8093F80732
:104750009093F907A093FA07B093FB07889A112367
:10476000E1F04091BA07042E000C550B660B770B55
:104770008091FC079091FD07A091FE07B091FF0783
:10478000840F951FA61FB71F8093FC079093FD070A
:10479000A093FE07B093FF078E9A77FC22C040914A
:1047A000BB07042E000C550B660B770B809100089D
:1047B00090910108A0910208B0910308840F951F01
:1047C000A61FB71F8093000890930108A0930208CA
:1047D000B093030880910B01809588708093090144
:1047E000419A8A848820E1F04091BC07042E000C95
:1047F000550B660B770B8091040890910508A091EA
:104800000608B0910708840F951FA61FB71F809355
:10481000040890930508A0930608B0930708149A1B
:10482000A0908400B0908500BA82A9828091840013
:104830009091850089809A80881999090297B0F330
:104840009B849110889811118E9877FC06C08091F6
:104850000B018870809309014198AA84A1101498D3
:10486000002331F080908400909085009A828982A4
:1048700001501B820111D2CC8091450290914602D9
:10488000A0914702B09148020097A105B10509F037
:1048900088C04091B5075091B6076091B7077091F5
:1048A000B80780918D0790918E07A0918F07B091E6
:1048B0009007840F951FA61FB71F8093B50790938D
:1048C000B607A093B707B093B807B7FD51C04091A2
:1048D000BC07042E000C550B660B770B00910408E7
:1048E000109105082091060830910708040F151F44
:1048F000261F371F0093040810930508209306080D
:10490000309307080091C5071091C6072091C7078B
:104910003091C807400F511F621F731F4093C50796
:104920005093C6076093C7077093C80740919107DB
:10493000509192076091930770919407841B950B97
:10494000A60BB70B8093B5079093B607A093B70754
:10495000B093B807149A209184003091850080911B
:10496000840090918500821B930B0297C0F31498EA
:104970008091410290914202A0914302B091440281
:104980008093450290934602A0934702B093480259
:104990000DC08F9A81E08093BA079CCE20E830E06A
:1049A000ABCE8F3F9F4FAF4FBF4F11F38091E107C9
:1049B0009091E207A091E307B091E407892B8A2B3D
:1049C0008B2B09F00FC5E091E507F091E6073097D2
:1049D000D1F18091DB079091DC07A091DD07B091C8
:1049E000DE074091D7075091D8076091D9077091A1
:1049F000DA0784179507A607B70760F11092E60754
:104A00001092E5071092D6079091EE168091EF165E
:104A1000981731F08091EF168F5F8F718093EF16AA
:104A20002FEF3FEFA90120934502309346024093B8
:104A30004702509348022093410230934202409330
:104A400043025093440250EDC52E57E0D52EE12C81
:104A5000F12CD6C04091D2075091D3076091D40772
:104A60007091D507481759076A077B0708F436C1C4
:104A70008091CE079091CF07A091D007B091D10738
:104A800041A952A963A974A98824859F912C969F56
:104A90009001A69F300DA59F200D311D869F900C83
:104AA000211D381D959F900C211D381DA49F900C31
:104AB000211D381D949F910C281D381D789F990C3D
:104AC000201D311D799F300D1124DF01AD5BBF4FDB
:104AD0008D919D910D90BC91A02D820F931FA11DD2
:104AE000B11D8093CA079093CB07A093CC07B093D6
:104AF000CD07FF9640815181628173814817590724
:104B00006A077B0740F44093CA075093CB07609332
:104B1000CC077093CD072091C9076091CA077091A7
:104B2000CB078091CC079091CD0704C0660F771F0B
:104B3000881F991F2A95D2F70E940A946B017C0165
:104B40008091CE079091CF07A091D007B091D10767
:104B50008C0D9D1DAE1DBF1D8093CE079093CF077A
:104B6000A093D007B093D107A090E507B090E607D7
:104B7000BA82A982D501D6964D915D916D917C91B5
:104B8000D9974115510561057105D1F1DB968D91DC
:104B90009C91B0E0A0E00091C5071091C60720915C
:104BA000C7073091C807081719072A073B071CF0E9
:104BB00040E050E0BA018091CA079091CB07A091E4
:104BC000CC07B091CD074A015B01880E991EAA1E41
:104BD000BB1EC501B4010E94C419A981BA81DA962D
:104BE0002C9104C0660F771F881F991F2A95D2F752
:104BF0006093410270934202809343029093440277
:104C00008091E5079091E607892B09F0E3C30E94A4
:104C100051139093E6078093E507892B09F4DAC3D3
:104C20008090E5079090E60799868886D4018C915C
:104C300083FD97C155964D905D906D907C905897EF
:104C400081E0411451046104710409F480E0E885B5
:104C5000F985C18CD28CE38CF48CC114D104E104AD
:104C6000F10409F0AAC1A885B9855D964D915D91C1
:104C70006D917C919097411551056105710509F081
:104C800084608093D6071092BD071092BE071092E1
:104C9000BF071092C0071092CE071092CF07109254
:104CA000D0071092D107E885F985FF968081918120
:104CB000A281B38120E0893EEFE09E07A105B10506
:104CC00008F07DC1880F991FAA1FBB1F893EFFE016
:104CD0009F07A105B10578F72F5FEDCF4091C10780
:104CE0005091C2076091C3077091C40748175907D4
:104CF0006A077B0708F0E1C08091BD079091BE076D
:104D0000A091BF07B091C00741A952A963A974A996
:104D10008824859F912C969F9001A69F300DA59F7A
:104D2000200D311D869F900C211D381D959F900CE4
:104D3000211D381DA49F900C211D381D949F910C9E
:104D4000281D381D789F990C201D311D799F300D2D
:104D50001124A90170E060E08091CA079091CB070F
:104D6000A091CC07B091CD07E95BFF4F8080918087
:104D7000A280B380481759076A077B0758F4841B41
:104D8000950BA60BB70B88169906AA06BB0610F45E
:104D90004C015D018091C9079501840104C0000F99
:104DA000111F221F331F8A95D2F7C901B8010E9433
:104DB0000A946B017C018091BD079091BE07A09180
:104DC000BF07B091C0078C0D9D1DAE1DBF1D809308
:104DD000BD079093BE07A093BF07B093C007009193
:104DE000E5071091E6071A830983D801D6964D90FE
:104DF0005D906D907C90D9974114510461047104C9
:104E000009F4FECEDD968D919C91B0E0A0E040913A
:104E1000C5075091C6076091C7077091C8078417EE
:104E20009507A607B7070CF08FC384149504A60452
:104E3000B70409F492C384149504A604B70498F542
:104E4000C301B201681979098A099B0911E00E941E
:104E5000C419E981FA8122AD04C0660F771F881F4B
:104E6000991F2A95D2F76093410270934202809372
:104E70004302909344028091BF0883FB992790F9E5
:104E8000191709F4BDCE98E089278093BF08809157
:104E9000BC0781958093BC0784149504A604B704CD
:104EA00050F41698ADCEC501B40164197509860990
:104EB000970910E0CCCF169AA3CE80913902909139
:104EC0003A02A0913B02B0913C02B7FF41C0FF966D
:104ED0002091C907608171818281938104C0660F2E
:104EE000771F881F991F2A95D2F70E940A94609312
:104EF000390270933A0280933B0290933C02A09057
:104F0000E507B090E607BA82A982F50186A997A9BC
:104F1000A0ADB1AD892B8A2B8B2BD1F0FF96608190
:104F20007181828193810E94C419A981BA81DA9624
:104F30002C9104C0660F771F881F991F2A95D2F7FE
:104F40006093410270934202809343029093440223
:104F5000C0903902D0903A02E0903B02F0903C02BF
:104F60004FCE8885998545960E9474111092E60768
:104F70001092E5071092D6079091EE168091EF16E9
:104F8000981731F08091EF168F5F8F718093EF1635
:104F900088248A94982C540180924502909246026B
:104FA000A0924702B092480280924102909242023F
:104FB000A0924302B09244022ACE826054CE209343
:104FC000C907822E912C9A828982E885F98585A16C
:104FD00096A1A7A1B0A504C0880F991FAA1FBB1F47
:104FE0002A95D2F78093D7079093D807A093D90733
:104FF000B093DA07002711279801081B190B2A0B19
:105000003B0B0093B5071093B6072093B707309377
:10501000B8070093A5071093A6072093A70730931E
:10502000A8070093A9071093AA072093AB07309312
:10503000AC070093AD071093AE072093AF073093F2
:10504000B0070093B1071093B2072093B3073093D2
:10505000B40701A112A123A134A148015901880C70
:10506000991CAA1CBB1C8B829C82AD82BE82530100
:105070004201880C991CAA1CBB1C80929507909237
:105080009607A0929707B092980746015701880C9F
:10509000991CAA1CBB1C8092990790929A07A09217
:1050A0009B07B0929C07440F551F661F771F4093C4
:1050B0009D0750939E0760939F077093A0070B81F5
:1050C0001C812D813E810093A1071093A20720939C
:1050D000A3073093A407880F991FAA1FBB1F8093B3
:1050E000910790939207A0939307B09394078091B0
:1050F000E1168823D1F1E5A9E0FF0AC09201A301DE
:1051000060E070E080E090E00E9440C129013A0137
:105110008091E7169091E816A091E916B091EA16F1
:10512000840D951DA61DB71D8093E7169093E81674
:10513000A093E916B093EA168E2F80958170809324
:10514000E616209187073091880780918907909112
:105150008A072817390749F08091BF0880FFE9C105
:10516000E160A885B985D596EC938091CF16109112
:10517000BF08882309F43FC0A885B985D596EC916E
:1051800046015701AE2FA270E1FF0AC09601A701A8
:1051900060E070E080E090E00E9440C149015A0167
:1051A0004091D5165091D6166091D7167091D816A9
:1051B000480D591D6A1D7B1D4093D5165093D61678
:1051C0006093D7167093D81681E0A11180E0809388
:1051D000D41620918B0730918C078091890790918C
:1051E0008A072817390739F011FFA5C1E260A885A1
:1051F000B985D596EC931092DB071092DC071092DC
:10520000DD071092DE07E885F98581A592A5A3A5A3
:10521000B4A5098004C0880F991FAA1FBB1F0A9458
:10522000D2F78093D2079093D307A093D407B0937B
:10523000D50785A596A5A7A5B0A9098004C0880FA4
:10524000991FAA1FBB1F0A94D2F78093C10790939E
:10525000C207A093C307B093C40786A997A9A0ADBE
:10526000B1AD892B8A2B8B2BF1F082AD8B809C808A
:10527000AD80BE8004C0880C991CAA1CBB1C8A95FA
:10528000D2F7D501C401098004C0880F991FAA1F55
:10529000BB1F0A94D2F780938D0790938E07A0933B
:1052A0008F07B0939007A885B985D5968C91811703
:1052B00021F08093BF080E94531A0E94EE1C88249C
:1052C0008A94982C54018092390290923A02A092CA
:1052D0003B02B0923C02088519850D5B1F4FF80117
:1052E00080819181A281B3818093CA079093CB077B
:1052F000A093CC07B093CD07BC01CD01098004C0B9
:10530000660F771F881F991F0A94D2F70E940A948C
:105310006B017C018091CE079091CF07A091D007BF
:10532000B091D1078C0D9D1DAE1DBF1D8093CE0782
:105330009093CF07A093D007B093D1078090E50753
:105340009090E6079A828982D401D6964D915D911C
:105350006D917C91D9974115510561057105D1F188
:10536000DB968D919C91B0E0A0E00091C507109173
:10537000C6072091C7073091C807081719072A07E1
:105380003B071CF040E050E0BA01E981FA81ED5B97
:10539000FF4F80819181A281B3814A015B01880E18
:1053A000991EAA1EBB1EC501B4010E94C419A98181
:1053B000BA81DA962C9104C0660F771F881F991F57
:1053C0002A95D2F760934102709342028093430280
:1053D00090934402C092E107D092E207E092E30783
:1053E000F092E407C0904502D0904602E090470258
:1053F000F090480220913F023091400240913D02DE
:1054000050913E028090E1079090E207A090E30760
:10541000B090E407FC2DED2D7E2D6F2D8C149D0496
:10542000AE04BF0420F4F82DE92D7A2D6B2D29014F
:10543000712C612C8F2F9E2FA72FB62F481659063F
:105440006A067B0610F4D301C9012A01712C612C74
:10545000481659066A067B0610F4D301CA01881A59
:10546000990AAA0ABB0A8092E1079092E207A092E9
:10547000E307B092E407FC016091DF077091E00759
:10548000680F791F7093E0076093DF074F3F540761
:1054900031F0481B590B50933E0240933D022F3F81
:1054A000320731F02E1B3F0B3093400220933F0216
:1054B0002FEFC216D206E206F20661F0C81AD90A28
:1054C000EA0AFB0AC0924502D0924602E0924702E5
:1054D000F0924802F8948091840090918500409663
:1054E0000F8101500F83002341F12E0E3F1E28161D
:1054F000390610F40C94BA1E30928900209288006C
:105500002B960FB6F894DEBF0FBECDBFDF91CF91C3
:105510001F910F91FF90EF90DF90CF90BF90AF90D1
:105520009F908F907F906F905F904F903F902F90C3
:105530000895EE7F16CEED7F5ACE1C01DDCF30E010
:1055400021110C942D220DC8412C512C32018114B3
:105550009104A104B10409F0A6CC88248A94982C63
:1055600054018092410290924202A0924302B09272
:10557000440246CBCF92DF92EF92FF92CF93DF931C
:10558000C82F0E94861394E0C99FE0011124FE01F8
:10559000E850F84FC080D180E280F38081110E94F2
:1055A000C91CCE50D74FC701B6010E9497BA2881B7
:1055B00039814A815B810E94F6BADF91CF91FF90D9
:1055C000EF90DF90CF900895CF92DF92EF92FF920D
:1055D000CF93DF93C82F0E94861394E0C99FE00108
:1055E0001124FE01E451F84FC080D180E280F380A5
:1055F00081110E94C91CCE50D74FC701B6010E942D
:1056000097BA288139814A815B810E94F6BADF917D
:10561000CF91FF90EF90DF90CF9008950E94861376
:105620009091EF169093EE169093ED169093EC16E2
:1056300094E69093EB1621ED33E0309334132093EE
:10564000331381110E94C91C81E08093EB070895F8
:10565000CF93DF931F92CDB7DEB7898360E0CE0191
:1056600001960E94931361E0CE0101960E9493136C
:1056700062E0CE0101960E94931389810F90DF9121
:10568000CF910895CF93DF9380E074DFC5E3D3E13A
:10569000688379838A839B8381E06CDF6C837D835D
:1056A0008E839F8382E066DF688779878A879B87FE
:1056B000DF91CF9108950C949F928091CE0888231A
:1056C00019F01092CE08089560E08CE09FE00E94EF
:1056D000158E109207131092C1031092C2031092FC
:1056E000C3031092C4031092C5031092C603109214
:1056F000C7031092C8031092BD031092BE0310920C
:10570000BF031092C0030895809107138130E9F020
:105710008230C9F40E945C156093BD037093BE0390
:105720008093BF039093C00381E0809307130E948E
:10573000C8946093C1037093C2038093C303909392
:10574000C40381E00895C5DFEFCF80E00895809124
:1057500007138150823070F4109207130E94C8948E
:105760006093C5037093C6038093C7039093C803E7
:1057700081E0089580E008952091A3163091A41649
:10578000263531053CF42091771630917816263075
:1057900031051CF0882319F0B7CF6111D8CF0895D7
:1057A0008F929F92AF92BF92CF92DF92EF92FF9231
:1057B0000F931F93CF93DF931092B9031092B80306
:1057C0002FE32093BC031092BB031092BA031092F4
:1057D000B4031092B5031092B6031092B7039C0164
:1057E000F90190812F5F3F4F9032D1F39E34C9F47D
:1057F000818190ED980F9A3020F08D3211F08B322C
:1058000081F432969F012F5F3F4F808180538A3011
:1058100008F46BC09F012F5F3F4F8081803209F4F5
:1058200066C0F0938D13E0938C138F010F5F1F4FB1
:10583000C0816AE270E0C8010E9450C4009731F054
:10584000FC01319780818032E1F31182CD3421F067
:10585000C43511F0C734E1F5F80180810F5F1F4FA7
:105860008032D1F380538A3098F5C093BC0330E086
:1058700020E06AE0AF014F5F5F4F629FC001639F0E
:10588000900D11249C01205331098081280F311D76
:1058900087FD3A95FA01808180538A3058F330931E
:1058A000BB032093BA03DF0131968C918032D9F388
:1058B000CD3449F52E31310539F0D8F42731310591
:1058C00019F02C313105F9F4B093B903A093B80362
:1058D000DF91CF911F910F91FF90EF90DF90CF90CC
:1058E000BF90AF909F908F900895F9018BCFF901F1
:1058F00091CF2537310538F02737310528F3203A85
:1059000083E0380709F3D0918C1340E050E0BA01EE
:1059100010E000E0C12CD12C7601C394FD0131963A
:105920008C91882309F47FC08132E1F4CD34D1F425
:1059300020323105B9F44093B4035093B50360931A
:10594000B6037093B703F093B903E093B80363E22F
:1059500070E0CF010E9450C4009709F4B9CFFC0158
:105960001082B6CF81548A3108F058C0DF019D9172
:10597000903291F0A0EDA90FAA30E8F09E3271F4B8
:10598000918190539A30B8F00115110519F48F01E7
:105990000150110990E013C0FD01E8CF9D3211F0D4
:1059A0009B3291F79181A0EDA90FAA3020F09E3291
:1059B00059F79281E6CF9E2F9D1B309759F3A82F60
:1059C000B0E04601570104C0880C991CAA1CBB1CFE
:1059D0008A95D2F7482959296A297B29A656BC4FAE
:1059E0009C9380818154DF018A3108F497CFDF01D5
:1059F0008191882309F492CF90ED980F9A30B8F3F3
:105A000093ED980F923098F38B3289F3CD01019684
:105A1000EC91E03209F082CFDC01F8CF01151105DD
:105A200001F78D01DECF1093B9030093B8034093C3
:105A3000B4035093B5036093B6037093B70348CF94
:105A40000F931F93CF9380919403909195030097A8
:105A500009F1FC018F01C1912C2F2F7DA1F0C534DC
:105A600031F0C53621F0C83511F0C83799F7F80183
:105A7000108270E060E00E946FB6F801C083CF91A1
:105A80001F910F91089570E060E0CF911F910F91E9
:105A90000C946FB660E070E0CB01F1CF0E94FA1475
:105AA000882341F081E02091940330919503232BCA
:105AB00009F480E008954F925F926F927F92AF92C7
:105AC000BF92CF92DF92EF92FF920F931F93CF93EB
:105AD00086E0A82E83E0B82E99E0E92E93E1F92E16
