:100000000C9421120C9461120C9461120C946112E4
:100010000C9461120C9461120C9461120C94611294
:100020000C9461120C9461120C9461120C94611284
:100030000C9461120C9461120C9461120C94611274
:100040000C9461120C94251B0C9461120C94611297
:100050000C9461120C94211A0C9461120C94349437
:100060000C9461120C942D3B0C94233B0C94611264
:100070000C9461120C9461120C9461120C94611234
:100080000C9461120C9461120C9461120C94611224
:100090000C9461120C9461120C9461120C94611214
:1000A0000C9461120C9461120C9461120C94611204
:1000B0000C9461120C9461120C9461120C946112F4
:1000C0000C9461120C9461120C9461120C946112E4
:1000D0000C9461120C9461120C9461120C946112D4
:1000E0000C946112084AD73B3BCE016E84BCBFFD25
:1000F000C12F3D6C74319ABD56833DDA3D00C77FF8
:1001000011BED9E4BB4C3E916BAAAABE0000008090
:100110003F05A84CCDB2D44EB93836A9020C50B91F
:10012000918688083CA6AAAA2ABE000000803F004B
:100130004E414E494E495459494E46CDCCCC3D0ACC
:10014000D7233C17B7D13877CC2B329595E6241FAF
:10015000B14F0A000020410000C84200401C462068
:10016000BCBE4CCA1B0E5AAEC59D7400407A10F33B
:100170005A00A0724E18090010A5D4E80000E876D5
:1001800048170000E40B54020000CA9A3B0000002C
:10019000E1F505000080969800000040420F000045
:1001A00000A08601000000102700000000E8030006
:1001B0000000006400000000000A000000000001D0
:1001C00000000000002C76D888DC674F0823DFC1D0
:1001D000DFAE59E1B1B796E5E3E453C63AE651998B
:1001E0007696E8E6C28426EB898C9B62ED407C6FB4
:1001F000FCEFBC9C9F40F2BAA56FA5F490055A2A6B
:10020000F75C936B6CF9676DC11BFCE0E40D47FE76
:10021000F520E6B500D0ED902E030094357705006B
:1002200080841E080000204E0A000000C80C3333F2
:1002300033330F986E12831141EF8D2114893BE601
:100240005516CFFEE6DB18D1844B381BF77C1D908A
:100250001DA4BBE424203284725E228100C9F124F3
:10026000ECA1E53D27434F4D4D554E49434154497F
:100270004F4E0044525952554E004552524F525320
:1002800000494E464F004543484F004D323400531D
:10029000544F505045442E20005072696E74657260
:1002A0002073746F707065642064756520746F20AE
:1002B0006572726F72732E204669782074686520AB
:1002C0006572726F7220616E6420757365204D399E
:1002D000393920746F20726573746172742E20280E
:1002E00054656D70657261747572652069732072F2
:1002F000657365742E20536574206974206166747B
:1003000065722072657374617274696E67290A0080
:100310004E6F20436865636B73756D2077697468F1
:10032000206C696E65206E756D6265722C204C6163
:100330007374204C696E653A20004E6F20436865E7
:10034000636B73756D2077697468206C696E6520C6
:100350006E756D6265722C204C617374204C696EF1
:10036000653A2000636865636B73756D206D697312
:100370006D617463682C204C617374204C696E65E8
:100380003A20004C696E65204E756D626572206979
:1003900073206E6F74204C617374204C696E6520FD
:1003A0004E756D6265722B312C204C617374204C3C
:1003B000696E653A20004D313130005365726961D4
:1003C0006C20737461747573206D69736D617463EF
:1003D000680A0053442072656164206572726F720E
:1003E0000A00746F6F206D75636820696E616374B5
:1003F0006976652074696D65202D2063757272655C
:100400006E7420636F6D6D616E643A20002121204F
:100410004B494C4C20636175736564206279200000
:100420004D6564696120496E73657274656400622C
:100430007573793A2070617573656420666F7220F8
:10044000696E7075740A00627573793A207061750F
:1004500073656420666F7220757365720A00627539
:1004600073793A2070726F63657373696E670A00FF
:100470006563686F3A004572726F723A002F2F61A0
:100480006374696F6E3A006E6F7469666963617454
:10049000696F6E20006E6F74696669636174696F5D
:1004A0006E2000656E6400627574746F6E00486F34
:1004B00074656E6420746F6F20636F6C640A0070E3
:1004C0006175736564005061757365002044002098
:1004D000204D323030205300202844697361626C13
:1004E0006564293A0046696C616D656E74207365B8
:1004F0007474696E67730020204D323031205800CB
:100500004D617820416363656C65726174696F6EDB
:100510002028756E6974732F7332290020204D32A4
:1005200030332058004D61782066656564726174CF
:1005300065732028756E6974732F7329002052002B
:1005400020204D323034205000416363656C657269
:100550006174696F6E2028756E6974732F73322908
:100560002028503C7072696E742D616363656C3E27
:1005700020523C726574726163742D616363656CB3
:100580003E20543C74726176656C2D616363656CCA
:100590003E2900204A0020540020530020204D32E4
:1005A0003035204200416476616E636564202842E4
:1005B0003C6D696E5F7365676D656E745F74696DC0
:1005C000655F75733E20533C6D696E5F666565645B
:1005D000726174653E20543C6D696E5F7472617621
:1005E000656C5F66656564726174653E204A3C6A4D
:1005F000756E635F6465763E2900204400204900E3
:1006000020204D333031205000486F74656E6420D7
:100610005049440020440020490020204D3330340C
:1006200020500042656420504944002044002020AE
:100630004D353933205920460020440020204D35C7
:1006400039332058204600496E7075742053686114
:1006500070696E6700203B0020550020204D363029
:1006600033204C0046696C616D656E74206C6F615F
:10067000642F756E6C6F61640020496E76616C69E1
:10068000642065787472756465722000536C6565CA
:10069000702E2E2E0070726F6D70745F0062656731
:1006A000696E004D302053746F70004D31205374CB
:1006B0006F70004E6F204D6F76652E00456E642082
:1006C00066696C65206C6973740A00426567696EBF
:1006D0002066696C65206C6973740A004E6F206D2A
:1006E000656469610A005344206361726420726525
:1006F0006C65617365640A00726573756D6500529F
:100700006573756D696E6720534400286E6F2066AF
:10071000696C65290043757272656E742066696C38
:10072000653A20002E0A0044656C6574696F6E207E
:100730006661696C65642C2046696C653A200046E8
:10074000696C652064656C657465643A0043616E2C
:100750006E6F74206F70656E2073756264697220AD
:10076000002569730025696D202569730025696876
:100770002025696D20256973002569642025696835
:100780002025696D20256973002569792025696414
:10079000202569682025696D2025697300507269DC
:1007A0006E742074696D653A20006F6B006F666629
:1007B00000860281027A027302650244454255476F
:1007C0003A004D31313320530047656E697573200F
:1007D0004F46462E007D7D7D0A002C7A3A002C790A
:1007E0003A007D2C6D61783A7B783A002C7A3A0099
:1007F0002C793A007D7D2C776F726B3A7B6D696E38
:100800003A7B783A002C7A3A002C793A007D2C6DAC
:1008100061783A7B783A002C7A3A002C793A006178
:100820007265613A7B66756C6C3A7B6D696E3A7B7A
:10083000783A00434F4E4649475F4558504F52540F
:10084000004D4541545041434B00434F4F4C45529E
:100850005F54454D5045524154555245004348411F
:100860004D4245525F54454D5045524154555245B5
:1008700000424142595354455050494E470041525D
:100880004353004D4F54494F4E5F4D4F4445530025
:10089000544845524D414C5F50524F544543544982
:1008A0004F4E00455854454E4445445F4D3230004C
:1008B000435553544F4D5F4649524D574152455F42
:1008C00055504C4F4144004C464E5F575249544599
:1008D000004C4F4E475F46494C454E414D45004107
:1008E00055544F5245504F52545F53445F535441F7
:1008F0005455530053445F57524954450052455094
:10090000454154004D554C54495F564F4C554D454B
:10091000005344434152440050524F4D50545F5392
:100920005550504F525400484F53545F414354491F
:100930004F4E5F434F4D4D414E445300454D455240
:1009400047454E43595F504152534552004341532E
:10095000455F4C494748545F4252494748544E45C9
:10096000535300544F47474C455F4C4947485453F5
:1009700000534F4654574152455F504F5745520020
:100980004255494C445F50455243454E54004C45F6
:1009900056454C494E475F44415441005A5F5052BE
:1009A0004F42450052554E4F5554004155544F4CFF
:1009B0004556454C005052494E545F4A4F420050F4
:1009C000524F4752455353004155544F5245504F93
:1009D00052545F54454D50004155544F5245504F6D
:1009E00052545F504F5300564F4C554D4554524949
:1009F0004300454550524F4D0042494E4152595FC8
:100A000046494C455F5452414E534645520053456A
:100A10005249414C5F584F4E5F584F464600464939
:100A2000524D574152455F4E414D453A4D61726CB2
:100A3000696E20322E312E32202846656220203405
:100A400020323032332030383A35373A32302920AC
:100A5000534F555243455F434F44455F55524C3ABF
:100A60006769746875622E636F6D2F4D61726C6972
:100A70006E4669726D776172652F4D61726C696E39
:100A80002050524F544F434F4C5F56455253494F9D
:100A90004E3A312E30204D414348494E455F54591E
:100AA00050453A47656E6975732045585452554410
:100AB00045525F434F554E543A3120555549443ABB
:100AC00063656465326132662D343161322D3437AD
:100AD00034382D396231322D633535633632663321
:100AE00036376666002F2F003F4A206F7574206FDF
:100AF000662072616E67652028302E303120746F59
:100B000020302E33290A002058004F4646004F4E11
:100B1000003B200020204D61783A2000200020205A
:100B20004D696E3A2000203B200020204D323131AB
:100B300020530046523A0020466C6F773A200064FA
:100B4000697300656E0043290A0061626C65642068
:100B5000286D696E2074656D702000436F6C642091
:100B600065787472756465732061726520004F66E4
:100B70006673657473204170706C69656400546FAE
:100B80006F206661722066726F6D20726566657295
:100B9000656E636520706F696E740A00454550523A
:100BA0004F4D204F4B0A00206F72203020746F2071
:100BB00064697361626C650A003F467265717565B0
:100BC0006E637920284629206D7573742062652034
:100BD00067726561746572207468616E20003F5AA7
:100BE000657461202844292076616C7565206F75D5
:100BF00074206F662072616E67652028302D312960
:100C00000A004D3834005072696E7420446F6E656E
:100C100000446F6E65207072696E74696E6720663D
:100C2000696C650A004D3737004D333100496E76E7
:100C3000616C69642065787472756465720A00205D
:100C4000204D323036205800486F6D65206F666643
:100C500073657400446966663A2020200046726F0E
:100C60006D5374703A00537465707065723A005237
:100C700061773A20202020000A4C6F676963616C1D
:100C80003A00436F756E7420453A004361703A0034
:100C900047322F47332062616420706172616D6555
:100CA000746572730A0020573A0042656420436FEE
:100CB0006F6C696E672E2E2E004265642048656158
:100CC00074696E672E2E2E00206661696C65642142
:100CD00020426164206865617465722069640A005D
:100CE000504944204175746F74756E6500236465C6
:100CF00066696E652044454641554C545F0000626C
:100D00006564004B6420004B6920004B702000504C
:100D100049442074756E696E6720646F6E650020AB
:100D200066696E6973686564212050757420746803
:100D300065206C617374204B702C204B6920616EB0
:100D400064204B6420636F6E7374616E74732066ED
:100D5000726F6D2062656C6F7720696E746F2043CF
:100D60006F6E66696775726174696F6E2E680A00CE
:100D7000504944204175746F74756E65002066613A
:100D8000696C6564212074696D656F75740A005023
:100D90004944204175746F74756E65004175746FB8
:100DA00074756E65206661696C6564212054696D97
:100DB000656F75742E00206661696C65642120542E
:100DC000656D706572617475726520746F6F2068EF
:100DD0006967680A00504944204175746F74756EE4
:100DE0006500204B643A2000204B693A2000204BDC
:100DF000703A200020436C6173736963205049444A
:100E0000200A00204E6F206F76657273686F6F74D2
:100E10000A002054753A2000204B753A2000206DBE
:100E200061783A2000206D696E3A200020643A20F3
:100E30000020626961733A200048656174696E67D9
:100E40002E2E2E002073746172740A0050494420C3
:100E50004175746F74756E65004175746F74756E4D
:100E600065206661696C6564212054656D706572EA
:100E7000617475726520746F6F20686967682E00F1
:100E8000206661696C6564212054656D70657261CE
:100E90007475726520746F6F20686967680A005006
:100EA0004944204175746F74756E65005049442043
:100EB0004175746F74756E6500486F6D696E67205B
:100EC0004661696C6564006F70656E0054524947F5
:100ED0004745524544003A20007A5F6D696E0079BB
:100EE0005F6D696E00785F6D696E005265706F723C
:100EF00074696E6720656E6473746F7020737461BB
:100F00007475730A0020746F6F206C6F6E672065B4
:100F10007874727573696F6E2070726576656E7421
:100F200065640A0020636F6C642065787472757361
:100F3000696F6E2070726576656E7465640A000074
:100F40000000C00000A0C0000000005761726E6980
:100F50006E673A20486F6D696E672042756D70202C
:100F600044697669736F72203C20310A00020204E2
:100F700000005E4300006B4300007A430000A04085
:100F80000000A0400000004000000001000000013F
:100F900000008000555555000000400033333300F9
:100FA000AAAA2A004992240000002000C7711C0050
:100FB00099991900D1451700555515003BB11300FB
:100FC0002449120011111100000010000F0F0F0032
:100FD000E3380E0043790D00CCCC0C00C3300C007C
:100FE000E8A20B0064210B00AAAA0A00703D0A00C7
:100FF0009DD80900427B090092240900DCD3080037
:10100000888808001042080000000800F0C10700AE
:101010008787070075500700711C07003EEB06002C
:10102000A1BC06006990060066660600703E0600D8
:101030006118060017F4050074D105005BB00500C7
:10104000B29005006272050055550500783905001B
:10105000B81E0500050505004EEC040087D4040009
:10106000A1BD040090A7040049920400C17D0400C2
:10107000EE690400C7560400444404005C320400D6
:101080000821040041100400000004003FF00300A8
:10109000F8E0030026D20300C3C30300CCB503006D
:1010A0003AA803000A9B0300388E0300C0810300A6
:1010B0009F750300D0690300505E03001D530300B9
:1010C00034480300913D0300333303001629030025
:1010D000381F030097150300300C030003030300BF
:1010E0000BFA020049F10200BAE802005CE00200DB
:1010F0002DD802002DD0020059C80200B0C0020055
:1011000031B90200DAB10200AAAA0200A0A30200CB
:10111000BC9C0200FA9502005C8F0200DF8802008E
:1011200082820200457C02002776020027700200BE
:10113000436A02007C640200D05E02003F59020054
:10114000C8530200FFFDFCFAF8F6F4F2F0EEECEA08
:10115000E9E7E5E3E1E0DEDCDAD9D7D5D4D2D0CFD8
:10116000CDCBCAC8C7C5C3C2C0BFBDBCBAB9B7B66C
:10117000B4B3B2B0AFADACAAA9A8A6A5A4A2A1A0D1
:101180009E9D9C9A99989795949392908F8E8D8B13
:101190008A8988878684838281807F7E7D7B7A7935
:1011A0007877767574737271706F6E6D6C6B6A6937
:1011B0006867666564636261605F5E5D5C5B5A5927
:1011C00058585756555453525150504F4E4D4C4B02
:1011D0004A4A4948474646454443424241403F3EC9
:1011E0003E3D3C3B3B3A393838373635353433327F
:1011F000323130302F2E2E2D2C2B2B2A2929282727
:101200002726252524232322212120201F1E1E1DC1
:101210001C1C1B1B1A191918181716161515141350
:101220001312121111100F0F0E0E0D0D0C0C0B0AD4
:101230000A0909080807070606050504040303024E
:101240000201000000005C430000664300007A4396
:10125000000000C00000A0C00000000053657474CE
:10126000696E67732053746F72656400290A0020E9
:1012700062797465733B20637263200053657474F4
:10128000696E67732053746F72656420280045454A
:1012900050524F4D20496E697469616C697A65647A
:1012A0000A0048617264636F646564204465666126
:1012B000756C742053657474696E6773204C6F612C
:1012C0006465640020286D6D290020204D3134397B
:1012D0002043203B20556E69747320696E2043655E
:1012E0006C736975730A0054656D7065726174750D
:1012F000726520556E697473002020473231203B9F
:10130000004C696E65617220556E697473004545C5
:1013100050524F4D206461746173697A6520657223
:10132000726F722E0A0053746F7265642073657455
:1013300074696E677320726574726965766564009E
:10134000290A002062797465733B20637263200070
:101350002073746F7265642073657474696E67734B
:101360002072657472696576656420280045455071
:10137000524F4D20435243204572726F7200202815
:1013800063616C63756C6174656429210A002021B6
:101390003D2000454550524F4D20435243206D693A
:1013A000736D61746368202D202873746F72656497
:1013B0002920002053697A653A2000496E646578D7
:1013C0003A20000000964300009643000048420087
:1013D0000020420000A0420000A0420000C84300DC
:1013E00080DE43D0070000D007000064000000103A
:1013F000270000454550524F4D2056657273696F66
:101400006E204572726F7200204D61726C696E3D84
:10141000563837290A00454550524F4D207665729F
:1014200073696F6E206D69736D6174636820284500
:101430004550524F4D3D0020436F756E7420583A11
:1014400000004500626564002C2073797374656D3B
:101450002073746F707065642120486561746572D3
:101460005F49443A20004572723A204D4158544534
:101470004D50004D415854454D5020747269676776
:10148000657265640048656174696E6720466169CC
:101490006C65640048656174696E67206661696C9B
:1014A0006564004D353234004D313132205368755A
:1014B00074646F776E004572723A204D494E544500
:1014C0004D50004D494E54454D5020747269676728
:1014D0006572656400544845524D414C2052554E4A
:1014E0004157415900546865726D616C2052756EA8
:1014F0006177617900202F002042403A0020403A75
:101500000020583A0020573A002053004D31303621
:1015100020500000002100240027002A002D003068
:1015200000330001010000040107010A017C3C3E78
:101530005E2B3D3F2F5B5D3B2C2A225C0043616E9E
:101540006E6F74206F70656E2073756264697220AF
:101550000053442063617264206F6B0A006F7065F2
:101560006E526F6F74206661696C65640A00766FF5
:101570006C756D652E696E6974206661696C656451
:101580000A004E6F20534420636172640A002E0AE1
:10159000006F70656E206661696C65642C20466919
:1015A0006C653A200046696C652073656C656374F0
:1015B00065640A002053697A653A200046696C65C3
:1015C000206F70656E65643A2000454E4420535587
:1015D00042524F5554494E450A002220706F730005
:1015E0002220706172656E743A2200535542524F48
:1015F0005554494E452043414C4C207461726765F7
:10160000743A220053756263616C6C204F76657288
:10161000666C6F77004578636565646564206D610D
:101620007820535542524F5554494E4520646570B9
:1016300074683A0057726974696E6720746F206627
:10164000696C653A20004E6F7420534420707269B3
:101650006E74696E670A005344207072696E746913
:101660006E67206279746520006672657368006435
:101670006F696E67002066696C653A20004E6F776F
:1016800020000A4D3234004D3233202573002F6183
:1016900075746F25632E670070012C01900127017E
:1016A000B0012201C0011D01F00118011002130157
:1016B00030020E016002090190020401C002FF0025
:1016C0000003FA004003F5008003F000D003EB00B4
:1016D0002004E6007004E100E004DC004005D700CF
:1016E000C005D2004006CD00D006C8008007C30068
:1016F0003008BE00F008B900C009B400B00AAF005D
:10170000B00BAA00D00CA500000EA000500F9B004B
:10171000C01096005012910000148C00C015870074
:10172000B0178200B0197D00D01B7800001E730036
:1017300040206E0090226900F024640040275F0082
:1017400090295A00E02B5500102E500020304B00FD
:1017500010324600E033410090353C00103737002E
:1017600070383200A0392D00B03A2800A03B230089
:10177000603C1E00103D1900903D1400103E0F000B
:10178000703E0A00C03E0500003F0000403FFBFFE6
:10179000803FF6FFC03FF1FF2020506C616E6E6508
:1017A0007242756666657242797465733A200020EC
:1017B00046726565204D656D6F72793A2000204351
:1017C0006F6D70696C65643A204665622020342034
:1017D000323032330A00204C6173742055706461DA
:1017E0007465643A20323032322D31322D31372057
:1017F0007C20417574686F723A2028746869736937
:10180000736B65697468622C2047656E697573290E
:101810000A004D61726C696E20322E312E320A0040
:1018200020536F6674776172652052657365740A20
:1018300000205761746368646F6720526573657434
:101840000A002042726F776E206F757420526573A4
:1018500065740A002045787465726E616C2052656B
:101860007365740A00506F77657255700A0073745F
:101870006172740A004732385859004D31303031A6
:10188000006F6B006572726F722077726974696E97
:101890006720746F2066696C650A00446F6E65206E
:1018A000736176696E672066696C652E0A004D3239
:1018B0003900205A3A0020593A0020583A00656E03
:1018C0006473746F7073206869743A20000000229A
:1018D00000250028002B002E0031003400020100FA
:1018E00000050108010B01050505050705080808A5
:1018F00008020202020A0A080804040404010101A1
:1019000001010101010303030303030303040707A8
:10191000070C0C0C0C0C0C0C0C0202020206060646
:1019200006060606060B0B0B0B0B0B0B0B0102102E
:1019300020200808102040102040800201020108E9
:101940000402010102040810204080804020100899
:1019500004020180040201804020100804020108F2
:101960000402010102040810204080010204081052
:1019700020408000000A0B02090C0D0E080703042A
:101980000100000000000000000000000000000056
:101990000000000000000000000000000000001235
:1019A0001110000000000000000000000000000016
:1019B00000000000000000000024F404D9201BC433
:1019C0000C5C0E9804C4095F0265077101F405F907
:1019D00000FB04B30048048700C1036900580355A5
:1019E0000003034500BE023A008402310053022A7C
:1019F000002902250004022000E4011C00C801198E
:101A000000AF011700980114008401130071011048
:101A1000006101100051010E0043010D0036010B61
:101A2000002B010B0020010B00150109000C01091E
:101A30000003010800FB000800F3000800EB0007AA
:101A400000E4000600DE000600D8000600D2000612
:101A500000CC000500C7000500C2000500BD000461
:101A600000B9000400B5000400B1000400AD00049A
:101A700000A9000400A5000300A20003009F0004C9
:101A8000009B0003009800030095000200930003F0
:101A900000900003008D0002008B0003008800020C
:101AA000008600020084000300810002007F000223
:101AB000007D0002007B0002007900020077000137
:101AC0000076000200740002007200010071000242
:101AD000006F0002006D0001006C0002006A00014E
:101AE0000069000200670001006600010065000156
:101AF000006400020062000100610001006000015A
:101B0000005F0002005D0001005C0001005B00015D
:101B1000005A00010059000100580001005700015F
:101B20000056000100550001005400010053000060
:101B3000005300010052000100510001005000015B
:101B4000004F0001004E0000004E0001004D00015A
:101B5000004C0001004B0000004B0001004A000156
:101B60000049000100480000004800010047000152
:101B7000004600000046000100450000004500014D
:101B80000044000100430000004300010042000047
:101B9000004200010041000000410001004000013E
:101BA000003F0000003F0001003E0000003E000139
:101BB000003D0000003D0001003C0000003C000032
:101BC000003C0001003B0000003B0001003A000027
:101BD000003A00010039000000390001003800001F
:101BE0000038000000380001003700000037000115
:101BF000003600000036000000360001003500000D
:101C00000035000000350001003400000034000001
:101C100000340001003300000033000000330001F5
:101C200000320000003200000032000100310000EC
:101C300000310000003100010030000000300000E1
:101C400000300001002F0000002F0000002F0000D6
:101C5000002F0001002E0000002E0000002E0001C9
:101C6000002D0000002D0000002D0000002D0001BF
:101C7000002C0000002C0000002C0000002C0001B3
:101C8000002B0000002B0000002B0000002B0001A7
:101C9000002A0000002A0000002A0000002A00019B
:101CA0000029000000290000002900000029000090
:101CB0000029000100280000002800000028000082
:101CC0000028000000280001002700000027000075
:101CD0000027000000270000002700010026000068
:101CE000002600000026000000260000002600015B
:101CF0000025000000250000002500000025000050
:101D00000025000000250001002400000024000040
:101D10000024000000240000002400010023000033
:101D20000023000000230000002300000023000027
:101D30000023000000230001002200000022000018
:101D4000002200000022000000220000002200010A
:101D500000210000002100000021000000210000FF
:101D600000210000002100000021000100200000EF
:101D700000200000002000000020000000200000E3
:101D8000002000000020000000200001001F0000D3
:101D9000001F0000001F0000001F0000001F0000C7
:101DA000001F0000001F0001001E0000001E0000B8
:101DB000001E0000001E00000024F4D43050C38E2A
:101DC00020C2A24017828B7011127A910D816CD9BA
:101DD0000AA861E108C7586607615143061E4B5DBA
:101DE00005C145A7041A411104093D980371393111
:101DF000034036DB0265339102D4305402802E1D3D
:101E000002632CEE01752AC501B028A001102781BC
:101E1000018F2564012B244B01E0223401AC211FEA
:101E2000018D200D01801FFC00841EED00971DDF39
:101E300000B81CD200E61BC600201BBC00641AB20E
:101E400000B219A8000A19A0006A189900D11791C8
:101E50000040178B00B516840031167E00B315794B
:101E6000003A157300C7146F0058146A00EE136629
:101E7000008813630025135E00C7125B006C1257C5
:101E80000015125400C111510070114F0021114B67
:101E900000D61049008D1047004610440002104241
:101EA00000C00F4000800F3E00420F3C00060F3B79
:101EB00000CB0E3800930E37005C0E3500270E3431
:101EC00000F30D3200C10D3100900D3000600D2E79
:101ED00000320D2D00050D2C00D90C2B00AE0C2965
:101EE00000850C29005C0C2700350C27000E0C2601
:101EF00000E80B2400C40B2400A00B23007D0B235F
:101F0000005A0B2100390B2100180B2000F80A1F82
:101F100000D90A1E00BB0A1E009D0A1D00800A1D72
:101F200000630A1C00470A1B002C0A1B00110A1A36
:101F300000F7091A00DD091900C4091900AB0919D5
:101F400000920917007B091800630917004C091655
:101F50000036091600200916000A091500F50815B3
:101F600000E0081400CC081400B8081400A40814F9
:101F700000900813007D0812006B08130058081227
:101F8000004608120034081100230811001208113D
:101F90000001081100F0071000E0071000D0071042
:101FA00000C0071000B0070F00A107100091070E36
:101FB0000083070F0074070F0065070E0057070E18
:101FC0000049070E003B070D002E070E0020070DED
:101FD0000013070D0006070D00F9060C00ED060DB5
:101FE00000E0060C00D4060C00C8060C00BC060C71
:101FF00000B0060C00A4060B0099060C008D060B21
:102000000082060B0077060B006C060B0061060AC7
:102010000057060B004C060A0042060A0038060A62
:10202000002E060A0024060A001A060A00100609F5
:102030000007060A00FD050900F4050900EB050983
:1020400000E2050900D9050900D0050900C7050906
:1020500000BE050900B5050800AD050800A5050985
:10206000009C050800940508008C050800840508FC
:10207000007C050800740508006C0507006505086C
:10208000005D050700560508004E050700470507D7
:10209000004005080038050700310507002A05073C
:1020A00000230507001C050600160507000F05079D
:1020B000000805060002050700FB040600F50407FA
:1020C00000EE040600E8040600E2040700DB040654
:1020D00000D5040600CF040600C9040600C30406A8
:1020E00000BD040600B7040600B1040500AC0406F8
:1020F00000A6040600A00405009B04060095040544
:1021000000900406008A040500850405008004068A
:10211000007A04050075040500700405006B0405D1
:102120000066040500610405005C04050057040511
:1021300000520405004D0405004804050043040551
:10214000003E0404003A0405003504050030040490
:10215000002C04050027040400230405001E0404C9
:10216000001A04040016040500110404000D040400
:1021700000090405000404040000040400FC030436
:1021800000F8030400F4030400F0030400EC03046B
:1021900000E8030400E4030400E0030400DC03049B
:1021A00000D8030400D4030400D0030400CC0304CB
:1021B00000C8030300C5030300181F0000B5140086
:1021C000006B0C0000E5060000A6030000E1010022
:1021D00000F40000007B0000004572726F722077EF
:1021E000726974696E6720746F20454550524F4D77
:1021F000210A00DB0FC93F45BCDA3F8FB30240FC28
:10220000F0274056946140FE4B9B4084A5D840E0A7
:10221000231841346A5641E859974164DBD5416E31
:10222000271742B4B75542CE1A9742C8AED542B529
:10223000885A43D40684BFA65FA7BF7443E0BF108B
:10224000B11AC01C2C58C0E8F697C0B849D6C04E89
:102250004E17C124D355C1802497C1A0B5D5C11252
:102260001A17C244AE55C2781797C26CACD5C26774
:10227000885AC320746F6F206C6F6E672065787406
:10228000727573696F6E2070726576656E746564C1
:102290000A0020636F6C6420657874727573696FCF
:1022A0006E2070726576656E7465640A0073686F7F
:1022B0007700626567696E0050757267654D6F7271
:1022C0006500506175736564004C6F6164204669F8
:1022D0006C616D656E74205400496E736572742074
:1022E00066696C616D656E7420616E642073656EE5
:1022F00064204D3130380A0053656E64204D313012
:102300003820746F20726573756D650A00496E73AD
:102310006572742066696C616D656E7420616E64AF
:102320002073656E64204D3130380A00526568654F
:10233000617420446F6E6500526568656174696EF2
:10234000672E2E2E005265686561740048656174C1
:1023500065722054696D656F75740053656E6420F5
:102360004D31303820746F2068656174206E6F7A4B
:102370007A6C650A00436F6E74696E7565004E6F06
:102380007A7A6C65205061726B6564007265737552
:102390006D6564004469736D69737300526573758C
:1023A0006D696E6700FFFFFF01150D2409240524E8
:1023B000204500205A0020590020204D3932205855
:1023C0000053746570732070657220756E697400B7
:1023D000220A00556E6B6E6F776E20636F6D6D61B4
:1023E0006E643A202200486F6D65202573257325A1
:1023F00073204669727374006F6B0A0052657365CF
:102400006E643A200020453A00205A3A0020593A9A
:1024100000583A00706F7765726F66660050726997
:102420006E7465722068616C7465642E206B696CD3
:102430006C28292063616C6C6564210A000037AB4D
:102440003EB311241FBECFEFD1E2DEBFCDBF00E00F
:102450000CBF84B78093611614BE0FB6F894A8958C
:1024600080916000886180936000109260000FBED0
:1024700013E0A0E0B2E0E2E4F3E801E00BBF02C049
:1024800007900D92A034B107D9F726E1A0E4B3E09C
:1024900001C01D92A136B207E1F712E1C0E2D2E11C
:1024A00000E006C021970109802FFE010E942CBE8A
:1024B000CF31D10780E00807A9F70E94F4AB0C9454
:1024C00090C10C940000CF93DF93C1E4D4E120E0ED
:1024D00030E048E452E46091B50E7091B60E809100
:1024E000B70E9091B80E0E947EC087FF13C080E0A7
:1024F000FE01C4912091020190E002C0959587955C
:10250000CA95E2F780FD0EC0207120930001DF9193
:10251000CF910895FE01949181E001C0880F9A95B2
:10252000EAF7E6CF2095F0CF4F925F926F927F92BD
:102530008F929F92AF92BF92CF92DF92EF92FF92D3
:102540000F931F93CF930091D7071091D807209135
:10255000D9073091DA0780902E1290902F12A09018
:102560003012B09031124091DB075091DC0760913E
:10257000DD077091DE07C0901C12D0901D12E09014
:102580001E12F0901F12C0E1FC01A7EDB7E0019010
:102590000D92CA95E1F7E0912812EE2349F1280146
:1025A0003901481859086A087B0853014201009113
:1025B000D7071091D8072091D9073091DA07080D75
:1025C000191D2A1D3B1D0093D7071093D807209390
:1025D000D9073093DA07FC01008111812281338110
:1025E00000932E1210932F12209330123093311239
:1025F00020911612222339F18A019B010C191D0921
:102600002E093F094091DB075091DC076091DD07FF
:102610007091DE07400F511F621F731F4093DB074D
:102620005093DC076093DD077093DE07FC01848123
:102630009581A681B78180931C1290931D12A0935F
:102640001E12B0931F12CF911F910F91FF90EF9028
:10265000DF90CF90BF90AF909F908F907F906F90C2
:102660005F904F900895EF92FF920F931F93E09227
:102670004D03F0924E0300934F0310935003609369
:10268000510370935203809353039FEFFF27621B04
:10269000730B840B30F4809570956195790B890BE1
:1026A000992790934C03A6E06A9F00924003512D16
:1026B000EE277A9F500DE11D8A9FE00D5093410354
:1026C000E0934203AFE06A9F00924403512DEE274E
:1026D0007A9F500DE11D8A9FE00D50934503E093D2
:1026E0004603AAE06A9F00924803512DEE277A9F85
:1026F000500DE11D8A9FE00D50934903E0934A037A
:102700001F910F91FF90EF90089521E030E0082E87
:1027100002C0220F331F0A94E2F720953095909162
:10272000E70329232093E703813061F020F0823012
:1027300071F081E008955F9A8091DE088E7F80932A
:10274000DE08F7CF8A9A8091DE088D7FF8CF8091DE
:1027500008018095817080930601479A8091DE0878
:102760008B7FEDCF20917D0730917E07F901E851F5
:10277000FC4F908196959695937081E0913009F089
:1027800080E0409135025091360260917B07709154
:102790007C074F5F5F4F2F5F3F4F2F3291E039072C
:1027A00011F430E020E06217730721F1F901E851DC
:1027B000FC4F908196959695937059F330937E07D0
:1027C00020937D0750933602409335024091C6070F
:1027D0005091C7076091BE077091BF07461B570B0A
:1027E000220F331FF901E95EFA4F20813181240F56
:1027F000351F0AC070937E0760937D0750933602A1
:10280000409335022FEF3FEF3093400220933F0279
:1028100008952091790730917A07F901E851FC4F2A
:102820009081937081E0913009F080E0409137020F
:102830005091380260917B0770917C074F5F5F4F2A
:102840002F5F3F4F2F3291E0390711F430E020E045
:102850006217730711F1F901E851FC4F90819370F1
:1028600069F330937A0720937907509338024093A5
:1028700037024091C8075091C9076091BE07709117
:10288000BF07461B570B220F331FF901E95EFA4FB2
:1028900020813181240F351F0AC070937A0760931D
:1028A000790750933802409337022FEF3FEF309370
:1028B0003E0220933D0208959F92AF92BF92CF9225
:1028C000DF92EF92FF920F931F93CF93DF9300D08D
:1028D0001F921F92CDB7DEB7E4E4F1E10027BB27DA
:1028E000462F572FA82FAA2341F4A52F542FB85FA6
:1028F000AA2319F4A52F5527B85FA03138F45295B3
:10290000A295452F4F70507FA42BBC5FA03428F4B4
:10291000550FAA1F550FAA1FBE5FA03818F4550FF8
:10292000AA1FB395550FAA1FEA0FF01F449151E05B
:10293000AA27B85079F1C0F0B0FF02C0440F551F6C
:10294000B1FF04C0440F551F440F551FB2FF06C00E
:1029500052954295142F1F70407F512BB3FF1AC020
:10296000A52F542F442716C0B195B0FF02C055952E
:102970004795B1FF04C05595479555954795B2FFCA
:1029800005C05295407F4295452B5F70B3FF02C052
:10299000452F5527DD24CC24BB24B2E0649FD018FA
:1029A000C108B00AB00B749FC018B108B00B849F67
:1029B000B018B109659FC018B108B00B759FB01869
:1029C000B109859FB0196A9FB018B1097A9FB019F3
:1029D0004D9DA12C99243327992722275D9DA00C7A
:1029E000911C301F901F201FAD9D900C311D901F1A
:1029F000201F4C9DA00C911C301F901F201F5C9D20
:102A0000900C311D901F201FAC9D300D911D201F7B
:102A10004B9D900C311D901F201F5B9D300D911D13
:102A2000201FAB9D900D211D4B9F300D911D201F30
:102A30005B9F900D211DAB9F200DB1E0BB24CC24EA
:102A4000DD24639FD018C108B00AB00B739FC01873
:102A5000B108B00B839FB018B109699FC018B108C5
:102A6000B00B799FB018B109899FB019629FB01857
:102A7000B109729FB019D61AC70AB80A20F0B1E09E
:102A80003B0F901F201F1124792F632F90E0822F7E
:102A90000F900F900F900F900F90DF91CF911F919B
:102AA0000F91FF90EF90DF90CF90BF90AF909F90ED
:102AB0000895AF92BF92CF92DF92EF92FF920F9361
:102AC0001F93CF93DF93C0EEDEE005EF18E080EFB9
:102AD000A82E8EE0B82EC12CD12C7601C39469911A
:102AE0007991899199910E949BB7288939894A895E
:102AF0005B890E94FCB70E94A0BFF80161937193AB
:102B0000819391938F01C616D706E806F90610F453
:102B10006B017C01AC16BD0611F76FEF7FEFCB01A7
:102B2000A70196010E94C1BD2093050930930609B3
:102B30004093070950930809DF91CF911F910F919E
:102B4000FF90EF90DF90CF90BF90AF900895CF921D
:102B5000DF92EF92FF928091E403882309F457C03B
:102B6000C090E003D090E103E090E203F090E30333
:102B700020E030E0A901C701B6010E9497B7882381
:102B800009F445C020E030E040E05FE3C701B60152
:102B90000E94FCB79B01AC010E94FCB72BED3FE00B
:102BA00049E450E40E94FCB79B01AC0160E070E096
:102BB00080E89FE30E9433BF6B017C01C092C70392
:102BC000D092C803E092C903F092CA036091170241
:102BD00070911802072E000C880B990B0E949DB76C
:102BE0002AE037ED43E25CE30E94FCB7A7019601BF
:102BF0000E94FCB760934F02709350028093510281
:102C000090935202FF90EF90DF90CF900895C12CE7
:102C1000D12C80E8E82E8FE3F82ED0CF80913512AA
:102C200090913612891B8F7019F490E080E008951E
:102C300090913212992351F0833030F48FEF890F45
:102C400019F080933212F1CF109232128091361225
:102C500027E5829FC0011124855E964FFC012081EB
:102C600020FDE3CF209136122F5F2F702093331277
:102C70003091361220913412321304C02091331255
:102C800020933412089590916F0081E091FD02C06D
:102C900080E0089590916F009D7F90936F0008955C
:102CA000FC017081472F50E0062E02C055954795D4
:102CB0000A94E2F740FF14C04091BA0350E0062E98
:102CC00002C0559547950A94E2F740FF09C021E0FC
:102CD00030E001C0220F6A95EAF720952723208370
:102CE0000895CF93DF9324E0829FC0011124EC016B
:102CF000C854DE4EFC01E052F74F85549C4FDC0176
:102D00002D913D914D915C91608171818281938182
:102D10000E9457BE688379838A839B83DF91CF911A
:102D200008958F929F92AF92BF92CF92DF92EF92CF
:102D3000FF92CF93DF9320911B02222309F48EC0D0
:102D4000EC018091BA03E82E80FF2CC080901D0218
:102D500090901E02A0901F02B0902002288139811D
:102D60004A815B81C501B4010E947EC0181624F41B
:102D700088829982AA82BB828090290290902A023E
:102D8000A0902B02B0902C02288139814A815B816E
:102D9000C501B4010E9497B787FF04C08882998259
:102DA000AA82BB82E1FE2CC0809021029090220278
:102DB000A0902302B09024022C813D814E815F813E
:102DC000C501B4010E947EC0181624F48C829D8235
:102DD000AE82BF8280902D0290902E02A0902F0292
:102DE000B09030022C813D814E815F81C501B401DC
:102DF0000E9497B787FF04C08C829D82AE82BF82FB
:102E0000E2FE2CC0C0902502D0902602E09027025E
:102E1000F0902802288539854A855B85C701B6016F
:102E20000E947EC0181624F4C886D986EA86FB86DE
:102E3000C0903102D0903202E0903302F090340220
:102E4000288539854A855B85C701B6010E9497B7F9
:102E500087FF04C0C886D986EA86FB86DF91CF91BA
:102E6000FF90EF90DF90CF90BF90AF909F908F90AA
:102E70000895CF93DF93DB01F9019C919130C1F06C
:102E8000943080F094509C938830D1F4808191816B
:102E9000009771F0019791838083480F591FEA01D1
:102EA000188206C08C3539F49C5F9C93943041F4B1
:102EB000DF91CF9108958B3339F781E08C93F8CF70
:102EC00020813181B9016F5F7F4F71836083420F31
:102ED000531FEA018883808191818F3591056CF7BA
:102EE000E7CF0F931F9381E000915112109152127E
:102EF000209153123091541240914D1250914E1224
:102F000060914F127091501204171507260737076A
:102F100008F480E01F910F91089590E080E00895FB
:102F200020918603833021F425FD0CC024FD0CC0C4
:102F300030E0A90102C0559547958A95E2F7CA018C
:102F40008170089581E0089580E008958091A10343
:102F500084FD0BC08091A30387FD07C09091A4035B
:102F6000937081E019F480E0089581E008952FEBDB
:102F7000280F2A3108F047C0E22FF0E08091A1032A
:102F80009091A203A091A303B091A40304C0B695AD
:102F9000A795979587952A95D2F780FD02C08170F5
:102FA0000895E957FC4FE081EE2341F180912B0F0A
:102FB00090912C0FE80FF92FF11D808190ED980F63
:102FC0009A3030F08E3251F4818180538A3098F4F7
:102FD000F0938203E093810381E008958D3211F034
:102FE0008B3249F4818190ED980F9A3088F38E32BC
:102FF00011F48281EACFF0E0E0E0EACF10928203A0
:1030000010928103E9CF80E008958091CB03811174
:103010000EC02091190230911A022150310981E02D
:103020004091B90E5091BA0E421753070CF080E050
:1030300008950F931F9380918F0E813019F50E9490
:1030400080900091AE031091AF032091B0033091B6
:10305000B103601B710B820B930B28EE33E040E051
:1030600050E00E94C1BD6091AA037091AB038091B2
:10307000AC039091AD03620F731F841F951F1F91C6
:103080000F9108956091B2037091B3038091B403DE
:103090009091B503D6CF80918F0E813079F482E084
:1030A00080938F0E0E9480906093B2037093B3035D
:1030B0008093B4039093B50381E0089580E0089570
:1030C000CF93DF93C0914408D0914508209729F110
:1030D00060914008709141088091420890914308A6
:1030E0000E949BBF6E5F7F4F24976C177D07ACF4E7
:1030F00070930908609308080E948090605A754197
:103100008F4F9F4F60930A0870930B0880930C08B1
:1031100090930D08DF91CF91089510920A081092B4
:103120000B0810920C0810920D08F4CF4F925F928A
:103130006F927F928F929F92AF92BF92CF92DF92C7
:10314000EF92FF921F93CF93DF93182F6A017B01B9
:1031500020E030E0A901CB01B6010E9497B7181614
:103160000CF077C020E030E040E85FE3C701B60133
:103170000E947EC0812C912C540187FF38C029E425
:103180003AE046EC52ECC701B6010E94FCB721E9D7
:1031900031EE40E852E40E9457BE2B013C01A701EA
:1031A0009601C701B6010E94FCB74B015C012FE2FA
:1031B00037E942EF50EC0E94FCB7A30192010E9454
:1031C00057BE2B013C01A5019401C701B6010E9425
:1031D000FCB729EF3AE44CE252E40E94FCB7A301A9
:1031E00092010E9457BE0E94CCBF4B015C01DFB729
:1031F000F894C501B4010E94A0BFC62FA501940197
:1032000060E070E080E093E40E9456BE0E94A0BFA0
:10321000111126C0C0932C1260932B12C09224125D
:10322000D0922512E0922612F0922712D7FF01C009
:103230007894DF91CF911F91FF90EF90DF90CF9026
:10324000BF90AF909F908F907F906F905F904F90C6
:103250000895812C912C80E8A82E82E4B82EC7CF47
:10326000C0931A1260931912C0921212D0921312C4
:10327000E0921412F0921512D9CF4091E50321E0AB
:10328000422768E070E00C94A78C4091E50321E0B0
:1032900042276CE070E00C94A78C4091E50321E09C
:1032A000422764E070E00C94A78C4091E50321E094
:1032B000422761E070E00C94A78C4091E50321E087
:1032C000422761E070E00C94A78C4091E50321E077
:1032D000422768E070E00C94A78C4091E50321E060
:1032E00042276CE070E00C94A78C41E061E070E054
:1032F0000C94A78C4091E50321E042270C94A78C05
:103300006CE070E00C94199064E070E00C941990FB
:1033100061E070E00C94199061E070E00C941990F9
:103320006CE070E00C9419900F931F93CF93DF9390
:1033300004EF1EE0CAE0D9E0F801219131914191FA
:1033400051918F0160E070E080E89FE30E9433BFFD
:103350006993799389939993F9E0CA31DF0761F70B
:103360000E94048EDF91CF911F910F91A2CBCF933A
:10337000DF93CDB7DEB72C970FB6F894DEBF0FBE44
:10338000CDBF19821A821B821C821D821E821F825F
:10339000188619861A861B861C86AE014F5F5F4F02
:1033A000BC0183E592E00E94488F2C960FB6F894FA
:1033B000DEBF0FBECDBFDF91CF9108958091810315
:1033C00090918203009731F04AE050E070E060E0B5
:1033D0000C94F7B560E070E0CB0108958091810313
:1033E00090918203009731F04AE050E070E060E095
:1033F0000C94CBB460E070E0CB010895EFDFCB011B
:103400000895ECDF97FD0AC0E9DF6F3F7105810584
:10341000910509F02CF4E2DF862F089580E00895ED
:103420008FEF08958091810390918203892B39F069
:10343000E8DF91E0811101C090E0892F089591E0CB
:10344000FCCF0F930FB70F9300916E000D7F009389
:103450006E0078940F930BB70F930CB70F921F92D7
:103460002F933F934F935F936F937F938F939F938C
:10347000AF93BF93EF93FF93112496D4FF91EF91F5
:10348000BF91AF919F918F917F916F915F914F917C
:103490003F912F911F900F900CBF0F910BBF0F9179
:1034A0000260F89400936E000F910FBF0F91189572
:1034B000CF93DF9310925808C1EBDEE0198618868F
:1034C0000E949EA11A862C98CCE3D8E01986188613
:1034D000F7DD1A8680910201807280930001DF91EE
:1034E000CF9108958F929F92AF92BF92CF92DF9229
:1034F000EF92FF920F931F93CF93DF93B0E4A0E07E
:103500006A2F70E0AB014B0F511D55954795411146
:1035100019C0EAE9F6E165917491072E000C880B59
:10352000990B0E949DB7DF91CF911F910F91FF9052
:10353000EF90DF90CF90BF90AF909F908F900895C5
:10354000B42FE0CFA41711F0B41303C0E6E9F7E1FC
:10355000E2CF9A0121503109220F331F220F331F6E
:10356000F901E856F94EE590F490F901E456F94E68
:10357000C591D4918E159F0518F3A42FC817D907AC
:1035800008F4BECFF901E656F94E05911491F90100
:10359000E256F94EC590D4908E199F09BC0190E077
:1035A00080E00E949BB74B015C01B601601B710B70
:1035B000072E000C880B990B0E949DB79B01AC0154
:1035C000C501B4010E94FCB74B015C01CE19DF09B3
:1035D000BE0190E080E00E949BB79B01AC01C50159
:1035E000B4010E9433BF6B017C01B801110F880B3D
:1035F000990B0E949DB79B01AC01C701B6010E94C7
:1036000057BE91CF8091E707882339F06091471228
:103610007091481280914912089560E070E080E056
:103620000895BC012091C4073091C5074091C4079B
:103630005091C5072417350731F481E02617370765
:1036400009F080E008959A01F1CF0F930FB70F931F
:1036500000916E000F930D7F00936E0000916F003C
:103660000D7F00936F000F930BB70F930CB70F9262
:103670001F922F933F934F935F936F937F938F93FB
:103680009F93AF93BF93EF93FF931124BFD4FF9108
:10369000EF91BF91AF919F918F917F916F915F91CA
:1036A0004F913F912F911F900F900CBF0F910BBF27
:1036B0000F910260F89400936F000F9100936E00D9
:1036C0000F910FBF0F9118958091DF0880FF23C0E5
:1036D00089988FEF809375078091DF0881FF1EC066
:1036E0008F988FEF809376078091DF0882FF19C053
:1036F00080910B018095827080930901439A8FEF2E
:10370000809377078091DF0883FF13C016988FEFAF
:10371000809378070895899A81E0DCCF8F9A81E0C1
:10372000E1CF80910B01827080930901439881E081
:10373000E7CF169A81E0ECCF8091E703877F8093F3
:10374000E703129A81E0089580E00E94851381E0EA
:103750000E94851382E00E948513EECF129880911B
:10376000E70388608093E7030895813089F070F063
:10377000823081F021E030E001C0220F8A95EAF723
:103780008091E703822B8093E70308955F98F2CF3F
:103790008A98F0CF90910801917090930601479814
:1037A000E9CFCF93DF938091CB03811119C0C091F2
:1037B0001902D0911A02219720E030E040E05FE347
:1037C0006091B50E7091B60E8091B70E9091B80EC3
:1037D0000E9457BE0E949BBF21E06C177D070CF032
:1037E00020E0822FDF91CF9108952F923F924F9248
:1037F0005F926F927F928F929F92AF92BF92CF9281
:10380000DF92EF92FF920F931F93CF93DF93CDB789
:10381000DEB7A0970FB6F894DEBF0FBECDBF1C0178
:103820007B015E834D83FC01EA5BFF4F2081318188
:103830004281538129833A834B835C83CA01B90156
:103840000E949BB74B015C01D7012D913D914D9199
:103850005C910E94FCB70E941DBF2B013C01ED81D1
:10386000FE812081318142815381C501B4010E94D2
:10387000FCB70E941DBF6B017C01C301B2010E9415
:10388000A0BF69877A878B879C8768377105810518
:10389000910540F428E730E040E050E029873A877E
:1038A0004B875C87C701B6010E94A0BF6D877E87EA
:1038B0008F87988B683771058105910548F428E753
:1038C000C22ED12CE12CF12CCD86DE86EF86F88A33
:1038D000D1019596CD90DD90ED90FC909897CD829A
:1038E000DE82EF82F886F101EE5AFF4F608171812E
:1038F00082819381611571058105910509F49FC14C
:103900000E949DB76D8B7E8B8F8B988F9B01AC0136
:1039100060E070E080E89FE30E9433BF698F7A8F98
:103920008B8F9C8F20E030E040E05FE30E94FCB78B
:103930006B017C01A5019401C501B4010E94FCB793
:103940002B013C016D857E858F8598890E949BB7F0
:103950009B01AC010E94FCB79B01AC01C301B20109
:103960000E9456BEA70196010E94FCB74B015C0164
:1039700069857A858B859C850E949BB79B01AC01EC
:103980000E94FCB76D8F7E8F8F8F98A39B01AC0137
:10399000C301B2010E9456BEA70196010E94FCB766
:1039A0002B013C010E941DBF0E94A0BF6B017C0146
:1039B000C501B4010E94CCBF0E94A0BF698B7A8B65
:1039C0008B8B9C8BDC01CB018C0D9D1DAE1DBF1D17
:1039D0002D813E814F815885281B390B4A0B5B0B8B
:1039E000DA01C901B7FF61C06D817E818F81988541
:1039F0000E949BB7A30192010E9457BEA5019401AA
:103A00000E9456BE20E030E040E05FE30E94FCB739
:103A10000E941DBF6B017C0120E030E0A9010E94E3
:103A20007EC018161CF0C12CD12C7601C701B6013E
:103A30000E94A0BF6B017C014D815E816F81788502
:103A40004C155D056E057F0510F46A017B016D81E3
:103A50007E818F8198856C197D098E099F09698BFC
:103A60007A8B8B8B9C8BC701B6010E949BB74B0155
:103A70005C012D893E894F89588DCA01B9010E9488
:103A800057BE9B01AC01C501B4010E94FCB72D8D4E
:103A90003E8D4F8D58A10E9457BE0E94C4C00E9407
:103AA000A0BF69837A838B839C8320E034E244EF58
:103AB00059E4698D7A8D8B8D9C8D0E94FCB74B01EA
:103AC0005C0169817A818B819C8129853A854B854E
:103AD0005C85621B730B840B950B0E949BB7A50141
:103AE00094010E94FCB70E94A0BF2B013C01698198
:103AF0007A818B819C812D853E854F855889621BFB
:103B0000730B840B950B0E949BB7A50194010E9437
:103B1000FCB70E94A0BF4B015C013FE64316510475
:103B20006104710408F097C0F201EE0FFF1FEE0F61
:103B3000FF1FE857F04F85919591A591B4918C01A5
:103B4000AD8BBD834FE684169104A104B10408F047
:103B50008AC0F401EE0FFF1FEE0FFF1FE857F04F72
:103B600045915591659174919A01CB01D101999636
:103B7000CD92DD92ED92FC929C9795964D915D9140
:103B80006D917C919897C988DA88EB88FC884C19EC
:103B90005D096E097F099D964D935D936D937C93AE
:103BA000D097F101E65BFF4FC984DA84EB84FC8493
:103BB000C082D182E282F382D5964D925D926D925F
:103BC0007C92D897F10181AE92AEA3AEB4AEFD96D1
:103BD00000831183CD88C282DD80D3823496208316
:103BE000318382839383C980DA80EB80FC80D19615
:103BF000CD92DD92ED92FC92D4973D96CD84DE84F9
:103C0000EF84F888C082D182E282F382A0960FB658
:103C1000F894DEBF0FBECDBFDF91CF911F910F9102
:103C2000FF90EF90DF90CF90BF90AF909F908F90DC
:103C30007F906F905F904F903F902F900895198ED6
:103C40001A8E1B8E1C8E198A1A8A1B8A1C8AC12CFA
:103C5000D12C76012ACFC301B2010E945C148B01E2
:103C60008D8B9D836FCFC501B4010E945C149B01B5
:103C70007DCFEFE6F0E08081826080830895CF936E
:103C8000C82F01D894E0C99F90011124F901E55390
:103C9000F84F2952384FD9014D915D916D917C912A
:103CA000408351836283738391E09093CA07882392
:103CB00011F0CF91DECFCF910895CF93DF93809114
:103CC000B90365995BC081608093B903909103014A
:103CD0008091B90391FD54C082608093B9038091B3
:103CE000B9034B994FC084608093B9038091B903A5
:103CF0009091B803981709F447C092E09093B703E6
:103D00008093B8038091DD08882309F44AC0C091EC
:103D1000B507C0FF0FC08091DF0880FF0BC0809106
:103D2000B60380FF07C08091EE0881608093EE08A3
:103D300080E0A5DFC1FF0FC08091DF0881FF0BC0CD
:103D40008091B60381FF07C08091EE088260809366
:103D5000EE0881E094DFC2FF24C08091DF0882FF7B
:103D600020C08091B60382FF1CC08091EE08846061
:103D70008093EE0882E0DF91CF9181CF8E7FA4CF38
:103D80008D7FABCF8B7FB0CF8091B703882309F4B1
:103D9000B9CF81508093B7038111B4CF9093B6030C
:103DA000B1CFDF91CF9108951F93CF93DF9380918F
:103DB00043028F3708F49AC08F579091BB0E9093AF
:103DC0003B08992309F490C02C9A2091460820932F
:103DD0003A08909102012111909590729093000100
:103DE0008F5F809343028091390891E08927809307
:103DF000390880914202980F85300CF090E08230B3
:103E000009F4CFC00CF07FC0882309F494C081303E
:103E100009F4BBC090934202C0913608D091370894
:103E2000209709F451C0F89410910901127082E0B2
:103E30009CDC80910B011C161D060CF08095827095
:103E4000809309011C161D060CF4DAC0439A2091D8
:103E500084003091850080910B018095887080935B
:103E60000901419A8091840090918500821B930BF7
:103E7000B0E0A0E043E0880F991FAA1FBB1F4A953E
:103E8000D1F78097A105B10568F380910B01887087
:103E900080930901419880910B01111180958270E6
:103EA00080930901112309F4ADC0439A789480915D
:103EB0003608909137081C161D060CF0A5C0019716
:103EC0009093370880933608F8DE8091D20E909157
:103ED000D30E009729F001979093D30E8093D20EC2
:103EE000DF91CF911F9108952C986FCF90913B084F
:103EF000891708F02C9890913A08891708F470CF28
:103F0000909102016ACF843009F463C00CF45CC064
:103F1000853009F07FCF20913808211102C08093AD
:103F2000380880913808815080933808882309F434
:103F300071CF95E06FCF809141028F5F80311CF48B
:103F40008093410267CF1092410280913508811120
:103F500013C02091B10E3091B20E3093B40E209365
:103F6000B30E20913C0830913D0830933F082093D8
:103F70003E0881E0809335081092B20E1092B10E87
:103F800010923D0810923C0845CF88E080937B005A
:103F900085E480937C0080917A00806480937A002D
:103FA00039CF80917A0086FD27C0409178005091EA
:103FB00079002091B10E3091B20E240F351F30934D
:103FC000B20E2093B10E26CF88E080937B0086E46A
:103FD000E0CF80917A0086FD11C040917800509129
:103FE000790020913C0830913D08240F351F309313
:103FF0003D0820933C080ECF92E00CCF94E00ACF0E
:10400000439825CF439852CF01965ACF2F923F9293
:104010004F925F926F927F928F929F92AF92BF92D8
:10402000CF92DF92EF92FF920F931F93CF93DF9384
:10403000CDB7DEB76B970FB6F894DEBF0FBECDBF1E
:104040008FEF9FEF90938900809388002AE0288764
:104050001A821982789480913D0290913E0221E06B
:10406000892B61F03091F00821E080913702909126
:1040700038023817190609F008F420E080913F0251
:1040800090914002892B09F455C03091F00841E02D
:104090004B8380913502909136023817190609F04A
:1040A00008F41B82211149C04B80442009F45DC1F2
:1040B0001F821FEF02E04F80442009F47BC00E9462
:1040C00009146091291270912A1220912C1230E06B
:1040D00041E050E0811102C04FEF5FEF249FC0012B
:1040E000259F900D349F900D1124860F971F90935C
:1040F0002A12809329122091750712160CF5813C23
:104100009F4F1CF5209184003091850080918400A0
:1041100090918500821B930B0297C0F38091DF087A
:1041200091E098279093DF0880FD83C089981093D1
:1041300075070BC051E05B83B5CF21E02F83B9CF6A
:10414000222319F080349105ECF680912912909188
:104150002A129C01215C3F4F2F37310508F46EC0B5
:104160004091750720E830E0141614F420E83FEF82
:10417000820F931F90932A1280932912842F440F49
:10418000990BAA0BBB0B4091D7075091D8076091B0
:10419000D9077091DA07840F951FA61FB71F809368
:1041A000D7079093D807A093D907B093DA07889AD6
:1041B00041E04F834B80442009F47CC00E94B2133D
:1041C000609117127091181220911A1230E041E09C
:1041D00050E0811102C04FEF5FEF249FC001259F87
:1041E000900D349F900D1124860F971F90931812F5
:1041F0008093171220917607121614F5813C9F4F79
:1042000024F5209184003091850080918400909164
:104210008500821B930B0297C0F38091DF08982FD3
:1042200090279093DF0881FD96C08F9810937607B2
:104230000CC0899A31E03093750787CF1F82BACFBF
:10424000222319F080349105E4F6809117129091A1
:1042500018129C01215C3F4F2F37310508F480C0B4
:104260004091760720E830E0141614F420E83FEF80
:10427000820F931F9093181280931712842F440F6C
:10428000990BAA0BBB0B4091DB075091DC076091A7
:10429000DD077091DE07840F951FA61FB71F80935F
:1042A000DB079093DC07A093DD07B093DE078E9ABF
:1042B00041E04B834F80411003C05B80552091F05B
:1042C0002091840030918500809184009091850038
:1042D000821B930B0297C0F36F80611088987B80DC
:1042E00071108E9880913D0290913E0221E0892BC1
:1042F00061F03091F00821E080913702909138020E
:104300003817190609F008F420E02F8380913F0246
:1043100090914002892B31F13091F00841E04B83BC
:1043200080913502909136023817190609F008F489
:104330001B82211103C04B804420B9F020918400DE
:10434000309185008091840090918500821B930BB1
:104350000297C0F3B0CE8F9A31E03093760775CFD5
:104360001B82A8CF51E05B83E4CF8091C00790917E
:10437000C107A091C207B091C307892B8A2B8B2B51
:1043800009F0B4C38091CA07882309F464C08091FE
:10439000C4079091C5071092CA07892B09F45BC026
:1043A0001092C5071092C4071092B507909135126C
:1043B00080913612981731F0809136128F5F8F708E
:1043C0008093361220917B0730917C0730937A07D7
:1043D000209379078EE291E0909338028093370220
:1043E00066246A94762C70923E0260923D0230936D
:1043F0007E0720937D07909336028093350270925A
:10440000400260923F0210922A121092291280916B
:10441000D7079091D807A091D907B091DA07809378
:104420002E1290932F12A0933012B093311210924B
:104430001812109217128091DB079091DC07A0915F
:10444000DD07B091DE0780931C1290931D12A0939C
:104450001E12B0931F128091C4079091C507892B3B
:1044600009F444C34091BA075091BB076091BC075F
:104470007091BD078091B6079091B707A091B807DA
:10448000B091B907481759076A077B0708F02EC390
:104490000091F00810E030E020E0841B950BA60BA3
:1044A000B70B081719072A073B0710F4D901C801F1
:1044B0008F83840F951FA61FB71F8093BA07909311
:1044C000BB07A093BC07B093BD07312C212C21E082
:1044D00029878090830790908407A0908507B090EB
:1044E00086078091930790919407A0919507B091CA
:1044F0009607880E991EAA1EBB1E80929307909263
:104500009407A0929507B0929607950184010095B3
:10451000109520953095002737FD03951127222708
:104520003327602FB7FC18C080917F0790918007D8
:10453000A0918107B091820724013501481A590AD8
:104540006A0A7B0AD301C201809393079093940770
:10455000A0939507B0939607C0908707D0908807DF
:10456000E0908907F0908A078091970790919807CB
:10457000A0919907B0919A07C80ED91EEA1EFB1E9A
:10458000C0929707D0929807E0929907F0929A0705
:10459000D701C60180959095A095B0958827B7FD65
:1045A00083959927AA27BB27182FF7FC18C080915D
:1045B0007F0790918007A0918107B0918207A701A2
:1045C0009601281B390B4A0B5B0BDA01C90180935A
:1045D000970790939807A0939907B0939A074090F4
:1045E0008B0750908C0760908D0770908E0780919C
:1045F0009B0790919C07A0919D07B0919E07A301F6
:104600009201280F391F4A1F5B1F2B833C834D8368
:104610005E8320939B0730939C0740939D075093A4
:104620009E0757FD16C080917F0790918007A0914B
:104630008107B0918207281B390B4A0B5B0BDA010B
:10464000C90180939B0790939C07A0939D07B0930B
:104650009E0780918F0790919007A0919107B0914C
:10466000920740909F075090A0076090A10770901C
:10467000A207480E591E6A1E7B1E40929F07509249
:10468000A0076092A1077092A20777FC18C08091E2
:104690007F0790918007A0918107B0918207A301C5
:1046A0009201281B390B4A0B5B0BDA01C90180937D
:1046B0009F079093A007A093A107B093A2078091B2
:1046C0002812811101C060E070911612772311F455
:1046D0000C944C2CF7FE02C00C944C2CA0911B1295
:1046E000B0912D122091790730917A0780917B0744
:1046F00090917C072817390751F4662341F04091C7
:10470000C8075091C90750933E0240933D02409123
:104710007D0750917E075B8F4A8F8417950751F470
:10472000772341F04091C6075091C707509340024C
:1047300040933F02FC01EE0FFF1FE95EFA4F4091EC
:10474000BE075091BF075183408350E0662321F09C
:1047500051E0B11101C052E0FC01E851FC4F408131
:104760004C7F452B408350E0772321F051E0A1118D
:1047700001C052E0550F550F4081437F452B4083C8
:1047800001968F3251E0950709F46CC090937C0735
:1047900080937B0780913702909138020197909324
:1047A000380280933702809135029091360201974A
:1047B000909336028093350228513C4FD9018C9159
:1047C000837011F40E940914EA8DFB8DE851FC4FAF
:1047D000808186958695837011F40E94B213809132
:1047E0002812882309F461C0B7FC5FC060912912C8
:1047F00070912A1220912B1230E080912D1241E00D
:1048000050E0811102C04FEF5FEF249FC001259F50
:10481000900D349F900D1124860F971F90932A12AC
:10482000809329122091750712160CF5813C9F4F39
:104830001CF5209184003091850080918400909136
:104840008500821B930B0297C0F38091DF0891E0F3
:1048500098279093DF0880FD6BC089982FEF2093F5
:1048600075070AC010927C0710927B0793CF222312
:1048700019F080349105ECF68091291290912A125A
:104880009C01215C3F4F00E02F37310570F02091F3
:10489000750712160CF051C020E83FEF820F931FEE
:1048A00090932A128093291201E080911612882396
:1048B00009F464C0F7FC62C060911712709118127D
:1048C0002091191230E080911B1241E050E08111DB
:1048D00002C04FEF5FEF249FC001259F900D349FD2
:1048E000900D1124860F971F909318128093171222
:1048F00020917607121624F5813C9F4F34F52091C4
:104900008400309185008091840090918500821B05
:10491000930B0297C0F38091DF0892E09827909361
:10492000DF0881FD95C18F985FEF509376070DC02A
:10493000899A31E0309375079FCF20E830E0AECF01
:10494000222319F080349105D4F6809117129091AA
:1049500018129C01215C3F4F10E02F37310570F099
:104960002091760712160CF078C120E83FEF820FF5
:10497000931F909318128093171211E0998591114B
:1049800008C0809184009091850082199309029754
:10499000C0F30023E1F040917507042E000C550B85
:1049A000660B770B8091D7079091D807A091D90714
:1049B000B091DA07840F951FA61FB71F8093D70702
:1049C0009093D807A093D907B093DA07889A112358
:1049D000E1F040917607042E000C550B660B770B27
:1049E0008091DB079091DC07A091DD07B091DE0795
:1049F000840F951FA61FB71F8093DB079093DC07DA
:104A0000A093DD07B093DE078E9A2B813C814D8108
:104A10005E8157FD22C040917707042E000C550B94
:104A2000660B770B8091DF079091E007A091E1077B
:104A3000B091E207840F951FA61FB71F8093DF0771
:104A40009093E007A093E107B093E20780910B01F8
:104A50008095887080930901419A77FC1CC0409131
:104A60007807042E000C550B660B770B8091E3073B
:104A70009091E407A091E507B091E607840F951F98
:104A8000A61FB71F8093E3079093E407A093E50761
:104A9000B093E607149A20908400309085008091AE
:104AA000840090918500821993090297C0F3011147
:104AB000889811118E988B819C81AD81BE81B7FD44
:104AC00006C080910B01887080930901419877FEA0
:104AD00014984F80442021F020908400309085006D
:104AE0002F8121502F8319862111F3CC8091C0078B
:104AF0009091C107A091C207B091C307892B8A2B5F
:104B00008B2B09F045C64090C4075090C5075C82C6
:104B10004B82452809F4C6C68091BA079091BB071D
:104B2000A091BC07B091BD074091B6075091B7075F
:104B30006091B8077091B90784179507A607B70762
:104B400008F48EC01092C5071092C4071092B507E2
:104B50009091351280913612981709F4A3C680916E
:104B600036128F5F8F708093361250EDC52E57E04E
:104B7000D52EE12CF12C8091C4079091C507892B8B
:104B800009F0FEC50E940E169093C5078093C407D6
:104B9000892B09F4F5C54090C4075090C5075C8285
:104BA0004B82D2018C9183FD32C4F20185899689B2
:104BB000A789B08D41E00097A105B10509F440E057
:104BC000EB81FC81C18CD28CE38CF48CC114D104B8
:104BD000E104F10409F034C4EB81FC81058D168DEC
:104BE000278D30A1011511052105310509F044601B
:104BF0004093B5071092A3071092A4071092A5073F
:104C00001092A6071092AD071092AE071092AF0750
:104C10001092B007EB81FC81EA5BFF4F80809180AE
:104C2000A280B38050E0FCE88F16FFE09F06A1044D
:104C3000B10408F007C4880C991CAA1CBB1C4CE8E2
:104C400084164FE09406A104B10468F75F5FEBCFD0
:104C50008F9A81E08093760778CE20E830E087CE87
:104C60004091B1075091B2076091B3077091B407BA
:104C7000481759076A077B0708F4B2C18091AD074E
:104C80009091AE07A091AF07B091B007EB81FC8186
:104C900045A956A967A970AD84179507A607B70758
:104CA00008F095C10097A105B10561F54091510348
:104CB000509152036091530370915403CB01BA0198
:104CC0002091AC0704C0660F771F881F991F2A9593
:104CD000D2F70E946F8F6B017C018091AD0790919C
:104CE000AE07A091AF07B091B0078C0D9D1DAE1D12
:104CF000BF1D8093AD079093AE07A093AF07B0930D
:104D0000B00739CF50E04A85282F692F8A2FAB850D
:104D1000FC85ED857E853F85B889998930914D0365
:104D2000329FE12D7727B0914E03B29FE00D711DA8
:104D300010904F03129E700D369FE00D711DB69FAF
:104D4000700D389F700DAE2FF72FAE9F312DBB2702
:104D50009927A79F300DB11D951FFE9F300DB11DE6
:104D6000951FF79FB00D911DAB2FF92FAE9F412DD1
:104D7000BB279927A79F400DB11D951FFE9F400D92
:104D8000B11D951FF79FB00D911DAB2FF92F332744
:104D900020915103609152038091530300904C0382
:104DA000052A09F483C0B0914803BA9F3119250B35
:104DB000650B850B909149039A9F30192109650B6A
:104DC000850B40914A034A9F20196109850BBF9FBB
:104DD00030192109650B850B9F9F20196109850BEF
:104DE0004F9F60198109AE9F412DBB279927A79F2F
:104DF000400DB11D951FFE9F400DB11D951FF79FE2
:104E0000B00D911DAB2FF92FB0914403BA9F310D16
:104E1000251F651F851F909145039A9F300D211D09
:104E2000651F851F409146034A9F200D611D851F08
:104E3000BF9F300D211D651F851F9F9F200D611D88
:104E4000851F4F9F600D811DAE9F412DBB27992768
:104E5000A79F400DB11D951FFE9F400DB11D951FD1
:104E6000F79FB00D911DAB2FF92FB0914003BA9F62
:104E70003119250B650B850B909141039A9F3019D1
:104E80002109650B850B409142034A9F2019610956
:104E9000850BBF9F30192109650B850B9F9F20193A
:104EA0006109850B4F9F6019810982C0B091480349
:104EB000BA9F310D251F651F851F909149039A9F49
:104EC000300D211D651F851F40914A034A9F200D0B
:104ED000611D851FBF9F300D211D651F851F9F9F71
:104EE000200D611D851F4F9F600D811DAE9F412DBF
:104EF000BB279927A79F400DB11D951FFE9F400D11
:104F0000B11D951FF79FB00D911DAB2FF92FB091DB
:104F10004403BA9F3119250B650B850B909145030E
:104F20009A9F30192109650B850B409146034A9FD2
:104F300020196109850BBF9F30192109650B850B6D
:104F40009F9F20196109850B4F9F60198109AE9FB2
:104F5000412DBB279927A79F400DB11D951FFE9F8F
:104F6000400DB11D951FF79FB00D911DAB2FF92F6F
:104F7000B0914003BA9F310D251F651F851F909189
:104F800041039A9F300D211D651F851F40914203EB
:104F90004A9F200D611D851FBF9F300D211D651F7C
:104FA000851F9F9F200D611D851F4F9F600D811DD7
:104FB00011244A87AB87FC87ED877E873F87B88BB4
:104FC000998B762F622FAB0170E0682F77CEAB8183
:104FD000BC81D1966D917D918D919C91D49770CE2D
:104FE0004091A8075091A9076091AA077091AB075B
:104FF000481759076A077B0708F0DBC18091A707AC
:10500000811145C0EB81FC81EF5BFF4FE080F180B7
:1050100002811381EB81FC81E25BFF4F20813181B2
:1050200042815381EB81FC8161A972A983A994A972
:105030000E943313F1E0F093A707AB81BC81D196B6
:105040006D917D918D919C91D4972091AC0704C076
:10505000660F771F881F991F2A95D2F70E946F8FBE
:105060006B017C018091A3079091A407A091A507F3
:10507000B091A6078C0D9D1DAE1DBF1D8093A3078B
:105080009093A407A093A507B093A60774CD809131
:10509000A3079091A407A091A507B091A607EB8163
:1050A000FC8141AD52AD63AD74AD84179507A60781
:1050B000B70708F074C10097A105B10559F44091F4
:1050C0005103509152036091530370915403CB01EB
:1050D000BA01BBCF50E07A89282F692F8A2FBB896C
:1050E000AC89FD89EE894F89388D998D40914D03AA
:1050F000429FF12DEE2730914E03329FF00DE11DBE
:1051000010904F03129EE00D469FF00DE11D369F5B
:10511000E00D489FE00DBF2FAE2FBF9F412D3327DD
:105120009927BE9F400D311D951FAF9F400D311D2A
:10513000951FAE9F300D911DB32FA92FBF9F712DCD
:1051400033279927BE9F700D311D951FAF9F700D9E
:10515000311D951FAE9F300D911DB32FA92F4427F0
:1051600020915103609152038091530300904C03AE
:10517000052A09F483C0309148033B9F4119250B50
:10518000650B850B909149039B9F40192109650B85
:10519000850B70914A037B9F20196109850B3A9F0B
:1051A00040192109650B850B9A9F20196109850B10
:1051B0007A9F60198109BF9F712D33279927BE9F60
:1051C000700D311D951FAF9F700D311D951FAE9F46
:1051D000300D911DB32FA92F309144033B9F410DFA
:1051E000251F651F851F909145039B9F400D211D25
:1051F000651F851F709146037B9F200D611D851FD4
:105200003A9F400D211D651F851F9A9F200D611D2E
:10521000851F7A9F600D811DBF9F712D33279927B0
:10522000BE9F700D311D951FAF9F700D311D951FD5
:10523000AE9F300D911DB32FA92F309140033B9F9E
:105240004119250B650B850B909141039B9F4019DC
:105250002109650B850B709142037B9F2019610921
:10526000850B3A9F40192109650B850B9A9F2019E0
:105270006109850B7A9F6019810982C030914803CA
:105280003B9F410D251F651F851F909149039B9FE3
:10529000400D211D651F851F70914A037B9F200DC6
:1052A000611D851F3A9F400D211D651F851F9A9F17
:1052B000200D611D851F7A9F600D811DBF9F712D7F
:1052C00033279927BE9F700D311D951FAF9F700D1D
:1052D000311D951FAE9F300D911DB32FA92F309119
:1052E00044033B9F4119250B650B850B90914503AA
:1052F0009B9F40192109650B850B709146037B9F8D
:1053000020196109850B3A9F40192109650B850B0E
:105310009A9F20196109850B7A9F60198109BF9FA7
:10532000712D33279927BE9F700D311D951FAF9F9B
:10533000700D311D951FAE9F300D911DB32FA92FFC
:10534000309140033B9F410D251F651F851F9091A4
:1053500041039B9F400D211D651F851F70914203D6
:105360007B9F200D611D851F3A9F400D211D651FEC
:10537000851F9A9F200D611D851F7A9F600D811DDD
:1053800011247A8BBB8BAC8BFD8BEE8B4F8B388FC4
:10539000998F762F622FAB0170E0682F98CE2B810A
:1053A0003C81225B3F4FD9016D917D918D919C9104
:1053B0004CCE8091390290913A02A0913B02B0917B
:1053C0003C02B7FF1BC0EB81FC81EA5BFF4F2091E1
:1053D000AC07608171818281938104C0660F771F61
:1053E000881F991F2A95D2F70E946F8F6093390208
:1053F00070933A0280933B0290933C02C090390232
:10540000D0903A02E0903B02F0903C02B4CB8B810A
:105410009C8145960E9494121092C5071092C40771
:105420001092B5079091351280913612981709F4B1
:10543000A9CB809136128F5F8F7080933612A2CBEA
:105440004260CACB5093AC07252EEB81FC8185A02E
:1054500096A0A7A0B0A42401350104C0440C551C9B
:10546000661C771C5A95D2F7B301A2014093B60788
:105470005093B7076093B8077093B90788249924AD
:105480005401841A950AA60AB70A8092930790924B
:105490009407A0929507B0929607809297079092F2
:1054A0009807A0929907B0929A0780929B079092D2
:1054B0009C07A0929D07B0929E0780929F079092B2
:1054C000A007A092A107B092A20781A092A0A3A0DA
:1054D000B4A0880C991CAA1CBB1C2C013D01440CD7
:1054E000551C661C771C409283075092840760927B
:1054F00085077092860726013701440C551C661CEF
:10550000771C4092870750928807609289077092B3
:105510008A07000F111F221F331F00938B07109360
:105520008C0720938D0730938E0780928F0790927F
:105530009007A0929107B0929207440F551F661FE3
:10554000771F40937F075093800760938107709384
:10555000820720912812222309F43FC0EB5BFF4F02
:10556000E0812C013D01E0FF0AC09C01AD0160E03B
:1055700070E080E090E00E9446BE29013A018091EF
:105580002E1290912F12A0913012B0913112840DF1
:10559000951DA61DB71D80932E1290932F12A093D8
:1055A0003012B09331128E2F8095817080932D121E
:1055B0002091790730917A0780917B0790917C0741
:1055C0002817390751F08091DF08AB81BC81AB5BB4
:1055D000BF4F80FF5AC1E160EC938091161288237F
:1055E00009F443C0EB81FC81EB5BFF4FE081460196
:1055F0005701FE2FF270E1FF0AC09601A70160E09B
:1056000070E080E090E00E9446BE49015A0180911E
:105610001C1290911D12A0911E12B0911F12880DA4
:10562000991DAA1DBB1D80931C1290931D12A0935F
:105630001E12B0931F1281E0F11180E080931B12C3
:1056400020917D0730917E0780917B0790917C07A8
:105650002817390751F08091DF08AB81BC81AB5B23
:10566000BF4F81FF14C1E260EC931092BA07109211
:10567000BB071092BC071092BD07EB81FC8181A58E
:1056800092A5A3A5B4A5022C04C0880F991FAA1F38
:10569000BB1F0A94D2F78093B1079093B207A093EF
:1056A000B307B093B40785A596A5A7A5B0A9022C0A
:1056B00004C0880F991FAA1FBB1F0A94D2F78093BA
:1056C000A8079093A907A093AA07B093AB07EB5B39
:1056D000FF4F80819091DF08891721F08093DF08C8
:1056E0000E94641B0E945D1E44244A94542C320183
:1056F0004092390250923A0260923B0270923C0210
:10570000EB81FC81FD96E080F18002811381AB8109
:10571000BC81D1962D913D914D915C91D497A65B22
:10572000BF4FBC83AB836D917D918D919C910E9405
:1057300033131092A707EB81FC8160817181828114
:10574000938104C0660F771F881F991F2A94D2F790
:105750000E946F8F6B017C018091AD079091AE0725
:10576000A091AF07B091B0078C0D9D1DAE1DBF1D60
:105770008093AD079093AE07A093AF07B093B007A7
:10578000C092C007D092C107E092C207F092C3074F
:1057900080913F029091400220913D0230913E0263
:1057A0008090C0079090C107A090C207B090C30737
:1057B0006C012817390708F46901F12CE12C8C14CD
:1057C0009D04AE04BF0410F4750164018C189D089B
:1057D000AE08BF088092C0079092C107A092C2078E
:1057E000B092C307B6014091BE075091BF074C0D60
:1057F0005D1D5093BF074093BE072F3F320731F026
:105800002C193D0930933E0220933D028F3F9807AB
:1058100031F0861B970B9093400280933F02F894DF
:10582000809184009091850040963885315038876A
:10583000332379F149805A80460E571E5A82498295
:105840004816590610F40C942A2069807A807092C8
:1058500089006092880078946B960FB6F894DEBF4A
:105860000FBECDBFDF91CF911F910F91FF90EF90B1
:10587000DF90CF90BF90AF909F908F907F906F9070
:105880005F904F903F902F900895EE7FA5CEED7FD3
:10589000EBCE9A838983D9CF70E061110C946E238B
:1058A0000C94EF2380EDC82E87E0D82EE12CF12C4C
:1058B00069C9CF92DF92EF92FF92CF93DF93C82F07
:1058C0000E94431694E0C99FE0011124FE01E952B1
:1058D000F84FC080D180E280F38081110E94391E90
:1058E000C65FD64FC701B6010E949DB72881398196
:1058F0004A815B810E94FCB7DF91CF91FF90EF90CE
:10590000DF90CF900895CF92DF92EF92FF92CF93E6
:10591000DF93C82F0E94431694E0C99FE001112431
:10592000FE01E553F84FC080D180E280F380811101
:105930000E94391EC65FD64FC701B6010E949DB7AF
:10594000288139814A815B810E94FCB7DF91CF9128
:10595000FF90EF90DF90CF9008950E9443169091B2
:10596000361290933512909334129093331294E63A
:105970009093321220ED33E03093D30E2093D20E69
:1059800081110E94391E81E08093CA070895CF9348
:10599000DF931F92CDB7DEB7898360E0CE01019619
:1059A0000E94501661E0CE0101960E94501662E0FE
:1059B000CE0101960E94501689810F90DF91CF9100
:1059C0000895CF93DF9380E074DFC4EDDEE0688359
:1059D00079838A839B8381E06CDF6C837D838E83F4
:1059E0009F8382E066DF688779878A879B87DF915C
:1059F000CF9108950C94048E8091EE08882319F0BD
:105A00001092EE08089560E089EB9EE00E94E48920
:105A100010928F0E1092AE031092AF031092B0034B
:105A20001092B1031092B2031092B3031092B40318
:105A30001092B5031092AA031092AB031092AC031C
:105A40001092AD03089580918F0E8130E9F082307D
:105A5000C9F40E9419186093AA037093AB03809352
:105A6000AC039093AD0381E080938F0E0E948090F1
:105A70006093AE037093AF038093B0039093B10330
:105A800081E00895C5DFEFCF80E0089580918F0E0B
:105A90008150823070F410928F0E0E94809060933B
:105AA000B2037093B3038093B4039093B50381E082
:105AB000089580E008952091B90E3091BA0E2635F0
:105AC00031053CF4209144083091450826303105D9
:105AD0001CF0882319F0B7CF6111D8CF08958F92A9
