:100000000C94EB100C942B110C942B110C942B11C1
:100010000C942B110C942B110C942B110C942B1170
:100020000C942B110C942B110C942B110C942B1160
:100030000C942B110C942B110C942B110C942B1150
:100040000C942B110C94F8190C942B110C942B116B
:100050000C942B110C94B1180C942B110C94139735
:100060000C942B110C946F380C9465380C942B1154
:100070000C942B110C942B110C942B110C942B1110
:100080000C942B110C942B110C942B110C942B1100
:100090000C942B110C942B110C942B110C942B11F0
:1000A0000C942B110C942B110C942B110C942B11E0
:1000B0000C942B110C942B110C942B110C942B11D0
:1000C0000C942B110C942B110C942B110C942B11C0
:1000D0000C942B110C942B110C942B110C942B11B0
:1000E0000C942B11084AD73B3BCE016E84BCBFFD5C
:1000F000C12F3D6C74319ABD56833DDA3D00C77FF8
:1001000011BED9E4BB4C3E916BAAAABE0000008090
:100110003F05A84CCDB2D44EB93836A9020C50B91F
:10012000918688083CA6AAAA2ABE000000803F004B
:100130004E414E494E495459494E46CDCCCC3D0ACC
:10014000D7233C17B7D13877CC2B329595E6241FAF
:10015000B14F0A000020410000C84200401C462068
:10016000BCBE4CCA1B0E5AAEC59D7400407A10F33B
:100170005A00A0724E18090010A5D4E80000E876D5
:1001800048170000E40B54020000CA9A3B0000002C
:10019000E1F505000080969800000040420F000045
:1001A00000A08601000000102700000000E8030006
:1001B0000000006400000000000A000000000001D0
:1001C00000000000002C76D888DC674F0823DFC1D0
:1001D000DFAE59E1B1B796E5E3E453C63AE651998B
:1001E0007696E8E6C28426EB898C9B62ED407C6FB4
:1001F000FCEFBC9C9F40F2BAA56FA5F490055A2A6B
:10020000F75C936B6CF9676DC11BFCE0E40D47FE76
:10021000F520E6B500D0ED902E030094357705006B
:1002200080841E080000204E0A000000C80C3333F2
:1002300033330F986E12831141EF8D2114893BE601
:100240005516CFFEE6DB18D1844B381BF77C1D908A
:100250001DA4BBE424203284725E228100C9F124F3
:10026000ECA1E53D27434F4D4D554E49434154497F
:100270004F4E0044525952554E004552524F525320
:1002800000494E464F004543484F004D323400531D
:10029000544F505045442E20005072696E74657260
:1002A0002073746F707065642064756520746F20AE
:1002B0006572726F72732E204669782074686520AB
:1002C0006572726F7220616E6420757365204D399E
:1002D000393920746F20726573746172742E20280E
:1002E00054656D70657261747572652069732072F2
:1002F000657365742E20536574206974206166747B
:1003000065722072657374617274696E67290A0080
:100310004E6F20436865636B73756D2077697468F1
:10032000206C696E65206E756D6265722C204C6163
:100330007374204C696E653A20004E6F20436865E7
:10034000636B73756D2077697468206C696E6520C6
:100350006E756D6265722C204C617374204C696EF1
:10036000653A2000636865636B73756D206D697312
:100370006D617463682C204C617374204C696E65E8
:100380003A20004C696E65204E756D626572206979
:1003900073206E6F74204C617374204C696E6520FD
:1003A0004E756D6265722B312C204C617374204C3C
:1003B000696E653A20004D313130005365726961D4
:1003C0006C20737461747573206D69736D617463EF
:1003D000680A0053442072656164206572726F720E
:1003E0000A00746F6F206D75636820696E616374B5
:1003F0006976652074696D65202D2063757272655C
:100400006E7420636F6D6D616E643A20002121204F
:100410004B494C4C20636175736564206279200000
:100420004D6564696120496E73657274656400622C
:100430007573793A2070617573656420666F7220F8
:10044000696E7075740A00627573793A207061750F
:1004500073656420666F7220757365720A00627539
:1004600073793A2070726F63657373696E670A00FF
:100470006563686F3A004572726F723A002F2F61A0
:100480006374696F6E3A006E6F7469666963617454
:10049000696F6E20006E6F74696669636174696F5D
:1004A0006E2000656E6400627574746F6E00486F34
:1004B00074656E6420746F6F20636F6C640A0070E3
:1004C0006175736564005061757365002044002098
:1004D000204D323030205300202844697361626C13
:1004E0006564293A0046696C616D656E74207365B8
:1004F0007474696E67730020204D323031205800CB
:100500004D617820416363656C65726174696F6EDB
:100510002028756E6974732F7332290020204D32A4
:1005200030332058004D61782066656564726174CF
:1005300065732028756E6974732F7329002052002B
:1005400020204D323034205000416363656C657269
:100550006174696F6E2028756E6974732F73322908
:100560002028503C7072696E742D616363656C3E27
:1005700020523C726574726163742D616363656CB3
:100580003E20543C74726176656C2D616363656CCA
:100590003E2900204A0020540020530020204D32E4
:1005A0003035204200416476616E636564202842E4
:1005B0003C6D696E5F7365676D656E745F74696DC0
:1005C000655F75733E20533C6D696E5F666565645B
:1005D000726174653E20543C6D696E5F7472617621
:1005E000656C5F66656564726174653E204A3C6A4D
:1005F000756E635F6465763E2900204400204900E3
:1006000020204D333031205000486F74656E6420D7
:100610005049440020440020490020204D3330340C
:1006200020500042656420504944002044002020AE
:100630004D353933205920460020440020204D35C7
:1006400039332058204600496E7075742053686114
:1006500070696E6700203B0020550020204D363029
:1006600033204C0046696C616D656E74206C6F615F
:10067000642F756E6C6F6164003B200020496E76BC
:10068000616C6964206578747275646572200053CA
:100690006C6565702E2E2E0070726F6D70745F0029
:1006A000626567696E004D302053746F70004D3184
:1006B0002053746F70004E6F204D6F76652E00458D
:1006C0006E642066696C65206C6973740A0042650B
:1006D00067696E2066696C65206C6973740A004EE8
:1006E0006F206D656469610A005344206361726420
:1006F0002072656C65617365640A00726573756D5F
:100700006500526573756D696E6720534400286EED
:100710006F2066696C65290043757272656E74207E
:1007200066696C653A20002E0A0044656C65746940
:100730006F6E206661696C65642C2046696C653A51
:10074000200046696C652064656C657465643A00D8
:1007500043616E6E6F74206F70656E207375626496
:10076000697220002569730025696D202569730071
:100770002569682025696D20256973002569642035
:100780002569682025696D20256973002569792010
:10079000256964202569682025696D202569730015
:1007A0005072696E742074696D653A20006F6B0039
:1007B0006F666600860281027A0273026502444512
:1007C0004255473A004D31313320530047656E6939
:1007D0007573204F46462E007D7D7D0A002C7A3AA7
:1007E000002C793A007D2C6D61783A7B783A002CA8
:1007F0007A3A002C793A007D7D2C776F726B3A7BC8
:100800006D696E3A7B783A002C7A3A002C793A007E
:100810007D2C6D61783A7B783A002C7A3A002C79FD
:100820003A00617265613A7B66756C6C3A7B6D6902
:100830006E3A7B783A00434F4E4649475F455850E1
:100840004F5254004D4541545041434B00434F4F8C
:100850004C45525F54454D50455241545552450008
:100860004348414D4245525F54454D5045524154D5
:1008700055524500424142595354455050494E4704
:100880000041524353004D4F54494F4E5F4D4F442A
:10089000455300544845524D414C5F50524F5445CA
:1008A0004354494F4E00455854454E4445445F4DCE
:1008B000323000435553544F4D5F4649524D5741D6
:1008C00052455F55504C4F4144004C464E5F575285
:1008D000495445004C4F4E475F46494C454E414DAB
:1008E00045004155544F5245504F52545F53445F59
:1008F0005354415455530053445F57524954450093
:10090000524550454154004D554C54495F564F4C4B
:10091000554D45005344434152440050524F4D50B1
:10092000545F535550504F525400484F53545F41F9
:100930004354494F4E5F434F4D4D414E4453004544
:100940004D455247454E43595F5041525345520021
:10095000434153455F4C494748545F4252494748D9
:10096000544E45535300544F47474C455F4C4947FD
:1009700048545300534F4654574152455F504F57C8
:100980004552004255494C445F50455243454E54F0
:10099000004C4556454C494E475F44415441005A2E
:1009A0005F50524F42450052554E4F5554004155ED
:1009B000544F4C4556454C005052494E545F4A4F97
:1009C000420050524F4752455353004155544F52E5
:1009D00045504F52545F54454D50004155544F526D
:1009E00045504F52545F504F5300564F4C554D4554
:1009F0005452494300454550524F4D0042494E41E3
:100A000052595F46494C455F5452414E53464552F8
:100A10000053455249414C5F584F4E5F584F464630
:100A2000004649524D574152455F4E414D453A4D62
:100A300061726C696E20322E312E32202841707224
:100A400020313720323032332031343A33333A30A8
:100A5000302920534F555243455F434F44455F551E
:100A6000524C3A6769746875622E636F6D2F4D61E1
:100A7000726C696E4669726D776172652F4D617235
:100A80006C696E2050524F544F434F4C5F56455245
:100A900053494F4E3A312E30204D414348494E453F
:100AA0005F545950453A47656E69757320455854EF
:100AB00052554445525F434F554E543A3120555597
:100AC00049443A63656465326132662D343161327E
:100AD0002D343734382D396231322D633535633654
:100AE00032663336376666002F2F003F4A206F7517
:100AF00074206F662072616E67652028302E303159
:100B000020746F20302E33290A002058004F4646AB
:100B1000004F4E0020204D61783A20002000202018
:100B20004D696E3A2000203B200020204D323131AB
:100B3000205300536F667420656E6473746F707316
:100B40000046523A0020466C6F773A200064697381
:100B500000656E0043290A0061626C656420286D9F
:100B6000696E2074656D702000436F6C6420657839
:100B70007472756465732061726520004F666673D8
:100B8000657473204170706C69656400546F6F20E8
:100B90006661722066726F6D207265666572656E41
:100BA000636520706F696E740A00454550524F4D61
:100BB000204F4B0A00206F72203020746F20646930
:100BC0007361626C650A003F4672657175656E639C
:100BD0007920284629206D7573742062652067721C
:100BE0006561746572207468616E20003F5A657497
:100BF00061202844292076616C7565206F7574200A
:100C00006F662072616E67652028302D31290A00D9
:100C10002E0A002028302D313029002076616C7595
:100C200065206F7574206F662072616E6765004184
:100C30006476616E6365204B3D004D383400507220
:100C4000696E7420446F6E6500446F6E652070722B
:100C5000696E74696E672066696C650A004D373786
:100C6000004D333100496E76616C6964206578749B
:100C700072756465720A0020204D323036205800AB
:100C8000486F6D65206F66667365740044696666BB
:100C90003A2020200046726F6D5374703A005374EE
:100CA00065707065723A005261773A20202020000A
:100CB0000A4C6F676963616C3A00436F756E74200C
:100CC000453A004361703A0047322F473320626152
:100CD0006420706172616D65746572730A002057DB
:100CE0003A0042656420436F6F6C696E672E2E2E4A
:100CF000004265642048656174696E672E2E2E007F
:100D0000206661696C6564212042616420686561C8
:100D10007465722069640A00504944204175746FFB
:100D200074756E650023646566696E65204445468A
:100D300041554C545F0000626564004B6420004BD9
:100D40006920004B7020005049442074756E696E14
:100D50006720646F6E65002066696E6973686564FC
:100D6000212050757420746865206C617374204B69
:100D7000702C204B6920616E64204B6420636F6E81
:100D80007374616E74732066726F6D2062656C6F30
:100D90007720696E746F20436F6E66696775726144
:100DA00074696F6E2E680A00504944204175746F53
:100DB00074756E6500206661696C656421207469D4
:100DC0006D656F75740A00504944204175746F74E5
:100DD000756E65004175746F74756E652066616926
:100DE0006C6564212054696D656F75742E002066F2
:100DF00061696C6564212054656D706572617475FC
:100E0000726520746F6F20686967680A00504944F2
:100E1000204175746F74756E6500204B643A200034
:100E2000204B693A2000204B703A200020436C612F
:100E30007373696320504944200A00204E6F206F6D
:100E400076657273686F6F740A002054753A2000DB
:100E5000204B753A2000206D61783A2000206D69A2
:100E60006E3A200020643A200020626961733A20C3
:100E70000048656174696E672E2E2E0020737461C0
:100E800072740A00504944204175746F74756E6520
:100E9000004175746F74756E65206661696C656478
:100EA000212054656D706572617475726520746F70
:100EB0006F20686967682E00206661696C6564212F
:100EC0002054656D706572617475726520746F6F02
:100ED00020686967680A00504944204175746F743E
:100EE000756E6500504944204175746F74756E6568
:100EF00000486F6D696E67204661696C6564006FBC
:100F000070656E00545249474745524544003A20A7
:100F1000007A5F6D696E00795F6D696E00785F6D54
:100F2000696E005265706F7274696E6720656E64D9
:100F300073746F70207374617475730A0020746F1A
:100F40006F206C6F6E6720657874727573696F6E51
:100F50002070726576656E7465640A0020636F6C3C
:100F60006420657874727573696F6E20707265762F
:100F7000656E7465640A00000000C00000A0C00037
:100F80000000005761726E696E673A20486F6D69A4
:100F90006E672042756D702044697669736F7220A8
:100FA0003C20310A0002020400005E4300006B4353
:100FB00000007A430000A0400000A0400000004074
:100FC00000005C430000664300007A43000000C05C
:100FD0000000A0C00000000053657474696E677360
:100FE0002053746F72656400290A00206279746569
:100FF000733B20637263200053657474696E67737A
:101000002053746F726564202800454550524F4D3F
:1010100020496E697469616C697A65640A00486187
:101020007264636F6465642044656661756C7420E6
:1010300053657474696E6773204C6F6164656400F6
:1010400020286D6D290020204D393030204B004C78
:10105000696E65617220416476616E63650020206F
:101060004D3134392043203B20556E69747320691B
:101070006E2043656C736975730A0054656D706505
:1010800072617475726520556E6974730020204713
:101090003231203B004C696E65617220556E697477
:1010A0007300454550524F4D206461746173697AF5
:1010B00065206572726F722E0A0053746F726564D8
:1010C0002073657474696E677320726574726965E4
:1010D00076656400290A002062797465733B206399
:1010E000726320002073746F72656420736574747A
:1010F000696E67732072657472696576656420280D
:1011000000454550524F4D20435243204572726F67
:101110007200202863616C63756C617465642921B9
:101120000A0020213D2000454550524F4D2043529A
:1011300043206D69736D61746368202D202873747A
:101140006F7265642920002053697A653A2000494E
:101150006E6465783A2000000096430000964300D4
:10116000004842000020420000A0420000A04200CF
:1011700000C8430080DE43D0070000D007000064B1
:1011800000000010270000454550524F4D20566585
:101190007273696F6E204572726F7200204D6172BA
:1011A0006C696E3D563837290A00454550524F4DFF
:1011B0002076657273696F6E206D69736D617463FB
:1011C000682028454550524F4D3D0024F404D92055
:1011D0001BC40C5C0E9804C4095F0265077101F41E
:1011E00005F900FB04B30048048700C103690058F7
:1011F00003550003034500BE023A00840231005348
:10120000022A002902250004022000E4011C00C873
:10121000011900AF01170098011400840113007137
:101220000110006101100051010E0043010D003654
:10123000010B002B010B0020010B00150109000C14
:1012400001090003010800FB000800F3000800EB9F
:10125000000700E4000600DE000600D8000600D209
:10126000000600CC000500C7000500C2000500BD57
:10127000000400B9000400B5000400B1000400AD92
:10128000000400A9000400A5000300A20003009FC1
:101290000004009B000300980003009500020093E7
:1012A000000300900003008D0002008B0003008803
:1012B0000002008600020084000300810002007F1B
:1012C0000002007D0002007B00020079000200772E
:1012D000000100760002007400020072000100713B
:1012E0000002006F0002006D0001006C0002006A45
:1012F000000100690002006700010066000100654E
:101300000001006400020062000100610001006051
:101310000001005F0002005D0001005C0001005B55
:101320000001005A00010059000100580001005757
:101330000001005600010055000100540001005357
:101340000000005300010052000100510001005054
:101350000001004F0001004E0000004E0001004D52
:101360000001004C0001004B0000004B0001004A4E
:10137000000100490001004800000048000100474A
:101380000001004600000046000100450000004545
:10139000000100440001004300000043000100423E
:1013A0000000004200010041000000410001004037
:1013B0000001003F0000003F0001003E0000003E31
:1013C0000001003D0000003D0001003C0000003C29
:1013D0000000003C0001003B0000003B0001003A1F
:1013E0000000003A00010039000000390001003817
:1013F000000000380000003800010037000000370E
:101400000001003600000036000000360001003503
:1014100000000035000000350001003400000034F9
:1014200000000034000100330000003300000033EE
:1014300000010032000000320000003200010031E3
:1014400000000031000000310001003000000030D9
:10145000000000300001002F0000002F0000002FCE
:101460000000002F0001002E0000002E0000002EC2
:101470000001002D0000002D0000002D0000002DB7
:101480000001002C0000002C0000002C0000002CAB
:101490000001002B0000002B0000002B0000002B9F
:1014A0000001002A0000002A0000002A0000002A93
:1014B0000001002900000029000000290000002987
:1014C000000000290001002800000028000000287A
:1014D000000000280000002800010027000000276D
:1014E0000000002700000027000000270001002660
:1014F0000000002600000026000000260000002654
:101500000001002500000025000000250000002546
:101510000000002500000025000100240000002438
:10152000000000240000002400000024000100232B
:10153000000000230000002300000023000000231F
:101540000000002300000023000100220000002210
:101550000000002200000022000000220000002203
:1015600000010021000000210000002100000021F6
:1015700000000021000000210000002100010020E7
:1015800000000020000000200000002000000020DB
:101590000000002000000020000000200001001FCB
:1015A0000000001F0000001F0000001F0000001FBF
:1015B0000000001F0000001F0001001E0000001EB0
:1015C0000000001E0000001E00000024F4D4305073
:1015D000C38E20C2A24017828B7011127A910D81A6
:1015E0006CD90AA861E108C7586607615143061E15
:1015F0004B5D05C145A7041A411104093D980371CB
:101600003931034036DB0265339102D43054028015
:101610002E1D02632CEE01752AC501B028A0011011
:101620002781018F2564012B244B01E0223401AC7A
:10163000211F018D200D01801FFC00841EED0097ED
:101640001DDF00B81CD200E61BC600201BBC0064D6
:101650001AB200B219A8000A19A0006A189900D19C
:1016600017910040178B00B516840031167E00B329
:101670001579003A157300C7146F0058146A00EE0C
:101680001366008813630025135E00C7125B006CAD
:1016900012570015125400C111510070114F002152
:1016A000114B00D61049008D10470046104400022F
:1016B000104200C00F4000800F3E00420F3C000669
:1016C0000F3B00CB0E3800930E37005C0E35002721
:1016D0000E3400F30D3200C10D3100900D3000606A
:1016E0000D2E00320D2D00050D2C00D90C2B00AE57
:1016F0000C2900850C29005C0C2700350C27000EF6
:101700000C2600E80B2400C40B2400A00B23007D52
:101710000B23005A0B2100390B2100180B2000F875
:101720000A1F00D90A1E00BB0A1E009D0A1D008068
:101730000A1D00630A1C00470A1B002C0A1B00112B
:101740000A1A00F7091A00DD091900C4091900ABCB
:10175000091900920917007B091800630917004C4A
:1017600009160036091600200916000A091500F5A9
:10177000081500E0081400CC081400B8081400A4F0
:10178000081400900813007D0812006B081300581D
:101790000812004608120034081100230811001234
:1017A00008110001081100F0071000E0071000D038
:1017B000071000C0071000B0070F00A1071000912C
:1017C000070E0083070F0074070F0065070E005710
:1017D000070E0049070E003B070D002E070E0020E4
:1017E000070D0013070D0006070D00F9060C00EDAC
:1017F000060D00E0060C00D4060C00C8060C00BC68
:10180000060C00B0060C00A4060B0099060C008D17
:10181000060B0082060B0077060B006C060B0061BE
:10182000060A0057060B004C060A0042060A00385A
:10183000060A002E060A0024060A001A060A0010EC
:1018400006090007060A00FD050900F4050900EB7A
:10185000050900E2050900D9050900D0050900C7FE
:10186000050900BE050900B5050800AD050800A57D
:101870000509009C050800940508008C05080084F3
:101880000508007C050800740508006C0507006564
:101890000508005D050700560508004E05070047CE
:1018A0000507004005080038050700310507002A34
:1018B000050700230507001C050600160507000F95
:1018C0000507000805060002050700FB040600F5F1
:1018D000040700EE040600E8040600E2040700DB4B
:1018E000040600D5040600CF040600C9040600C3A0
:1018F000040600BD040600B7040600B1040500ACF0
:10190000040600A6040600A00405009B040600953A
:10191000040500900406008A040500850405008083
:101920000406007A04050075040500700405006BC8
:1019300004050066040500610405005C0405005709
:10194000040500520405004D040500480405004349
:101950000405003E0404003A040500350405003087
:101960000404002C04050027040400230405001EC1
:101970000404001A04040016040500110404000DF8
:10198000040400090405000404040000040400FC2D
:10199000030400F8030400F4030400F0030400EC63
:1019A000030400E8030400E4030400E0030400DC93
:1019B000030400D8030400D4030400D0030400CCC3
:1019C000030400C8030300C503030020436F756EC2
:1019D0007420583A00004500626564002C20737939
:1019E0007374656D2073746F707065642120486531
:1019F000617465725F49443A20004572723A204D25
:101A0000415854454D50004D415854454D50207457
:101A100072696767657265640048656174696E67BD
:101A2000204661696C65640048656174696E672071
:101A30006661696C6564004D353234004D31313278
:101A40002053687574646F776E004572723A204D4A
:101A5000494E54454D50004D494E54454D5020740B
:101A6000726967676572656400544845524D414C20
:101A70002052554E4157415900546865726D616C52
:101A80002052756E6177617900202F002042403A24
:101A90000020403A0020573A0020583A00205300D6
:101AA0004D31303620500000002100240027002A4C
:101AB000002D003000330001010000040107010A7D
:101AC000017C3C3E5E2B3D3F2F5B5D3B2C2A225C24
:101AD0000043616E6E6F74206F70656E2073756267
:101AE000646972200053442063617264206F6B0A42
:101AF000006F70656E526F6F74206661696C65640B
:101B00000A00766F6C756D652E696E69742066616A
:101B1000696C65640A004E6F2053442063617264EF
:101B20000A002E0A006F70656E206661696C65643C
:101B30002C2046696C653A200046696C6520736507
:101B40006C65637465640A002053697A653A200005
:101B500046696C65206F70656E65643A2000454E7D
:101B60004420535542524F5554494E450A002220B5
:101B7000706F73002220706172656E743A22005398
:101B80005542524F5554494E452043414C4C2074C8
:101B900061726765743A220053756263616C6C20F0
:101BA0004F766572666C6F7700457863656564652E
:101BB00064206D617820535542524F5554494E452B
:101BC0002064657074683A0057726974696E6720A2
:101BD000746F2066696C653A20004E6F7420534420
:101BE000207072696E74696E670A005344207072C7
:101BF000696E74696E67206279746520006672652B
:101C0000736800646F696E67002066696C653A20CE
:101C1000004E6F7720000A4D3234004D32332025BC
:101C200073002F6175746F25632E670070012C019E
:101C300090012701B0012201C0011D01F00118012E
:101C40001002130130020E0160020901900204012A
:101C5000C002FF000003FA004003F5008003F0001B
:101C6000D003EB002004E6007004E100E004DC0097
:101C70004005D700C005D2004006CD00D006C80000
:101C80008007C3003008BE00F008B900C009B400E6
:101C9000B00AAF00B00BAA00D00CA500000EA00047
:101CA000500F9B00C01096005012910000148C0041
:101CB000C0158700B0178200B0197D00D01B7800D6
:101CC000001E730040206E0090226900F024640022
:101CD00040275F0090295A00E02B5500102E50003D
:101CE00020304B0010324600E033410090353C007C
:101CF0001037370070383200A0392D00B03A280074
:101D0000A03B2300603C1E00103D1900903D1400D4
:101D1000103E0F00703E0A00C03E0500003F00006C
:101D2000403FFBFF803FF6FFC03FF1FF2020506C9B
:101D3000616E6E657242756666657242797465732E
:101D40003A20002046726565204D656D6F72793AC4
:101D5000200020436F6D70696C65643A2041707299
:101D600020313720323032330A00204C6173742026
:101D7000557064617465643A20323032322D3132EC
:101D80002D3137207C20417574686F723A20287499
:101D900068697369736B65697468622C2047656E46
:101DA000697573290A004D61726C696E20322E319B
:101DB0002E320A0020536F66747761726520526577
:101DC0007365740A00205761746368646F672052FA
:101DD000657365740A002042726F776E206F7574A8
:101DE0002052657365740A002045787465726E61CF
:101DF0006C2052657365740A00506F776572557078
:101E00000A0073746172740A004732385859004DE1
:101E100031303031006F6B006572726F72207772F3
:101E20006974696E6720746F2066696C650A004486
:101E30006F6E6520736176696E672066696C652ECA
:101E40000A004D323900205A3A0020593A002058F1
:101E50003A00656E6473746F7073206869743A2019
:101E60000000002200250028002B002E0031003445
:101E70000002010000050108010B01050505050729
:101E80000508080808020202020A0A0808040404F5
:101E90000401010101010101010303030303030321
:101EA00003040707070C0C0C0C0C0C0C0C020202B0
:101EB0000206060606060606060B0B0B0B0B0B0BA3
:101EC0000B01021020200808102040102040800242
:101ED0000102010804020101020408102040808070
:101EE00040201008040201800402018040201008F4
:101EF00004020108040201010204081020408001CC
:101F00000204081020408000000A0B02090C0D0E8C
:101F100008070304010000000000000000000000AA
:101F200000000000000000000000000000000000B1
:101F3000000000121110000000000000000000006E
:101F400000000000000000000000000000B91F00B9
:101F500000FC140000850C0000ED060000A8030042
:101F600000E1010000F40000007B000000457272F7
:101F70006F722077726974696E6720746F204545AF
:101F800050524F4D210A00DB0FC93F45BCDA3F8F4D
:101F9000B30240FCF0274056946140FE4B9B4084C6
:101FA000A5D840E0231841346A5641E85997416466
:101FB000DBD5416E271742B4B75542CE1A9742C8B7
:101FC000AED542B5885A43D40684BFA65FA7BF7476
:101FD00043E0BF10B11AC01C2C58C0E8F697C0B837
:101FE00049D6C04E4E17C124D355C1802497C1A0F5
:101FF000B5D5C1121A17C244AE55C2781797C26C34
:10200000ACD5C267885AC320746F6F206C6F6E673F
:1020100020657874727573696F6E2070726576656D
:102020006E7465640A0020636F6C64206578747256
:102030007573696F6E2070726576656E7465640A7B
:102040000073686F7700626567696E00507572672C
:10205000654D6F726500506175736564004C6F610A
:10206000642046696C616D656E74205400496E731E
:102070006572742066696C616D656E7420616E6452
:102080002073656E64204D3130380A0053656E64EC
:10209000204D31303820746F20726573756D650A7C
:1020A00000496E736572742066696C616D656E744B
:1020B00020616E642073656E64204D3130380A00F3
:1020C00052656865617420446F6E6500526568658D
:1020D0006174696E672E2E2E00526568656174000A
:1020E0004865617465722054696D656F757400533D
:1020F000656E64204D31303820746F2068656174DE
:10210000206E6F7A7A6C650A00436F6E74696E7523
:1021100065004E6F7A7A6C65205061726B65640061
:10212000726573756D6564004469736D69737300DE
:10213000526573756D696E6700FFFFFF991AA121E3
:102140009D219921204500205A0020590020204D32
:102150003932205800537465707320706572207591
:102160006E697400220A00556E6B6E6F776E206385
:102170006F6D6D616E643A202200486F6D65202599
:102180007325732573204669727374006F6B0A00A0
:10219000526573656E643A200020453A00205A3A31
:1021A0000020593A00583A00706F7765726F666682
:1021B000005072696E7465722068616C7465642E7B
:1021C000206B696C6C28292063616C6C6564210A42
:1021D00000004EAC75B411241FBECFEFD1E2DEBFBC
:1021E000CDBF00E00CBF84B780930B1614BE0FB6B2
:1021F000F894A895809160008861809360001092A7
:1022000060000FBE13E0A0E0B2E0E0EBF5E801E013
:102210000BBF02C007900D92A834B107D9F726E191
:10222000A8E4B3E001C01D92AB30B207E1F710E1C2
:10223000CAEED0E100E006C021970109802FFE011F
:102240000E9463BFC93ED10780E00807A9F70E943A
:102250002BAD0C94C7C20C940000CF93DF93C5ED57
:10226000D9E120E030E048E452E460914F0E7091F3
:10227000500E8091510E9091520E0E94B5C187FF71
:1022800013C080E0FE01C4912091020190E002C0E1
:1022900095958795CA95E2F780FD0EC02071209331
:1022A0000001DF91CF910895FE01949181E001C07A
:1022B000880F9A95EAF7E6CF2095F0CF8091E9074D
:1022C000882339F06091F1117091F2118091F3112E
:1022D000089560E070E080E008954F925F926F9201
:1022E0007F928F929F92AF92BF92CF92DF92EF92A6
:1022F000FF920F931F93CF930091D9071091DA07A4
:102300002091DB073091DC078090C8119090C911B3
:10231000A090CA11B090CB114091DD075091DE071B
:102320006091DF077091E007C090B611D090B711AF
:10233000E090B811F090B911C0E1FC01A9EDB7E04F
:1023400001900D92CA95E1F7E091C211EE2349F197
:1023500028013901481859086A087B0853014201CD
:102360000091D9071091DA072091DB073091DC0743
:10237000080D191D2A1D3B1D0093D9071093DA077C
:102380002093DB073093DC07FC010081118122815F
:1023900033810093C8111093C9112093CA1130934F
:1023A000CB112091B011222339F18A019B010C1924
:1023B0001D092E093F094091DD075091DE0760910C
:1023C000DF077091E007400F511F621F731F40939A
:1023D000DD075093DE076093DF077093E007FC0191
:1023E00084819581A681B7818093B6119093B711AE
:1023F000A093B811B093B911CF911F910F91FF9095
:10240000EF90DF90CF90BF90AF909F908F907F9094
:102410006F905F904F90089521E030E0082E02C049
:10242000220F331F0A94E2F7209530959091DA033A
:1024300029232093DA03813061F020F0823071F09B
:1024400081E008955F9A8091E0088E7F8093E00894
:10245000F7CF8A9A8091E0088D7FF8CF80910801AC
:102460008095817080930601479A8091E0088B7F68
:10247000EDCF20916C0730916D07F901E552FC4FCB
:10248000908196959695937081E0913009F080E067
:10249000409135025091360260916A0770916B0746
:1024A0004F5F5F4F2F5F3F4F2F3291E0390711F49D
:1024B00030E020E06217730721F1F901E552FC4F8B
:1024C000908196959695937059F330936D0720936C
:1024D0006C0750933602409335024091C8075091E3
:1024E000C9076091C0077091C107461B570B220FA7
:1024F000331FF901E65FFA4F20813181240F351F28
:102500000AC070936D0760936C0750933602409336
:1025100035022FEF3FEF3093400220933F020895A2
:102520002091680730916907F901E552FC4F9081CD
:10253000937081E0913009F080E040913702509132
:10254000380260916A0770916B074F5F5F4F2F5F92
:102550003F4F2F3291E0390711F430E020E062174D
:10256000730711F1F901E552FC4F9081937069F303
:1025700030936907209368075093380240933702DD
:102580004091CA075091CB076091C0077091C10775
:10259000461B570B220F331FF901E65FFA4F2081CC
:1025A0003181240F351F0AC0709369076093680753
:1025B00050933802409337022FEF3FEF30933E02A3
:1025C00020933D020895CF92DF92EF92FF92809187
:1025D000D703882309F457C0C090D303D090D40305
:1025E000E090D503F090D60320E030E0A901C701C8
:1025F000B6010E94CEB8882309F445C020E030E03F
:1026000040E05FE3C701B6010E9433B99B01AC0112
:102610000E9433B92BED3FE049E450E40E9433B906
:102620009B01AC0160E070E080E89FE30E946AC01B
:102630006B017C01C092BA03D092BB03E092BC0351
:10264000F092BD036091170270911802072E000CE2
:10265000880B990B0E94D4B82AE037ED43E25CE383
:102660000E9433B9A70196010E9433B960935702C3
:10267000709358028093590290935A02FF90EF9002
:10268000DF90CF900895C12CD12C80E8E82E8FE305
:10269000F82ED0CF8091CF119091D011891B8F70DF
:1026A00019F490E080E008959091CC11992351F0B5
:1026B000833030F48FEF890F19F08093CC11F1CF74
:1026C0001092CC118091D01120E5829FC00111247D
:1026D0008B5D964FFC01208120FDE3CF2091D0112E
:1026E0002F5F2F702093CD113091D0112091CE11FA
:1026F000321304C02091CD112093CE1108959091F2
:102700006F0081E091FD02C080E0089590916F001C
:102710009D7F90936F000895FC017081472F50E0DA
:10272000062E02C0559547950A94E2F740FF14C063
:102730004091AD0350E0062E02C0559547950A948E
:10274000E2F740FF09C021E030E001C0220F6A95A6
:10275000EAF72095272320830895CF93DF9324E081
:10276000829FC0011124EC01CE5ADE4EFC01EE51D5
:10277000F74F82559C4FDC012D913D914D915C911D
:1027800060817181828193810E948EBF6883798389
:102790008A839B83DF91CF9108958F929F92AF920E
:1027A000BF92CF92DF92EF92FF92CF93DF9320916F
:1027B0001B02222309F48EC0EC018091AD03E82EA8
:1027C00080FF2CC080901D0290901E02A0901F02DE
:1027D000B0902002288139814A815B81C501B40112
:1027E0000E94B5C1181624F488829982AA82BB82FD
:1027F0008090290290902A02A0902B02B0902C0287
:10280000288139814A815B81C501B4010E94CEB81B
:1028100087FF04C088829982AA82BB82E1FE2CC015
:102820008090210290902202A0902302B090240276
:102830002C813D814E815F81C501B4010E94B5C1EB
:10284000181624F48C829D82AE82BF8280902D0265
:1028500090902E02A0902F02B09030022C813D81EA
:102860004E815F81C501B4010E94CEB887FF04C0CC
:102870008C829D82AE82BF82E2FE2CC0C090250277
:10288000D0902602E0902702F09028022885398512
:102890004A855B85C701B6010E94B5C1181624F4AC
:1028A000C886D986EA86FB86C0903102D090320273
:1028B000E0903302F0903402288539854A855B85A3
:1028C000C701B6010E94CEB887FF04C0C886D9866A
:1028D000EA86FB86DF91CF91FF90EF90DF90CF905B
:1028E000BF90AF909F908F900895CF93DF93DB01BF
:1028F000F9019C919130C1F0943080F094509C93F8
:102900008830D1F480819181009771F00197918393
:102910008083480F591FEA01188206C08C3539F4AC
:102920009C5F9C93943041F4DF91CF9108958B3359
:1029300039F781E08C93F8CF20813181B9016F5F45
:102940007F4F71836083420F531FEA018883808128
:1029500091818F3591056CF7E7CF0F931F9381E03D
:102960000091FB111091FC112091FD113091FE118D
:102970004091F7115091F8116091F9117091FA118D
:10298000041715072607370708F480E01F910F91F9
:10299000089590E080E0089520917903833021F438
:1029A00025FD0CC024FD0CC030E0A90102C05595E6
:1029B00047958A95E2F7CA018170089581E00895EC
:1029C00080E008958091940384FD0BC0809196036C
:1029D00087FD07C090919703937081E019F480E020
:1029E000089581E008952FEB280F2A3108F047C0A1
:1029F000E22FF0E08091940390919503A0919603CB
:102A0000B091970304C0B695A795979587952A9599
:102A1000D2F780FD02C081700895E658FC4FE08136
:102A2000EE2341F18091C50E9091C60EE80FF92F6B
:102A3000F11D808190ED980F9A3030F08E3251F474
:102A4000818180538A3098F4F0937503E093740386
:102A500081E008958D3211F08B3249F4818190ED3F
:102A6000980F9A3088F38E3211F48281EACFF0E029
:102A7000E0E0EACF1092750310927403E9CF80E092
:102A800008958091BE0381110EC0209119023091EA
:102A90001A022150310981E04091530E5091540E99
:102AA000421753070CF080E008950F931F93809115
:102AB000290E813019F50E945F930091A1031091B6
:102AC000A2032091A3033091A403601B710B820B1E
:102AD000930B28EE33E040E050E00E94F8BE609196
:102AE0009D0370919E0380919F039091A003620FBC
:102AF000731F841F951F1F910F9108956091A50367
:102B00007091A6038091A7039091A803D6CF8091DE
:102B1000290E813079F482E08093290E0E945F9320
:102B20006093A5037093A6038093A7039093A803D3
:102B300081E0089580E00895CF93DF93C091460827
:102B4000D0914708209729F160914208709143087D
:102B500080914408909145080E94D2C06E5F7F4FDB
:102B600024976C177D07ACF470930B0860930A08E8
:102B70000E945F93605A75418F4F9F4F60930C087E
:102B800070930D0880930E0890930F08DF91CF91FA
:102B9000089510920C0810920D0810920E081092D1
:102BA0000F08F4CF4F925F926F927F928F929F9215
:102BB000AF92BF92CF92DF92EF92FF921F93CF938B
:102BC000DF93182F6A017B0120E030E0A901CB01DF
:102BD000B6010E94CEB818160CF077C020E030E0A5
:102BE00040E85FE3C701B6010E94B5C1812C912C7A
:102BF000540187FF38C029E43AE046EC52ECC701A3
:102C0000B6010E9433B921E931EE40E852E40E9456
:102C10008EBF2B013C01A7019601C701B6010E949E
:102C200033B94B015C012FE237E942EF50EC0E94CF
:102C300033B9A30192010E948EBF2B013C01A50173
:102C40009401C701B6010E9433B929EF3AE44CE27E
:102C500052E40E9433B9A30192010E948EBF0E94E8
:102C600003C14B015C01DFB7F894C501B4010E94B8
:102C7000D7C0C62FA501940160E070E080E093E426
:102C80000E948DBF0E94D7C0111126C0C093C611EB
:102C90006093C511C092BE11D092BF11E092C011D5
:102CA000F092C111D7FF01C07894DF91CF911F91AD
:102CB000FF90EF90DF90CF90BF90AF909F908F905C
:102CC0007F906F905F904F900895812C912C80E8B9
:102CD000A82E82E4B82EC7CFC093B4116093B3116D
:102CE000C092AC11D092AD11E092AE11F092AF1142
:102CF000D9CF4091D80321E0422768E070E00C94DE
:102D0000D98F4091D80321E042276CE070E00C9409
:102D1000D98F4091D80321E0422764E070E00C9401
:102D2000D98F4091D80321E0422761E070E00C94F4
:102D3000D98F4091D80321E0422761E070E00C94E4
:102D4000D98F4091D80321E0422768E070E00C94CD
:102D5000D98F4091D80321E042276CE070E00C94B9
:102D6000D98F41E061E070E00C94D98F4091D80395
:102D700021E042270C94D98F6CE070E00C94F8921B
:102D800064E070E00C94F89261E070E00C94F892CA
:102D900061E070E00C94F8926CE070E00C94F892B2
:102DA000AF92BF92CF92DF92EF92FF920F931F9359
:102DB000CF93DF93CAE7DEE007EF18E08AE8A82E9A
:102DC0008EE0B82EC12CD12C7601C39469917991F3
:102DD000899199910E94D2B8288939894A895B8959
:102DE0000E9433B90E94D7C0F80161937193819317
:102DF00091938F01C616D706E806F90610F46B0109
:102E00007C01AC16BD0611F76FEF7FEFCB01A70178
:102E100096010E94F8BE2093070930930809409359
:102E2000090950930A0923EF34E045E35FE3609119
:102E3000F3087091F4088091F5089091F6080E94CB
:102E400033B92AE136EF45E95EE30E946AC06B01BF
:102E50007C016091860E7091870E8091880E909112
:102E6000890E0E94D2B89B01AC01C701B6010E9435
:102E700033B90E94FBC160930B0970930C098093D6
:102E80000D0990930E09DF91CF911F910F91FF9043
:102E9000EF90DF90CF90BF90AF9008950F931F9366
:102EA000CF93DF930EE81EE0C4E1D9E0F801219151
:102EB0003191419151918F0160E070E080E89FE392
:102EC0000E946AC06993799389939993F9E0C43217
:102ED000DF0761F70E943691DF91CF911F910F912B
:102EE0005FCFCF93DF93CDB7DEB72C970FB6F894B3
:102EF000DEBF0FBECDBF19821A821B821C821D82CB
:102F00001E821F82188619861A861B861C86AE01B1
:102F10004F5F5F4FBC018BE592E00E947A922C9646
:102F20000FB6F894DEBF0FBECDBFDF91CF910895ED
:102F30008091740390917503009731F04AE050E05E
:102F400070E060E00C942EB760E070E0CB01089573
:102F50008091740390917503009731F04AE050E03E
:102F600070E060E00C9402B660E070E0CB01089580
:102F7000EFDFCB010895ECDF97FD0AC0E9DF6F3F7B
:102F800071058105910509F02CF4E2DF862F089583
:102F900080E008958FEF08958091740390917503F8
:102FA000892B39F0E8DF91E0811101C090E0892F91
:102FB000089591E0FCCFCF93DF93EC01688170E03E
:102FC00085E00E943A8E698170E084E00E943A8E2A
:102FD0006A8170E086E00E943A8E88819981482F4C
:102FE000490F5527551F8A81840F952F911D21E088
:102FF000833091050CF420E02093E90703974CF00F
:1030000088819981AA818093F1119093F211A09304
:10301000F311DF91CF9108958F929F92AF92BF925B
:10302000CF92DF92EF92FF92CF93DF9300D0CDB794
:10303000DEB72FEF8417950731F16A01052E000CDA
:10304000EE08FF084C01092E000CAA08BB086817FF
:1030500079072CF0CB01461757070CF4CA019C01E5
:10306000990F440B550B281939094A095B09AFEF31
:10307000B0E00E9436BFA7019601281939094A0914
:103080005B090E941ABF80915508821751F0209366
:1030900055088FEF89831A8220952B83CE010196E4
:1030A0008ADF0F900F900F90DF91CF91FF90EF90FC
:1030B000DF90CF90BF90AF909F908F9008958F92A8
:1030C0009F92AF92BF92CF92DF92EF92FF92CF93F7
:1030D000DF9300D0CDB7DEB72FEF8417950731F11E
:1030E0006A01052E000CEE08FF084C01092E000CA9
:1030F000AA08BB08681779072CF0CB0146175707B9
:103100000CF4CA019C01990F440B550B281939097D
:103110004A095B09AFEFB0E00E9436BFA7019601F4
:10312000281939094A095B090E941ABF809155087C
:10313000821749F02093550829831A828FEF8B83D9
:10314000CE01019638DF0F900F900F90DF91CF9155
:10315000FF90EF90DF90CF90BF90AF909F908F90B7
:1031600008950F930FB70F9300916E000D7F00939A
:103170006E0078940F930BB70F930CB70F921F92BA
:103180002F933F934F935F936F937F938F939F936F
:10319000AF93BF93EF93FF9311247BD4FF91EF91F3
:1031A000BF91AF919F918F917F916F915F914F915F
:1031B0003F912F911F900F900CBF0F910BBF0F915C
:1031C0000260F89400936E000F910FBF0F91189555
:1031D000CF93DF9310925A08CBE4DEE0198618866D
:1031E0000E94CAA51A862C98CEE3D8E019861886C4
:1031F000A3DC1A8680910201807280930001DF9126
:10320000CF9108958F929F92AF92BF92CF92DF920B
:10321000EF92FF920F931F93CF93DF93B0E4A0E060
:103220006A2F70E0AB014B0F511D55954795411129
:1032300019C0EEE2FCE165917491072E000C880B39
:10324000990B0E94D4B8DF91CF911F910F91FF90FD
:10325000EF90DF90CF90BF90AF909F908F900895A8
:10326000B42FE0CFA41711F0B41303C0EAE2FDE1DC
:10327000E2CF9A0121503109220F331F220F331F51
:10328000F901E45DF34EE590F490F901E05DF34E51
:10329000C591D4918E159F0518F3A42FC817D9078F
:1032A00008F4BECFF901E25DF34E05911491F901E6
:1032B000EE5CF34EC590D4908E199F09BC0190E04E
:1032C00080E00E94D2B84B015C01B601601B710B1B
:1032D000072E000C880B990B0E94D4B89B01AC01FF
:1032E000C501B4010E9433B94B015C01CE19DF095D
:1032F000BE0190E080E00E94D2B89B01AC01C50104
:10330000B4010E946AC06B017C01B801110F880BE7
:10331000990B0E94D4B89B01AC01C701B6010E9471
:103320008EBF91CFBC012091C6073091C707409155
:10333000C6075091C7072417350731F481E02617D7
:10334000370709F080E008959A01F1CF61327105E5
:103350008105910538F4EBECF5E16591749190E00D
:1033600080E00895AB01BC01405251096109710927
:10337000411528E0520761057105D8F024E0529FFD
:10338000C001112485539E4EFC0132962591349143
:10339000FC0185919491AA27439FF001429FE10D82
:1033A000FA1F0694EA1FFA1F11248E1B9F0BBC0103
:1033B000D6CFDB01CA01B695A795979587958C7FE7
:1033C0009C0125533A4EF90185919491F901329669
:1033D000A591B49147704A9F90014B9F300D1124E5
:1033E00043E0369527954A95E1F7821B930BDFCF93
:1033F0000F930FB70F9300916E000F930D7F009303
:103400006E0000916F000D7F00936F000F930BB75C
:103410000F930CB70F921F922F933F934F935F938D
:103420006F937F938F939F93AF93BF93EF93FF938C
:10343000112461D4FF91EF91BF91AF919F918F9132
:103440007F916F915F914F913F912F911F900F90BE
:103450000CBF0F910BBF0F910260F89400936F00A7
:103460000F9100936E000F910FBF0F9118958091EF
:10347000E10880FF23C089988FEF80939A0780919D
:10348000E10881FF1EC08F988FEF80939B0780918A
:10349000E10882FF19C080910B01809582708093B2
:1034A0000901439A8FEF80939C078091E10883FF85
:1034B00013C016988FEF80939D070895899A81E035
:1034C000DCCF8F9A81E0E1CF80910B0182708093F5
:1034D0000901439881E0E7CF169A81E0ECCF809113
:1034E000DA03877F8093DA03129A81E0089580E0FF
:1034F0000E940C1281E00E940C1282E00E940C12C9
:10350000EECF12988091DA0388608093DA030895F1
:10351000813089F070F0823081F021E030E001C02C
:10352000220F8A95EAF78091DA03822B8093DA03DF
:1035300008955F98F2CF8A98F0CF9091080191702A
:10354000909306014798E9CFCF93DF938091BE0314
:10355000811119C0C0911902D0911A02219720E05F
:1035600030E040E05FE360914F0E7091500E80912B
:10357000510E9091520E0E948EBF0E94D2C021E047
:103580006C177D070CF020E0822FDF91CF9108951A
:103590004F925F926F927F928F929F92AF92BF9263
:1035A000CF92DF92EF92FF920F931F93CF93DF930F
:1035B000CDB7DEB76E970FB6F894DEBF0FBECDBFA6
:1035C0009E8F8D8F5B018A01FC01FF9620813181E6
:1035D000428153812D833E834F835887CA01B901AD
:1035E0000E94D2B86B017C01D5012D913D914D9186
:1035F0005C910E9433B90E9454C02B013C01F80138
:103600002081318142815381C701B6010E9433B9C3
:103610000E9454C04B015C01C301B2010E94D7C09B
:1036200069877A878B879C87683771058105910543
:1036300040F428E730E040E050E029873A874B87A4
:103640005C87C501B4010E94D7C069837A838B83EC
:103650009C83683771058105910540F488E790E007
:10366000A0E0B0E089839A83AB83BC83AD8DBE8D2F
:1036700095964D905D906D907C909897FD01E55BDF
:10368000FF4F608171818281938161157105810590
:10369000910509F45BC10E94D4B86D877E878F873E
:1036A000988B9B01AC0160E070E080E89FE30E9492
:1036B0006AC020E030E040E05FE30E9433B94B0194
:1036C0005C01A7019601C701B6010E9433B96B01E5
:1036D0007C0169817A818B819C810E94D2B89B0197
:1036E000AC010E9433B99B01AC01C701B6010E9435
:1036F0008DBFA50194010E9433B96D8B7E8B8F8B9A
:10370000988F69857A858B859C850E94D2B89B01AC
:10371000AC010E9433B9698B7A8B8B8B9C8B9B019C
:10372000AC01C701B6010E948DBFA50194010E94A2
:1037300033B9698F7A8F8B8F9C8F0E9454C00E94FF
:10374000D7C06B017C016D897E898F89988D0E941D
:1037500003C10E94D7C04B015C01D701C601880D8F
:10376000991DAA1DBB1DA3019201281B390B4A0BF1
:103770005B0BDA01C901B7FF5DC0C301B2010E9452
:10378000D2B8298D3A8D4B8D5C8D0E948EBF2D89CC
:103790003E894F89588D0E948DBF20E030E040E087
:1037A0005FE30E9433B90E9454C06B017C0120E0AA
:1037B00030E0A9010E94B5C118161CF0C12CD12C13
:1037C0007601C701B6010E94D7C06B017C014C1481
:1037D0005D046E047F0410F4730162015301420121
:1037E0008C189D08AE08BF08C701B6010E94D2B868
:1037F0006D837E838F8398872D853E854F8558897D
:10380000CA01B9010E948EBF9B01AC016D817E810E
:103810008F8198850E9433B929893A894B895C89BF
:103820000E948EBF0E94FBC10E94D7C06D837E8321
:103830008F839887AD8DBE8D9996CD92DD92ED9256
:10384000FC929C97D301C20188199909AA09BB0966
:10385000ED8DFE8D85A796A7A7A7B0ABED5BFF4FBB
:1038600029853A854B855C85208331834283538348
:10387000ED8DFE8DE95BFF4F89819A81AB81BC8123
:1038800080839183A283B383ED8DFE8D86A997A952
:10389000A0ADB1AD892B8A2B8B2B09F440C061A15F
:1038A00072A183A194A10E94D2B820910F093091F6
:1038B000100940911109509112090E9433B96B010E
:1038C0007C01C301B2010E94D2B89B01AC01C701C7
:1038D000B6010E946AC06B017C016D817E818F817F
:1038E00098850E94D2B8A70196010E9433B90E9420
:1038F000D7C0AD8DBE8DDC967C936E93DB976981CE
:103900007A818B819C810E94D2B8A70196010E9486
:1039100033B90E94D7C0ED8DFE8D76AF65AF6E9640
:103920000FB6F894DEBF0FBECDBFDF91CF911F91D0
:103930000F91FF90EF90DF90CF90BF90AF909F904E
:103940008F907F906F905F904F900895812C912C75
:103950005401C12CD12C76016DCFEFE6F0E08081CF
:10396000826080830895CF93C82F0E947F1394E0D4
:10397000C99F90011124F901E353F84F2752384FA2
:10398000D9014D915D916D917C914083518362830A
:10399000738391E09093CC07882311F0CF91DDCF12
:1039A000CF910895CF93DF938091AC0365995BC06D
:1039B00081608093AC03909103018091AC0391FDF1
:1039C00054C082608093AC038091AC034B994FC08C
:1039D00084608093AC038091AC039091AB03981703
:1039E00009F447C092E09093AA038093AB038091BF
:1039F000DF08882309F44AC0C091B707C0FF0FC091
:103A00008091E10880FF0BC08091A90380FF07C06F
:103A10008091F00881608093F00880E0A4DFC1FF0E
:103A20000FC08091E10881FF0BC08091A90381FF45
:103A300007C08091F00882608093F00881E093DFF6
:103A4000C2FF24C08091E10882FF20C08091A903B9
:103A500082FF1CC08091F00884608093F00882E0AF
:103A6000DF91CF9180CF8E7FA4CF8D7FABCF8B7F27
:103A7000B0CF8091AA03882309F4B9CF81508093F5
:103A8000AA038111B4CF9093A903B1CFDF91CF9155
:103A900008951F93CF93DF9380914B028F3708F4E3
:103AA0009AC08F579091550E90933D08992309F431
:103AB00090C02C9A2091480820933C0890910201D4
:103AC000211190959072909300018F5F80934B022B
:103AD00080913B0891E0892780933B0880914A02BE
:103AE000980F85300CF090E0823009F4CFC00CF0D4
:103AF0007FC0882309F494C0813009F4BBC090933F
:103B00004A02C0913808D0913908209709F451C071
:103B1000F89410910901127082E0FADC80910B0197
:103B20001C161D060CF080958270809309011C16EE
:103B30001D060CF4DAC0439A209184003091850070
:103B400080910B018095887080930901419A809142
:103B5000840090918500821B930BB0E0A0E043E0CD
:103B6000880F991FAA1FBB1F4A95D1F78097A105FF
:103B7000B10568F380910B01887080930901419829
:103B800080910B011111809582708093090111239E
:103B900009F4ADC0439A789480913808909139081F
:103BA0001C161D060CF0A5C0019790933908809350
:103BB0003808F8DE80916C0E90916D0E009729F018
:103BC000019790936D0E80936C0EDF91CF911F91B2
:103BD00008952C986FCF90913D08891708F02C9884
:103BE00090913C08891708F470CF909102016ACF38
:103BF000843009F463C00CF45CC0853009F07FCFD9
:103C000020913A08211102C080933A0880913A0825
:103C1000815080933A08882309F471CF95E06FCFE3
:103C2000809149028F5F80311CF48093490267CFF5
:103C30001092490280913708811113C020914B0ED8
:103C400030914C0E30934E0E20934D0E20913E0835
:103C500030913F08309341082093400881E08093E1
:103C6000370810924C0E10924B0E10923F08109293
:103C70003E0845CF88E080937B0085E480937C00FC
:103C800080917A00806480937A0039CF80917A00A5
:103C900086FD27C0409178005091790020914B0E0D
:103CA00030914C0E240F351F30934C0E20934B0E49
:103CB00026CF88E080937B0086E4E0CF80917A0075
:103CC00086FD11C0409178005091790020913E0806
:103CD00030913F08240F351F30933F0820933E0852
:103CE0000ECF92E00CCF94E00ACF439825CF4398B3
:103CF00052CF01965ACF2F923F924F925F926F927E
:103D00007F928F929F92AF92BF92CF92DF92EF926B
:103D1000FF920F931F93CF93DF9300D000D000D07A
:103D20001F921F92CDB7DEB78FEF9FEF9093890060
:103D3000809388000AE00F83312C212C78948091A5
:103D40003D0290913E02892B09F468C09091F208DF
:103D500081E020913702309138029217130609F062
:103D600008F480E020913F0230914002232B09F4B7
:103D700057C09091F20811E01983209135023091DB
:103D800036029217130609F008F4198281114BC00C
:103D90008980882009F460C11B821FEF02E08B80BC
:103DA000882009F47DC00E9490126091C311709127
:103DB000C4112091C61130E041E050E0811102C0F1
:103DC0004FEF5FEF249FC001259F900D349F900D12
:103DD0001124860F971F9093C4118093C3112091D3
:103DE0009A0712161CF5813C9F4F2CF520918400F8
:103DF000309185008091840090918500821B930B07
:103E00000297C0F38091E10891E098279093E10830
:103E100080FD85C0899810939A070DC081E0A2CFDC
:103E200021E02983B3CF01E00B83B7CF222319F020
:103E300080349105DCF68091C3119091C4119C01EE
:103E4000215C3F4F2F37310508F46EC040919A072F
:103E500020E830E0141614F420E83FEF820F931F9F
:103E60009093C4118093C311842F440F990BAA0B14
:103E7000BB0B4091D9075091DA076091DB07709135
:103E8000DC07840F951FA61FB71F8093D907909357
:103E9000DA07A093DB07B093DC07889A41E04B83F5
:103EA0008980882009F47CC00E9439126091B11188
:103EB0007091B2112091B41130E041E050E08111D5
:103EC00002C04FEF5FEF249FC001259F900D349FEC
:103ED000900D1124860F971F9093B2118093B1110A
:103EE00020919B07121614F5813C9F4F24F52091D9
:103EF0008400309185008091840090918500821B20
:103F0000930B0297C0F38091E108982F902790932C
:103F1000E10881FD95C08F9810939B070CC0899A8A
:103F200031E030939A0787CF1B82BACF222319F052
:103F300080349105E4F68091B1119091B2119C0109
:103F4000215C3F4F2F37310508F47FC040919B071C
:103F500020E830E0141614F420E83FEF820F931F9E
:103F60009093B2118093B111842F440F990BAA0B37
:103F7000BB0B4091DD075091DE076091DF07709128
:103F8000E007840F951FA61FB71F8093DD0790934E
:103F9000DE07A093DF07B093E0078E9A41E04983E4
:103FA0008B80811003C09980992091F0209184002A
:103FB000309185008091840090918500821B930B45
:103FC0000297C0F3AB80A1108898B980B1108E9889
:103FD00080913D0290913E02892BC9F19091F208A7
:103FE00081E020913702309138029217130609F0D0
:103FF00008F480E08B8320913F0230914002232B14
:1040000041F19091F20821E029832091350230910D
:1040100036029217130609F008F41982811103C0C1
:1040200089808820C9F0209184003091850080919A
:10403000840090918500821B930B0297C0F3AFCE52
:104040008F9A31E030939B0776CF1982A9CF81E018
:10405000D1CF31E03983E2CF8091C2079091C3077D
:10406000A091C407B091C507892B8A2B8B2B09F02F
:1040700002C48091CC07882309F476C08091C607DA
:104080009091C7071092CC07892B09F4F4C31092C2
:10409000C7071092C6071092B7079091CF11809171
:1040A000D011981731F08091D0118F5F8F7080936D
:1040B000D0110FEF1FEF98010093450210934602B5
:1040C000209347023093480200934102109342022A
:1040D000209343023093440220916A0730916B078A
:1040E00030936907209368078EE291E0909338023D
:1040F000809337024FEF5FEF50933E0240933D02B3
:1041000030936D0720936C079093360280933502AD
:104110005093400240933F021092C4111092C31179
:104120008091D9079091DA07A091DB07B091DC0765
:104130008093C8119093C911A093CA11B093CB1169
:104140001092B2111092B1118091DD079091DE07AB
:10415000A091DF07B091E0078093B6119093B7115B
:10416000A093B811B093B9118091C6079091C70779
:10417000892B09F480C34091BC075091BD07609121
:10418000BE077091BF078091B8079091B907A091C1
:10419000BA07B091BB07481759076A077B0708F0B1
:1041A0006AC30091F20810E030E020E0841B950B18
:1041B000A60BB70B081719072A073B0710F4D901FC
:1041C000C801082F840F951FA61FB71F8093BC0737
:1041D0009093BD07A093BE07B093BF071A821982C0
:1041E00011E01B838090760790907707A090780766
:1041F000B09079078091860790918707A0918807F2
:10420000B0918907880E991EAA1EBB1E8092860750
:1042100090928707A0928807B0928907D501C401C0
:1042200080959095A095B0958827B7FD839599279F
:10423000AA27BB27282F8B87B7FC18C0809172074D
:1042400090917307A0917407B0917507B501A4010F
:10425000481B590B6A0B7B0BDB01CA018093860755
:1042600090938707A0938807B0938907C0907A0737
:10427000D0907B07E0907C07F0907D0780918A07C3
:1042800090918B07A0918C07B0918D07C80ED91E15
:10429000EA1EFB1EC0928A07D0928B07E0928C0721
:1042A000F0928D07D701C60180959095A095B095A5
:1042B0008827B7FD83959927AA27BB27182FF7FCD6
:1042C00018C08091720790917307A0917407B09104
:1042D0007507B701A601481B590B6A0B7B0BDB0165
:1042E000CA0180938A0790938B07A0938C07B093A1
:1042F0008D0740907E0750907F07609080077090F8
:10430000810780918E0790918F07A0919007B091BF
:104310009107480E591E6A1E7B1E40928E075092CE
:104320008F07609290077092910777FC18C0809178
:10433000720790917307A0917407B0917507B3014C
:10434000A201481B590B6A0B7B0BDB01CA0180934E
:104350008E0790938F07A0939007B0939107409199
:10436000820750918307609184077091850780913F
:10437000920790919307A0919407B0919507840FAD
:10438000951FA61FB71F8093920790939307A09342
:104390009407B0939507B7FD4FC0409172075091B5
:1043A00073076091740770917507841B950BA60BBA
:1043B000B70B8093920790939307A0939407B093C1
:1043C0009507E091C607F091C70786A997A9A0AD08
:1043D000B1AD892B8A2B8B2B09F48AC040919D07A4
:1043E000042E000C550B660B770B8091E50790911E
:1043F000E607A091E707B091E807841B950BA60B91
:10440000B70B8093E5079093E607A093E707B09377
:10441000E8078091A6079091A707A091A807B091FF
:10442000A9070197A109B1098093A6079093A7074F
:10443000A093A807B093A9071A868091C211811191
:1044400001C020E03091B011332311F40C949C2A68
:10445000F7FE02C00C949C2A6091B5117091C711AF
:10446000A0916807B091690780916A0790916B07E6
:10447000A817B90751F4222341F04091CA0750917F
:10448000CB0750933E0240933D02E0916C07F091C0
:104490006D07F987E8878E179F0751F4332341F0A2
:1044A0004091C8075091C9075093400240933F0282
:1044B000FC01EE0FFF1FE65FFA4F4091C0075091DD
:1044C000C1075183408340E0222321F041E0711174
:1044D00001C042E0FC01E552FC4F20812C7F242BDF
:1044E0002083332341F031E0611106C032E004C083
:1044F00051E05A87A2CF30E0330F330F2081237F62
:10450000232B208301968F32F1E09F0709F46BC0C3
:1045100090936B0780936A078091370290913802DD
:1045200001979093380280933702809135029091E1
:10453000360201979093360280933502A552BC4F04
:104540008C91837011F40E949012E885F985E552F0
:10455000FC4F808186958695837011F40E943912F4
:104560008091C211882309F462C0B7FC60C06091D9
:10457000C3117091C4112091C51130E08091C71111
:1045800041E050E0811102C04FEF5FEF249FC00176
:10459000259F900D349F900D1124860F971F9093A7
:1045A000C4118093C31120919A0712160CF5813C17
:1045B0009F4F1CF5209184003091850080918400EC
:1045C00090918500821B930B0297C0F38091E108C4
:1045D00091E098279093E10880FD6CC089983FEFA7
:1045E00030939A070AC010926B0710926A0794CF13
:1045F000222319F080349105ECF68091C31190913B
:10460000C4119C01215C3F4F2F37310508F45AC07B
:1046100020919A0712160CF052C020E83FEF820F4B
:10462000931F9093C4118093C31151E05B878091D5
:10463000B011882309F466C0F7FC64C06091B11121
:104640007091B2112091B31130E08091B51141E029
:1046500050E0811102C04FEF5FEF249FC001259F02
:10466000900D349F900D1124860F971F9093B211D7
:104670008093B11120919B07121634F5813C9F4F16
:1046800044F52091840030918500809184009091C0
:104690008500821B930B0297C0F38091E10892E0A2
:1046A00098279093E10881FD73C18F987FEF7093F5
:1046B0009B070FC0899A41E040939A079ECF20E85C
:1046C00030E0ADCF1B86B3CF222319F080349105A3
:1046D000C4F68091B1119091B2119C01215C3F4FC1
:1046E00010E02F37310570F020919B0712160CF067
:1046F00054C120E83FEF820F931F9093B211809333
:10470000B11111E08B8081100AC0809184009091DA
:104710008500A980BA808A199B090297B0F3BB84EF
:10472000BB20E1F040919A07042E000C550B660B5C
:10473000770B8091D9079091DA07A091DB07B091B0
:10474000DC07840F951FA61FB71F8093D90790938E
:10475000DA07A093DB07B093DC07889A1123E1F016
:1047600040919B07042E000C550B660B770B809134
:10477000DD079091DE07A091DF07B091E007840F7D
:10478000951FA61FB71F8093DD079093DE07A093A8
:10479000DF07B093E0078E9A77FC22C040919C0718
:1047A000042E000C550B660B770B8091E10790915E
:1047B000E207A091E307B091E407840F951FA61FBD
:1047C000B71F8093E1079093E207A093E307B093AC
:1047D000E40780910B018095887080930901419ACC
:1047E0008A848820E1F040919D07042E000C550B2F
:1047F000660B770B8091E5079091E607A091E7079C
:10480000B091E807840F951FA61FB71F8093E50797
:104810009093E607A093E707B093E807149AA09057
:104820008400B0908500BA82A98280918400909122
:10483000850089809A80881999090297B0F39B8432
:104840009110889811118E9877FC06C080910B0109
:104850008870809309014198AA84A11014980023BC
:1048600031F080908400909085009A828982015076
:104870001B820111B7CC8091450290914602A09114
:104880004702B09148020097A105B10509F088C020
:1048900040919607509197076091980770919907FA
:1048A00080916E0790916F07A0917007B09171078A
:1048B000840F951FA61FB71F8093960790939707A5
:1048C000A0939807B0939907B7FD51C040919D07F9
:1048D000042E000C550B660B770B0091E507109129
:1048E000E6072091E7073091E807040F151F261F00
:1048F000371F0093E5071093E6072093E7073093EF
:10490000E8070091A6071091A7072091A80730910A
:10491000A907400F511F621F731F4093A6075093B2
:10492000A7076093A8077093A90740917207509159
:1049300073076091740770917507841B950BA60B24
:10494000B70B8093960790939707A0939807B0931F
:104950009907149A209184003091850080918400F9
:1049600090918500821B930B0297C0F3149880915D
:10497000410290914202A0914302B091440280937F
:10498000450290934602A0934702B09348020DC09F
:104990008F9A81E080939B079CCE20E830E0ABCEDD
:1049A0008F3F9F4FAF4FBF4F11F38091C207909140
:1049B000C307A091C407B091C507892B8A2B8B2B05
:1049C00009F00CC5E091C607F091C7073097D1F107
:1049D0008091BC079091BD07A091BE07B091BF0721
:1049E0004091B8075091B9076091BA077091BB0721
:1049F00084179507A607B70760F11092C7071092B2
:104A0000C6071092B7079091CF118091D0119817D7
:104A100031F08091D0118F5F8F708093D0112FEF84
:104A20003FEFA9012093450230934602409347028D
:104A30005093480220934102309342024093430234
:104A40005093440250EDC52E57E0D52EE12CF12CA9
:104A5000D8C04091B3075091B4076091B5077091E9
:104A6000B607481759076A077B0708F438C18091D1
:104A7000AF079091B007A091B107B091B20741A9DB
:104A800052A963A974A98824859F912C969F9001AF
:104A9000A69F300DA59F200D311D869F900C211DD6
:104AA000381D959F900C211D381DA49F900C211D31
:104AB000381D949F910C281D381D9694281D381D73
:104AC000789F200D311D799F300D1124DF01AD5BE2
:104AD000BF4F8D919D910D90BC91A02D820F931F82
:104AE000A11DB11D8093AB079093AC07A093AD07B8
:104AF000B093AE07FF964081518162817381481760
:104B000059076A077B0740F44093AB075093AC0703
:104B10006093AD077093AE072091AA076091AB0731
:104B20007091AC078091AD079091AE0704C0660FFD
:104B3000771F881F991F2A95D2F70E94A1926B01B7
:104B40007C018091AF079091B007A091B107B0911F
:104B5000B2078C0D9D1DAE1DBF1D8093AF079093B6
:104B6000B007A093B107B093B207A090C607B0906A
:104B7000C707BA82A982D501D6964D915D916D91F4
:104B80007C91D9974115510561057105D1F1DB96ED
:104B90008D919C91B0E0A0E00091A6071091A7072D
:104BA0002091A8073091A907081719072A073B0782
:104BB0001CF040E050E0BA018091AB079091AC0747
:104BC000A091AD07B091AE074A015B01880E991E16
:104BD000AA1EBB1EC501B4010E94A619A981BA81F3
:104BE000DA962C9104C0660F771F881F991F2A95AB
:104BF000D2F76093410270934202809343029093F4
:104C000044028091C6079091C707892B09F0DEC343
:104C10000E944A139093C7078093C607892B09F413
:104C2000D5C38090C6079090C70799868886D4011F
:104C30008C9183FD92C155964D905D906D907C90C6
:104C4000589781E0411451046104710409F480E033
:104C5000E885F985C18CD28CE38CF48CC114D10425
:104C6000E104F10409F0A5C1A885B9855D964D91CF
:104C70005D916D917C91909741155105610571058C
:104C800009F084608093B70710929E0710929F07E7
:104C90001092A0071092A1071092AF071092B007D0
:104CA0001092B1071092B207E885F985FF968081CE
:104CB0009181A281B38120E08C3DEFE09E07A105A8
:104CC000B10508F078C1880F991FAA1FBB1F8C3D42
:104CD000FFE09F07A105B10578F72F5FEDCF409169
:104CE000A2075091A3076091A4077091A5074817E8
:104CF00059076A077B0708F0DCC080919E079091F6
:104D00009F07A091A007B091A10741A952A963A94B
:104D100074A98824859F912C969F9001A69F300DA1
:104D2000A59F200D311D869F900C211D381D959F3C
:104D3000900C211D381DA49F900C211D381D949F9F
:104D4000910C281D381D9694281D381D789F200D24
:104D5000311D799F300D1124A90170E060E0809130
:104D6000AB079091AC07A091AD07B091AE07E95B9E
:104D7000FF4F80809180A280B380481759076A074F
:104D80007B0758F4841B950BA60BB70B8816990666
:104D9000AA06BB0610F44C015D018091AA0795019B
:104DA000840104C0000F111F221F331F8A95D2F700
:104DB000C901B8010E94A1926B017C0180919E07FC
:104DC00090919F07A091A007B091A1078C0D9D1D08
:104DD000AE1DBF1D80939E0790939F07A093A007D1
:104DE000B093A1070091C6071091C7071A830983E2
:104DF000D801D6964D905D906D907C90D9974114D6
:104E000051046104710409F4FCCEDD968D919C91EE
:104E1000B0E0A0E04091A6075091A7076091A807D5
:104E20007091A90784179507A607B7070CF089C3E7
:104E300084149504A604B70409F4E3CE84149504FD
:104E4000A604B70408F086C3C301B2016819790942
:104E50008A099B0911E00E94A619E981FA8122AD15
:104E600004C0660F771F881F991F2A95D2F7609399
:104E700041027093420280934302909344028091D6
:104E8000E10883FB992790F9191709F4BACE98E045
:104E900089278093E10880919D07819580939D07E4
:104EA00084149504A604B70410F41698AACE169A92
:104EB000A8CE8091390290913A02A0913B02B09124
:104EC0003C02B7FF41C0FF962091AA076081718123
:104ED0008281938104C0660F771F881F991F2A95CE
:104EE000D2F70E94A1926093390270933A028093A4
:104EF0003B0290933C028090C6079090C7079A822D
:104F00008982F40186A997A9A0ADB1AD892B8A2B1E
:104F10008B2BD1F0FF9660817181828193810E94F9
:104F2000A619A981BA81DA962C9104C0660F771F61
:104F3000881F991F2A95D2F760934102709342020D
:104F40008093430290934402C0903902D0903A0279
:104F5000E0903B02F0903C0254CE888599854596BE
:104F60000E946D111092C7071092C6071092B707E2
:104F70009091CF118091D011981731F08091D0117C
:104F80008F5F8F708093D01188248A94982C54015D
:104F90008092450290924602A0924702B092480247
:104FA0008092410290924202A0924302B092440247
:104FB0002FCE826059CE2093AA07822E912C9A82FE
:104FC0008982E885F98585A196A1A7A1B0A504C02D
:104FD000880F991FAA1FBB1F2A95D2F78093B80785
:104FE0009093B907A093BA07B093BB070027112786
:104FF0009801081B190B2A0B3B0B00939607109383
:10500000970720939807309399070093860710938A
:105010008707209388073093890700938A071093A6
:105020008B0720938C0730938D0700938E07109386
:105030008F07209390073093910700939207109366
:105040009307209394073093950701A112A123A100
:1050500034A148015901880C991CAA1CBB1C8B82E5
:105060009C82AD82BE8253014201880C991CAA1C0D
:10507000BB1C8092760790927707A0927807B09237
:10508000790746015701880C991CAA1CBB1C809209
:105090007A0790927B07A0927C07B0927D07440F1D
:1050A000551F661F771F40937E0750937F076093BD
:1050B0008007709381070B811C812D813E810093B5
:1050C0008207109383072093840730938507880F06
:1050D000991FAA1FBB1F8093720790937307A09319
:1050E0007407B09375078091C2118823D1F1E5A9A7
:1050F000E0FF0AC09201A30160E070E080E090E070
:105100000E947DBF29013A018091C8119091C91177
:10511000A091CA11B091CB11840D951DA61DB71D8C
:105120008093C8119093C911A093CA11B093CB1169
:105130008E2F809581708093C711209168073091E0
:10514000690780916A0790916B072817390749F022
:105150008091E10880FFEAC1E160A885B985D59614
:10516000EC938091B0111091E108882309F43FC0BD
:10517000A885B985D596EC9146015701AE2FA2704E
:10518000E1FF0AC09601A70160E070E080E090E0D6
:105190000E947DBF49015A014091B6115091B7114B
:1051A0006091B8117091B911480D591D6A1D7B1D90
:1051B0004093B6115093B7116093B8117093B91121
:1051C00081E0A11180E08093B51120916C073091AE
:1051D0006D0780916A0790916B072817390739F09E
:1051E00011FFA6C1E260A885B985D596EC9310920F
:1051F000BC071092BD071092BE071092BF07E8854A
:10520000F98581A592A5A3A5B4A5098004C0880F3E
:10521000991FAA1FBB1F0A94D2F78093B3079093DC
:10522000B407A093B507B093B60785A596A5A7A523
:10523000B0A9098004C0880F991FAA1FBB1F0A9438
:10524000D2F78093A2079093A307A093A407B093EB
:10525000A50786A997A9A0ADB1AD892B8A2B8B2B69
:10526000F1F082AD8B809C80AD80BE8004C0880C44
:10527000991CAA1CBB1C8A95D2F7D501C4010980D0
:1052800004C0880F991FAA1FBB1F0A94D2F78093EE
:105290006E0790936F07A0937007B0937107A8856E
:1052A000B985D5968C91811721F08093E1080E94F1
:1052B000371A0E94D21C88248A94982C5401809218
:1052C000390290923A02A0923B02B0923C020885C9
:1052D00019850D5B1F4FF80180819181A281B381F7
:1052E0008093AB079093AC07A093AD07B093AE0744
:1052F000BC01CD01098004C0660F771F881F991F6C
:105300000A94D2F70E94A1926B017C018091AF07B1
:105310009091B007A091B107B091B2078C0D9D1D7F
:10532000AE1DBF1D8093AF079093B007A093B10748
:10533000B093B2078090C6079090C7079A8289827F
:10534000D401D6964D915D916D917C91D99741157F
:10535000510561057105D1F1DB968D919C91B0E00D
:10536000A0E00091A6071091A7072091A80730910F
:10537000A907081719072A073B071CF040E050E06F
:10538000BA01E981FA81ED5BFF4F80819181A281B1
:10539000B3814A015B01880E991EAA1EBB1EC5017E
:1053A000B4010E94A619A981BA81DA962C9104C091
:1053B000660F771F881F991F2A95D2F760934102C5
:1053C000709342028093430290934402C092C207BA
:1053D000D092C307E092C407F092C507C09045027F
:1053E000D0904602E0904702F090480220913F02A0
:1053F0003091400240913D0250913E028090C207A0
:105400009090C307A090C407B090C507FC2DED2D68
:105410007E2D6F2D8C149D04AE04BF0420F4F82D56
:10542000E92D7A2D6B2D2901712C612C8F2F9E2F48
:10543000A72FB62F481659066A067B0610F4D3012B
:10544000C9012A01712C612C481659066A067B068F
:1054500010F4D301CA01881A990AAA0ABB0A8092D9
:10546000C2079092C307A092C407B092C507FC017F
:105470006091C0077091C107680F791F7093C107D1
:105480006093C0074F3F540731F0481B590B5093AE
:105490003E0240933D022F3F320731F02E1B3F0B5F
:1054A0003093400220933F022FEFC216D206E2064D
:1054B000F20661F0C81AD90AEA0AFB0AC09245024C
:1054C000D0924602E0924702F0924802F89480910E
:1054D00084009091850040960F8101500F83002336
:1054E00049F12E0E3F1E2816390610F40C949E1E0C
:1054F000309289002092880078942B960FB6F89409
:10550000DEBF0FBECDBFDF91CF911F910F91FF90F6
:10551000EF90DF90CF90BF90AF909F908F907F9053
:105520006F905F904F903F902F900895EE7F15CE33
:10553000ED7F59CE1C01DCCF30E021110C942C22E0
:105540000FC8412C512C320181149104A104B104E3
:1055500009F457CBC501B401641975098609970987
:1055600010E079CCCF92DF92EF92FF92CF93DF934E
:10557000C82F0E947F1394E0C99FE0011124FE010F
:10558000E752F84FC080D180E280F38081110E9401
:10559000AD1CCC5ED64FC701B6010E94D4B828819D
:1055A00039814A815B810E9433B9DF91CF91FF90AD
:1055B000EF90DF90CF900895CF92DF92EF92FF921D
:1055C000CF93DF93C82F0E947F1394E0C99FE0011F
:1055D0001124FE01E353F84FC080D180E280F380B4
:1055E00081110E94AD1CCC5ED64FC701B6010E944E
:1055F000D4B8288139814A815B810E9433B9DF9117
:10560000CF91FF90EF90DF90CF9008950E947F138D
:105610009091D0119093CF119093CE119093CD1182
:1056200094E69093CC1120ED33E030936D0E2093EF
:105630006C0E81110E94AD1C81E08093CC0708950F
:10564000CF93DF931F92CDB7DEB7898360E0CE01A1
:1056500001960E948C1361E0CE0101960E948C138A
:1056600062E0CE0101960E948C1389810F90DF9138
:10567000CF910895CF93DF9380E074DFCEE6DEE034
:10568000688379838A839B8381E06CDF6C837D836D
:105690008E839F8382E066DF688779878A879B870E
:1056A000DF91CF9108950C9436918091F008882372
:1056B00019F01092F008089560E081EF9EE00E94DA
:1056C000198D1092290E1092A1031092A20310922C
:1056D000A3031092A4031092A5031092A6031092A4
:1056E000A7031092A80310929D0310929E0310929C
:1056F0009F031092A00308958091290E8130E9F054
:105700008230C9F40E94551560939D0370939E03E7
:1057100080939F039093A00381E08093290E0E94C1
:105720005F936093A1037093A2038093A30390936C
:10573000A40381E00895C5DFEFCF80E00895809154
:10574000290E8150823070F41092290E0E945F93CE
:105750006093A5037093A6038093A7039093A80377
:1057600081E0089580E008952091530E3091540E09
:10577000263531053CF42091460830914708263003
:1057800031051CF0882319F0B7CF6111D8CF0895E7
:105790008F929F92AF92BF92CF92DF92EF92FF9241
:1057A0000F931F93CF93DF93109299031092980356
:1057B0002FE320939C0310929B0310929A03109264
:1057C00094031092950310929603109297039C01F4
:1057D000F90190812F5F3F4F9032D1F39E34C9F48D
:1057E000818190ED980F9A3020F08D3211F08B323C
:1057F00081F432969F012F5F3F4F808180538A3022
:1058000008F46BC09F012F5F3F4F8081803209F405
:1058100066C0F093C60EE093C50E8F010F5F1F4F59
:10582000C0816AE270E0C8010E948DC2009731F029
:10583000FC01319780818032E1F31182CD3421F077
:10584000C43511F0C734E1F5F80180810F5F1F4FB7
:105850008032D1F380538A3098F5C0939C0330E0B6
:1058600020E06AE0AF014F5F5F4F629FC001639F1E
:10587000900D11249C01205331098081280F311D86
:1058800087FD3A95FA01808180538A3058F330932E
:105890009B0320939A03DF0131968C918032D9F3D8
:1058A000CD3449F52E31310539F0D8F427313105A1
:1058B00019F02C313105F9F4B0939903A0939803B2
:1058C000DF91CF911F910F91FF90EF90DF90CF90DC
:1058D000BF90AF909F908F900895F9018BCFF90101
:1058E00091CF2537310538F02737310528F3203A95
:1058F00083E0380709F3D091C50E40E050E0BA01CB
:1059000010E000E0C12CD12C7601C394FD0131964A
:105910008C91882309F47FC08132E1F4CD34D1F435
:1059200020323105B9F4409394035093950360936A
:10593000960370939703F0939903E093980363E2BF
:1059400070E0CF010E948DC2009709F4B9CFFC012D
:105950001082B6CF81548A3108F058C0DF019D9182
:10596000903291F0A0EDA90FAA30E8F09E3271F4C8
:10597000918190539A30B8F00115110519F48F01F7
:105980000150110990E013C0FD01E8CF9D3211F0E4
:105990009B3291F79181A0EDA90FAA3020F09E32A1
:1059A00059F79281E6CF9E2F9D1B309759F3A82F70
:1059B000B0E04601570104C0880C991CAA1CBB1C0E
:1059C0008A95D2F7482959296A297B29A658BC4FBC
:1059D0009C9380818154DF018A3108F497CFDF01E5
:1059E0008191882309F492CF90ED980F9A30B8F303
:1059F00093ED980F923098F38B3289F3CD01019695
:105A0000EC91E03209F082CFDC01F8CF01151105ED
:105A100001F78D01DECF1093990300939803409313
:105A2000940350939503609396037093970348CF24
:105A30000F931F93CF9380917403909175030097F8
:105A400009F1FC018F01C1912C2F2F7DA1F0C534EC
:105A500031F0C53621F0C83511F0C83799F7F80193
:105A6000108270E060E00E94ACB4F801C083CF9176
:105A70001F910F91089570E060E0CF911F910F91F9
:105A80000C94ACB460E070E0CB01F1CF0E94F31451
:105A9000882341F081E02091740330917503232B1A
:105AA00009F480E008954F925F926F927F92AF92D7
:105AB000BF92CF92DF92EF92FF920F931F93CF93FB
:105AC00086E0A82E83E0B82E9BE2E92E9EE0F92E18
:105AD0000BE512E022E5C22E21E1D22EC0E0F50155
