:100000000C94C4160C9404170C9404170C94041745
:100010000C9404170C9404170C9404170C940417F4
:100020000C9404170C9404170C9404170C940417E4
:100030000C9404170C9404170C9404170C940417D4
:100040000C9404170C94BC720C9404170C940417B1
:100050000C9404170C9411710C9404170C949CD0FC
:100060000C9404170C94E03C0C94AA3C0C940417D8
:100070000C9404170C9404170C9404170C94041794
:100080000C94F7260C9404170C9404170C94041782
:100090000C9404170C9404170C9404170C94041774
:1000A0000C9404170C9404170C94C9260C94041790
:1000B0000C9404170C9404170C9404170C94041754
:1000C0000C9404170C9404170C9404170C94041744
:1000D0000C9404170C9404170C9404170C94041734
:1000E0000C940417084AD73B3BCE016E84BCBFFD7D
:1000F000C12F3D6C74319ABD56833DDA3D00C77FF8
:1001000011BED9E4BB4C3E916BAAAABE0000008090
:100110003F05A84CCDB2D44EB93836A9020C50B91F
:10012000918688083CA6AAAA2ABE000000803F004B
:100130004E414E494E495459494E46CDCCCC3D0ACC
:10014000D7233C17B7D13877CC2B329595E6241FAF
:10015000B14F0A000020410000C84200401C462068
:10016000BCBE4CCA1B0E5AAEC59D7400407A10F33B
:100170005A00A0724E18090010A5D4E80000E876D5
:1001800048170000E40B54020000CA9A3B0000002C
:10019000E1F505000080969800000040420F000045
:1001A00000A08601000000102700000000E8030006
:1001B0000000006400000000000A000000000001D0
:1001C00000000000002C76D888DC674F0823DFC1D0
:1001D000DFAE59E1B1B796E5E3E453C63AE651998B
:1001E0007696E8E6C28426EB898C9B62ED407C6FB4
:1001F000FCEFBC9C9F40F2BAA56FA5F490055A2A6B
:10020000F75C936B6CF9676DC11BFCE0E40D47FE76
:10021000F520E6B500D0ED902E030094357705006B
:1002200080841E080000204E0A000000C80C3333F2
:1002300033330F986E12831141EF8D2114893BE601
:100240005516CFFEE6DB18D1844B381BF77C1D908A
:100250001DA4BBE424203284725E228100C9F124F3
:10026000ECA1E53D27434F4D4D554E49434154497F
:100270004F4E0044525952554E004552524F525320
:1002800000494E464F004543484F004D323400531D
:10029000544F505045442E20005072696E74657260
:1002A0002073746F707065642064756520746F20AE
:1002B0006572726F72732E204669782074686520AB
:1002C0006572726F7220616E6420757365204D399E
:1002D000393920746F20726573746172742E20280E
:1002E00054656D70657261747572652069732072F2
:1002F000657365742E20536574206974206166747B
:1003000065722072657374617274696E67290A0080
:100310004E6F20436865636B73756D2077697468F1
:10032000206C696E65206E756D6265722C204C6163
:100330007374204C696E653A20004E6F20436865E7
:10034000636B73756D2077697468206C696E6520C6
:100350006E756D6265722C204C617374204C696EF1
:10036000653A2000636865636B73756D206D697312
:100370006D617463682C204C617374204C696E65E8
:100380003A20004C696E65204E756D626572206979
:1003900073206E6F74204C617374204C696E6520FD
:1003A0004E756D6265722B312C204C617374204C3C
:1003B000696E653A20004D313130005365726961D4
:1003C0006C20737461747573206D69736D617463EF
:1003D000680A0053442072656164206572726F720E
:1003E0000A00746F6F206D75636820696E616374B5
:1003F0006976652074696D65202D2063757272655C
:100400006E7420636F6D6D616E643A20002121204F
:100410004B494C4C20636175736564206279200000
:100420004D6564696120496E73657274656400622C
:100430007573793A2070617573656420666F7220F8
:10044000696E7075740A00627573793A207061750F
:1004500073656420666F7220757365720A00627539
:1004600073793A2070726F63657373696E670A00FF
:100470006563686F3A004572726F723A004F464684
:10048000004F4E0042696C696E656172204C657662
:10049000656C696E6720477269643A0A002F2F61A4
:1004A0006374696F6E3A006E6F7469666963617434
:1004B000696F6E20006E6F74696669636174696F3D
:1004C0006E2000656E6400627574746F6E00486F14
:1004D00074656E6420746F6F20636F6C640A0070C3
:1004E000617573656400486561642063616E6E6F59
:1004F00074206265207061726B6564005061757371
:1005000065004732362048656174696E67204E6F1A
:100510007A7A6C65004732362048656174696E6787
:10052000204265640057616974696E6720666F7266
:10053000206865617475702E0A00466978656420CC
:100540004C656E677468205072696D65004C65611A
:1005500076696E6720473236003F5370656369667F
:1005600069656420582C5920636F6F7264696E61ED
:100570007465206F7574206F6620626F756E64738A
:100580002E0A003F28522965706561742076616CDF
:100590007565206E6F7420706C61757369626C652F
:1005A0003B206D757374206265206174206C6561F9
:1005B000737420312E0A003F2852296570656174DA
:1005C000206D757374206265207370656369666958
:1005D0006564207768656E206E6F74207573696E30
:1005E0006720616E204C43442E0A003F53706563C0
:1005F0006966696564206E6F7A7A6C652074656DD2
:100600007065726174757265206E6F7420706C61B4
:10061000757369626C652E0A003F53706563696685
:100620006965642066696C616D656E742073697AB2
:1006300065206E6F7420706C61757369626C652ED5
:100640000A003F537065636966696564207072696A
:100650006D65206C656E677468206E6F7420706CB9
:1006600061757369626C652E0A003F5072696D6531
:10067000206C656E677468206D75737420626520E8
:10068000737065636966696564207768656E206E5E
:100690006F74207573696E6720616E204C43442E21
:1006A0000A003F537065636966696564206E6F7AFE
:1006B0007A6C652073697A65206E6F7420706C6146
:1006C000757369626C652E0A003F526574726163CE
:1006D00074696F6E204D756C7469706C69657220F9
:1006E0006D757374206265207370656369666965F2
:1006F000642E0A003F537065636966696564205221
:10070000657472616374696F6E204D756C74697085
:100710006C696572206E6F7420706C6175736962AC
:100720006C652E0A003F53706563696669656420D5
:100730006C6179657220686569676874206E6F7492
:1007400020706C61757369626C652E0A0043292EF6
:100750000A003F5370656369666965642062656479
:100760002074656D7065726174757265206E6F744A
:1007700020706C61757369626C65202834302D00BF
:10078000473236207374617274696E672E2E2E0A9A
:10079000004F46460A0046616465204865696768FF
:1007A000742000426564204C6576656C696E672034
:1007B000004661696C656420746F20656E61626CCF
:1007C0006520426564204C6576656C696E670A0039
:1007D000496E76616C6964206D6573682E0A002E1F
:1007E0000A002F0050726F62696E67206D65736832
:1007F00020706F696E742000202844525952554E63
:100800002900473239204175746F20426564204CBD
:100810006576656C696E67003F20284C2C522C462B
:100820002C4229206F7574206F6620626F756E648C
:10083000732E0A003F2856296572626F7365206C1B
:100840006576656C20696D706C61757369626C6545
:100850002028302D34292E0A00426164205A207647
:10086000616C75650A004E6F2062696C696E656126
:100870007220677269640A005A2050726F626520A4
:1008800050617374204265640A005A2050726F628E
:100890006520506173742042656400416363757222
:1008A0006163792044656372656173696E672100D5
:1008B00044656372656173696E6720416363757235
:1008C0006163792044657465637465642E0A00472A
:1008D00032385A0041636375726163793A200020AF
:1008E0006F66200044696420004733342061626FE2
:1008F000727465642E0A00416363757261637920C6
:100900004163686965766564005461726765742047
:100910006163637572616379206163686965766597
:10092000642E0A000A5A322D5A313D0050726F620D
:10093000696E67204661696C65640050726F626918
:100940006E67206661696C65640A000A473334206B
:10095000497465726174696F6E3A20003F284129BD
:100960006D706C696669636174696F6E206F757410
:10097000206F6620626F756E64732028302E352DCF
:10098000322E30292E0A003F28542961726765747F
:10099000206163637572616379206F7574206F667F
:1009A00020626F756E64732028302E30312D312E09
:1009B00030292E0A003F2849297465726174696FD5
:1009C0006E206F7574206F6620626F756E64732081
:1009D00028312D3330292E0A0020204D3432322088
:1009E00053005A204175746F2D416C69676E004643
:1009F000696E6973686564210A003A207A3A2000BA
:100A0000206F662000476F696E6720746F3A205828
:100A10000043570A00206469723A0020616E676CD7
:100A2000653A005374617274207261646975733A37
:100A300000506F736974696F6E696E6720746865C2
:100A40002070726F62652E2E2E0A003F4C65677310
:100A5000206F66206D6F76656D656E7420696D70B0
:100A60006C61757369626C652028302D3135292ED3
:100A70000A003F2028582C5929206F7574206F6672
:100A800020626F756E64732E0A0050726F6265206B
:100A90006F7574206F6620626F756E6473003F53CC
:100AA000616D706C652073697A65206E6F7420705B
:100AB0006C61757369626C652028342D3530292E80
:100AC0000A004D3438205A2D50726F6265205265ED
:100AD000706561746162696C6974792054657374BE
:100AE0000A003F2856296572626F7365206C65762F
:100AF000656C20696D706C61757369626C65202826
:100B0000302D34292E0A005374616E6461726420A2
:100B1000446576696174696F6E3A20002052616E97
:100B200067653A2000204D61783A2000204D696EBB
:100B30003A2000205369676D613A20004D65616E6F
:100B40003A200020440020204D3230302053002035
:100B50002844697361626C6564293A0046696C6176
:100B60006D656E742073657474696E677300202000
:100B70004D3230312058004D617820416363656CFF
:100B800065726174696F6E2028756E6974732F7356
:100B900032290020204D3230332058004D6178201A
:100BA0006665656472617465732028756E69747317
:100BB0002F73290020520020204D32303420500065
:100BC000416363656C65726174696F6E2028756E30
:100BD0006974732F7332292028503C7072696E74C7
:100BE0002D616363656C3E20523C72657472616373
:100BF000742D616363656C3E20543C74726176654C
:100C00006C2D616363656C3E2900204A002054000E
:100C100020530020204D323035204200416476615F
:100C20006E6365642028423C6D696E5F7365676D15
:100C3000656E745F74696D655F75733E20533C6DBE
:100C4000696E5F66656564726174653E20543C6DD3
:100C5000696E5F74726176656C5F6665656472610A
:100C600074653E204A3C6A756E635F6465763E2912
:100C70000020440020490020204D33303120500016
:100C8000486F74656E642050494400204400204938
:100C90000020204D333034205000426564205049FC
:100CA000440020440020204D35393320592046008F
:100CB00020440020204D3539332058204600496E0D
:100CC0007075742053686170696E6700206F7220C0
:100CD0003020746F2064697361626C650A003F465E
:100CE00072657175656E637920284629206D75736C
:100CF0007420626520677265617465722074686132
:100D00006E20003F5A657461202844292076616C6A
:100D10007565206F7574206F662072616E6765203F
:100D200028302D31290A00203B0020550020204D7D
:100D3000363033204C0046696C616D656E74206CF2
:100D40006F61642F756E6C6F6164003B20002049F9
:100D50006E76616C69642065787472756465722062
:100D60000047322F47332062616420706172616DE9
:100D700065746572730A00536C6565702E2E2E00C3
:100D8000473238005A2050726F6265205061737488
:100D90002042656400205A3A200020593A2000423F
:100DA000656420583A20004D65736820706F696E45
:100DB00074206F7574206F662072616E67650A001B
:100DC00070726F6D70745F00626567696E004D30A0
:100DD0002053746F70004D312053746F70004E6F4C
:100DE000204D6F76652E00456E642066696C652027
:100DF0006C6973740A00426567696E2066696C6588
:100E0000206C6973740A004E6F206D656469610A15
:100E100000534420636172642072656C6561736580
:100E2000640A00726573756D6500526573756D694E
:100E30006E6720534400286E6F2066696C65290038
:100E400043757272656E742066696C653A20002E77
:100E50000A0044656C6574696F6E206661696C6533
:100E6000642C2046696C653A200046696C652064F4
:100E7000656C657465643A0043616E6E6F74206FD3
:100E800070656E2073756264697220002569730055
:100E900025696D20256973002569682025696D2005
:100EA00025697300256964202569682025696D20FE
:100EB00025697300256979202569642025696820E2
:100EC00025696D20256973005072696E74207469FC
:100ED0006D653A20006F6B006F66660086028102C6
:100EE0007A027302650244454255473A004D31315A
:100EF0003320530047656E697573204F46462E00B8
:100F00002F2F003F4A206F7574206F662072616E2C
:100F100067652028302E303120746F20302E332921
:100F20000A0020580020204D61783A20002000203F
:100F3000204D696E3A2000203B200020204D3231A8
:100F400031205300536F667420656E6473746F7044
:100F50007300250A0046523A0020466C6F773A200B
:100F6000003A200020536572766F2000206F757460
:100F7000206F662072616E67650A00536572766F36
:100F8000200050726F6265204F6666736574205A48
:100F90000050726F6265204F6666736574205A0058
:100FA00064697300656E0043290A0061626C6564C0
:100FB00020286D696E2074656D702000436F6C642D
:100FC0002065787472756465732061726520004DC8
:100FD00034323120696E636F7272656374207061A0
:100FE00072616D657465722075736167650A004D85
:100FF00065736820706F696E74206F7574206F66FA
:101000002072616E67650A004F66667365747320AF
:101010004170706C69656400546F6F206661722066
:1010200066726F6D207265666572656E63652070AD
:101030006F696E740A00454550524F4D204F4B0A60
:1010400000290A0020746F20003F5A206F75742019
:101050006F662072616E6765202800290A0020747F
:101060006F20003F59206F7574206F662072616E8B
:10107000676520282D00290A0020746F20003F5842
:10108000206F7574206F662072616E676520282D51
:10109000003F285929206F7574206F6620626F7594
:1010A0006E64732E0A003F285829206F7574206FD4
:1010B0006620626F756E64732E0A0020696E646527
:1010C0007820696E76616C69642028312E2E322971
:1010D0002E0A003F2853292050726F62652D706FD1
:1010E000736974696F6E003F2853292069732072F9
:1010F000657175697265642E0A004D38340050724E
:10110000696E7420446F6E6500446F6E6520707266
:10111000696E74696E672066696C650A004D3737C1
:10112000004D33310020204D323036205800486FBA
:101130006D65206F666673657400446966663A2063
:1011400020200046726F6D5374703A0053746570BE
:101150007065723A00556E4C6576656C3A004C6568
:1011600076656C65643A005261773A202020200051
:101170000A4C6F676963616C3A00436F756E742047
:10118000453A004361703A007D7D7D0A002C7A3A31
:10119000002C793A007D2C6D61783A7B783A002CEE
:1011A0007A3A002C793A007D7D2C776F726B3A7B0E
:1011B0006D696E3A7B783A002C7A3A002C793A00C5
:1011C0007D2C6D61783A7B783A002C7A3A002C7944
:1011D0003A00617265613A7B66756C6C3A7B6D6949
:1011E0006E3A7B783A00434F4E4649475F45585028
:1011F0004F5254004D4541545041434B00434F4FD3
:101200004C45525F54454D5045524154555245004E
:101210004348414D4245525F54454D50455241541B
:1012200055524500424142595354455050494E474A
:101230000041524353004D4F54494F4E5F4D4F4470
:10124000455300544845524D414C5F50524F544510
:101250004354494F4E00455854454E4445445F4D14
:10126000323000435553544F4D5F4649524D57411C
:1012700052455F55504C4F4144004C464E5F5752CB
:10128000495445004C4F4E475F46494C454E414DF1
:1012900045004155544F5245504F52545F53445F9F
:1012A0005354415455530053445F575249544500D9
:1012B000524550454154004D554C54495F564F4C92
:1012C000554D45005344434152440050524F4D50F8
:1012D000545F535550504F525400484F53545F4140
:1012E0004354494F4E5F434F4D4D414E445300458B
:1012F0004D455247454E43595F5041525345520068
:10130000434153455F4C494748545F42524947481F
:10131000544E45535300544F47474C455F4C494743
:1013200048545300534F4654574152455F504F570E
:101330004552004255494C445F50455243454E5436
:10134000004C4556454C494E475F44415441005A74
:101350005F50524F42450052554E4F555400415533
:10136000544F4C4556454C005052494E545F4A4FDD
:10137000420050524F4752455353004155544F522B
:1013800045504F52545F54454D50004155544F52B3
:1013900045504F52545F504F5300564F4C554D459A
:1013A0005452494300454550524F4D0042494E4129
:1013B00052595F46494C455F5452414E534645523F
:1013C0000053455249414C5F584F4E5F584F464677
:1013D000004649524D574152455F4E414D453A4DA9
:1013E00061726C696E20322E312E322E3120284FE0
:1013F000637420313420323032332030333A343881
:101400003A32382920534F555243455F434F4445A4
:101410005F55524C3A6769746875622E636F6D2F21
:101420004D61726C696E4669726D776172652F4DA0
:1014300061726C696E2050524F544F434F4C5F564F
:10144000455253494F4E3A312E30204D4143484981
:101450004E455F545950453A47656E69757320454E
:10146000585452554445525F434F554E543A3120DB
:10147000555549443A63656465326132662D3431AD
:1014800061322D343734382D396231322D633535A0
:1014900063363266333637666600203B0020204DC7
:1014A0003835312058005A2D50726F6265204F66D2
:1014B000667365740042656420436F6F6C696E6784
:1014C0002E2E2E004265642048656174696E672E79
:1014D0002E2E00206661696C6564212042616420C3
:1014E0006865617465722069640A0050494420414E
:1014F00075746F74756E650023646566696E65202A
:1015000044454641554C545F0000626564004B649D
:1015100020004B6920004B70200050494420747516
:101520006E696E6720646F6E65002066696E697310
:10153000686564212050757420746865206C61733F
:1015400074204B702C204B6920616E64204B64200A
:10155000636F6E7374616E74732066726F6D206258
:10156000656C6F7720696E746F20436F6E66696774
:1015700075726174696F6E2E680A0050494420418B
:1015800075746F74756E6500206661696C656421A1
:101590002074696D656F75740A0050494420417567
:1015A000746F74756E65004175746F74756E652027
:1015B0006661696C6564212054696D656F75742E70
:1015C00000206661696C6564212054656D706572E8
:1015D000617475726520746F6F20686967680A00AE
:1015E000504944204175746F74756E6500204B64DA
:1015F0003A2000204B693A2000204B703A2000200E
:10160000436C617373696320504944200A00204E83
:101610006F206F76657273686F6F740A002054755F
:101620003A2000204B753A2000206D61783A200066
:10163000206D696E3A200020643A200020626961C2
:10164000733A200048656174696E672E2E2E002063
:1016500073746172740A00504944204175746F7448
:10166000756E65004175746F74756E65206661698D
:101670006C6564212054656D706572617475726566
:1016800020746F6F20686967682E00206661696C3E
:101690006564212054656D70657261747572652092
:1016A000746F6F20686967680A005049442041756B
:1016B000746F74756E6500504944204175746F7481
:1016C000756E6500486F6D696E67204661696C656F
:1016D00064006F70656E0054524947474552454457
:1016E000003A20007A5F70726F6265007A5F6D6900
:1016F0006E00795F6D696E00785F6D696E0052658E
:10170000706F7274696E6720656E6473746F702099
:101710007374617475730A0020746F6F206C6F6E40
:101720006720657874727573696F6E207072657664
:10173000656E7465640A0020636F6C64206578745C
:10174000727573696F6E2070726576656E7465640C
:101750000A00486F6D652025732046697273740016
:10176000000000C00000A0C0000000005761726EC1
:10177000696E673A20486F6D696E672042756D70BB
:101780002044697669736F72203C20310A0002029E
:101790000400005E4300006B4300007A430000A099
:1017A000400000A0400000004000000001000000D8
:1017B00001000080005555550000004000333333D0
:1017C00000AAAA2A004992240000002000C7711C28
:1017D0000099991900D1451700555515003BB113D3
:1017E000002449120011111100000010000F0F0F0A
:1017F00000E3380E0043790D00CCCC0C00C3300C54
:1018000000E8A20B0064210B00AAAA0A00703D0A9E
:10181000009DD80900427B090092240900DCD3080E
:1018200000888808001042080000000800F0C10786
:10183000008787070075500700711C07003EEB0604
:1018400000A1BC06006990060066660600703E06B0
:10185000006118060017F4050074D105005BB0059F
:1018600000B29005006272050055550500783905F3
:1018700000B81E0500050505004EEC040087D404E1
:1018800000A1BD040090A7040049920400C17D049A
:1018900000EE690400C7560400444404005C3204AE
:1018A000000821040041100400000004003FF00380
:1018B00000F8E0030026D20300C3C30300CCB50345
:1018C000003AA803000A9B0300388E0300C081037E
:1018D000009F750300D0690300505E03001D530391
:1018E0000034480300913D030033330300162903FD
:1018F00000381F030097150300300C030003030397
:10190000000BFA020049F10200BAE802005CE002B2
:10191000002DD802002DD0020059C80200B0C0022C
:101920000031B90200DAB10200AAAA0200A0A302A3
:1019300000BC9C0200FA9502005C8F0200DF880266
:101940000082820200457C02002776020027700296
:1019500000436A02007C640200D05E02003F59022C
:1019600000C8530200FFFDFCFAF8F6F4F2F0EEECCA
:10197000EAE9E7E5E3E1E0DEDCDAD9D7D5D4D2D095
:10198000CFCDCBCAC8C7C5C3C2C0BFBDBCBAB9B72B
:10199000B6B4B3B2B0AFADACAAA9A8A6A5A4A2A193
:1019A000A09E9D9C9A99989795949392908F8E8DD6
:1019B0008B8A8988878684838281807F7E7D7B7AFB
:1019C000797877767574737271706F6E6D6C6B6AFF
:1019D000696867666564636261605F5E5D5C5B5AEF
:1019E0005958585756555453525150504F4E4D4CCC
:1019F0004B4A4A4948474646454443424241403F94
:101A00003E3E3D3C3B3B3A3938383736353534334A
:101A100032323130302F2E2E2D2C2B2B2A292928F3
:101A2000272726252524232322212120201F1E1E8F
:101A30001D1C1C1B1B1A191918181716161515141E
:101A4000131312121111100F0F0E0E0D0D0C0C0BA3
:101A50000A0A09090808070706060505040403031E
:101A6000020201000053544F505045442E200050B4
:101A700072696E7465722073746F7070656420642F
:101A8000756520746F206572726F72732E204669BF
:101A90007820746865206572726F7220616E6420B0
:101AA000757365204D39393920746F2072657374F0
:101AB0006172742E202854656D7065726174757240
:101AC000652069732072657365742E2053657420D8
:101AD00069742061667465722072657374617274D2
:101AE000696E67290A00206572726F72202D20725C
:101AF0006573746172742077697468204D3939395F
:101B00000A00424C546F7563680021212053544FE2
:101B1000502063616C6C65642062656361757365F8
:101B2000206F66200000005C430000664300007ADE
:101B300043000000C00000A0C00000000053657416
:101B400074696E67732053746F72656400290A00AC
:101B50002062797465733B2063726320005365745F
:101B600074696E67732053746F7265642028004532
:101B70004550524F4D20496E697469616C697A65B0
:101B8000640A0048617264636F646564204465663A
:101B900061756C742053657474696E6773204C6F43
:101BA000616465640020286D6D2900203B204C6530
:101BB00076656C696E67200020204D3432302053EA
:101BC000004175746F20426564204C6576656C69D0
:101BD0006E6700204A0020204732392057204900F4
:101BE00020204D3134392043203B20556E697473D9
:101BF00020696E2043656C736975730A0054656DC6
:101C0000706572617475726520556E697473002019
:101C100020473231203B004C696E65617220556E61
:101C200069747300454550524F4D2064617461736F
:101C3000697A65206572726F722E0A004572723A77
:101C400020454550524F4D204352430020286361A8
:101C50006C63756C6174656429210A0020213D2044
:101C600000454550524F4D20435243206D69736DDE
:101C700061746368202D202873746F726564292055
:101C800000454550524F4D20436F72727570740A73
:101C9000002053697A653A2000496E6465783A20DD
:101CA0000053746F7265642073657474696E677332
:101CB0002072657472696576656400290A00206285
:101CC000797465733B2063726320002073746F72B4
:101CD00065642073657474696E67732072657472CD
:101CE00069657665642028000000964300009643ED
:101CF00000004842000020420000A0420000A04234
:101D00000000C8430080DE43D0070000D007000079
:101D10006400000010270000204D61726C696E3D68
:101D2000563838290A00454550524F4D2076657285
:101D300073696F6E206D69736D61746368202845E7
:101D40004550524F4D3D0020436F756E7420583AF8
:101D500000004500626564002C2073797374656D22
:101D60002073746F707065642120486561746572BA
:101D70005F49443A20004572723A204D415854451B
:101D80004D50004D415854454D502074726967675D
:101D9000657265640048656174696E6720466169B3
:101DA0006C65640048656174696E67206661696C82
:101DB0006564004D353234004D3131322053687541
:101DC00074646F776E004572723A204D494E5445E7
:101DD0004D50004D494E54454D502074726967670F
:101DE0006572656400544845524D414C2052554E31
:101DF0004157415900546865726D616C2052756E8F
:101E00006177617900202F002042403A0020403A5B
:101E10000020573A0020573A002053004D31303609
:101E2000205000496E76616C696420657874727523
:101E30006465720A0020583A007C3C3E5E2B3D3FB0
:101E40002F5B5D3B2C2A225C0043616E6E6F742019
:101E50006F70656E20737562646972200053442050
:101E600063617264206F6B0A006F70656E526F6FF2
:101E700074206661696C65640A00766F6C756D65C7
:101E80002E696E6974206661696C65640A004E6F24
:101E900020534420636172640A002E0A006F70654B
:101EA0006E206661696C65642C2046696C653A2019
:101EB0000046696C652073656C65637465640A002F
:101EC0002053697A653A200046696C65206F706519
:101ED0006E65643A2000454E4420535542524F559A
:101EE00054494E450A002220706F73002220706111
:101EF00072656E743A2200535542524F5554494E02
:101F0000452043414C4C207461726765743A22004D
:101F100053756263616C6C204F766572666C6F7787
:101F2000004578636565646564206D61782053556C
:101F300042524F5554494E452064657074683A00CA
:101F400057726974696E6720746F2066696C653AB0
:101F500020004E6F74205344207072696E74696E55
:101F6000670A005344207072696E74696E6720625C
:101F70007974652000667265736800646F696E67C6
:101F8000002066696C653A20004E6F7720000A4D8C
:101F90003234004D3233202573002F6175746F2564
:101FA000632E670070012C0190012701B00122010E
:101FB000C0011D01F00118011002130130020E01D1
:101FC0006002090190020401C002FF000003FA0050
:101FD0004003F5008003F000D003EB002004E6008E
:101FE0007004E100E004DC004005D700C005D20029
:101FF0004006CD00D006C8008007C3003008BE00F0
:10200000F008B900C009B400B00AAF00B00BAA00D4
:10201000D00CA500000EA000500F9B00C010960031
:102020005012910000148C00C0158700B017820078
:10203000B0197D00D01B7800001E730040206E0098
:1020400090226900F024640040275F0090295A0024
:10205000E02B5500102E500020304B00103246006F
:10206000E033410090353C001037370070383200C3
:10207000A0392D00B03A2800A03B2300603C1E0090
:10208000103D1900903D1400103E0F00703E0A00F4
:10209000C03E0500003F0000403FFBFF803FF6FFD1
:1020A000C03FF1FF2020506C616E6E657242756614
:1020B00066657242797465733A20002046726565E0
:1020C000204D656D6F72793A200020436F6D706905
:1020D0006C65643A204F63742031342032303233DF
:1020E0000A00204C61737420557064617465643A11
:1020F00020323032332D30352D3136207C20417561
:1021000074686F723A20286467746168656E6F2C1A
:102110002047656E697573290A004D61726C696E9E
:1021200020322E312E322E310A0020536F66747702
:102130006172652052657365740A0020576174638B
:1021400068646F672052657365740A002042726F7D
:10215000776E206F75742052657365740A00204590
:10216000787465726E616C2052657365740A0050F4
:102170006F77657255700A0073746172740A004754
:1021800032385859004D31303031006F6B00657274
:10219000726F722077726974696E6720746F20663F
:1021A000696C650A00446F6E6520736176696E67BD
:1021B0002066696C652E0A004D32390020503A00C5
:1021C000205A3A0020593A0020583A00656E64734C
:1021D000746F7073206869743A200000000A0B0263
:1021E000090C0D0E080703040100000000000000A8
:1021F00000000000000000000000000000000000DF
:10220000000000000000001211100000000000009B
:1022100000000000000000000000000000000000BE
:102220000024F404D9201BC40C5C0E9804C4095F7C
:102230000265077101F405F900FB04B30048048747
:1022400000C10369005803550003034500BE023A6C
:10225000008402310053022A0029022500040220D2
:1022600000E4011C00C8011900AF01170098011417
:102270000084011300710110006101100051010E72
:102280000043010D0036010B002B010B0020010B58
:1022900000150109000C01090003010800FB0008FA
:1022A00000F3000800EB000700E4000600DE000673
:1022B00000D8000600D2000600CC000500C70005CB
:1022C00000C2000500BD000400B9000400B5000410
:1022D00000B1000400AD000400A9000400A5000343
:1022E00000A20003009F0004009B0003009800036D
:1022F000009500020093000300900003008D00028F
:10230000008B0003008800020086000200840003A6
:1023100000810002007F0002007D0002007B0002BD
:1023200000790002007700010076000200740002CC
:102330000072000100710002006F0002006D0001D8
:10234000006C0002006A00010069000200670001E1
:1023500000660001006500010064000200620001E7
:102360000061000100600001005F0002005D0001EB
:10237000005C0001005B0001005A000100590001EF
:1023800000580001005700010056000100550001EF
:1023900000540001005300000053000100520001EE
:1023A0000051000100500001004F0001004E0000EC
:1023B000004E0001004D0001004C0001004B0000E8
:1023C000004B0001004A00010049000100480000E4
:1023D00000480001004700010046000000460001DF
:1023E00000450000004500010044000100430000DA
:1023F00000430001004200000042000100410000D3
:102400000041000100400001003F0000003F0001CA
:10241000003E0000003E0001003D0000003D0001C4
:10242000003C0000003C0000003C0001003B0000BC
:10243000003B0001003A0000003A000100390000B2
:1024400000390001003800000038000000380001A9
:1024500000370000003700010036000000360000A1
:102460000036000100350000003500000035000195
:10247000003400000034000000340001003300008C
:102480000033000000330001003200000032000081
:102490000032000100310000003100000031000175
:1024A000003000000030000000300001002F00006C
:1024B000002F0000002F0000002F0001002E000060
:1024C000002E0000002E0001002D0000002D000055
:1024D000002D0000002D0001002C0000002C000049
:1024E000002C0000002C0001002B0000002B00003D
:1024F000002B0000002B0001002A0000002A000031
:10250000002A0000002A0001002900000029000024
:102510000029000000290000002900010028000017
:10252000002800000028000000280000002800010A
:1025300000270000002700000027000000270000FF
:1025400000270001002600000026000000260000F1
:1025500000260000002600010025000000250000E4
:1025600000250000002500000025000000250001D6
:1025700000240000002400000024000000240000CB
:1025800000240001002300000023000000230000BD
:1025900000230000002300000023000000230001AE
:1025A00000220000002200000022000000220000A3
:1025B0000022000000220001002100000021000094
:1025C0000021000000210000002100000021000087
:1025D0000021000100200000002000000020000079
:1025E000002000000020000000200000002000006B
:1025F00000200001001F0000001F0000001F00005D
:10260000001F0000001F0000001F0000001F00014D
:10261000001E0000001E0000001E0000001E000042
:102620000024F4D43050C38E20C2A24017828B7095
:1026300011127A910D816CD90AA861E108C7586618
:1026400007615143061E4B5D05C145A7041A4111A0
:1026500004093D9803713931034036DB026533913B
:1026600002D4305402802E1D02632CEE01752AC55F
:1026700001B028A001102781018F2564012B244B74
:1026800001E0223401AC211F018D200D01801FFCCF
:1026900000841EED00971DDF00B81CD200E61BC6AB
:1026A00000201BBC00641AB200B219A8000A19A0CD
:1026B000006A189900D117910040178B00B5168455
:1026C0000031167E00B31579003A157300C7146FF8
:1026D0000058146A00EE1366008813630025135E29
:1026E00000C7125B006C12570015125400C1115143
:1026F0000070114F0021114B00D61049008D10477A
:10270000004610440002104200C00F4000800F3EFF
:1027100000420F3C00060F3B00CB0E3800930E37F3
:10272000005C0E3500270E3400F30D3200C10D3170
:1027300000900D3000600D2E00320D2D00050D2C87
:1027400000D90C2B00AE0C2900850C29005C0C274D
:1027500000350C27000E0C2600E80B2400C40B24C7
:1027600000A00B23007D0B23005A0B2100390B2105
:1027700000180B2000F80A1F00D90A1E00BB0A1E11
:10278000009D0A1D00800A1D00630A1C00470A1BE9
:10279000002C0A1B00110A1A00F7091A00DD09199A
:1027A00000C4091900AB091900920917007B091828
:1027B00000630917004C0916003609160020091697
:1027C000000A091500F5081500E0081400CC0814EB
:1027D00000B8081400A4081400900813007D081223
:1027E000006B081300580812004608120034081144
:1027F00000230811001208110001081100F0071051
:1028000000E0071000D0071000C0071000B0070F4D
:1028100000A107100091070E0083070F0074070F37
:102820000065070E0057070E0049070E003B070D15
:10283000002E070E0020070D0013070D0006070DE0
:1028400000F9060C00ED060D00E0060C00D4060CA5
:1028500000C8060C00BC060C00B0060C00A4060B59
:102860000099060C008D060B0082060B0077060B04
:10287000006C060B0061060A0057060B004C060AA6
:102880000042060A0038060A002E060A0024060A3C
:10289000001A060A001006090007060A00FD0509CD
:1028A00000F4050900EB050900E2050900D9050956
:1028B00000D0050900C7050900BE050900B50508D7
:1028C00000AD050800A50509009C05080094050851
:1028D000008C050800840508007C050800740508C4
:1028E000006C050700650508005D05070056050832
:1028F000004E05070047050700400508003805079A
:1029000000310507002A050700230507001C0506FE
:1029100000160507000F0507000805060002050759
:1029200000FB040600F5040700EE040600E80406B8
:1029300000E2040700DB040600D5040600CF04060D
:1029400000C9040600C3040600BD040600B704065F
:1029500000B1040500AC040600A6040600A00405AE
:10296000009B04060095040500900406008A0405F7
:102970000085040500800406007A0405007504053E
:1029800000700405006B0405006604050061040581
:10299000005C04050057040500520405004D0405C1
:1029A0000048040500430405003E0404003A040501
:1029B0000035040500300404002C0405002704043D
:1029C00000230405001E0404001A04040016040574
:1029D00000110404000D04040009040500040404AB
:1029E0000000040400FC030400F8030400F40304E2
:1029F00000F0030400EC030400E8030400E4030413
:102A000000E0030400DC030400D8030400D4030442
:102A100000D0030400CC030400C8030300C5030373
:102A200000281F00007A170000BC0F00007B09007F
:102A30000047050000CC02000071010000BB00004F
:102A4000004572726F722077726974696E672074C4
:102A50006F20454550524F4D210A00DB0FC93F45BD
:102A6000BCDA3F8FB30240FCF0274056946140FE31
:102A70004B9B4084A5D840E0231841346A5641E876
:102A800059974164DBD5416E271742B4B75542CE02
:102A90001A9742C8AED542B5885A43D40684BFA619
:102AA0005FA7BF7443E0BF10B11AC01C2C58C0E828
:102AB000F697C0B849D6C04E4E17C124D355C18031
:102AC0002497C1A0B5D5C1121A17C244AE55C27819
:102AD0001797C26CACD5C267885AC320746F6F2039
:102AE0006C6F6E6720657874727573696F6E207095
:102AF000726576656E7465640A0020636F6C64208D
:102B0000657874727573696F6E2070726576656E24
:102B10007465640A0073686F7700626567696E00A8
:102B200050757267654D6F726500506175736564AD
:102B300000436F6E74696E7565004C6F616420466A
:102B4000696C616D656E74205400496E73657274B2
:102B50002066696C616D656E7420616E64207365BA
:102B60006E64204D3130380A0053656E64204D315B
:102B7000303820746F20726573756D650A00496E78
:102B8000736572742066696C616D656E7420616E28
:102B9000642073656E64204D3130380A00526568D8
:102BA00065617420446F6E65005265686561746983
:102BB0006E672E2E2E00526568656174004865614F
:102BC0007465722054696D656F75740053656E6429
:102BD000204D31303820746F2068656174206E6F2D
:102BE0007A7A6C650A004E6F7A7A6C652050617251
:102BF0006B656400726573756D6564004469736D1F
:102C000069737300526573756D696E670050726FFA
:102C100062696E67204661696C65640A0050726F74
:102C200062696E67204661696C656400205A3A20CB
:102C30000020593A200042656420583A2000FFFFE6
:102C4000FF351E542D502D4C2D000022002500284C
:102C5000002B002E003100340002010000050108A5
:102C6000010B0100002100240027002A002D003064
:102C700000330001010000040107010A01050505F8
:102C800005070508080808020202020A0A080804E3
:102C90000404040101010101010101030303030311
:102CA000030303040707070C0C0C0C0C0C0C0C02A0
:102CB00002020206060606060606060B0B0B0B0BA7
:102CC0000B0B0B01021020200808102040102040A0
:102CD00080020102010804020101020408102040E0
:102CE00080804020100804020180040201804020FE
:102CF0001008040201080402010102040810204027
:102D0000800102040810204080204500205A002045
:102D1000590020204D3932205800537465707320BB
:102D200070657220756E697400220A00556E6B6EB4
:102D30006F776E20636F6D6D616E643A2022006F55
:102D40006B0A00526573656E643A200020453A00B4
:102D5000205A3A0020593A00583A00706F7765724D
:102D60006F6666005072696E7465722068616C747B
:102D700065642E206B696C6C28292063616C6C651E
:102D800064210A006CE3EEEC11241FBECFEFD1E208
:102D9000DEBFCDBF00E00CBF84B78093611D14BEC1
:102DA0000FB6F894A89580916000886180936000C8
:102DB000109260000FBE13E0A0E0B2E0EEE0F8EF8A
:102DC00001E00BBF02C007900D92AA37B107D9F7F7
:102DD0002DE1AAE7B3E001C01D92A136B207E1F7E9
:102DE00016E1C3ECD6E100E006C021970109802F6F
:102DF000FE010E9492F8C23CD10780E00807A9F7C3
:102E00000E94D0E40C94F6FB0C9400002091150471
:102E1000833021F425FD0CC024FD0CC030E0A90155
:102E200002C0559547958A95E2F7CA0181700895C9
:102E300081E0089580E008958091300484FD0BC006
:102E40008091320487FD07C090913304937081E034
:102E500019F480E0089581E00895CF92DF92EF9217
:102E6000FF92CF93DF93EC01CC80DD80EE80FF807A
:102E700022ED30E040EA50ECC701B6010E94E4FACE
:102E800087FD23C027E030E046E653E4C701B601E2
:102E90000E94EBF11816CCF0C880D980EA80FB8044
:102EA00023EA31E040E050ECC701B6010E94E4FAA9
:102EB00087FD0BC0C1E027E030E04CE553E4C701DB
:102EC000B6010E94EBF118160CF4C0E08C2FDF91D4
:102ED000CF91FF90EF90DF90CF900895682F70E032
:102EE00090E080E00E94F1F1209157043091580465
:102EF0004091590450915A040E9450F220914F047D
:102F00003091500440915104509152040C94BDF8FA
:102F1000682F70E090E080E00E94F1F1209153046E
:102F20003091540440915504509156040E9450F23F
:102F300020914B0430914C0440914D0450914E042B
:102F40000C94BDF880914A0481110EC020911B029F
:102F500030911C022150310981E04091901850912C
:102F60009118421753070CF080E008958F929F92BA
:102F7000AF92BF92CF92DF92EF92FF92FC018281DB
:102F800058E5C52E52E0D52EC81AD10887FDD39436
:102F9000CC0CDD1CCC0CDD1C0D2C000CEE08FF084D
:102FA000818178E8872E912C881A910887FD939467
:102FB000880C991C880C991C092C000CAA08BB08C9
:102FC00080818F3FD1F190E0FC01EE0FFF1FE80FF1
:102FD000F91FE852F74E8181928133E0880F991FE3
:102FE0003A95E1F7B0E0A0E044E0B595A795979554
:102FF00087954A95D1F702969C012F5F3F4F032E8C
:10300000000C440B550B281939094A095B09A4EB3C
:10301000B0E00E9453F8A7019601281939094A091E
:103020005B090E9437F8C901FF90EF90DF90CF90C5
:10303000BF90AF909F908F90089590E080E0DCCF9C
:103040000F931F93CF93DF9300D01F92CDB7DEB7BE
:103050009C010EE115E190E1EFE5F2E0D80101906D
:103060000D929A95E1F7F9012081318142815381D6
:10307000F80160857185828593850E94BDF8F8010D
:10308000608771878287938780E090E0A0EAB0E450
:1030900089839A83AB83BC83CE0101960E94D0A31F
:1030A0000F900F900F900F90DF91CF911F910F9184
:1030B00008952F923F924F925F926F927F928F92DC
:1030C0009F92AF92BF92CF92DF92EF92FF921F93A7
:1030D000CF93DF93CDB7DEB72C970FB6F894DEBF52
:1030E0000FBECDBF7A011901DC012D913D914D91AB
:1030F0005C912D833E834F835887FB014080518034
:103100006280738080905F0290906002A090610264
:10311000B0906202A50194016D817E818F819885B6
:103120000E94EBF181110EC011E0A30192016091A8
:1031300063027091640280916502909166020E9420
:10314000EBF1811110E0D1012D913D914D915C91F8
:1031500029873A874B875C87F701C080D180E2805E
:10316000F3802091020230910302409104025091B9
:103170000502C701B6010E94EBF1882309F44EC095
:10318000C0920202D0920302E0920402F092050281
:1031900080916B0290916C02A0916D02B0916E02D1
:1031A00040916302509164026091650270916602E1
:1031B00080921E1590921F15A0922015B092211595
:1031C0004093221550932315609324157093251571
:1031D000C0922615D0922715E0922815F092291555
:1031E00080932A1590932B15A0932C15B0932D1531
:1031F00020E030E040E05FE360915A1570915B158C
:1032000080915C1590915D150E9450F269837A83DC
:103210008B839C83CE0101960E94D0A32D813E8199
:103220004F81588520931E1530931F15409320150C
:103230005093211540922215509223156092241527
:1032400070922515D1012D913D914D915C91609128
:103250002A1570912B1580912C1590912D150E9497
:10326000BDF860932A1570932B1580932C159093BD
:103270002D1511112FC020E030E0A90169857A8554
:103280008B859C850E94EBF1811133C060E070E07A
:1032900088EC92E469837A838B839C83CE010196C8
:1032A0000E94D0A32C960FB6F894DEBF0FBECDBF00
:1032B000DF91CF911F91FF90EF90DF90CF90BF9063
:1032C000AF909F908F907F906F905F904F903F90C6
:1032D0002F9008952AEF3EE74AE25FE360915E1582
:1032E00070915F1580916015909161150E9450F268
:1032F000D1CF60E070E080EA91E4CCCF80911004FF
:1033000090911104009731F04AE050E070E060E0E5
:103310000C944BF060E070E0CB0108950F931F9385
:10332000CF93DF9300D000D01F921F92CDB7DEB7AE
:103330008B01FC0123A5211102C00E94C8C21D827D
:103340001E821F82188620E030E040E05FE360913B
:103350006702709168028091690290916A020E94EE
:10336000BDF869837A838B839C839E012B5F3F4FDB
:10337000AE014F5F5F4F63E672E08FE592E099DE4A
:103380001D821E821F82188620E030E040E05FE34D
:10339000F80160857185828593850E94BDF86983F7
:1033A0007A838B839C83B8016C5F7F4F9E012B5F78
:1033B0003F4FAE014F5F5F4FC8017BDE28960FB6CF
:1033C000F894DEBF0FBECDBFDF91CF911F910F915B
:1033D00008958091100490911104009731F04AE013
:1033E00050E070E060E00C941FEF60E070E0CB0113
:1033F0000895EFDF97FD0AC0ECDF6F3F710581058F
:10340000910509F02CF4E5DF862F089580E00895FA
:103410008FEF08958091100490911104892B39F059
:10342000E8DF91E0811101C090E0892F089591E0DB
:10343000FCCFAF92BF92CF92DF92EF92FF920F93A9
:103440001F93CF935C016B018A0182559C4F7C01D5
:10345000DC01CC91C7FF3DC0FB0111821082CF5F20
:10346000D701CC93CC300CF053C08CE08A9DF00196
:103470008B9DF00D1124CF018C0F911DC7FD9A95E6
:10348000209120192817190609F00CF441C0F60103
:1034900020813181FC01EE0FFF1FE80FF91FE85278
:1034A000F74E81819281820F931FD80111969C93D0
:1034B0008E93808187FF3DC061E08F77CF911F9110
:1034C0000F91FF90EF90DF90CF90BF90AF900C9452
:1034D00044C88CE08A9DF0018B9DF00D1124CF0132
:1034E0008C0F911DC7FD9A95209120192817190658
:1034F00009F00CF4B4CFFC01EE0FFF1FE80FF91F29
:10350000E852F74E808160E08F770E9444C8A7CFD1
:10351000F6018081918104968034FCE99F0710F4C4
:1035200080E49CE9D80111969C938E938FEFF7016C
:103530008083CF911F910F91FF90EF90DF90CF90FC
:10354000BF90AF900895FC0165917591859194911C
:1035500008958091D109882319F080E00E942F8F6F
:1035600080E00895CF93DF93C0919018D091911887
:10357000209729F160918C1870918D1880918E1888
:1035800090918F180E9401FA6E5F7F4F26976C17FB
:103590007D07ACF47093FB046093FA040E9417CA91
:1035A000605C73468F4F9F4F6093FC047093FD04E3
:1035B0008093FE049093FF04DF91CF9108951092C1
:1035C000FC041092FD041092FE041092FF04F4CF4C
:1035D0009B01AC01485F5F4FBC016C5F7F4F69CDC1
:1035E0002F923F924F925F926F927F928F929F9213
:1035F000AF92BF92CF92DF92EF92FF920F931F9301
:10360000CF93DF93CDB7DEB7A6970FB6F894DEBFA2
:103610000FBECDBF8C011B015A87498740905F02C6
:10362000509060026090610270906202809063022C
:1036300090906402A0906502B0906602DB018D91CB
:103640009D910D90BC91A02D8B8B9C8BAD8BBE8BD7
:103650009C01AD01C301B2010E94BCF86B017C0169
:10366000D10114968D919D910D90BC91A02D8F8BC1
:10367000988FA98FBA8F9C01AD01C501B4010E943A
:10368000BCF86B8F7C8F8D8F9E8FA985BA858D91AD
:103690009D910D90BC91A02D8B879C87AD87BE8797
:1036A0009C01AD01C301B2010E94BCF86F8F78A3E9
:1036B00089A39AA3A985BA8514968D919D910D90A1
:1036C000BC91A02D8F87988BA98BBA8B9C01AD01E3
:1036D000C501B4010E94BCF86BA37CA38DA39EA37B
:1036E000A7019601C701B6010E9450F26B017C014F
:1036F0002B8D3C8D4D8D5E8DCA01B9010E9450F21B
:103700009B01AC01C701B6010E94BDF84B015C01F1
:103710002B893C894D895E896B857C858D859E854D
:103720000E94BCF82B013C012F89388D498D5A8DA0
:103730006F85788989899A890E94BCF86B017C0120
:10374000A3019201C301B2010E9450F22B013C017E
:10375000A7019601C701B6010E9450F29B01AC017E
:10376000C301B2010E94BDF80E942AFB6B017C01DB
:103770002F8D38A149A15AA1CA01B9010E9450F266
:103780002B013C012BA13CA14DA15EA1CA01B901B5
:103790000E9450F29B01AC01C301B2010E94BDF82E
:1037A0009B01AC01C501B4010E94E4FA1816ACF506
:1037B00020E030E0A901C701B6010E94E4FA87FFCA
:1037C00029C0C701B601905820E030E040EA50E43B
:1037D0000E94E4FA18160CF5A10169857A85C801E2
:1037E000FFDEA6960FB6F894DEBF0FBECDBFDF9109
:1037F000CF911F910F91FF90EF90DF90CF90BF90EE
:10380000AF909F908F907F906F905F904F903F9080
:103810002F900895C701B601D7CF20E030E040E0F7
:1038200050E4C501B4010E94E4FA18161CF4B10179
:10383000C80174DD19821A821B821C82BE016F5F6F
:103840007F4FC101C5DE2DEC3CEC4CEC5CE3C701C5
:10385000B6010E9450F29B01AC01F80160817181B8
:10386000828193810E9450F26D837E838F8398873B
:10387000D8019B968C919B978823C1F02AE939E95E
:1038800049E95FE314966D917D918D919C91179715
:103890000E9450F269837A838B839C83BE016F5FA1
:1038A0007F4F8EE195E194DEF80113A6BE016B5FB8
:1038B0007F4F89859A858CDE94CF4F925F926F926D
:1038C0007F928F929F92AF92BF92CF92DF92EF92B0
:1038D000FF920F931F93CF93DF93CDB7DEB7689717
:1038E0000FB6F894DEBF0FBECDBF7C01FB01808117
:1038F000C42EC80EF4E0FC1508F4A9C0FB01D18069
:10390000022F0D0D053008F0A2C0ED2DF0E0EC50B7
:10391000FC4FE081F0E0082E02C0F595E7950A948F
:10392000E2F7E0FF94C0E02FF0E0EC50FC4FE081C4
:10393000F0E00C2C02C0F595E7950A94E2F7E0FF61
:1039400086C0122F742EE4DA4B015C01672D660FDE
:10395000770B072E000C880B990B0E94F1F12B01BD
:103960003C01AC019B01C501B4010E94BDF86D870B
:103970007E878F87988B8C2DCBDAA30192010E94D2
:10398000BCF869837A838B839C838D2DA7DA4B01E6
:103990005C01612F660F770B072E000C880B990BCB
:1039A0000E94F1F12B013C01AC019B01C501B40166
:1039B0000E94BDF8698B7A8B8B8B9C8B802F8EDA63
:1039C000A30192010E94BCF86D837E838F83988748
:1039D000F70180859185A285B38589879A87AB8712
:1039E000BC878D8B9E8BAF8BB88F45EE50E06CEF14
:1039F0007FEFCE0141960E94C07645EE50E06CEF1D
:103A00007FEFCE0105960E94C0764BED50E06FEF40
:103A10007FEFCE010D960E94C0764BED50E06FEF28
:103A20007FEFCE0101960E94C076CE010D9615DA89
:103A3000882369F0CE01019610DA882341F0AE01A7
:103A40004F5F5F4FBE01635F7F4FC701C9DD68965F
:103A50000FB6F894DEBF0FBECDBFDF91CF911F919F
:103A60000F91FF90EF90DF90CF90BF90AF909F901D
:103A70008F907F906F905F904F900895CF93DF93DA
:103A8000C0916418D0916518209729F16091601851
:103A90007091611880916218909163180E9401FAE8
:103AA0006E5F7F4F24976C177D07ACF47093E7042B
:103AB0006093E6040E9417CA605A75418F4F9F4F6A
:103AC0006093E8047093E9048093EA049093EB0414
:103AD000DF91CF9108951092E8041092E9041092BA
:103AE000EA041092EB04F4CF74DCCB0108950F9339
:103AF0001F93CF938091100490911104009709F1C6
:103B0000FC018F01C1912C2F2F7DA1F0C53431F024
:103B1000C53621F0C83511F0C83799F7F801108281
:103B200070E060E00E94C9EDF801C083CF911F9161
:103B30000F91089570E060E0CF911F910F910C9468
:103B4000C9ED60E070E0CB01F1CF2FEB280F2A31F7
:103B500008F047C0E22FF0E08091300490913104EA
:103B6000A0913204B091330404C0B695A7959795FF
:103B700087952A95D2F780FD02C081700895EA5E8C
:103B8000FB4FE081EE2341F18091791590917A15F8
:103B9000E80FF92FF11D808190ED980F9A3030F0E9
:103BA0008E3251F4818180538A3098F4F09311045D
:103BB000E093100481E008958D3211F08B3249F4C6
:103BC000818190ED980F9A3088F38E3211F48281C2
:103BD000EACFF0E0E0E0EACF109211041092100476
:103BE000E9CF80E00895B1DF882341F081E02091A2
:103BF000100430911104232B09F480E00895CF9331
:103C0000DF93EB01F0DF882319F0DF91CF916CCFC8
:103C1000CE01DF91CF910895CF92DF92EF92FF9284
:103C20006A017B01E0DF882329F0FF90EF90DF90AD
:103C3000CF905DCFC701B601FF90EF90DF90CF909E
:103C400008954F925F926F927F92AF92BF92CF9200
:103C5000DF92EF92FF920F931F93CF9385EAA82EE6
:103C600082E0B82E9EE1E92E95E1F92E0FE512E0F3
:103C700026E0C22E28E1D22EC0E0F50181915F013D
:103C8000B2DF882309F476C032DF2B013C018C2F90
:103C9000BDD8882309F464C0F801208131814281B4
:103CA0005381C301B2010E94BDF8F70160837183A3
:103CB00082839383CF5FF4E0EF0EF11C0C5F1F4F04
:103CC00084E0C80ED11CC330C1F685E48CDF8823A4
:103CD00009F45BC00CDF6B017C0183E097D888237B
:103CE00071F020916B0230916C0240916D02509105
:103CF0006E02C701B6010E94BDF86B017C01C09243
:103D00002A15D0922B15E0922C15F0922D1540E03B
:103D100050E0BA0186E480DF20E030E0A9010E9493
:103D2000E4FA18167CF4E3DE20E030E040E752E4E9
:103D30000E9499F960935B0270935C0280935D022C
:103D400090935E02CF911F910F91FF90EF90DF90C3
:103D5000CF90BF90AF907F906F905F904F900895FD
:103D6000F6012081318142815381C301B2010E9459
:103D7000BCF89BCFF80180819181A281B381F701CA
:103D800080839183A283B38395CF80916B029091BE
:103D90006C02A0916D02B0916E0280932A159093EF
:103DA0002B15A0932C15B0932D15B1CFCF93C62F03
:103DB0001ADF882311F0CF911CCB8C2FCF9108955F
:103DC000CF93DF93C82FD62F0EDF882319F0DF9112
:103DD000CF9120CB8C2FB9DE811101C08D2FDF91C7
:103DE000CF9108958F929F92AF92BF92CF92DF9220
:103DF000EF92FF92CF93DF93CDB7DEB760970FB608
:103E0000F894DEBF0FBECDBF80E090E0A6EEB2E436
:103E10008D839E83AF83B8878D879E87AF87B88B4E
:103E2000E0913019F091311980809180A280B380A7
:103E300020E030E040E050E4C501B4010E94BCF84D
:103E40006B017C0120E030E040E251E40E94EBF1A4
:103E500087FF06C0C12CD12C90E2E92E91E4F92E07
:103E6000C982DA82EB82FC8220E030E04CE553E448
:103E7000C501B4010E94BDF86B017C0120E030E077
:103E800042E553E40E94E4FA181634F4C12CD12C14
:103E900082E5E82E83E4F82EC986DA86EB86FC8676
:103EA00080E1FE013196A8E6B4E001900D928A957A
:103EB000E1F760960FB6F894DEBF0FBECDBFDF917D
:103EC000CF91FF90EF90DF90CF90BF90AF909F90F9
:103ED0008F900895CF93DF93EC01688170E085E0C7
:103EE0000E94D0C8698170E084E00E94D0C86A81D5
:103EF00070E086E00E94D0C888819981482F490FE0
:103F00005527551F8A81840F952F911D21E08330FD
:103F100091050CF420E02093E50403974CF0888190
:103F20009981AA818093471990934819A0934919C0
:103F3000DF91CF9108958F929F92AF92BF92CF92CF
:103F4000DF92EF92FF92CF93DF9300D0CDB7DEB731
:103F50002FEF8417950731F16A01052E000CEE084A
:103F6000FF084C01092E000CAA08BB086817790746
:103F70002CF0CB01461757070CF4CA019C01990F8E
:103F8000440B550B281939094A095B09AFEFB0E01A
:103F90000E9453F8A7019601281939094A095B09BB
:103FA0000E9437F88091F504821751F02093F504B0
:103FB0008FEF89831A8220952B83CE0101968ADFA9
:103FC0000F900F900F90DF91CF91FF90EF90DF90C7
:103FD000CF90BF90AF909F908F9008958F929F92B7
:103FE000AF92BF92CF92DF92EF92FF92CF93DF9387
:103FF00000D0CDB7DEB72FEF8417950731F16A01F6
:10400000052E000CEE08FF084C01092E000CAA0832
:10401000BB08681779072CF0CB01461757070CF43B
:10402000CA019C01990F440B550B281939094A09FB
:104030005B09AFEFB0E00E9453F8A7019601281981
:1040400039094A095B090E9437F88091F504821703
:1040500049F02093F50429831A828FEF8B83CE01D8
:10406000019638DF0F900F900F90DF91CF91FF9066
:10407000EF90DF90CF90BF90AF909F908F9008957A
:10408000CF93C82F882379F020E030E0A901609118
:1040900053047091540480915504909156040E94E9
:1040A000EBF18823B9F0809116158C1799F00E94D6
:1040B00073778FE592E00E94D5788091161591E094
:1040C0008927809316158FE592E00E944378CF915F
:1040D0000C94B48ECF91089580E0D2DF10924F04FB
:1040E00010925004109251041092520410924B04FA
:1040F00010924C0410924D0410924E0410925704EA
:10410000109258041092590410925A0410925304B9
:10411000109254041092550410925604E8E7F4E00B
:104120002CED34E080E090E0A0ECBFE78083918349
:10413000A283B38384839583A683B7838087918783
:10414000A287B38784879587A687B787808B918B53
:10415000A28BB38B74962E173F0741F708954F92A9
:104160005F926F927F928F929F92AF92BF92CF9207
:10417000DF92EF92FF920F931F93CF93DF93EC01A7
:1041800020914B0430914C0440914D0450914E04C9
:10419000688179818A819B810E94BCF86B017C01D6
:1041A00020914F0430915004409151045091520499
:1041B0006C817D818E819F810E94BCF84B015C01E6
:1041C000A70196016091EC037091ED038091EE03DD
:1041D0009091EF030E94EBF1882309F45AC0C0923A
:1041E000EC03D092ED03E092EE03F092EF03209106
:1041F000E4033091E5034091E6035091E703C701E2
:10420000B6010E9450F22B013C010E9432FA6B0170
:104210007C0120E030E0A9010E94EBF187FD7AC02B
:1042200020E030E040E850E4C701B6010E94E4FA23
:10423000181634F4C12CD12CC0E8EC2EC0E4FC2EAE
:10424000A7019601C301B2010E94BCF82B013C01F9
:1042500020E030E0A9010E94EBF187FD5FC04092B1
:10426000DC035092DD036092DE037092DF03C7012E
:10427000B6010E9401FA6093DA03062E000C770B58
:104280006F5F7F4F6430710514F064E070E06093FD
:10429000D803D091D6031091DA03A501940160915F
:1042A000F0037091F1038091F2039091F3030E9467
:1042B000EBF181113CC0D11394C02091BE03309129
:1042C000BF034091C0035091C1036091DC03709122
:1042D000DD038091DE039091DF030E9450F2209174
:1042E000C2033091C3034091C4035091C5030E949F
:1042F000BDF8DF91CF911F910F91FF90EF90DF906C
:10430000CF90BF90AF909F908F907F906F905F9075
:104310004F900895C12CD12C760192CF1092DC03DE
:104320001092DD031092DE031092DF03A0CF809283
:10433000F0039092F103A092F203B092F303209164
:10434000E8033091E9034091EA035091EB03C50182
:10435000B4010E9450F24B015C010E9432FA6B01E1
:104360007C0120E030E0A9010E94EBF187FDFDC057
:1043700020E030E040E850E4C701B6010E94E4FAD2
:10438000181634F4C12CD12CB0E8EB2EB0E4FB2E7F
:10439000A7019601C501B4010E94BCF84B015C0164
:1043A00020E030E0A9010E94EBF187FDE2C080929D
:1043B000E0039092E103A092E203B092E303C7010D
:1043C000B6010E9401FA6093DB03062E000C770B06
:1043D0006F5F7F4F6430710514F064E070E06093AC
:1043E000D903C091DB03D11305C08091D7038C178B
:1043F00009F470C08091DA039091DB039093D703A6
:104400008093D6030C2E000CDD0B25E01203C001B7
:104410001124FC01EC0FFD1FEE0FFF1FEE0FFF1F1D
:10442000E858FB4F20813181428153812093D20390
:104430003093D3034093D4035093D5030091D90311
:10444000002E000C110BFC01E00FF11FEE0FFF1FFF
:10445000EE0FFF1FE858FB4F6081718182819381CD
:104460000E94BCF86093CE037093CF038093D00377
:104470009093D1032091D80335E02303F001112458
:10448000CE0FDF1FCC0FDD1FCC0FDD1FC858DB4F59
:10449000288139814A815B812093CA033093CB0301
:1044A0004093CC035093CD03E00FF11FEE0FFF1F9D
:1044B000EE0FFF1FE858FB4F60817181828193816D
:1044C0000E94BCF86093C6037093C7038093C8032F
:1044D0009093C9038090E0039090E103A090E203E1
:1044E000B090E3032091CE033091CF034091D003ED
:1044F0005091D103C501B4010E9450F22091D20322
:104500003091D3034091D4035091D5030E94BDF85C
:104510006B017C01C092C203D092C303E092C4033A
:10452000F092C5032091C6033091C7034091C803A0
:104530005091C903C501B4010E9450F22091CA03F1
:104540003091CB034091CC035091CD030E94BDF834
:10455000A70196010E94BCF86093BE037093BF034D
:104560008093C0039093C103A8CEC12CD12C7601B7
:104570000FCF1092E0031092E1031092E203109229
:10458000E3031DCFECEEF3E080EF9FEFA9E7B4EC7F
:1045900084839583A683B78380839183A283B38327
:1045A000E6EDF3E08DE98183808308958F929F92F9
:1045B000AF92BF92CF92DF92EF92FF92FC0198E010
:1045C000A3E5B4E001900D929A95E1F788E0FB0134
:1045D000ABE4B4E001900D928A95E1F7C0905304EA
:1045E000D0905404E0905504F090560420E030E060
:1045F000A901C701B6010E94EBF18823E1F1A701EF
:10460000960160E070E080E89FE30E9499F96B01F9
:104610007C018090570490905804A0905904B09069
:104620005A0420E030E0A901C501B4010E94EBF179
:10463000882329F1A501940160E070E080E89FE300
:104640000E9499F9C092E403D092E503E092E60358
:10465000F092E7036093E8037093E9038093EA0321
:104660009093EB03FF90EF90DF90CF90BF90AF90CF
:104670009F908F900895C12CD12C7601CACF60E015
:1046800070E0CB01DFCFCF92DF92EF92FF926B0110
:104690007C0183E3C816D104E104F10470F082E3E5
:1046A000C81AD108E108F10862E370E080E090E008
:1046B0000E947DC90E941A9FECCFC701B6010E94DB
:1046C0007DC9FF90EF90DF90CF900C941A9F4F928E
:1046D0005F926F927F92AF92BF92CF92DF92EF92F2
:1046E000FF920F931F93CF93DF9300D000D01F92C0
:1046F0001F92CDB7DEB75C0180E090E0A0E7B2E4A6
:1047000089839A83AB83BC8380E090E0A0E5B1EC21
:104710008D839E83AF83B887BE016F5F7F4FCE01CD
:1047200005960E94208E68E873E180E090E0ABDFA0
:10473000C12CD12C88ECE82E81E4F82EC982DA82D3
:10474000EB82FC8280E090E0A8EAB1E48D839E8356
:10475000AF83B887BE016F5F7F4FCE0105960E9481
:10476000208E0EE215E1F80140AC51AC62AC73ACA6
:10477000C0AED1AEE2AEF3AE80E090E0A0E2B1E434
:1047800089839A83AB83BC83F50180819181A28167
:10479000B3818D839E83AF83B887BE016F5F7F4FE8
:1047A000CE0105960E94208EF80140AE51AE62AE59
:1047B00073AE0E94347364E670E080E090E063DFE3
:1047C00081E028960FB6F894DEBF0FBECDBFDF9113
:1047D000CF911F910F91FF90EF90DF90CF90BF90FE
:1047E000AF907F906F905F904F9008959091551982
:1047F00094FB882780F994FF06C081E090911718F8
:10480000911101C080E0089581E00895DC01EC91F0
:104810008E2F90E0FC01EE0FFF1FE80FF91FE8520A
:10482000F74E80818F7780830895CF93DF93EC01DB
:10483000E62F660FFF0BE552FE4DE491E250E131A9
:1048400008F0B0C0F0E08827E75DFB4D8F4F0C9477
:1048500092F83A24D224D224D224D22464244624A6
:10486000882486246624AC24AA248A24D224D02432
:10487000CE24AE2482E1E3E7F2E0DE0101900D9266
:104880008A95E1F7CE01DF91CF91089581E020EB89
:1048900030E03983288321EB30E03B832A831D827B
:1048A0001C8223EB30E03F832E8324EB30E03987FA
:1048B00028871B861A861D861C8692E09E878F8716
:1048C00081E0888B198ADECF80E0E1CF81E08F5FC5
:1048D00020E930E03983288321E930E03B832A83D3
:1048E00022E930E03D832C8328E930E03F832E83AA
:1048F0002AE930E0398728872CE930E03B872A878E
:1049000026E930E03D872C8793E0D8CF80E0DFCFE9
:1049100080E0DECF81E08F5F20EA30E039832883BA
:1049200021EA30E03B832A8322EA30E03D832C8376
:1049300028EA30E03F832E832AEA30E0398728874F
:104940002CEA30E03B872A8726EA30E03D872C8737
:1049500094E0B4CF80E0DFCF80E0DECF81E08F5FF6
:1049600020E231E03983288321E231E03B832A834E
:1049700022E231E03D832C8328E231E03F832E8325
:104980002AE231E0398728872CE231E03B872A8709
:1049900026E231E03D872C8795E090CF80E0DFCFA5
:1049A00080E0DECF82E1FE0111928A95E9F76ACFBD
:1049B000009719F0019789F008951092900082E015
:1049C000809391001092950010929400C19A80916A
:1049D000710082608093710008951092A00082E0BF
:1049E0008093A1001092A5001092A40089BB80932F
:1049F000720008957F928F929F92AF92BF92CF9252
:104A0000DF92EF92FF920F931F93CF93DF93EC010E
:104A10007B018881883108F0C1C090E0FC01EE0F75
:104A2000FF1FE80FF91FE852F74E80818F770E9431
:104A3000A9C219821A8288812CE0622F0E9472F822
:104A4000829FB001112430E020E0AB01420F531FE0
:104A5000FA01EE0FFF1FE40FF51FE852F74E9081A9
:104A600097FD07C02F5F3F4F2C30310571F790E065
:104A70009FDF7880072D10E06801CC0CDD1CF6016B
:104A8000E00FF11FE852F74E80818068808377FC49
:104A900085C080E2E81682E0F8060CF03FC08A810B
:104AA00028E532E0281B310987FD3395220F331F9B
:104AB000220F331F032E000C440B550B898178E81D
:104AC000872E912C881A910887FD9394880C991C45
:104AD000880C991C092C000CAA08BB0860E070E047
:104AE000CB01F7FC0AC0B701653B710514F064EB1C
:104AF00070E0072E000C880B990B281939094A0918
:104B00005B090E9406F824EB30E040E050E00E9490
:104B100037F8820E931EA41EB51E740187E1871517
:104B2000D8F0298188E890E0821B910927FD9395B0
:104B3000880F991F880F991FE816F906FCF4029751
:104B40002FB7F894E601C00FD11FC852D74E880F77
:104B5000991F9A8389832FBF62E370E080E090E021
:104B6000DF91CF911F910F91FF90EF90DF90CF9049
:104B7000BF90AF909F908F907F9085CD2A8188E5E0
:104B800092E0821B910927FD9395880F991F880F4A
:104B9000991FE816F9069CF6C701D1CFDF91CF9196
:104BA0001F910F91FF90EF90DF90CF90BF90AF904B
:104BB0009F908F907F9008950F931F93CF93C82F4E
:104BC0008B0181E299E10E94B617C817A9F06C2FFA
:104BD00070E081E299E10EDFF801608171818281EC
:104BE0009381643FF1E07F078105910520F464EF34
:104BF00071E080E090E047DD89B182FB882780F991
:104C0000CF911F910F910895CF93DF9300D01F9202
:104C1000CDB7DEB78EEE92E0A0E0B0E089839A8354
:104C2000AB83BC83BE016F5F7F4F8AE5C5DF0F900A
:104C30000F900F900F90DF91CF910895CF93DF9356
:104C400000D01F92CDB7DEB78EEE92E0A0E0B0E0CC
:104C500089839A83AB83BC83BE016F5F7F4F8AE0F9
:104C6000ABDF0F900F900F900F90DF91CF910895D1
:104C7000CF93DF9300D01F92CDB7DEB784EF91E0E2
:104C8000A0E0B0E089839A83AB83BC83BE016F5FF1
:104C90007F4F80EA91DF0F900F900F900F90DF9180
:104CA000CF910895CF92DF92EF92FF921F93CF930F
:104CB000DF9300D01F92CDB7DEB78EEEC82E82E014
:104CC000D82EE12CF12CC982DA82EB82FC82BE0163
:104CD0006F5F7F4F8AE570DF81110EC010E0812F7A
:104CE0000F900F900F900F90DF91CF911F91FF9039
:104CF000EF90DF90CF900895BBDFC982DA82EB821C
:104D0000FC82BE016F5F7F4F8AE556DF182F882334
:104D100029F30E945190E3CFCF92DF92EF92FF925E
:104D20001F93CF93DF9300D01F92CDB7DEB78EEEE7
:104D3000C82E82E0D82EE12CF12CC982DA82EB82D7
:104D4000FC82BE016F5F7F4F8AE036DF81110EC0AB
:104D500010E0812F0F900F900F900F90DF91CF9167
:104D60001F91FF90EF90DF90CF90089581DF4CDF8F
:104D700065DF4ADFC982DA82EB82FC82BE016F5FA7
:104D80007F4F8AE019DF182F882311F30E9451907A
:104D9000E0CF1F920F920FB60F9211240BB60F9215
:104DA0002F933F934F935F936F937F938F939F9333
:104DB000AF93BF93EF93FF9348EA50E064EA70E04B
:104DC00081E090E00E94191AFF91EF91BF91AF919D
:104DD0009F918F917F916F915F914F913F912F9113
:104DE0000F900BBE0F900FBE0F901F9018951F9243
:104DF0000F920FB60F9211240BB60F922F933F9381
:104E00004F935F936F937F938F939F93AF93BF93D2
:104E1000EF93FF9348E950E064E970E090E080E0B0
:104E20000E94191AFF91EF91BF91AF919F918F91BD
:104E30007F916F915F914F913F912F910F900BBE9A
:104E40000F900FBE0F901F9018959091C10095FD87
:104E50000CC09091C00095FF08C08093C60080915F
:104E6000C00080648093C000089520918C032F5F60
:104E70002F710FB607FC27C090918D03921328C0A5
:104E80009091C00095FF1EC090918D0340918C03BE
:104E9000941306C09091C1009F7D9093C10012C0F1
:104EA000E92FF0E0E457FC4F32819F5F9F71309310
:104EB000C60090938D033091C00030643093C000E1
:104EC000491741F3D9CF90918D03921301C0FBCFC5
:104ED000E0918C03F0E0E457FC4F828320938C0335
:104EE0008091C10080628093C1000895CF93DF93C9
:104EF000EC01FE0184912196882311F0A6DFF9CF01
:104F0000DF91CF910895E091651681E6E89FF00169
:104F10001124E953F94E8081811105C08BE891E29B
:104F2000E5DF8AE092CF0895AF92BF92CF92DF92F1
:104F3000EF920F931F93CF93DF935B01EA01690117
:104F4000882309F45AC08CE39BE0D0DFF50160812F
:104F500071818281938146E00E9459BFE1100AC0AD
:104F600083E39BE0C3DF688179818A819B8146E08E
:104F70000E9459BF8CE29BE0B9DFF601608171812C
:104F80008281938143E00E9459BF85E29BE0AEDFBE
:104F9000F801608171818281938143E00E9459BF51
:104FA0008CE19BE0A3DFF6012081318142815381B6
:104FB000F80160817181828193810E94BCF843E095
:104FC0000E9459BFEE20D9F08AE03FDF87E09BE0E6
:104FD0008DDF688179818A819B8146E00E9459BF7B
:104FE0008AE033DF8AE0DF91CF911F910F91EF903C
:104FF000DF90CF90BF90AF9028CFE110E7CFDF9147
:10500000CF911F910F91EF90DF90CF90BF90AF9015
:1050100008950F931F93CF938C01C62F8DE994E0D1
:1050200065DFC80163DFCC2329F08AE0CF911F91AF
:105030000F910BCFCF911F910F9108950F931F9355
:10504000CF938C01C62F60E080EC9DE0E2DFC801C9
:105050004DDFCC2329F08AE0CF911F910F91F5CE3F
:10506000CF911F910F91089561E083EC94E0E6CF1A
:10507000CF93DF93EC0160E080EC9DE0CADF87EC2A
:1050800094E034DF80E2E1DECE0130DF8AE0DF91C0
:10509000CF91DBCEDF92EF92FF920F931F93CF93CE
:1050A000DF93D82E7B018A01E901DEDFD092F11473
:1050B00060E08AE19BE2C2DF80E2C7DEC70116DF63
:1050C0008AE0C3DE0115110511F0C801D1DF209778
:1050D00011F0CE01CDDF61E085E19BE2DF91CF9160
:1050E0001F910F91FF90EF90DF90A8CF30E020E06C
:1050F00041E35BE2BC0182E0CDCF811105C08DE7C9
:1051000094E0F4DE8AE0A1CE81E894E0FACF86E76D
:1051100094E0ECCE80E794E0E9CE811101C0FACFB3
:105120000895CF9384E50E94F31DC0E08823E9F041
:105130000E94F919C82F1816C4F4ECDF8DE485DE3F
:10514000609136047091370490E080E00E94D5BEF3
:105150008EE49DE0CBDE6C2FCC0F770B880B990B88
:105160000E943FBF8AE071DECFEF8C2FCF91089570
:105170000F931F93CF93811111C0C42F8B01CADFEE
:105180008BE49DE0B3DEC801B1DECC2339F08AE3C5
:105190005CDE8AE0CF911F910F9157CECF911F9186
:1051A0000F910895CF92DF92EF92FF926A017B01F7
:1051B0009DDE44E0C701B601FF90EF90DF90CF90F5
:1051C0000C9459BFCF93DF93C82F41E060E87CE097
:1051D000CFDF8C2FA2DFC8E8D8E148A159A16AA18E
:1051E0007BA187E79CE0DEDF21E732EB47E25EE36D
:1051F0006CA17DA18EA19FA10E9499F9AB01BC0178
:1052000084E79CE0CFDF21E732EB47E25EE368A56D
:1052100079A58AA59BA50E9450F2AB01BC0181E74C
:105220009CE0C0DF8AE0DF91CF910FCEBBDF8AE048
:105230000CCE0F931F93CF93DF93C82F6EEB7CE0C0
:105240000E943EC206EC18E1F80140815181628162
:10525000738183EB9CE0A6DFF80144815581668170
:10526000778180EB9CE0E2DF8C2F57DFC4EBD8E145
:10527000488159816A817B8185EA9CE093DF4C817A
:105280005D816E817F8182EA9CE0DF91CF911F91E9
:105290000F91CCCFCF92DF92EF92FF920F931F939B
:1052A000CF93DF9300D01F92CDB7DEB7409130048B
:1052B00050913104609132047091330441155105CD
:1052C0006105710579F481E0B4DF0F900F900F90C4
:1052D0000F90DF91CF911F910F91FF90EF90DF9092
:1052E000CF900895DB01CA0127E1B695A795979560
:1052F00087952A95D1F7472F55276627772741703D
:1053000055276627772780FD6DC000E0452B462B8B
:10531000472B09F06DC080959095A095B095182FFA
:10532000117001E084E40E94A51D882351F10E94C0
:10533000771D6B017C01C982DA82EB82FC8220E05E
:1053400030E0A9010E94E4FA87FD54C020E030E07B
:1053500040E85FE3C701B6010E94EBF118160CF4B8
:1053600049C0002331F0BE016F5F7F4F80E00E9493
:10537000F371112331F0BE016F5F7F4F81E00E9416
:10538000F37186E40E94A51D882309F49ECF0E9434
:10539000771D6B017C01C982DA82EB82FC8220E0FE
:1053A00030E0A9010E94EBF1882351F028EE35E2AC
:1053B00044E751E4C701B6010E94E4FA1816FCF470
:1053C000002331F0BE016F5F7F4F80E00E949F7726
:1053D000112309F47ACFBE016F5F7F4F81E00E94F5
:1053E0009F7773CF452B462B472B09F494CF01E0D1
:1053F00011E098CF8FDE83E09DE078DDC2CF48EEEC
:1054000055E264E771E48EED9CE0CCDE8CEC9CE030
:105410006DDD5BCFCF93DF936AE97CE00E943EC2F3
:10542000CCE5D8E148A159A16AA17BA181E99CE022
:10543000B9DE21E732EB47E25EE36CA17DA18EA1EC
:105440009FA10E9499F9AB01BC018EE89CE0AADE05
:1054500021E732EB47E25EE368A579A58AA59BA523
:105460000E9450F2AB01BC018BE89CE0DF91CF9130
:10547000DDCE6CE17CE00E943EC260913E157091F1
:105480003F1580914015909141150E94EFF1AB01BD
:10549000BC0183E19CE086DE40916E1550916F1552
:1054A000609170157091711580E19CE07BDE4091F8
:1054B00072155091731560917415709175158DE08A
:1054C0009CE070DE4091E4095091E5096091E609A5
:1054D0007091E7098AE09CE0A9CECF93DF9360EC5E
:1054E0007BE00E943EC2CEE2D5E14CA95DA96EA947
:1054F0007FA987EB9BE056DE48AD59AD6AAD7BAD29
:1055000084EB9BE04FDE4CAD5DAD6EAD7FAD8DE0CD
:105510009CE0DF91CF918ACECF93DF936CE97BE063
:105520000E943EC2CEE2D5E14CA15DA16EA17FA159
:1055300083E99BE037DE48A559A56AA57BA58FE0E6
:105540009DE230DE4CA55DA56EA57FA58CE09DE2B9
:1055500029DE48A959A96AA97BA989E09DE2DF91C2
:10556000CF9164CECF93DF9367E77BE00E943EC28A
:10557000CEE2D5E1688179818A819B810E94EFF139
:10558000AB01BC018EE69BE00DDE6C817D818E81DE
:105590009F810E94EFF1AB01BC018FE09DE202DE32
:1055A000688579858A859B850E94EFF1AB01BC01F6
:1055B0008CE09DE2F7DD6C857D858E859F850E9460
:1055C000EFF1AB01BC0189E09DE2DF91CF912ECEDE
:1055D000CF9381110EC040E06CE57BE0C9DD809186
:1055E0006704811103C08FE49BE080DC8AE02DDC3E
:1055F00091DDC091670486E49BE078DC6C2F70E05D
:1056000090E080E00E943FBF4091630450916404A9
:10561000609165047091660483E49BE0CF9106CEAF
:10562000CF93DF93EB0162DCBE0190E080E0DF917D
:10563000CF910C94D5BECF93DF93EB0157DCBE0125
:10564000DD0F880B990BDF91CF910C943FBF1F9317
:10565000CF93DF93182F41E062EE79E089DD812F4F
:105660005CDD61E070E089ED99E0E5DFC8E6D4E05B
:10567000488159816A817B8182E29FE093DD4C8180
:105680005D816E817F818FE09DE2D0DD812F45DDE0
:1056900062E070E089ED99E0CEDF488559856A8542
:1056A0007B8582E29FE07EDD4C855D856E857F8512
:1056B0008FE09DE2DF91CF911F91B8CD17DC8AE09A
:1056C000C4CBCF93DF93C82F41E066E37DE050DD8C
:1056D0008C2F23DDCBE5D4E04C815D816E817F8111
:1056E0008DE29DE05FDD488159816A817B818AE29C
:1056F0009DE058DD87E29DE0F9DB85EA9BE1DF91E3
:10570000CF91DCCFCF93DF93EC0160E085EB94E0A9
:1057100080DCCE01DF91CF91D1CF2F923F924F927B
:105720005F926F927F928F929F92AF92BF92CF9231
:10573000DF92EF92FF920F931F93CF93DF93CDB73A
:10574000DEB7CC54D1090FB6F894DEBF0FBECDBF83
:105750002DB73EB73AAF29AF87E00E94F49C811184
:105760000AC061E086E50E94D61E8DA3853058F000
:1057700082EE9AE0BBDB49AD5AAD0FB6F8945EBF3E
:105780000FBE4DBF29C33DA1332319F082EC9AE02F
:10579000ADDB6AE080E50E94D61E8BA784508F3275
:1057A00018F08EE99AE0E6CF60E085E40E94E01E02
:1057B000882309F446C041E048AF009130191091A8
:1057C0003119D8012D913D914D915C9160915F020D
:1057D0007091600280916102909162020E94BDF816
:1057E000AB01BC0188E50E940C1E69877A878B8714
:1057F0009C87F8012481358146815781609163023D
:105800007091640280916502909166020E94BDF8D9
:10581000AB01BC0189E50E940C1E6D877E878F87D6
:10582000988BBE01635F7F4FCE0109960E940AC12B
:10583000382E811109C08AE89AE064DF82E79AE095
:1058400099CF53E058AFB9CF8CE40E94A51D182F13
:10585000882309F418C10E94F9198EA3803118F029
:105860008BE49AE087CFFEA1F13009F40EC160E02D
:1058700083E50E94E01E8BAF882321F0111102C046
:1058800037E03EA34DA1433018F081E39AE02EDBD0
:10589000509116155EAF80E00E9440200E94218D3D
:1058A0001D8A1E8A1F8A188E198E1A8E1B8E1C8EB8
:1058B00083EF9FE4A3ECB7E48D8F9E8FAF8FB8A3E7
:1058C00083EF9FE4A3ECB7EC89A39AA3ABA3BCA39B
:1058D0008DB79EB7BBA5A4E0BA9F8019910911248A
:1058E0000FB6F8949EBF0FBE8DBFEDB7FEB73196D1
:1058F000FDAFECAF01E02DA148ADBE01635F7F4F6E
:10590000CE0109960E94A5C39B01AC010E946CFBCD
:10591000811152C20E9417CA611571058105910556
:1059200011F00E94C0ED212C1CAA1DAA1EAA1FAABC
:105930002EA12150330B29963FAF2EAF29979BA55F
:10594000892F90E0B0E0A0E02D968CAF9DAFAEAF78
:10595000BFAF2D97A22DB0E0B8A7AFA3BBA52B1664
:1059600008F05BC2EEA1EE2309F44EC10E9471ED76
:105970002AE030E040E050E00E9437F80E94F1F168
:1059800020E030E040EA50E40E94E4FA0FEF1FEF1D
:10599000181614F001E010E00E9471ED28E631E0E5
:1059A00040E050E00E9437F80E94F1F12B013C01E9
:1059B0000E9471ED26E130E040E050E00E9437F8AF
:1059C0006B5F7F4F8F4F9F4F0E94F1F14B015C0146
:1059D000FDA1F430A9F4BC01A40183E29AE0E2DB6A
:1059E000B301A2018BE19AE0DDDB85E19AE07EDA8A
:1059F0000130110511F483E428DA81E19AE076DAC6
:105A0000312C9801110F440B550B27962CAF3DAF4D
:105A10004EAF5FAF279729964EAD5FAD29973416ED
:105A200015060CF0F1C027966CAD7DAD8EAD9FAD27
:105A300027970E94F1F16B017C015BAD552341F189
:105A4000AC019B010E94BDF820E030E040E952E447
:105A50000E9450F29B01AC01C301B2010E94BDF84B
:105A60002B013C0120E030E044EB53E40E94E4FAD7
:105A70001816FCF420E030E044EB53E4C301B2011B
:105A80000E94BCF8EDCF1EA2F2CE22E02EA3EFCEF4
:105A90000E9471ED24E130E040E050E00E9437F8D0
:105AA000675E7F4F8F4F9F4F0E94F1F1A7019601D4
:105AB000CFCF20E030E0A901C301B2010E94EBF199
:105AC00087FF0BC020E030E044EB53E4C301B20198
:105AD0000E94BDF82B013C01ECCF009130191091D0
